:020000040800F2
:10800000001600108D820008F95101083521010881
:10801000C55001083D930008FDAC010800000000B8
:10802000000000000000000000000000E9900108CE
:108030007FAF0008000000000D5801089996010864
:10804000A7820008A7820008A7820008416A0108E9
:10805000A7820008A7820008A782000801B80008CC
:1080600025B80008A7820008A7820008A782000898
:10807000A7820008A7820008A7820008A78200083C
:10808000A7820008A782000841880008A78200088C
:108090004193000851930008A782000845B80008E2
:1080A000A7820008A7820008A7820008A78200080C
:1080B00071980108A7820008A7820008A78200081B
:1080C000A7820008A7820008A7820008A7820008EC
:1080D000A7820008A7820008A7820008A7820008DC
:1080E000A782000811650108A7820008A78200087E
:1080F000A7820008A7820008A7820008A7820008BC
:10810000A7820008A7820008A7820008A7820008AB
:10811000A7820008A7820008E19801082D990108AC
:10812000A7820008A7820008A782000821A70008EC
:10813000A7820008A7820008A7820008A78200087B
:10814000A7820008A7820008A7820008A78200086B
:10815000A7820008A7820008A7820008A78200085B
:10816000A7820008A7820008A7820008A78200084B
:10817000A7820008A7820008A7820008A78200083B
:10818000A7820008A7820008A7820008A78200082B
:10819000A7820008A7820008A7820008A78200081B
:1081A000A7820008A7820008A782000800F002F852
:1081B00000F05CF80AA090E8000C82448344AAF125
:1081C0000107DA4501D100F051F8AFF2090EBAE823
:1081D0000F0013F0010F18BFFB1A43F001031847FB
:1081E000C8560300F85603000A444FF0000C10F87C
:1081F000013B13F0070408BF10F8014B1D1108BF25
:1082000010F8015B641E05D010F8016B641E01F8C4
:10821000016BF9D113F0080F1EBF10F8014BAD1C14
:108220000C1B09D16D1E58BF01F801CBFAD505E032
:1082300014F8016B01F8016B6D1EF9D59142D6D38C
:10824000704700000023002400250026103A28BFB4
:1082500078C1FBD8520728BF30C148BF0B607047B8
:108260001FB52AF05CFD1FBD10B510BD00F074FAFB
:108270001146FFF7F5FF29F05BFE00F092FA03B418
:10828000FFF7F2FF03BC00F097FA000009488047AF
:1082900009480047FEE7FEE7FEE7FEE7FEE7FEE7E8
:1082A000FEE7FEE7FEE7FEE704480549054A064B00
:1082B0007047000025750108AD810008000000101E
:1082C00000160010000600100006001053EA020C11
:1082D00000F069802DE9F04B4FF00006002B1FBF26
:1082E000B3FA83F503FA05F424FA05F65E4012BFEB
:1082F0001643B2FA82F502FA05F4C5F120051EBF55
:1083000022FA05FC44EA0C04203556EA044C4FEAF4
:10831000144418BF641C4FF000084FF0000990424D
:1083200071EB030C39D3002919BFB1FA81F701FAB7
:1083300007F6B0FA80F700FA07F6C7F120071EBF6C
:1083400020FA07FC46EA0C062037B6FBF4FCA7EB44
:108350000507103F07F01F0BCBF120060CFA0BFBB3
:108360002CFA06F644BFB3460026202FA4BF5E4673
:108370004FF0000B5BEA060C08BF4FF0010B19EB46
:108380000B09ABFB027C48EB0608C01B06FB02CCCA
:108390000BFB03CC71EB0C01C1E70B4602464146D7
:1083A0004846BDE8F08B13B54FF000004FF00001D8
:1083B000AFF30080BDE81C407047401ECAB210F801
:1083C000011F8A4202D00029F9D10020704740EAFB
:1083D000010310B59B070FD1042A0DD310C808C99B
:1083E000121F9C42F8D020BA19BA884201D9012044
:1083F00010BD4FF0FF3010BD1AB1D30703D0521C8F
:1084000007E0002010BD10F8013B11F8014B1B1BC9
:1084100007D110F8013B11F8014B1B1B01D1921E33
:10842000F1D1184610BD40EA0103024630B59B0762
:1084300010D14FF0013400E008C208C91D1B9D4354
:1084400015EAC41FF8D013F0FF0102F8011B0DD08C
:108450001B0AF8E711F8013B002B02F8013B05D09D
:1084600011F8013B002B02F8013BF3D130BD10B5F0
:10847000431C02E010F8011B71B18107FAD14FF0E3
:10848000013202C88C1A8C4314EAC211F9D0C01A06
:108490000A0603D0C01E10BDC01A10BD0A0401D0C8
:1084A000801E10BD0902FCD0401E10BD421E12F8F5
:1084B000013F002BFBD111F8013B002B02F8013BDF
:1084C000F9D17047032A40F2308010F0030C00F01D
:1084D000158011F8013BBCF1020F624498BF11F8FE
:1084E00001CB00F8013B38BF11F8013BA2F10402B7
:1084F00098BF00F801CB38BF00F8013B11F003032F
:1085000000F06780083AC0F0088051F8043B083A50
:1085100051F804CBA0E80810F5E7121D5CBF51F834
:10852000043B40F8043BAFF30080D20724BF11F8AE
:10853000013B11F801CB48BF11F8012B24BF00F813
:10854000013B00F801CB48BF00F8012B7047431AEC
:1085500028BF9A427FF6B6AF032A1044114440F276
:10856000268010F0030F1EBF11F8013D521E00F8C7
:10857000013D10F0030F7FF4F6AF11F0030300F09C
:108580009F80083AC0F00B8051F8043D083A51F83A
:1085900004CD40F8043D40F804CDFFF7F3BF121DB1
:1085A0005CBF51F8043D40F8043DAFF30080D207B2
:1085B00024BF11F8013D11F801CD48BF11F8012C7D
:1085C00024BF00F8013D00F801CD48BF00F8012CA0
:1085D000704710B5203AC0F00B80B1E81850203A2F
:1085E000A0E81850B1E81850A0E81850BFF4F5AF53
:1085F0005FEA027C24BFB1E81850A0E8185044BFDD
:1086000018C918C0BDE810405FEA827C24BF51F849
:10861000043B40F8043B08BF7047D20728BF31F83D
:10862000023B48BF11F8012B28BF20F8023B48BF8E
:1086300000F8012B704702F0FF0343EA032242EAED
:10864000024200F069B84FF0000200B513469446AC
:108650009646203922BFA0E80C50A0E80C50B1F19A
:108660002001BFF4F7AF090728BFA0E80C5048BFAE
:108670000CC05DF804EB890028BF40F8042B08BF4C
:10868000704748BF20F8022B11F0804F18BF00F848
:10869000012B7047704770477047431A28BF9A42B2
:1086A0007FF697AF104410F0030F11441EBF11F86E
:1086B000013D521E00F8013D10F0030F7FF4F6AFAC
:1086C000103AC0F00A8010B531E91850103A20E98C
:1086D0001850BFF4F9AFBDE81040530724BF31E98B
:1086E000081020E9081044BF51F8043D40F8043D4B
:1086F00012F0030F08BF7047D20728BF31F8023DC0
:1087000048BF11F8012C28BF20F8023D48BF00F8EF
:10871000012C70474FF000020429C0F0128010F0C5
:10872000030C3FF492AFCCF1040CBCF1020F18BF64
:1087300000F8012BA8BF20F8022BA1EB0C01FFF7DA
:1087400084BF5FEAC17C24BF00F8012B00F8012B35
:1087500048BF00F8012B7047754600F029F8AE4677
:1087600005006946534620F00700854618B020B53D
:10877000FFF79AFDBDE820404FF000064FF00007DC
:108780004FF000084FF0000B21F00701AC46ACE8B9
:10879000C009ACE8C009ACE8C009ACE8C0098D4626
:1087A00070470446AFF300802046FFF768FD0000E5
:1087B000004870472C4D022001491820ABBEFEE74F
:1087C00026000200704721B1826842F001028260F7
:1087D00003E0826822F001028260704700210A4AA9
:1087E00011680A4A01EA0201D0E9002342EA0302C1
:1087F000836842EA0302C36842EA030242EA0101D3
:10880000034AC2F80413704704230140E030FCFF20
:108810000020014021B1826842F48072826003E04E
:10882000826822F480728260704721B1826842F4CB
:108830000072826003E0826822F4007282607047F6
:10884000354A1288344B5B881A44334B9B881A4450
:10885000314BDB88D018C21700EB9272C2F38F0144
:1088600041F6BE10484340F6FF7290FBF2F02B4AEF
:10887000108010460088A0F61C400A2290FBF2F0FF
:10888000274A10801046008850280BDD25480069D3
:10889000254A106022480088642836DD6420204A7A
:1088A000108032E01E4800883C2808DD1C48008803
:1088B000502804DC1B48C0681B4A106025E018489B
:1088C0000088282808DD164800883C2804DC154864
:1088D0008068154A106018E011480088142808DDE7
:1088E0000F480088282804DC0E4840680E4A1060B3
:1088F0000BE00B4800880A2807DD09480088142887
:1089000003DC08480068084A10600848007810B185
:108910000120074A107070471622022060220220B0
:1089200062220220582302206422022058220220C0
:108930005E22022010B50B460021D9B2012404FAB0
:1089400001F11AB144680C43446002E044688C436E
:10895000446010BD30B50246002000235068104C22
:1089600020400D790C6844EA05242043506090684B
:108970000C4C2040D1E903542C438D682C434D7995
:1089800044EA450420439060D06A20F470000C7DD6
:10899000641EE4B2234340EA0350D06230BD0000BD
:1089A000FFFEFFFCFDF7FFC0F0B504460D460020BA
:1089B0000021092D11DDE068A5F10A0606EB460746
:1089C000072606FA07F18843A5F10A0606EB4606D4
:1089D00003FA06F10843E0600CE0206905EB450767
:1089E000072606FA07F1884305EB450603FA06F168
:1089F00008432061072A0FDA606B561E06EB8607D4
:108A00001F2606FA07F18843561E06EB860605FA6E
:108A100006F10843606322E00D2A0FDA206BD61FAF
:108A200006EB86071F2606FA07F18843D61F06EBDA
:108A3000860605FA06F10843206310E0E06AA2F119
:108A40000D0606EB86071F2606FA07F18843A2F1FA
:108A50000D0606EB860605FA06F10843E062F0BD56
:108A6000002800DC4042704738B54568044601469E
:108A7000284612F061F900282AD02068304A0F28D1
:108A800019D006DC0B2824D00C2810D00E2851D188
:108A90002FE0112802D028284CD145E09268002A06
:108AA00016D02146284601B0BDE830401047214687
:108AB00028465268F7E7284604F0F8FF0090406E19
:108AC0000468684605F03CF8002C01D02846A04711
:108AD00038BD284604F0EAFF0090683004F046FFF5
:108AE000009803216C3004F049FF684605F028F82F
:108AF00020E0E168486809680D2902D0202913D1D7
:108B000005E0002810DD28461FF0BBF906E000282C
:108B100004DD2846BDE838401FF0B3B92846BDE85B
:108B2000384002211FF0C3B9E06818B90021284677
:108B300000F0C2F92046BDE8384012F029BD00001F
:108B4000B02902202DE9FF410AAF70CF002703951D
:108B50008DE8D00000F003F804B0BDE8F081F0B576
:108B600085B00DF1280CBCE8F0004FF0000C8DE84A
:108B7000F01000F025F805B0F0BDF0B5044685B062
:108B80008069B4F90850668A0027CDE90265CDE90D
:108B900000170490B4F90C00B4F91060C118B4F9CE
:108BA0000A00B4F90E50104433462A4600F008F883
:108BB0000546616800F0B6F905B02846F0BD000032
:108BC000F0B585B00C46DDE90D514C31DFF850C0F1
:108BD000DDE90A67CDE902C12146CDE9006712F05F
:108BE00027FC040018D004F061FF102229460490ED
:108BF00012F0A8FA049830220A493430FFF7E9FC51
:108C0000084D04990C3D2868486604A804F098FFB4
:108C1000286841682046884705B02046F0BD00001E
:108C2000698A0008BC290220F0B5044680688B4997
:108C300089B051F82050606800287DD0052804D004
:108C400006287AD0122879D1AEE0E86900284FD002
:108C500095E80E008DE80F0004F110010FC908F02F
:108C600073FD002655F8260007F076FDA169E86936
:108C70000A1A216901446069304405F0F3FEA169D4
:108C8000E8690A1A21690144E069801B05F0EAFEDF
:108C9000E169E8690A1A616901442069304405F014
:108CA00093FFE169E8690A1A61690144A069801BC0
:108CB00005F08AFF761C022ED4DBA86807F04CFD75
:108CC000E069E9696669431A20694218521E314415
:108CD000801C05F0F5FFE169E869A2690B1A61697A
:108CE0000144101A401C921E05F0EAFFEE6913E0E1
:108CF0005FF0000655F8260007F02EFDE069831BA3
:108D0000A069821B606981192069304405F002FF67
:108D1000761C022EEEDB0226D5E90301CDE9000127
:108D20006169E06908444310A069891C821B2069BD
:108D3000304405F063FE02E089E012E08AE0D5E904
:108D40000501CDE90001E36960690121184401EBE7
:108D50006001A0699B1E821B2069304405F04EFE15
:108D600078E0206804F0A2FE0490206813F0A4FFCD
:108D700040B1A06808B1002008E00498006F28B155
:108D8000012003E00498406F00B10220049901EB38
:108D90008000C56E04A804F0D3FE00231A462846BE
:108DA000216805F045FB55E0206804F07FFE049043
:108DB000866EEEB3B0F95C70A168D1B3032942D0DE
:108DC0005FF0000100EB8101406D0C6C07F0CEFC00
:108DD000204607F0C1FC05A806F07CFBBDF8141086
:108DE000A88B0144ADF81410BDF81810081AADF89E
:108DF0001800BDF81600801CADF81600BDF81A006A
:108E0000801EADF81A0004985E30B0F90220B0F967
:108E1000001005A807F07CFB04A804F091FE0220D6
:108E200007F0E6FC304604F041FE3A4605A901E0B1
:108E30000BE006E0079005F047FC07A804F080FE71
:108E400008E00121BEE70221BCE704A8F6E720689C
:108E500013F054FB09B00020F0BD0000EC950308AE
:108E60001CB50446002000902346054A2B210190A2
:108E7000044805F0CFF904490860084600681CBDA5
:108E8000C5C8020898300308A4280220044A0349F0
:108E9000116004494A6A486210467047EC29022072
:108EA000B0290220BC29022000294FF0100101D076
:108EB00011F0CCBF11F024BF4FF48072002911468D
:108EC00001D011F0C3BF11F01BBF08B50023009300
:108ED00000F001F808BD70B516460C460546194667
:108EE0003046049A05F08CFA024621462846BDE831
:108EF000704000F03FB8000038B50C46054604F05D
:108F0000D5FD0090064984654166684604F018FE68
:108F1000284613F0F3FA284613F01BF838BD00007A
:108F2000EC2902202DE9FF410E4605004FF0010417
:108F30001CD004F0BBFD0190876E01A8009704F0DF
:108F4000FFFD3146684608F09FFF78B10098002485
:108F5000B84208D0284604F0A9FD01900099816626
:108F600001A804F0EDFD284612F0F3FF04B02046FE
:108F7000BDE8F081F8B515460C46060013D004F0A4
:108F800095FD0090032C0BD800EB84006C3004F0AE
:108F9000EDFC009800EB8400C566304612F0D9FF66
:108FA000684604F0CDFDF8BDF0B52DED028B85B01F
:108FB00001209849087098490870984807F0D6FB36
:108FC0004FF6FF7007F0C8FB95480078A8B10EF087
:108FD000A7FE934908700846007820B991490020FF
:108FE00028F06CFA09E000218FA00CF06DF88C4895
:108FF000007805B0BDEC028BF0BD3222AA218FA013
:1090000005F040FB9348FFF741FF12F0DFFB0746F6
:1090100040F60100002102221E23CDE90072CDE9B5
:109020000210282264219620FFF799FD8A490860E2
:109030008AA189480068FFF775FF12F0C7FB074651
:109040004FF40260002102221E23CDE90072CDE917
:109050000210282264214FF49670FFF780FD8049AA
:10906000086080A17E480068FFF75CFF12F0AEFB4D
:1090700007467D4913F000F901E005F0D3FD65488E
:10908000007818B1644800780028F6D1724800686A
:1090900012F0B2FA7248006812F0AEFA00206E497F
:1090A00008606F49086005F06DF85A48007800289C
:1090B0007ED15C4928F002FA6CA16D4828F0C6FA0E
:1090C0006C49087008460078002872D10A220521F0
:1090D00069A005F0D7FA6C4991F856106B4A52F81E
:1090E000210005F04FFA1E22052169A005F0CAFAF9
:1090F0006548007E801C012101FA00F66248006983
:10910000401C704360490A7A0121914000FB01F440
:1091100000EE104AB8EE400ADFED620A80EE208AC7
:109120000620B0EE480A05F0E2F95FA005F02AFA41
:10913000322205215EA005F0A5FA032160480088CF
:1091400005F0ADF95FA005F01DFA462205215FA0EC
:1091500005F098FA4C49886B0A2105F0A0F95A22CB
:1091600005215EA005F08EFA4749B1F854000521AB
:1091700005F095F96E2205215AA005F083FA4249BF
:1091800091F82C00022105F08AF901215AA00BF078
:109190009BFF01225CA15F4828F0A6F935490870C1
:1091A00008460078002831D100BF5A4804AB01E0DE
:1091B0002BE01FE05849C26828F084FA2D49087056
:1091C0000846007810B904980028EED100BF00BF0F
:1091D000504828F0AEF8504808F0AEFF4FF050402D
:1091E00045684E4908600146086880F3088800BF5A
:1091F000A8470BE000214AA00BF066FF00210846BB
:1092000028F05CF91B49087000E000BF04480078B2
:10921000EFE600001420022015200220C47103088C
:10922000D8210220CC2F0220534420636172642095
:109230006973206572726F720000000020424F4F08
:10924000542046524F4D2053442043415244203F26
:1092500020000000298C0008AC2002205945530052
:10926000B02002204E4F0000C5D60208303A000060
:1092700028340220DD210220204341524420545949
:109280005045203A20000000104802209020022083
:109290002053445F434152442053495A45203A20C9
:1092A0002000000000008049204D42595445000034
:1092B00020534543544F522053495A45203A2000E9
:1092C000D621022020204259544500002052524FFE
:1092D0004455435420534E203A200000205243412D
:1092E000203A2000204D414E5546414354555245A9
:1092F00052204944203A2000534420636172642084
:109300006973204F4B210000303A73746D33322E55
:109310006865780004320220000003D008ED00E008
:1093200053442063617264206973206E6F742069F6
:109330006E697469616C697A6500000000BFFEE7C0
:1093400010B5002000F0E6FB00F014F810BD00009E
:1093500010B501200549087000200549087001205A
:1093600000F0D8FB00F0D2FA10BD00006A22022003
:109370006D22022070B586B0FE4880780C287DD220
:10938000DFE800F00607263E7C6AACFEFDFCFBFA37
:109390009EE24FF4C070F8490880062088700120D2
:1093A000C870F6480178F4480171F4484178F248F1
:1093B0004171F3488178F0488171F1484178EE4875
:1093C000C171EF48C178EC48017200F045FC7FE2C2
:1093D000E8480079E9490870E6484079487000207B
:1093E0000DF0C6FAE3488079E5498870E148C07914
:1093F0004870E048007AC87000200DF055FA67E226
:109400004FF4C170DC4908800120C870DD48017844
:10941000D9480171DC480178D7484171DB480178AF
:10942000D5488171DA480178D348C171D9480068BC
:10943000010ED1488172D7480068010CCE484172B4
:10944000D4480068C1B2CC4801720820CA4988706B
:10945000084600F001FC3BE24FF08040008C40F0F9
:1094600010004FF0804108840846008C40F0010055
:1094700008840120C6490860C74800E027E2006868
:1094800058B3C648007818B90320C449087006E0EC
:10949000C2480078012802D10220C049087000208B
:1094A000BF490870BF4908604FF40161BA480068BD
:1094B00012F0A2F90646BC493046FFF71DFD3046C2
:1094C00012F0A6FF40F61101B348006812F094F9BB
:1094D0000646B6493046FFF70FFDF9E1AF48007880
:1094E00018B90320AD49087006E0AC48007801289F
:1094F00002D10220A94908700020A9490870A94991
:1095000008609C4840799F49086008460068002828
:1095100060D04FF08040008B40F004004FF080415D
:1095200008830846808940F0020088812320C862B1
:10953000052088638F48C07994490860086800EB6B
:10954000D0714C1000EE104AB8EEC00ADFED980A58
:1095500080EE201A974880ED001A8F480068002896
:1095600037D040F613018C48006812F045F90646E2
:10957000304612F035FC04E083E15FE139E1DBE0E5
:1095800092E040F614018448006812F035F906466E
:10959000304612F0A0F840F617017F48006812F03C
:1095A0002BF906467948016830460CF01CF8304625
:1095B00013F057F840F616017748006812F01CF9CE
:1095C00006467248016830460FF0C4FB304612F080
:1095D0008FF859E0674880796B4908604FF0804008
:1095E000008B20F004004FF08041088308468089FA
:1095F00020F0020088816448006800EB80004FF48E
:109600007A71A1EB4000C906C8625F48006800EBB0
:10961000800040F2CA31A1EB4000490788635E48F0
:10962000006888B340F617015B48006812F0E4F860
:109630000646304612F0D4FB40F616015648006844
:1096400012F0DAF80646304612F045F840F61301FB
:109650005148006812F0D0F806464B480168304681
:109660000BF0C1FF304612F0FCFF40F614014A48EF
:10967000006812F0C1F806464348016830460FF012
:1096800069FB304612F034F84348006858B140F6A0
:1096900018014148006812F0AFF8064639480168E1
:1096A000304601F010FC13E14FF08040008C20F0B8
:1096B00010004FF0804108840846008C20F0010023
:1096C000088400203C4908709FED3C0A3C4880ED2E
:1096D000000A00202E4908602F48006858B32F4820
:1096E000007818B903202D49087006E02B4800784F
:1096F000012802D102202949087000202849087059
:109700002849086040F611012348006812F074F8F7
:10971000064625493046FFF7EFFB304612F078FE4B
:109720004FF401611C48006812F066F806461F49B4
:109730003046FFF7E1FBCBE00E4840790D4909794F
:1097400040EA01200C4908801E480078C8701D4876
:109750004178094801711C480178074841711B484C
:109760000068A8BB19480178034881711548017B3E
:1097700001482EE0EC480220E0480220BC200220F4
:10978000C0200220E0210220E4210220E821022062
:10979000F021022018640040D0230220DB210220A7
:1097A000DC210220241400409DD70208298C0008E7
:1097B00000004842EC210220F421022000000000B9
:1097C000F8210220B82E022020220220CC250220DF
:1097D00004E0C17105204349887006E042480178E1
:1097E0004048817104203F4988703E4800F034FAB7
:1097F0006EE03E48006811F0FFFE11F0E7FF0546FD
:10980000182040F618020023CDE9032002930590AA
:10981000032022231A460F21CDE900500A2008F028
:109820001CFE32490860012108020CF037FE30A20C
:1098300030492E48006808F04DFD49E02E48007977
:109840002E4908702C484079487000208860887044
:10985000294880792A4908602748C07930B9002012
:10986000264948602448007A087303E04FF000401E
:1098700022494860214A4FF4807100200CF09EFF7D
:1098800026E01A48006811F0B7FE11F09FFF054668
:10989000182040F618020023CDE90320029305901A
:1098A000032022231A460F21CDE900500A2008F098
:1098B000D4FD0E49086000214FF480700CF0EEFDDD
:1098C0000BA210490948006808F004FD00E000BF41
:1098D00000BF0D48006840F002000B49086006B068
:1098E00070BD0000E0480220CC2502209023022019
:1098F0000000000048B90BD0EC480220B82E02202E
:109900002022022070C20BD01464004030B5784889
:10991000807B042804D0062849D00B287CD1D3E0D2
:10992000002074490860744908607148007C086030
:109930006F48407C096841EA00206F4908606C4824
:10994000807C096841EA00406B4908606848C07C37
:10995000096841EA00606849086002F023FF664830
:109960000068B0F5003F01DC01240EE062480068A9
:10997000B0F5802F01DC022407E05F480068B0F5F5
:10998000C02F01DC032400E004242146082002F05B
:10999000B7FE4FF4B9705949088002208870012041
:1099A000C87067215548017100F056F998E0524897
:1099B000006850490968401A082833D34D480068A8
:1099C0004F4A8118042308224948103002F010FE43
:1099D000484800680830474908604FF4B970474963
:1099E0000880022088700120C870672143480171F7
:1099F00000F032F93F480068F021B0FBF1F201FBC2
:109A0000120038BB3F48006810F0800F05D080205E
:109A10003C490A3108801DE061E080203949083165
:109A2000088017E034480068324B1B68C21A31487E
:109A30000068334BC11804232D48103002F0D8FDC4
:109A40002D4800682B490968401A2A4909680844CA
:109A5000284908602848006826490968884232D1A8
:109A600025480068011F264826F0EAFE05462248E0
:109A700000682349084450F8040CA84210D14FF460
:109A8000B9701E490880022088700120C8706321C7
:109A90001A48017100F0E0F801201B49087012E03B
:109AA0001A48006840F00040184908604FF4B97047
:109AB00012490880022088700120C87065210F4873
:109AC000017100F0C9F80BE04FF4C4700B49088035
:109AD00001208870C870084600F0BEF800E000BFA2
:109AE00000BF0B48006840F010000949086030BD15
:109AF000EC480220F8280220FC280220E04802203E
:109B00000000080810140240F4280220103C024013
:109B1000146400404D4901EB0011096801F0020195
:109B200002295AD0494901EB0011896800EB400233
:109B3000474B03EB82021171444901EB0011896824
:109B40000A0A00EB400103EB81014A713F4901EB36
:109B5000001189680A0C00EB400103EB81018A7156
:109B60003A4901EB00118968090E00EB400203EB52
:109B70008202D171354901EB0011C968CAB200EB0C
:109B8000400103EB81010A72304901EB0011C96801
:109B90000A0A00EB400103EB81014A722B4901EBF9
:109BA0000011C9680A0C00EB400103EB81018A72C5
:109BB000264901EB0011C968090E00EB400203EBD6
:109BC0008202D172214901EB0011496801F00F01B5
:109BD00000EB400203EB8202D1701C4901EB001143
:109BE000096840F2FF7202EA515100EB4002184B43
:109BF00023F82210154901EB00114968090A00EB0E
:109C0000400203EB8202917030B11249096821F0E1
:109C10001001104A116005E00E49096821F00201A7
:109C20000C4A116040B10B49091F096841F020013D
:109C3000084A121F116007E006490839096841F017
:109C40002001044A083A116070470000B0650040E6
:109C5000EC4802201464004010B50246002330484E
:109C6000006800F08060B0F1806F01D1002113E046
:109C70002B48006800F00060B0F1006F01D10121B5
:109C80000AE02748006800F08050B0F1805F01D101
:109C9000022101E0022010BD10884405214800EB9C
:109CA000011004601F4800EB0110406820F00F0411
:109CB0001C4800EB011044601A4800EB011040689A
:109CC00094782043174C04EB0114606090790406EB
:109CD000507944EA0044107944EA0020D47840EAFC
:109CE0000403104800EB01108360907A0406507A58
:109CF00044EA0044107A44EA0020D47940EA04039C
:109D0000084800EB0110C360064800EB0110006832
:109D100040F00104034800EB011004600020BAE7A2
:109D200008640040806500407CB5214C05462168F0
:109D300031F8220F4A8D104408804888CA8D10449B
:109D40004880284605F0B6FB2168498CADF8001024
:109D50004618284607F032FF3044401EADF8040094
:109D600005F0F4FB2168898CADF802100844401E10
:109D7000ADF80600684612F033FE04E0284602F013
:109D80001DFD12F0ABFD0028F8D10A2D04D0BDF85E
:109D900004002168401C4884206830F8221F428D4E
:109DA000891A01804188C28D891A41807CBD0000DA
:109DB000302902200B480068018990F8702011FBBF
:109DC00002F309490B80438913FB02F34B8083891B
:109DD0005B1C53435B1E8B80C089401C5043401E5C
:109DE000C880704730290220602D022010B500BFC6
:109DF0008948006810F0200FFAD12D2087490860AB
:109E00008748006820F0030085490860084600681C
:109E100040F00100086000BF8148006800F00C00BD
:109E20000428F9D17E480838006820F080707C4909
:109E3000083908607B480078002864D101207949FE
:109E400008707948794908607548001F006820F457
:109E500040307349091F08607548006840F440406D
:109E6000734908606E48006820F47C406C490860C3
:109E70000846006840F414400860694808380068E3
:109E800040F0807066490839086000BF64480838AF
:109E9000006800F00070B0F1007FF7D164480068FE
:109EA00040F480306249086000BF6148406810F4A7
:109EB000803FFAD05E48006840F400305C4908609A
:109EC00000BF5B48406810F4003FFAD05448006877
:109ED00020F00300524908600846006840F0020084
:109EE000086000BF4E48006800F008000828F9D15B
:109EF00000BF4948006810F0200FFAD140F6D42086
:109F00004C49086062E00020464908704A484749C9
:109F100008604348001F006840F480304049091F32
:109F200008604348006820F4404041490860084602
:109F3000006840F4804008603948006820F47C40A4
:109F4000374908600846006840F480500860384887
:109F5000006820F400303649086000BF344840688B
:109F600010F4003FFAD13248006820F480303049C4
:109F7000086000BF2E48406810F4803FFAD128489E
:109F80000838006840F0807025490839086000BF33
:109F900023480838006800F00070B0F1007FF7D166
:109FA0001F48006820F003001D490860084600684B
:109FB00040F00200086000BF1948006800F0080087
:109FC0000828F9D140F256501A490860174800682D
:109FD0004FF47A71B0FBF1F4A4F10100B0F1807F8D
:109FE00000D30FE0601E4FF0E02148610F214FF0D9
:109FF000FF300BF0A7F900204FF0E0218861072027
:10A00000086100BF00BF0448006810F0200FFAD1BB
:10A0100088200249086010BD580100A0500100A02E
:10A0200008380240D52002200095BA0A00200220FC
:10A0300000700040540100A0804A5D0570B5002505
:10A040004FF4803400E0641E24B180200DF000FA4B
:10A050000028F8D014B90325284670BD40F2FF50FF
:10A060000DF0B8F92846F8E72DE9F041064600273B
:10A070004748056801E04648056815F0450FFAD0E5
:10A0800015F0040F06D0032704200DF0A3F938467D
:10A09000BDE8F08115F0010F05D0012701200DF07A
:10A0A00099F93846F4E70DF0CDF9B04202D0102707
:10A0B0003846EDE740F2FF500DF08CF900200DF02E
:10A0C000DBF904463348044201D13846E0E714F096
:10A0D000004F01D01C20DBE714F0804F01D0092095
:10A0E000D6E714F0005F01D00A20D1E714F0805FBA
:10A0F00001D00B20CCE714F0006F01D00C20C7E793
:10A1000014F0806F01D00D20C2E714F0807F01D0E1
:10A110000E20BDE714F4000F01D00F20B8E714F4AF
:10A12000800F01D01020B3E714F4001F01D01120DC
:10A13000AEE714F4801F01D01220A9E714F4002F19
:10A1400001D01320A4E714F4802F01D014209FE73E
:10A1500014F4003F01D015209AE714F4803F01D099
:10A16000162095E714F4004F01D0172090E714F45F
:10A17000804F01D018208BE714F4005F01D0192024
:10A1800086E714F0080F01D01A2081E738467FE7F0
:10A19000342C014008E0FFFD70B500250F4804682D
:10A1A00001E00E48046814F0450FFAD014F0040FD3
:10A1B00005D0032504200DF00DF9284670BD14F0DC
:10A1C000010F05D0012501200DF004F92846F5E71F
:10A1D00040F2FF500DF0FEF82846EFE7342C014026
:10A1E00070B500250B48046801E00A48046814F0C3
:10A1F000450FFAD014F0040F05D0032504200DF00C
:10A20000E9F8284670BD40F2FF500DF0E3F828460B
:10A21000F8E70000342C01402DE9F04106460F46D6
:10A220004FF000082248056801E02148056815F054
:10A23000450FFAD015F0040F07D04FF003080420A3
:10A240000DF0C8F84046BDE8F08115F0010F06D0CA
:10A250004FF0010801200DF0BDF84046F3E70DF086
:10A26000F1F8B04203D04FF010084046EBE740F25F
:10A27000FF500DF0AFF800200DF0FEF8044614F486
:10A28000604F03D1200C38804046DCE714F4005FB7
:10A2900001D01320D7E714F4804F01D01020D2E76B
:10A2A00014F4004F01D00F20CDE74046CBE700006B
:10A2B000342C014070B500264FF480350F480468F7
:10A2C00002E06D1E0D48046814F0450F01D1002D09
:10A2D000F7D115B114F0040F05D0032604200DF0BA
:10A2E00079F8304670BD14F0400F05D000264020AC
:10A2F0000DF070F83046F5E73046F3E7342C0140B6
:10A300001CB50020009001900548064A082103680A
:10A31000054803F07FFF05490860084600681CBD3A
:10A32000AC23022021D90208682E0308C42502208C
:10A3300010B586B011F04AFA0446684840F60701A5
:10A3400000220223CDE90043CDE90221049040F22E
:10A3500001134FF4CD720F213C2010F09FFF604994
:10A36000086060495E48006810F0D2FF412030214B
:10A3700040F618020023CDE90232CDE90410032093
:10A380005749096841233A22CDE90010462164204B
:10A3900008F063F85449086054A2564952480068CE
:10A3A00007F098FF54495048006808F0E8F8082181
:10A3B0004D48006808F011F94120302140F60E02A6
:10A3C0000023CDE90232CDE9041003204449096895
:10A3D00041233A22CDE900100021642008F03DF825
:10A3E0004649086046A247494448006807F072FFA2
:10A3F00041494248006808F0C2F808213F48006817
:10A4000008F0EBF84120302140F615020023CDE999
:10A410000232CDE9041003203149096841233A2270
:10A42000CDE900100021142008F017F83649086023
:10A4300036A238493448006807F04CFF2E493248AC
:10A44000006808F09CF808212F48006808F0C5F85B
:10A450004120302140F617020023CDE90232CDE938
:10A46000041003201E49096841233A22CDE9001057
:10A470004621142007F0F1FF2749086027A2284948
:10A480002548006807F026FF1B492348006808F0AC
:10A4900076F808212048006808F09FF8302040F640
:10A4A00016020023CDE903200293059003200C49F6
:10A4B00009683A231A46CDE90010C821142007F094
:10A4C000CCFF1849086012A217491648006807F027
:10A4D00001FF0348006806B010BD0000B1E50208A6
:10A4E000AC2302208766DF00C0230220414C41528A
:10A4F0004D000000B4B40BD0C8950308B02302206F
:10A5000050574D008C900BD0B423022054494D4538
:10A5100000000000787E0BD0B823022053440000D6
:10A52000A0A20BD0BC230220646C0BD010B586B067
:10A5300072B6002006F0D0F811F048F904464E49F2
:10A5400011F09AFE4D4806F011F94D4800680028B8
:10A550007ED111F03BF904464A484FF400610022D5
:10A560000223CDE90043CDE90221049040F201131A
:10A570004FF4CD720F213C2010F090FE404908604E
:10A5800041493F48006810F0C3FE4120302140F6A9
:10A5900017020023CDE90232CDE904100320384927
:10A5A000096841233A22CDE900105A214FF4AA70DC
:10A5B00007F053FF3549086035A237493348006832
:10A5C00007F088FE35493148006807F0D8FF0821B8
:10A5D0002E48006808F001F84120302140F60402BE
:10A5E0000023CDE90232CDE9041003202449096893
:10A5F00041233A22CDE9001000214FF4AA7007F060
:10A600002CFF2749086027A228492548006807F041
:10A6100061FE22492248006807F0B1FF0821204866
:10A62000006807F0DAFF302040F605020023CDE98C
:10A630000320029305900320114909683A231A4622
:10A64000CDE90010C8214FF4AA7007F006FF00E022
:10A6500008E01749086017A217491548006807F075
:10A6600039FE03E00648006811F0FBFF01201349A2
:10A67000087062B606B010BDC1D10208A4950308E7
:10A6800080230220C9F002088080FF009C23022062
:10A69000494D41474500000014240BD0C8950308DC
:10A6A0008423022043414C494200000028360BD04D
:10A6B0008823022000000000505A0BD0742302208F
:10A6C0001CB50020009001900548064A0821036847
:10A6D000054803F09FFD05490860084600681CBD59
:10A6E000AC23022079F20208882D0308D02302202F
:10A6F0001CB50020009001900548064A0721036818
:10A70000054803F087FD05490860084600681CBD40
:10A71000AC230220D5E00208482F03086428022059
:10A7200010B50DF091FD10BD0246094B9A4201D2C1
:10A73000084801E00648103811F0005F03D0064BCE
:10A740000B40C36002E0044B0B4083607047000085
:10A7500010640240006002407D0F7D0F21B102684D
:10A7600042F00102026003E0026822F0010202608E
:10A7700070470000016821F00101016000210160C3
:10A7800041608160C1600161212141614A49884283
:10A7900004D13D21484A103A91608CE04649183175
:10A7A000884205D14FF47461434A103A916082E0C7
:10A7B00041493031884205D14FF474113E4A103A74
:10A7C000916078E03C494831884205D14FF074618E
:10A7D000394A103A91606EE037496031884204D1BD
:10A7E0003649354A103AD16065E0334978318842BC
:10A7F00004D13349304A103AD1605CE02E4990319F
:10A80000884204D12F492C4A103AD16053E02A499A
:10A81000A831884205D14FF03D51274A103AD16006
:10A8200049E02949884204D13D21274A083A11606C
:10A8300041E025491831884205D14FF47461224A1C
:10A84000083A116037E020493031884205D14FF491
:10A8500074111D4A083A11602DE01B4948318842A5
:10A8600005D14FF07461184A083A116023E0164987
:10A870006031884204D11149134A121F11601AE055
:10A8800011497831884204D10D490F4A121F1160D5
:10A8900011E00D499031884204D10A490A4A121F39
:10A8A000116008E00849A831884204D14FF03D51B9
:10A8B000054A121F11607047106002403D000020E1
:10A8C000400F002000003D201064024021B10268CA
:10A8D00042F02002026003E0026822F020020260DF
:10A8E000704710B511F0800F09D022B1436943F0D1
:10A8F0008003436103E0436923F0800343618029BF
:10A900000BD02AB1036801F01E042343036004E066
:10A91000036801F01E04A343036010BD10B50022BC
:10A920000268134B1A40CC680B6823434C692343DD
:10A930008C692343CC6923430C6A23434C6A234329
:10A940008C6A23434C6B23438C6B23431A43026072
:10A95000426922F00702D1E90B3423431A434261D2
:10A960000B6943604B6883608B68C36010BD000057
:10A970003F801CF02DE9FC4100282ED0112916D073
:10A98000132910D080460C4603F090F8009000F098
:10A99000DEFA0546684603F0D3F8204620F0B4FFFF
:10A9A000064600241CE0BDE8FC4100F082BABDE888
:10A9B000FC4100F067B92146404600F0CBFA019017
:10A9C000007820F0A1FFC7B201A803F0B9F8B742A0
:10A9D00005D12146404600F076FABDE8FC81641CB2
:10A9E000AC42E8DBF9E7F8B50C46050013D0002CC3
:10A9F00011D003F05BF80090C66B684603F0A0F836
:10AA00002046FDF734FD421C2146304603F0BCF8D9
:10AA1000284611F09EFAF8BD2DE9FF41456804462D
:10AA2000284603F043F80190D0F8886001A803F0AD
:10AA300087F80EB1012700E000272146284610F0D4
:10AA40007BF9002855D020680F2856D006DC0B284B
:10AA500062D00C2843D00E282AD173E0112839D0B7
:10AA6000212802D0262823D116E0E0684168002979
:10AA70001EDD00680D281BD1304609F048F800287B
:10AA800006DB304609F043F80146284600F01BFA81
:10AA9000284600F077F86EE0E068012809D00A281F
:10AAA00002D00B286AD111E00A21284611F0E2FAFF
:10AAB00064E0304609F02BF800285FDB304609F0EF
:10AAC00026F80146284600F0FEF954E0284600F03A
:10AAD00059F853E0FFB9E068007A90BB4EE0E068B7
:10AAE00048B1007A08B1012100E00221284611F0A6
:10AAF000C1FABDE8FF810321F8E72E46284602F09F
:10AB0000D5FF0290D0F88400056802A803F018F879
:10AB10000DB13046A84731E0284602F0C7FF00904B
:10AB2000C06B03F071F80098D0F8880010F064FD55
:10AB30000098D0F8940002F0F1FE684603F000F8A7
:10AB40001CE010E0E0684168002917DD0168092970
:10AB50000DD00A2912D01B2910D0202903D0284655
:10AB6000FFF708FFC5E7284600F098F806E010F068
:10AB70005DFEB04202D1284611F04AFC204610F09A
:10AB800007FDB6E738B5040011D002F08FFF009042
:10AB9000D0F8880040B110F02FFD00990020C1F8D6
:10ABA0008800204611F0D5F9684602F0C9FF38BD8B
:10ABB000F0B585B0B0F90850468A84690296CDE9AF
:10ABC00003540027CDE90017B0F90C10B0F910506C
:10ABD000B0F90E40B0F90A00194410442B46224641
:10ABE00000F002F805B0F0BD2DE9FF410C461D460E
:10ABF000DDE90D71DDE90B366C31DFF880E0DDF861
:10AC000028C0CDE900C3CDE902E14FF0FF33214672
:10AC100010F00EFC04002DD002F048FF102239463F
:10AC2000009010F08FFA00983822154980F88C6057
:10AC30004C30FDF7CEFC124E0098361F3168C0F83C
:10AC40008410002180F89010C586204600F05EF93F
:10AC5000684602F075FF02F0D4FF0546204602F078
:10AC600025FF0090C563684602F06AFF30684168BE
:10AC70002046884704B02046BDE8F08119AA0008A4
:10AC80007C2A022010B5044600F006F9010000D02D
:10AC9000411E2046BDE8104000F015B92DE9F14FE6
:10ACA0009EB01E9800287CD002F000FF08901E98ED
:10ACB00010F0A1FE1A900898B0F9367090F8901034
:10ACC0001991C16B179190F88C90B0F934100791DD
:10ACD00000F03DF9824608980BACB0F88E10159143
:10ACE000B0F982100A91C16C0991D0E90012CDE946
:10ACF0000512D0F894B0002100EB8102126D44F8E7
:10AD00002120491C0329F7D300210EAD00EB81025D
:10AD1000D26D45F82120491C0329F7D3002111AE3B
:10AD200000EB8102126F46F82120491C0329F7D35A
:10AD300008A802F005FF1E9810F005FE02F0B6FE0E
:10AD40001490D0F8008014A802F0FAFE4FEA2840D0
:10AD500042420FFA88F0414205A805F0D9FB5FEAAC
:10AD6000897003D5BDF81600C01B01E0BDF81A00BC
:10AD7000ADF816001E9810F0E6FD01461A98CDE9D0
:10AD8000000702220292BDF91630BDF914200020FE
:10AD900008F051FE80465FEAC97009D04046199913
:10ADA00000E076E009F0CAF80121404609F00EF80B
:10ADB000002708E03946179802F083FF0146404615
:10ADC00008F0FDFC7F1C5745F4D30027394654F8A2
:10ADD0002720404609F01FF87F1C032FF6D30024DC
:10ADE000214655F82420404609F02CF9641C032C18
:10ADF000F6D30024214656F82420404609F083F873
:10AE0000641C032CF6D35FEA0B001ED002F04EFE4A
:10AE100030F8025B00240126169011E0169804F029
:10AE2000070100EBD40006FA01F10078084201D0D6
:10AE3000012200E000222146404609F014F8641C7B
:10AE4000AC42EBDB16A802F07BFE4046159909F0F8
:10AE500038F84046099908F0F2FF40460A9909F08F
:10AE6000E1F8404611F0D4FA40461E9909F03BF84B
:10AE70004046079909F07AF801211E9811F0FAF876
:10AE80001E9802F013FE0890C0F8888008A802F00F
:10AE900057FE1FB0BDE8F08F38B5002438B102F07E
:10AEA00005FE0090B0F93440684602F049FE2046A5
:10AEB00038BD10B50446FFF7EFFF411C2046BDE842
:10AEC0001040AFF3008038B50C46050019D002F0F1
:10AED000EDFD009000F03BF800B1401E844200DD23
:10AEE00004460098B0F93410A1420BD0848668461D
:10AEF00002F026FE284611F02CF80421284611F015
:10AF0000B9F838BD684602F01BFE38BDF8B50446F6
:10AF100002F0CCFD01460090B0F9380010B9C86CC1
:10AF200004F048FB0099CA6AB1F98030126800EB5E
:10AF300043001618084611F044FD0546684602F025
:10AF4000FFFD32462946204611F011FBF8BDC06BCB
:10AF500002F0ABBE38B50D46002402F0A7FD00900C
:10AF6000C06B294602F0ADFE0546684602F0E8FDDA
:10AF70001DB1284602F09AFD0446204638BD7047B0
:10AF80002DE9FC5F15460746DFF89C8028440190B8
:10AF9000D8F800001C460E46C06E01EB0409494675
:10AFA000426801989047781B0090D8F80000494605
:10AFB000C06E426800989047D8F8000006EB050B79
:10AFC00007EB0409C06E5946426848469047D8F8D6
:10AFD0000000A6EB050A5146C06E426848469047FD
:10AFE000002C1ED0D8F80000361B4546C06E3146F6
:10AFF00042680198904728683146C06E42680098C0
:10B00000904728683C1B5946C06E426820469047CE
:10B0100028685146C06E426802B02046BDE8F05F25
:10B020001047BDE8FC9F00003029022070B505469E
:10B030000C46611F621D284603F0C6FD691F6A1D8C
:10B04000204603F00FFD04222146284603F02CFC85
:10B0500070BD30B58DB004460D46032005F0B6FB3B
:10B060000020ADF804000520ADF80600ADF808009A
:10B070000021ADF80A100A20ADF80C000521ADF84A
:10B080000E100F20ADF810000021ADF812101420A2
:10B09000ADF814000521ADF816100F20ADF818001A
:10B0A0000A21ADF81A101420ADF81C000F21ADF8DC
:10B0B0001E100F20ADF820001421ADF822100A2038
:10B0C000ADF824000F21ADF826100520ADF82800BA
:10B0D0001421ADF82A100020ADF82C000F21ADF896
:10B0E0002E100520ADF830000A21ADF832106FF0B7
:10B0F0007F4005F031FB2B4622460C2101A803F0CE
:10B10000ABFD0DB030BD2DE9FC470E465FEA0009EE
:10B1100078D002F0CBFC009090F85470D0F85880B2
:10B12000456BC46C684602F00BFDB8F1000F04D00B
:10B13000314648464246904761E0122E18D006DC60
:10B14000082E43D0102E3CD0112E06D112E0132E23
:10B1500021D01D2E43D01E2E3DD0202E4FDB17B107
:10B16000484614F012FEB1B248461BF0B2FE60B37E
:10B17000611C27E04DB3284602F098FC05462146A5
:10B18000019005F0A1FC4419204605F05FFC014642
:10B190002346012210E0C5B1284602F087FC05468F
:10B1A0002146019005F090FC4419204605F04EFC24
:10B1B000014623464FF0FF32484612F0E2FF01A855
:10B1C0001BE0611E484600F0F0FA18E0BCB1611EB9
:10B1D000484600F0EAFA484614F0D7FD0FE048462A
:10B1E00002F064FC0090012F0ED0012180F8541071
:10B1F0002146484600F0D9FA684602F0A1FC4846CC
:10B2000010F0A7FEBDE8FC87002180F85410F3E79A
:10B21000FEB544680546204611F04EFD0646294617
:10B2200020460FF089FD002834D028680E283DD034
:10B2300004DC0B282FD00C284AD116E00F2825D08B
:10B24000A0F58070133843D1204610F0E1FF20466E
:10B2500000211EF047F9204602F028FC0190C06F43
:10B26000002110F0BBFF01A81DE0E86860B1017A81
:10B2700029B10168204600F009F9012100E002210E
:10B28000204610F0F7FE23E00321F9E701212046D4
:10B290001EF028F9FEBD204602F008FC0090343074
:10B2A00002F064FB684602F04BFC11E086B1E868EE
:10B2B000416800290CDD0168092909D00A2907D055
:10B2C0000D2905D01B2903D02046FFF71CFFFEBD2A
:10B2D000284610F05DF9FEBDF0B587B00DF1300ED7
:10B2E000BEE8F0104FF0000E8DE8F05000F028F8A6
:10B2F00007B0F0BDF0B587B004460DF1080CD4E9F5
:10B300000567B0F90850408AACE8E1000020CDE9BB
:10B310000010B4F90C00B4F91060C118B4F90A00B7
:10B32000B4F90E50104433462A4600F009F80500DF
:10B3300002D0618A00F0FCF907B02846F0BD000099
:10B340002DE9FF410D46DDE90D640F9FDDE90AC1DE
:10B3500041F480515837DFF874E0CDE900C1CDE900
:10B3600002E7294610F064F805002AD002F09EFB9F
:10B370001022314600900FF0E5FE00981C2214497F
:10B380006030FDF726F90099012081F85500601C16
:10B3900000D0012081F88000002C00DC082424B2B9
:10B3A0000C87002048874863641C684602F0C8FB8D
:10B3B000214628461BF0F3F918B9284610F01CF96D
:10B3C000002504B02846BDE8F081000011B2000855
:10B3D000B42A02200148806870470000B42A022085
:10B3E0002DE9FC4115460E0022D0002820D002F0A5
:10B3F0005DFB002701903770406BB0B102F056FB47
:10B40000009006F0BFFB0146009805F05DFB044686
:10B41000681E844200DD0446224630460099FDF74E
:10B4200051F8684602F08CFB375501A802F088FB02
:10B43000BDE8FC8138B5002430B102F037FB009044
:10B44000846C684602F07CFB204638BDF8B5154692
:10B450000C4606000ED002F029FB009038B1022CF9
:10B4600005D200EB84004567304610F072FD684657
:10B4700002F066FBF8BD10B5040006D000F095F9A7
:10B480002046BDE8104010F064BD10BD2DE9F0412C
:10B4900086B00C46060050D002F008FB0090406BCE
:10B4A00098B302F003FB03900098806E05F05EF9FC
:10B4B0008046304610F09FFA0746039804F055F88E
:10B4C0000546009890F8601001F00301012916D09C
:10B4D00002290DD0416EC06A00680844241A641E17
:10B4E000039806F04FFB0146002C0FDA002115E00F
:10B4F000781B401C00EBD070A4EB6004F0E7406EBA
:10B50000791B081A241A641CEAE713E0AC4205DC34
:10B5100002462146039806F0D5FA0146304600F06F
:10B5200044F903A802F00CFB404605F01FF9304631
:10B5300010F00FFD684602F003FB06B0BDE8F08195
:10B540002DE9F8431D46DDE9084916460F465FEA36
:10B55000000841D002F0AAFA00903C301F49C161B6
:10B560001F4901620021C0E90371C0E9006504724E
:10B5700080F81A900121017690F84470684602F034
:10B58000DFFA87B1284619F03CFD0546304619F030
:10B5900038FD0CB1401C6D1C854200DD284601467B
:10B5A000404600F031F8404620F072FA404602F082
:10B5B0007DFA009000F0E4F80A490978884205D144
:10B5C0000098C16C4046491C00F0EFF8684602F054
:10B5D000B7FA404610F0BDFCBDE8F883A5D40108D9
:10B5E00091BA02082429022038B50C4605000AD079
:10B5F00002F05CFA009018B18466284610F0A9FCAD
:10B60000684602F09DFA38BD7CB50C4606002ED087
:10B6100002F04CFA0090B0F93810458FA14223D0C7
:10B6200012DD406B80B102F041FA019006F0AAFAF7
:10B63000A04206DD2146019805F046FA019A002154
:10B64000115401A802F07CFA684602F079FA611BF5
:10B65000491C30461BF0A3F8304602F027FA009050
:10B660000487304610F075FC684602F069FA7CBD2C
:10B670002DE9FC4788465FEA00094FF0000555D0E8
:10B6800002F014FA0090B0F93860446B684602F09A
:10B6900057FA0027B8F1000F3ED04CB1204602F017
:10B6A00005FA0190FCF7E3FE451C01A802F048FAF8
:10B6B000404606F067FA0446B04200DD34462146B3
:10B6C000404605F001FA461C711B48461BF0BBFCC6
:10B6D00008B3484602F0EAF90090406B02F0E6F940
:10B6E000324641460190FCF7EDFE0198304400F8E7
:10B6F000017C0098C464B0F938108C4205D190F8F0
:10B700005410012901D1641EC464684602F018FA7D
:10B7100001A802F015FA06E00098343002F026F98C
:10B7200000984787C764484610F013FCBDE8FC87C3
:10B7300038B50C4605000AD002F0B8F9009018B1EF
:10B740000466284610F005FC684602F0F9F938BD99
:10B75000F8B515460C4606000ED002F0A7F9009089
:10B7600038B1022C05D200EB8400C566304610F0DB
:10B77000F0FB684602F0E4F9F8BD00221FF0EEBECF
:10B7800038B50446406B002568B102F08FF900908F
:10B790000546E16C05F098F9284405F057F905468F
:10B7A000684602F0CDF9284638BD1CB50C4602F0BB
:10B7B0007DF90090406BF0B102F078F9019006F04D
:10B7C000E1F9009991F8542002B10122002C00DA2D
:10B7D0000024844200DD0446B1F93800801AA042FA
:10B7E00000DA0446C86CA04200D0CC640020086592
:10B7F00001A802F0A5F9684602F0A2F91CBD0000FC
:10B8000010B5002005490870012005490870022084
:10B8100000F026F8072009F0FDFC10BD5B22022095
:10B820005D22022010B5002400E0641C044884421C
:10B83000FBD3042000F014F8082009F0EBFC10BD45
:10B84000A086010010B5012004490870402000F0D6
:10B8500007F8172009F0DEFC10BD00005A22022074
:10B860000149086070470000143C01400021234951
:10B870008279002A3AD00A46126803689A430B4636
:10B880001A600A1D126803689A430B1D1A60027938
:10B8900011440A6803681A430A60184A0832126899
:10B8A00003689A43154B08331A601A1D126803681F
:10B8B0009A43124B0C331A604279102A0ED11A1F88
:10B8C000126803681A430D4B08331A601A1D126878
:10B8D00003681A43094B0C331A600DE0074942799B
:10B8E00011440A6803681A430A6005E002791144AA
:10B8F0000A6803689A430A6070470000003C0140F0
:10B9000099B1102808D14FF02042126E42F0040283
:10B910004FF020431A661CE00E4A126842F00402FF
:10B920004FF02043C3F8802013E0102808D14FF0D7
:10B930002042126E084B1A404FF020431A6608E06E
:10B94000044A1268044B02EA03024FF02043C3F892
:10B9500080207047800000A0FBFF0F0030B5002161
:10B9600000220023446844F0080485682C43C5681D
:10B970002C4305692C43456944EA4524856944EA1A
:10B980004531C4692468C5696D6844EA0524C56900
:10B990002D8944EA0544C5692D7B44EA0562046AA1
:10B9A0002468056A6D6844EA0524056A2D8944EA1D
:10B9B0000544056A2D7B44EA05630468102C05D113
:10B9C0004FF020442166A266E36607E0044C216044
:10B9D0004FF02044C4F88820024C236030BD0000A2
:10B9E000800000A08C0000A02DE9F04389B09846AB
:10B9F00015460F4606004FF0000429D000F0EAF982
:10BA00000446304600F0D2F9814603A9304600F0E2
:10BA10002CFBF80706D0BDF91C00001B401B401C86
:10BA2000822109E0B8070028BDF91800284402DA8D
:10BA300040F2022100E002210096CDE90181234677
:10BA40001A464946FDF77EF804460021FDF72CFA18
:10BA500009B02046BDE8F08310B50523FFF7C4FF09
:10BA60000446054A0021FDF730FA0449204610F04B
:10BA700003FC204610BD0000A50402080DD90208F1
:10BA80002DE9F047456804468EB00026284602F0AE
:10BA90000DF800905C30B0F820A0D0F80C90D0F8F1
:10BAA0002480C76A006800B10668684602F048F85A
:10BAB00005E079682046884700283DD13F68002F7F
:10BAC000F7D12068142844D009DCA0F10B00072826
:10BAD00039D2DFE800F0BE3989B434B4110020282F
:10BAE0007ED004DC17283ED01E282CD14BE026281F
:10BAF0003CD02A2827D110E02846E66801F0D6FF7E
:10BB00000190717A39B9317A012904D130F87C1F5A
:10BB100041F48071018001A88FE0284601F0C6FF42
:10BB20000090E16811B1C0F8841002E0D0F8840000
:10BB3000E060684602F004F80EB0BDE8F087002E21
:10BB40007DD02846B0477AE0214628461DF0AAF964
:10BB5000F2E705A9284600F088FAE0680699016036
:10BB600007994160E8E7C4F80C90E5E7E06802282F
:10BB7000E2D10C95E0680D9027200A900AA9A068F0
:10BB800011F0B4FAD8E7E068012804D00021284673
:10BB900000F093F9D0E7404610F03DFA58B1404626
:10BBA00010F036FC404610F00BF988B101214046F8
:10BBB0000FF04CF90CE0484610F078FC804628461F
:10BBC00001F074FF0090C0F88080684601F0B8FF73
:10BBD0000121284600F071F9B8F1000FACD100E066
:10BBE0000EE00020E060A7E75FEA0A7027D4E06873
:10BBF000C06820B3007A10B3284610F009FC1EE09C
:10BC0000E668E6B12946706811F03FF820B10121DD
:10BC100028461EF06DFF12E0002128461EF068FF46
:10BC20002946306811F020F848B1284601F03EFF5F
:10BC300003903168C0F8801003A801F081FF21460D
:10BC400028460FF079F800288CD020460FF0A0FC91
:10BC500072E7284601F02AFF0090703001F086FE5E
:10BC60006846EAE72DE9F04387B00DF138088146D0
:10BC7000B8E8F1104FF00008CDF818808DE8F11009
:10BC8000484600F023F807B0BDE8F083F0B587B070
:10BC9000B0F908400DF10C0C0C9E87694568ACE8C2
:10BCA000F000448A0025CDE900150294B0F90C108B
:10BCB000B0F91050B0F90E40B0F90A001944104420
:10BCC0002B46224600F002F807B0F0BD2DE9F04700
:10BCD0008AB00DF14C0CDDE91784BCE86006129FB8
:10BCE00045F480556034DFF8B8C0CDE902C4CDE931
:10BCF00000750FF09DFB04004DD001F0D7FE3022FF
:10BD0000494604900FF01EFA049828222549343041
:10BD1000FCF75FFC0498234F5C30083FC0F80880B4
:10BD20000684002646620661C6627968016004A83E
:10BD300001F006FF05A9204600F097F91A4841F2E4
:10BD4000827103960094CDE90110BDF91E00BDF982
:10BD50001A10BDF91C20431ABDF918005B1C121AF9
:10BD6000521C0FF065FB06467868416820468847FC
:10BD7000204601F09BFE0490866604A801F0E0FED8
:10BD800042F20400054202D120460FF099FC5146D0
:10BD9000204600F0FEF80AB02046BDE8F08700001B
:10BDA00081BA0008D82A022079C3000838B50500F6
:10BDB0004FF000040CD001F079FE0090C06D00211E
:10BDC00080680268284690470446684601F0B8FE3D
:10BDD000204638BD30B587B005004FF000040ED0C6
:10BDE00001A900F042F9284601F060FE0090B0F988
:10BDF0005440684601F0A4FE0CB9BDF9044007B0F8
:10BE0000204630BD30B504468BB0006801F04EFED0
:10BE1000009090F87C10246A006FC1F3C00508B14F
:10BE200001F044FE0690E068029020690390A0882B
:10BE3000401EADF81000E089ADF812002089401CCA
:10BE4000ADF81400608AADF81600BDF80800401C7B
:10BE5000ADF80800BDF80A00401CADF80A00BDF8B6
:10BE60000C00401EADF80C000098406B04F07EFC06
:10BE7000009808AA02A9B0F95A30069804F0C8FF41
:10BE8000009800EB8500806B07F09CF8009800EBB1
:10BE90008500006C07F0CEF808AB02AA04A906984A
:10BEA0000FF084F8684601F04BFE069810B106A822
:10BEB00001F046FE0BB0002030BD002801D01EF07E
:10BEC00017BE7047F8B515460C4606000DD001F0B8
:10BED000EDFD0090022C05D200EB84008563304616
:10BEE00010F037F8684601F02BFEF8BD2DE9FC4153
:10BEF0000D46070028D001F0D9FD0190C16D8C6876
:10BF000000F01AF980460198456301A801F018FE77
:10BF100022680121384690470646226803213846A8
:10BF20009047054622680021384690470446384627
:10BF300000F0EBF92B46324641463846009400F0BB
:10BF400073F9384610F005F8BDE8FC8138B50C46A9
:10BF500000280ED001F0AAFD009030F87C1F14B12B
:10BF600041F0100101E021F010010180684601F06C
:10BF7000E7FD38BD38B50D46040009D001F096FD47
:10BF800000900566684601F0DBFD20460FF0E1FFFA
:10BF900038BD7CB50D46040019D001F087FD009036
:10BFA000006F0190684601F0CBFD294601A805F01D
:10BFB0006BFF00280BD0204601F078FD009001991E
:10BFC0000167684601F0BCFD20460FF0C2FF7CBD52
:10BFD00038B50C4605000ED001F068FD0090B0F9B0
:10BFE0005A10A14204D0A0F85A4028460FF0B1FFE1
:10BFF000684601F0A5FD38BD2DE9FC470D465FEA16
:10C0000000094FF000042DD001F050FD0190B0F96F
:10C010005440A54223D000F08FF8804601980121BA
:10C02000A0F85450C06D856848462A689047074676
:10C030002A6803214846904706462A680021484658
:10C0400090470546484600F060F933463A46414677
:10C050004846009500F0E8F848460FF07AFF01A83E
:10C0600001F06EFD2046BDE8FC872DE9F34F85B059
:10C0700000270C46B846059801F018FD0090C06DE9
:10C080000121856805982A68904782462A6803211D
:10C090000598904704902A680221059890470390DC
:10C0A0002A680021059890470646009810F089FC00
:10C0B0008346009810F08CFC8146009890F832106E
:10C0C000890601D5B0F9588000F036F80546009889
:10C0D000C06E10B10FF0A0FC074625806780A4F861
:10C0E00004A0049AABEB020006EB0802401E2A44AF
:10C0F00020813A44E280039BA9EB0302521E628135
:10C10000A4F80CA020827019E681401E6082684667
:10C1100001F016FDB4F90C000190B4F91000029082
:10C1200002AA01A9059800F039F80198A0810298A7
:10C13000208207B0BDE8F08F10B50146002091F8CD
:10C140003220920607D5B1F95400002803D1486B7C
:10C1500003F035FA801C10BD70B58AB00C46054658
:10C1600001F0A4FC0990C06D866809A801F0E8FC04
:10C17000009534B1012C06D0022C0BD0032C04D135
:10C180000AE0182000E01620019071686846884790
:10C190000AB070BD1520F7E71720F5E72DE9FC4739
:10C1A00090468946044601F081FC0090C16D056807
:10C1B00068468E6801F0C4FC326800212046904732
:10C1C000064620460FF020FB2F1404462DB227E030
:10C1D00001F06CFC0190B0F90010B0F90420B0F946
:10C1E0000230491B521BDB1BB34212D190F82800CE
:10C1F000000607D5D8F8000088420ADB491EC8F8B7
:10C20000001006E0D9F80000904202DC521CC9F888
:10C21000002001A801F094FC20460FF08DFB04469D
:10C22000002CD5D1BDE8FC872DE9FF4F83B00E4629
:10C230000746DDF8409001F039FC0190C16D8D6832
:10C24000FFF77AFF044601A801F07AFC2A68012171
:10C250003846904783462A680321384690478246ED
:10C260002A680021384690470546B44207D105990F
:10C270008B4504D106998A4501D14D4542D0A41B76
:10C280000026B04638460FF0BFFA39E001F00EFC48
:10C290000090806A010602D54FEA805002E08105D5
:10C2A00028D50006002825DB24B122461146384651
:10C2B0000FF01DFF009890F8280000060AD5069898
:10C2C000A5EB0902A0EB0A0004FB1601761C384618
:10C2D0000FF0CEFE0098008D80050BD50599A5EBDB
:10C2E0000902ABEB010004FB080108F10108384624
:10C2F0000FF0BEFE684601F023FC38460FF01CFB31
:10C300000700C3D107B0BDE8F08F70B586B0064610
:10C3100001F0CCFB0590D0E91A4505A801F010FC0E
:10C3200054EA050026D069463046FFF79EFEACB1C0
:10C33000BDF90620BDF9041020460FF06EFEBDF9D0
:10C340000A00BDF90610421ABDF90800BDF9041033
:10C35000521C411A491C204610F009F9002D09D041
:10C36000BDF90600BDF90210421ABDF904102846B5
:10C370000FF053FE06B070BD2DE9F043044640684F
:10C3800085B006460FF0DFFA814601F08FFB009082
:10C39000D0F88080876C456E684601F0D1FB20683C
:10C3A000172859D008DC0E2837D00F280BD01428B6
:10C3B00052D015283AD14FE01E2818D01F2827D078
:10C3C000222833D146E06FF07040874204D03846CF
:10C3D00006F0F8FD01F0D6FE002D12D0D4E90212CD
:10C3E0002068CDE90106CDE9031201A822E0E0684A
:10C3F000002806D05FEA080006D0B04504D010F04F
:10C4000007F805B0BDE8F083304610F04FF816E0AD
:10C41000214648460EF090FCF3E7E06841680029A9
:10C4200004DD00680928EFD00A2805D0A5B1204610
:10C43000C4F80490A847E4E7304610F03FF80446FB
:10C44000484601F033FB0090C0F88040684601F098
:10C4500077FBD6E7E760D4E720460FF099F8D0E7FE
:10C460002DE9FC4107460D460026002400200090DF
:10C47000019008205A4908601020486040208860D8
:10C480000020C8604FF48060086108460BF02EF869
:10C490001020FDF7E9FD044614B12046BDE8FC81FB
:10C4A0005048008800044E4908603720486040200A
:10C4B00088600020C8604FF48060086108460BF077
:10C4C00015F83720FDF7D0FD04460CB12046E5E70E
:10C4D0004FF6FF70444908600820486030208860AB
:10C4E0000220C860002008610120486108460AF067
:10C4F00083FF00203A49086033204860402088606C
:10C500000020C8604FF48060086108460AF0EEFF22
:10C510003320FDF7A9FD04460CB12046BEE709E033
:10C520004FF400100AF094FF20B10AF0D9FF4DF843
:10C530002600761C2D48006840F22A610842EFD0A0
:10C5400008200AF085FF28B108200AF043FF0424E0
:10C550002046A3E702200AF07BFF28B102200AF060
:10C5600039FF0224204699E720200AF071FF28B104
:10C5700020200AF02FFF062420468FE74FF400709A
:10C580000AF066FF30B14FF400700AF023FF072471
:10C59000204683E740F2FF500AF01CFF0098000697
:10C5A000009901F47F4140EA0120009901F47F01E4
:10C5B00040EA1120009940EA116068600198000685
:10C5C000019901F47F4140EA0120019901F47F01C2
:10C5D00040EA1120019940EA1160286020465DE799
:10C5E00080480220E028022094480220342C014098
:10C5F00070B5044600BF414D2D6805F48035B5F592
:10C60000803FF8D03D4D2D6815F0010F02D0012577
:10C610003A4E3560394D2D1D2D6845F08075374EE9
:10C62000361D3560012B04D0022B20D0042B5AD1AB
:10C630003BE0324D2D1D2D6825F440752F4E361DE3
:10C64000356035462D6845F00105356000200BE06A
:10C65000255C0D5400BF294D2D6815F0010FFAD04F
:10C660000125264E3560401C9042F1D33BE0234D1E
:10C670002D1D2D6845F48075204E361D35603546DC
:10C680002D6845F00105356000200BE0255A0D525C
:10C6900000BF1A4D2D6815F0010FFAD00125174E75
:10C6A0003560801C9042F1D31DE0144D2D1D2D6886
:10C6B00045F40075114E361D356035462D6845F040
:10C6C0000105356000200BE025580D5000BF0B4DD3
:10C6D0002D6815F0010FFAD00125084E3560001DB8
:10C6E0009042F1D300BF00BF044D2D1D2D6825F0F1
:10C6F0000105024E361D356070BD00000C3C024045
:10C7000010B5024600BF264B1B6803F48033B3F517
:10C71000803FF8D0224B1B6813F0010F02D0012399
:10C720001F4C23601E4B1B1D1B6843F080731C4C69
:10C73000241D236023461B6843F4007323602346B3
:10C740001B6843F00203236010461CE0144B1B1DC2
:10C750001B6823F0F803124C241D236023461B683A
:10C7600043EAC003236023461B6843F480332360FD
:10C7700000BF0B4B1B6813F0010FFAD00123084CCC
:10C780002360431CD8B253188342DFDC044B1B1DCB
:10C790001B6823F00203024C241D236010BD00001F
:10C7A0000C3C024002480349086003480860704797
:10C7B00023016745043C0240AB89EFCD10B5044628
:10C7C0000A280FD00D2C11D009480068C0690168F3
:10C7D0002046884707480168002907D02046BDE861
:10C7E00010400847BDE8104001F0A8BE10BD000091
:10C7F00030290220582902202DE9FF5F8346DDE918
:10C800000E45984691468A4604F5B47405F5B4750C
:10C810004FF0FF3601274FF4B47003E0A4F5B47471
:10C82000A5F5B4758442F9DA002D65DD5A2C11DACC
:10C83000002C00DA00245A2D01DA284600E05A20A4
:10C84000CDE90040CDE9027643464A465146584676
:10C8500013F080FE5A3D5A3C002D4DDD5A2C14DA5F
:10C86000002C00DA00245A2D01DA284600E05A2074
:10C87000C4F15A01C0F15A008DE8430043464A46CC
:10C8800051465846039613F065FE5A3D5A3C002D1A
:10C8900032DD5A2C12DA002C00DA00245A2D01DA8B
:10C8A000284600E05A200DF1040C0094ACE8C100C9
:10C8B00043464A465146584613F04CFE5A3D5A3CB0
:10C8C000002D19DD5A2C14DA002C00DA00245A2D20
:10C8D00001DA284600E05A20C4F15A01C0F15A009A
:10C8E0008DE8830043464A4651465846039713F065
:10C8F00031FE5A3D5A3C97E7BDE8FF9F2DE9F043D2
:10C900000446C56887B090468946002003F02CFF96
:10C91000064625B1287910B146F0020001E026F064
:10C92000020003F021FF2069012558B1D4E9021269
:10C930008DE82600039563882288046841464846AE
:10C94000A0471EE0124F134B214638681B68427CFB
:10C95000E068984730B9E088012801D0002001E064
:10C960003868806BA288E388A1680095CDE904103F
:10C97000CDE902320195638822884146484605F098
:10C98000E3FE07B03046BDE8F04303F0EDBE000023
:10C9900030290220282902202DE9F04781468846C7
:10C9A00040F2C32050434FF47A7190FBF1F502FB43
:10C9B00002F002EBD27100EB61066D1C17460023FA
:10C9C00041464846FEF7DCFA012413E004FB04F07C
:10C9D00007FB0700B04206DD3B462246414648467B
:10C9E000FEF7CEFA7F1E3B46224641464846FEF7FA
:10C9F000C7FA641CAC42E9DDBDE8F0871CB5002431
:10CA0000019401AC009400F0E7F81CBD2DE9FF4F44
:10CA100083B0814606988A46A0EB0A08109E002043
:10CA20000090A2EB09043568934654EA080018D038
:10CA30002046FCF715F807464046FCF711F88742F8
:10CA40000BDA2046444680464846D1468246584640
:10CA5000DDF818B0069001200090002C07DD20467C
:10CA600006E007B04846BDE8F04F00F03BB9604231
:10CA7000A0420AD04846D9466442C8F1000883461D
:10CA80004FF0FF37DDF818A000E001275148B8F15A
:10CA9000000F11D004EBD4714FEA610B01DACBF136
:10CAA000000B4C480068807E88B3002F02DA3068A3
:10CAB0002044306000257BE000990029016821D0E6
:10CAC000897E11B10027804615E007B05A464946D5
:10CAD0005046BDE8F04F05F09BBF28466D1C1EF088
:10CAE0002BF938B9D8F8000009EB0701C06E42688D
:10CAF000504690477F1CA742EFDD6D1E356007B0A2
:10CB0000BDE8F08F8A7E1AB10027804617E019E051
:10CB1000C86E5A465146036807B04846BDE8F04F14
:10CB2000184728466D1C1EF007F938B9D8F80010D0
:10CB300009EB0700C96E4A68514690477F1CA7421F
:10CB4000EFDDDAE700250FE008FB05B090FBF4F11C
:10CB500001EB0A00009951B11E4A09EB0501126868
:10CB6000D26E526890476D1CA542EDDDC7E71949AA
:10CB700009EB05030968C96E4A6801461846F1E7E2
:10CB800008FB05B090FBF4F101EB0A00019030685E
:10CB9000384430601EF0D0F848B9009890B10D4884
:10CBA00009EB05010068C06E4268019890476D1C52
:10CBB000A542E5DD3068002F01DA20443060C01B5B
:10CBC00030609CE7034909EB05000968C96E4A68B3
:10CBD0000199EBE7302902202DE9FF470F46404934
:10CBE0001646804609680C981D460A7E012A1CD00C
:10CBF000A8EB0600791B50EA01031CD0A2F1010941
:10CC00001FF01AFE00F58060824605F065FA00FB11
:10CC100009F4504605F064FA00FB09F1002C0CDA27
:10CC2000C4F50070801240420AE000903246394656
:10CC30004046FFF7EBFEBDE8FF8704F50074A01245
:10CC4000002904DAC1F5007189124C4202E001F5B5
:10CC500000718C12002804DD411C01EBD1714910D8
:10CC600003E000EBD0714910401E00EBD070421081
:10CC7000002C04DD601C00EBD070401003E004EBDE
:10CC8000D4704010641E04EBD47308EB0104ADF8BB
:10CC900000403C18ADF80240A8EB02045B10B21A49
:10CCA000ADF80440ADF808203144FC1AEA1AADF89A
:10CCB0000C102844ADF80A20ADF80E000023ADF8A2
:10CCC00006401A460421684600F07AF83946404684
:10CCD00016F06AF92946304616F066F9ABE700000F
:10CCE00030290220064A13681A7E012A05D0521EF6
:10CCF00002EBD272521000F005B8DA6E526810479B
:10CD0000302902202DE9F05F0646884640F2C32014
:10CD100050434FF47A7190FBF1F702FB02F002EB03
:10CD2000D27100EB610B254914467F1C096832441F
:10CD3000301BC96E0B684146984701253AE000BF99
:10CD400005FB05F004FB040159451CDDBC4219DD5F
:10CD50001A4B06EB050AA6EB05091B68AAF10102AE
:10CD600008EB0401DB6E09F101001B689847134BC7
:10CD7000AAF10102A8EB04011B6809F10100DB6EB6
:10CD80001B689847641E0D4806EB040AA6EB0409CD
:10CD9000006808EB05015246C06E03684846984794
:10CDA0000648A8EB050152460068C06E0368484675
:10CDB00098476D1CBD42C3DDBDE8F09F30290220BD
:10CDC0002DE9FF4F40F6FF740F46664283B09B4645
:10CDD000814600210BE000BF09EB8100B0F90200A1
:10CDE000A04200DA0446B04200DD0646491CB942C2
:10CDF000F2DB68480068406900280DD0B0F90610E1
:10CE00001A46A1EB0B01B14200DA0E46B0F902005E
:10CE1000801AA04200DD0446B5E0DFF87CA10020C6
:10CE20000546CAF8000089E0781E854201DA6B1CCD
:10CE300000E0002309EB850C09EB8302BCF902003A
:10CE4000B2F90210A04245D1A14215D139F92330DF
:10CE5000059A39F9251003EB020C4E4A0598126821
:10CE6000084404EB0B01D26E6045136801DA624698
:10CE70002BE00246604628E02846A4464FF0000812
:10CE80007A1E0BE008B1401E00E0781E09EB80031B
:10CE9000B3F90230634504D108F101089045F1DB94
:10CEA0002346A34249D0A3EB040239F92500A1EBA4
:10CEB000040C059B92EA0C0209D4364A184404EB90
:10CEC0000B011268D26E13680246984735E010F0E5
:10CED0001DFA32E0A14230D001DBA04203DDA042C6
:10CEE0002BDBA14229DCE04688420ADC0346A04253
:10CEF00023DC0846A14220DBB8F900C0B2F90010DB
:10CF000008E00B46A14218DCA04216DBB2F900C0D3
:10CF1000B8F90010E21AA1EB0C0151430029A0EB73
:10CF2000030202DD01EB620102E0A1EB6201491C98
:10CF3000C01A91FBF0F06044C9E76D1CBD42FFF6DA
:10CF400073AF0598009004EB0B0001900020804621
:10CF5000054613E01149B8F1000F31F915A009D0C9
:10CF6000009901EB0A0208440A490968C96E0B6876
:10CF70000199984788F0010850466D1C06490968D8
:10CF80008D42E7DB641CB4427FF747AF07B0BDE8D2
:10CF9000F08F00003029022064290220984A0220E4
:10CFA00010B5002003F0D4FB6FF07F4003F0D4FBFA
:10CFB000012003F00BFC002003F010FC002003F024
:10CFC00017FC002003F0D0FB0448006803F0CEFB00
:10CFD000BDE81040002003F0D5BB00002C29022042
:10CFE000F0B50A4600210023002400BF3DE00125E2
:10CFF00005FA01F3156805EA03049C4234D105687B
:10D000004F000326BE40B543056015794E00B5407C
:10D010000668354305601579012D02D01579022D7A
:10D0200016D185684F000326BE40B543856055790B
:10D030004E00B540866835438560456801268E40C0
:10D04000B5434560456896798E40B6B23543456034
:10D05000C5684F000326BE40B543C560D5794E0074
:10D06000B540C6683543C560491C1029BFD3F0BD23
:10D07000F0B5002300244D07ED0E02FA05F3CE10A3
:10D0800000F1200555F826504E07F70E0F26BE403A
:10D09000B543CF1000F1200646F82750CE1000F11E
:10D0A000200555F8265045EA0304CE1000F120056E
:10D0B00045F82640F0BD418370470183704770B545
:10D0C0000C46054600F014F9A8682168C162616841
:10D0D0000163A1684163490707D5D0E90021C0E990
:10D0E0000012D0E90221C0E90212A18981842169DC
:10D0F000002903D001DC4FF00001016270BD2DE971
:10D10000F0411E4617468846054600F0F1F8AC6827
:10D110006822414604F58470FBF75BFA2846B8475D
:10D120002846B047286980688047A062BDE8F08142
:10D1300010B5044600F0DCF8A0680E494C30114AE6
:10D14000C1650D4981650D4901660D498166002162
:10D15000C166136843660C4BC0E91E3151684167D4
:10D1600030F8261C21F0030120F8261C07494164F1
:10D1700010BD000005AE020861B20208CDAD020884
:10D1800007A60208A8290220ABA7020809AD0208D9
:10D1900010B5044600F0ACF8A4680C489034102197
:10D1A00020650B4860650B48A0650B48E0650B489F
:10D1B000E0600B482061206BA06654F8902920465F
:10D1C00090471020A0630748606410BD451B02080B
:10D1D000493E020831D2000861D3000835A4020894
:10D1E00071BD020828C3030870B50C46054600F05F
:10D1F0007FF80A48AA6814B1012C08D103E0084955
:10D200000160084902E0084901600849416001687D
:10D2100042F8B01F4068106170BD0000A8290220CC
:10D22000BFA5020821A70208E7A502086DA702080A
:10D23000F8B5846815460F4694F8260080074CD54B
:10D24000D4F8FC30204698470646D4F800312A46E8
:10D25000394620469847D4F8943005461BB1002241
:10D260000121204698472069B04201DD012000E0FD
:10D270000020A169B14201DA012100E00021084348
:10D280006169A94201DD012100E000210843E16953
:10D29000A94201DA012100E0002108430AD06068B8
:10D2A000401E00902368D4F8A4705B1E0022114633
:10D2B0002046B847D4F8A8302A4631462046984739
:10D2C000D4F89C1020468847D4F8943005466BB1BA
:10D2D000012200212046984708E0D4F8A8302046D3
:10D2E0009847D4F89C102046884705462846F8BD44
:10D2F00070B504468068002812D14FF4B8752846EE
:10D3000000F04AFB2A460021A06004F069FEA068F4
:10D310000221C1840121046401620249C0F80411A0
:10D3200070BD000029D3000810B590B0044620223B
:10D330000A496846FBF74DF908492022203108A820
:10D34000FBF747F9606B5DF82010C4F8FC1008A9E2
:10D3500051F82000C4F8000110B010BD6866030841
:10D360002DE9F84384689846154694F826000F4640
:10D37000800740D5D4F8FC30204698470646D4F8BC
:10D3800000312A4639462046984705462069B04272
:10D3900001DD012000E00020A169B14201DA012194
:10D3A00000E0002108436169A94201DD012100E09C
:10D3B00000210843E169A94201DA012100E00021CE
:10D3C00008430AD06068401E00902368D4F8A47017
:10D3D0005B1E002211462046B847D4F8A8302A46E2
:10D3E000314620469847D4F8A02001B04146204657
:10D3F000BDE8F0431047D4F8A830F2E72DE9F04F2C
:10D40000DFF828B191B04FF0FF35DBF80030B3F909
:10D4100022100691DE69B3F92490F469A189814252
:10D4200006D8E289824203D3471AD4F8008012E07A
:10D43000D4E9018100296FD00A8882426CD84D88D6
:10D44000854269D3801A82B2486800EB8200B0F945
:10D450000070B0F90250781C5ED0307EA17C10FBC9
:10D4600001FA217CCDE90801B3F92A60304605F0C4
:10D47000F3FDC0B20E90DBF8000007FB0A81A37C2D
:10D48000826B0127CDE90412CDE90273C069DDE9A1
:10D490000832C17E807ECDE900014946069805F03C
:10D4A00053F9681C18D046F0020005F0D5FDDBF8F2
:10D4B0000000A37C05FB0A81826BCDE90273CDE9F4
:10D4C0000412C069DDE90832C17E807ECDE9000129
:10D4D0004946069805F038F9DBF800005D46C0695A
:10D4E000417E007E814214D9022E12D086F00400C3
:10D4F00005F0B2FD2868C069027EC37E12FB03916D
:10D50000437E857E099A06984B4402FB050205F08E
:10D51000A9FA0E9805F0A0FDDBF80000627C418CB2
:10D520001144418411B0BDE8F08F00003029022081
:10D5300004480068C069C06909B1027C0A60407C87
:10D540007047000030290220022008807047C0691F
:10D5500082898A4202D8C2898A4210D2806880B108
:10D5600002888A420DD843888B420AD3406800EB78
:10D570008100A0EB8200B0F90000002801DB01204F
:10D5800070470020704700002DE9F0432F4C034600
:10D5900087B020681946B0F92A80C069C06900F0D8
:10D5A00084F800284ED041680088181A01EBC005A5
:10D5B0004046AE7805F050FD814620686A68012338
:10D5C000816BCDE90236CDE90421C169CB7E8A7E2B
:10D5D000CDE900230B7EB0F924102A78B0F922009F
:10D5E00005F0B2F82068C069477E067EB7421DD9B3
:10D5F000C07E47434643B8F1020F17D001F06FFFDA
:10D60000804601F04FFF03F0A7F821682A78CB6924
:10D61000B1F92200DB7E12FB0302B1F92410CB1911
:10D62000314405F01FFA404603F096F8484605F0ED
:10D6300013FD20686A78C369B0F922109B7E12FB43
:10D640000311418407B0BDE8F083000030290220B7
:10D6500030B50F4C05460B4620682946C069C069A5
:10D6600000F023F8002811D04168008824682A1AA5
:10D670000120E46900EBC200085CA47E10FB04F00A
:10D68000002B03D011F832106143196030BD000047
:10D690003029022001200880704700B5C06900F0E1
:10D6A00004F8002800D0012000BD06E002888A426C
:10D6B00002D842888A4202D280680028F6D1704798
:10D6C00010B517F01FF80448016A04480068C166E5
:10D6D00000F10801416110BD342D022030290220E3
:10D6E0002DE9FE4F05460C9C0E464FEA4400A2EB86
:10D6F000050198461746091A61D4A8EB0601081AD5
:10D700005DD4DFF8C0A04FF00009DAF8000090F80F
:10D71000711019B910F8709F042101700FF0FEF814
:10D7200005440FF009F906440FF0F8F807440FF02C
:10D7300003F9DAF8002000EB080192F8710030B923
:10D7400092F870004543464347434143444392F8AF
:10D7500070007F1E00EB07084718761E284600F071
:10D7600041F8ADF80400404600F03CF8ADF8080080
:10D77000304600F037F8ADF80600384600F032F8D1
:10D78000ADF80A0001A80FF02BF90EE0414628463B
:10D7900000F07CF83B46424631462846009416F09D
:10D7A00077FCFFF78DFF0FF099F80028EED1DAF83B
:10D7B000000090F87110002901D180F87090BDE848
:10D7C000FE8F00003029022008B50091B0F9063024
:10D7D000B0F90420B0F90210B0F90000FFF780FFA3
:10D7E00008BD00000449096891F8701009B190FB68
:10D7F000F1F000B270470000302902202DE9F0411D
:10D800001E4C05460E462068002768B905F007FA49
:10D81000E06100F0C1F8206068B304F12401184809
:10D820000860084604F028FB002D00DA0025E169B5
:10D83000731B4A1E2046934201DD6E18761EAE42CF
:10D8400001DA2E4601270F4C2268D16E4B688363A4
:10D8500001620A490C4B34310B60D16602C862C0C8
:10D8600010F050FEFCF7A6FA044821682C304861FD
:10D870003846BDE8F0810127D6E70000342D0220AC
:10D880000980020830290220392E0208044A126851
:10D8900092F8702090FBF2F091FBF2F1FFF7AEBF2F
:10D8A00030290220F8B505460C000DD0084600F0DE
:10D8B00015F8060010D000F0F9F8224600902DB1BE
:10D8C0002946FAF7FFFD04E00020F8BD002104F02E
:10D8D00087FB684600F034F93046F8BD002801D0D7
:10D8E0000FF0E2BE704738B50546FFF7F7FF0400BA
:10D8F00009D000F0DBF82A460021009004F070FB0C
:10D90000684600F01DF9204638BD0000024A10604C
:10D9100021F0030050607047C049022010B5002874
:10D9200014D004460A48006B10F8341000290DD0BA
:10D9300002290BD2042101EBC401415848680FF0C1
:10D9400001FD2046BDE810401CF042BD10BD0000A6
:10D9500004490220002805D0034A916B016001B1FF
:10D9600048609063704700000449022010B50446E7
:10D970000068FFF7D3FF0020206010BD70B50D4692
:10D980000646002405E000BF06EB8400FFF7EEFF2B
:10D99000641CAC42F8DB70BD2DE9F041044619F07F
:10D9A000F1F92648E41C24F00305C16B2D1DA942A2
:10D9B00000D90D46846B13E054F8042CAA420ED112
:10D9C00084B1216809B162684A60616809B122685E
:10D9D0000A60826BA2422ED1216881632BE0246809
:10D9E000002CE9D18046416B80680F1857F8040C71
:10D9F0003E1A306838B100201CF0C6FF57F8040CFE
:10DA00003E1A3068B8B97068A84214DB3044441B31
:10DA100030461CF071FFD8F80810491BC8F80810F0
:10DA2000D8F810102944C8F8101070683146401B0F
:10DA30000FF088FC20C42046BDE8F0810449022094
:10DA400010B5002419F09EF90C490F2001EBC0021B
:10DA5000126C1AB101EBC000006C08E0401EF5D555
:10DA600008E04168A14200D90C46806810B1806886
:10DA70000028F6D1A4F10C0010BD000004490220DA
:10DA8000024881680068081A7047000004490220B3
:10DA9000002138B10449042202EBC000096B085888
:10DAA00041680C39084670470449022005498A69D3
:10DAB000521C8A61096B01EBC0010A78521C0A7082
:10DAC00000F056B8044902207CB506460C460846CC
:10DAD000FFF704FF05001CD0DEB13046FFF7D8FF8A
