:020000040800F2
:10800000001600108D820008DD4E0108A120010835
:10801000D94E0108B1900008919D010800000000B0
:10802000000000000000000000000000B186010810
:10803000FBAB000800000000B1540108D187010823
:10804000A7820008A7820008A7820008AD62010885
:10805000A7820008A7820008A782000889B5000847
:10806000A7820008A7820008F5B50008A7820008CB
:10807000A7820008A7820008A7820008A78200083C
:10808000A7820008A7820008A7820008A78200082C
:10809000B5900008C5900008A7820008A7820008D4
:1080A000A7820008A7820008A7820008A78200080C
:1080B0009D890108A7820008A7820008A7820008FE
:1080C000A7820008A7820008A7820008A7820008EC
:1080D000A7820008A7820008A7820008A7820008DC
:1080E000A78200087D5D0108A7820008A78200081A
:1080F000A7820008A7820008A7820008A7820008BC
:10810000A7820008A7820008A7820008A7820008AB
:10811000A7820008A78200080D8A0108618A010869
:10812000A7820008A7820008A78200089DA3000874
:10813000A7820008A7820008A7820008A78200087B
:10814000A7820008A7820008A7820008A78200086B
:10815000A7820008A7820008A7820008A78200085B
:10816000A7820008A7820008A7820008A78200084B
:10817000A7820008A7820008A7820008A78200083B
:10818000A7820008A7820008A7820008A78200082B
:10819000A7820008A7820008A7820008A78200081B
:1081A000A7820008A7820008A782000800F002F852
:1081B00000F05CF80AA090E8000C82448344AAF125
:1081C0000107DA4501D100F051F8AFF2090EBAE823
:1081D0000F0013F0010F18BFFB1A43F001031847FB
:1081E000FC4C03002C4D03000A444FF0000C10F827
:1081F000013B13F0070408BF10F8014B1D1108BF25
:1082000010F8015B641E05D010F8016B641E01F8C4
:10821000016BF9D113F0080F1EBF10F8014BAD1C14
:108220000C1B09D16D1E58BF01F801CBFAD505E032
:1082300014F8016B01F8016B6D1EF9D59142D6D38C
:10824000704700000023002400250026103A28BFB4
:1082500078C1FBD8520728BF30C148BF0B607047B8
:108260001FB52AF04AF81FBD10B510BD00F074FA12
:108270001146FFF7F5FF29F03DFA00F092FA03B43A
:10828000FFF7F2FF03BC00F097FA000009488047AF
:1082900009480047FEE7FEE7FEE7FEE7FEE7FEE7E8
:1082A000FEE7FEE7FEE7FEE704480549054A064B00
:1082B00070470000416C0108AD810008000000100B
:1082C00000160010000600100006001053EA020C11
:1082D00000F069802DE9F04B4FF00006002B1FBF26
:1082E000B3FA83F503FA05F424FA05F65E4012BFEB
:1082F0001643B2FA82F502FA05F4C5F120051EBF55
:1083000022FA05FC44EA0C04203556EA044C4FEAF4
:10831000144418BF641C4FF000084FF0000990424D
:1083200071EB030C39D3002919BFB1FA81F701FAB7
:1083300007F6B0FA80F700FA07F6C7F120071EBF6C
:1083400020FA07FC46EA0C062037B6FBF4FCA7EB44
:108350000507103F07F01F0BCBF120060CFA0BFBB3
:108360002CFA06F644BFB3460026202FA4BF5E4673
:108370004FF0000B5BEA060C08BF4FF0010B19EB46
:108380000B09ABFB027C48EB0608C01B06FB02CCCA
:108390000BFB03CC71EB0C01C1E70B4602464146D7
:1083A0004846BDE8F08B13B54FF000004FF00001D8
:1083B000AFF30080BDE81C407047401ECAB210F801
:1083C000011F8A4202D00029F9D10020704740EAFB
:1083D000010310B59B070FD1042A0DD310C808C99B
:1083E000121F9C42F8D020BA19BA884201D9012044
:1083F00010BD4FF0FF3010BD1AB1D30703D0521C8F
:1084000007E0002010BD10F8013B11F8014B1B1BC9
:1084100007D110F8013B11F8014B1B1B01D1921E33
:10842000F1D1184610BD40EA0103024630B59B0762
:1084300010D14FF0013400E008C208C91D1B9D4354
:1084400015EAC41FF8D013F0FF0102F8011B0DD08C
:108450001B0AF8E711F8013B002B02F8013B05D09D
:1084600011F8013B002B02F8013BF3D130BD10B5F0
:10847000431C02E010F8011B71B18107FAD14FF0E3
:10848000013202C88C1A8C4314EAC211F9D0C01A06
:108490000A0603D0C01E10BDC01A10BD0A0401D0C8
:1084A000801E10BD0902FCD0401E10BD421E12F8F5
:1084B000013F002BFBD111F8013B002B02F8013BDF
:1084C000F9D17047032A40F2308010F0030C00F01D
:1084D000158011F8013BBCF1020F624498BF11F8FE
:1084E00001CB00F8013B38BF11F8013BA2F10402B7
:1084F00098BF00F801CB38BF00F8013B11F003032F
:1085000000F06780083AC0F0088051F8043B083A50
:1085100051F804CBA0E80810F5E7121D5CBF51F834
:10852000043B40F8043BAFF30080D20724BF11F8AE
:10853000013B11F801CB48BF11F8012B24BF00F813
:10854000013B00F801CB48BF00F8012B7047431AEC
:1085500028BF9A427FF6B6AF032A1044114440F276
:10856000268010F0030F1EBF11F8013D521E00F8C7
:10857000013D10F0030F7FF4F6AF11F0030300F09C
:108580009F80083AC0F00B8051F8043D083A51F83A
:1085900004CD40F8043D40F804CDFFF7F3BF121DB1
:1085A0005CBF51F8043D40F8043DAFF30080D207B2
:1085B00024BF11F8013D11F801CD48BF11F8012C7D
:1085C00024BF00F8013D00F801CD48BF00F8012CA0
:1085D000704710B5203AC0F00B80B1E81850203A2F
:1085E000A0E81850B1E81850A0E81850BFF4F5AF53
:1085F0005FEA027C24BFB1E81850A0E8185044BFDD
:1086000018C918C0BDE810405FEA827C24BF51F849
:10861000043B40F8043B08BF7047D20728BF31F83D
:10862000023B48BF11F8012B28BF20F8023B48BF8E
:1086300000F8012B704702F0FF0343EA032242EAED
:10864000024200F069B84FF0000200B513469446AC
:108650009646203922BFA0E80C50A0E80C50B1F19A
:108660002001BFF4F7AF090728BFA0E80C5048BFAE
:108670000CC05DF804EB890028BF40F8042B08BF4C
:10868000704748BF20F8022B11F0804F18BF00F848
:10869000012B7047704770477047431A28BF9A42B2
:1086A0007FF697AF104410F0030F11441EBF11F86E
:1086B000013D521E00F8013D10F0030F7FF4F6AFAC
:1086C000103AC0F00A8010B531E91850103A20E98C
:1086D0001850BFF4F9AFBDE81040530724BF31E98B
:1086E000081020E9081044BF51F8043D40F8043D4B
:1086F00012F0030F08BF7047D20728BF31F8023DC0
:1087000048BF11F8012C28BF20F8023D48BF00F8EF
:10871000012C70474FF000020429C0F0128010F0C5
:10872000030C3FF492AFCCF1040CBCF1020F18BF64
:1087300000F8012BA8BF20F8022BA1EB0C01FFF7DA
:1087400084BF5FEAC17C24BF00F8012B00F8012B35
:1087500048BF00F8012B7047754600F029F8AE4677
:1087600005006946534620F00700854618B020B53D
:10877000FFF79AFDBDE820404FF000064FF00007DC
:108780004FF000084FF0000B21F00701AC46ACE8B9
:10879000C009ACE8C009ACE8C009ACE8C0098D4626
:1087A00070470446AFF300802046FFF768FD0000E5
:1087B00000487047F42C002001491820ABBEFEE7AA
:1087C000260002007047002800DC4042704700008D
:1087D00038B5456804460146284611F0F7FA0028E6
:1087E0002AD02068304A0F2819D006DC0B2824D064
:1087F0000C2810D00E2851D12FE0112802D02828A3
:108800004CD145E09268002A16D02146284601B096
:10881000BDE830401047214628465268F7E7284611
:1088200005F01AF80090406E0468684605F05EF89E
:10883000002C01D02846A04738BD284605F00CF88A
:108840000090683004F068FF009803216C3004F059
:108850006BFF684605F04AF820E0E168486809685F
:108860000D2902D0202913D105E0002810DD28466B
:108870001EF01BFD06E0002804DD2846BDE8384058
:108880001EF013BD2846BDE8384002211EF023BD6E
:10889000E06818B90021284600F0C2F92046BDE87A
:1088A000384011F0BFBE00008C0900202DE9FF41C7
:1088B0000AAF70CF002703958DE8D00000F003F8D1
:1088C00004B0BDE8F081F0B585B00DF1280CBCE82E
:1088D000F0004FF0000C8DE8F01000F025F805B026
:1088E000F0BDF0B5044685B08069B4F90850668AD9
:1088F0000027CDE90265CDE900170490B4F90C001A
:10890000B4F91060C118B4F90A00B4F90E5010445B
:1089100033462A4600F008F80546616800F0B6F9CB
:1089200005B02846F0BD0000F0B585B00C46DDE985
:108930000D514C31DFF850C0DDE90A67CDE902C1C5
:108940002146CDE9006711F0BDFD040018D004F008
:1089500083FF10222946049011F03EFC0498302237
:108960000A493430FFF735FE084D04990C3D28685C
:10897000486604A804F0BAFF286841682046884782
:1089800005B02046F0BD0000D187000898090020FE
:10899000F0B5044680688B4989B051F82050606872
:1089A00000287DD0052804D006287AD0122879D155
:1089B000AEE0E86900284FD095E80E008DE80F0082
:1089C00004F110010FC908F075FE002655F82600C5
:1089D00007F030FEA169E8690A1A2169014460695B
:1089E000304405F015FFA169E8690A1A21690144BC
:1089F000E069801B05F00CFFE169E8690A1A61690A
:108A000001442069304405F0B5FFE169E8690A1ABC
:108A100061690144A069801B05F0ACFF761C022E41
:108A2000D4DBA86807F006FEE069E9696669431AC5
:108A300020694218521E3144801C06F069F8E16931
:108A4000E869A2690B1A61690144101A401C921E60
:108A500006F05EF8EE6913E05FF0000655F82600B8
:108A600007F0E8FDE069831BA069821B606981193A
:108A70002069304405F024FF761C022EEEDB02262E
:108A8000D5E90301CDE900016169E06908444310BB
:108A9000A069891C821B2069304405F085FE02E034
:108AA00089E012E08AE0D5E90501CDE90001E3693A
:108AB00060690121184401EB6001A0699B1E821BC3
:108AC0002069304405F070FE78E0206804F0C4FEB0
:108AD0000490206813F072F940B1A06808B100203A
:108AE00008E00498006F28B1012003E00498406F6B
:108AF00000B10220049901EB8000C56E04A804F0C7
:108B0000F5FE00231A462846216805F067FB55E06C
:108B1000206804F0A1FE0490866EEEB3B0F95C709C
:108B2000A168D1B3032942D05FF0000100EB8101BD
:108B3000406D0C6C07F094FD204607F07BFD05A806
:108B400006F0F0FBBDF81410A88B0144ADF814102A
:108B5000BDF81810081AADF81800BDF81600801CF2
:108B6000ADF81600BDF81A00801EADF81A00049882
:108B70005E30B0F90220B0F9001005A807F037FC0C
:108B800004A804F0B3FE022007F0ACFD304604F068
:108B900063FE3A4605A901E00BE006E0079005F008
:108BA00069FC07A804F0A2FE08E00121BEE702214B
:108BB000BCE704A8F6E7206812F022FD09B0002007
:108BC000F0BD0000208C03081CB504460020009076
:108BD0002346054A2B210190044805F0F1F9044988
:108BE0000860084600681CBD05BE0208742603081C
:108BF00058080020044A0349116004494A6A48623F
:108C000010467047C80900208C09002098090020F0
:108C100000294FF0100101D011F062B911F0BAB87B
:108C20004FF480720029114601D011F059B911F0AA
:108C3000B1B808B50023009300F001F808BD70B585
:108C400016460C46054619463046049A05F0AEFA1B
:108C5000024621462846BDE8704000F03FB80000BB
:108C600038B50C46054604F0F7FD009006498465CA
:108C70004166684604F03AFE284612F0C1FC2846D8
:108C800012F0C7F938BD0000C80900202DE9FF41E6
:108C90000E4605004FF001041CD004F0DDFD0190EC
:108CA000876E01A8009704F021FE3146684609F05E
:108CB000A1F878B100980024B84208D0284604F002
:108CC000CBFD01900099816601A804F00FFE2846B3
:108CD00012F09FF904B02046BDE8F081F8B51546C2
:108CE0000C46060013D004F0B7FD0090032C0BD8FF
:108CF00000EB84006C3004F00FFD009800EB840062
:108D0000C566304612F085F9684604F0EFFDF8BDFF
:108D1000F0B52DED028B85B0012099490870994975
:108D20000870994807F09CFC4FF6FF7007F082FC32
:108D300096480078B0B10EF0DBFA94490870084606
:108D4000007820B99249002027F09AFF0AE000221B
:108D500090A192A007F044FB8C48007805B0BDECD0
:108D6000028BF0BD3222AA2191A005F061FB96484A
:108D7000FFF740FF11F074FD074640F601000021A7
:108D800002221E23CDE90072CDE9021028226421BF
:108D90009620FFF798FD8D4908608DA18B480068EB
:108DA000FFF774FF11F05CFD07464FF402600021ED
:108DB00002221E23CDE90072CDE90210282264218F
:108DC0004FF49670FFF77FFD8249086082A18148C9
:108DD0000068FFF75BFF11F043FD07467F4912F083
:108DE000CDFA01E005F034FE6548007818B1654819
:108DF00000780028F6D17548006811F047FC7548E6
:108E0000006811F043FC0020704908607149086057
:108E100005F08EF85A48007800287DD15C4927F08B
:108E20002FFF6FA16F4827F0F3FF6F4908700846C6
:108E30000078002871D10A2205216CA005F0F8FA0B
:108E40006E4991F856106E4A52F8210005F070FAFA
:108E50001E2205216BA005F0EBFA6848007E801CFD
:108E6000012101FA00F665480069401C704363491E
:108E70000A7A0121914000FB01F400EE104AB8EE9D
:108E8000400ADFED650A80EE208A0620B0EE480A2F
:108E900005F003FA61A005F04BFA3222052161A02A
:108EA00005F0C6FA03216348008805F0CEF962A0F8
:108EB00005F03EFA4622052161A005F0B9FA4F49B6
:108EC000886B0A2105F0C1F95A22052160A005F03E
:108ED000AFFA4A49B1F85400052105F0B6F96E22FF
:108EE00005215DA005F0A4FA444991F82C00022167
:108EF00005F0ABF9002227A15CA007F071FA01226E
:108F00005EA1614827F0D2FE374908700846007814
:108F1000002832D100BF01E02EE021E05A4804AB26
:108F20005A49C26827F0B0FF2F49087008460078F8
:108F300010B904980028EED100BF00BF524827F0B6
:108F4000DAFD524809F0AEF84FF0504045685049FC
:108F500008600146086880F3088800BFA8470CE055
:108F600000220CA14BA007F03BFA0021084627F095
:108F700087FE1D49087000E000BF04480078EDE658
:108F80001400002015000020F8670308D801002015
:108F9000B80F00204D65737361676500534420630B
:108FA000617264206973206572726F720000000044
:108FB00020424F4F542046524F4D205344204341AE
:108FC0005244203F2000000091890008AC0000209E
:108FD00059455300B00000204E4F0000E9CA020876
:108FE000303A000014140020DC01002020434152DC
:108FF000442054595045203A20000000600F0020C2
:10900000900000202053445F434152442053495A6A
:1090100045203A202000000000008049204D4259A0
:109020005445000020534543544F522053495A455C
:10903000203A2000D601002020204259544500004B
:109040002052524F4455435420534E203A200000A2
:1090500020524341203A2000204D414E5546414385
:109060005455524552204944203A2000534420632D
:10907000617264206973204F4B210000303A737491
:109080006D33322E68657800F0110020000003D0A7
:1090900008ED00E053442063617264206973206E20
:1090A0006F7420696E697469616C697A650000008B
:1090B00000BFFEE710B5002000F048FC00F014F8F7
:1090C00010BD000010B501200549087000200549B9
:1090D0000870012000F03AFC00F034FB10BD0000E5
:1090E000500200205302002070B586B0FC48807802
:1090F0000C287DD2DFE800F00607263E7C6AC9FE18
:10910000FDFCFBFAF1E24FF4C070F649088006203E
:1091100088700120C870F4480178F2480171F24863
:109120004178F0484171F1488178EE488171EF480B
:109130004178EC48C171ED48C178EA48017200F00D
:10914000A7FCD2E2E6480079E7490870E448407994
:10915000487000200DF042F8E1488079E3498870BA
:10916000DF48C0794870DE48007AC87000200CF0F3
:10917000D1FFBAE24FF4C170DA4908800120C8700B
:10918000DB480178D7480171DA480178D548417148
:10919000D9480178D3488171D8480178D148C17144
:1091A000D7480068010ECF488172D5480068010C8D
:1091B000CC484172D2480068C1B2CA480172082046
:1091C000C8498870084600F063FC8EE24FF080408A
:1091D000008C40F010004FF0804108840846008C5D
:1091E00040F0010008840120C4490860C54800E03F
:1091F0007AE20068002847D0C348007818B1C24816
:109200000078012824D111200BF000FA002400E09E
:10921000641CBE488442FBDBBE200BF0F7F904203F
:109220000BF0D6F9BA4800880BF0D2F901200BF008
:10923000CFF9F0200BF0CCF900200BF0C9F9002099
:109240000BF0C6F90220B04908700020B14908703F
:109250000020B14908604FF40161AA48006811F08C
:1092600015FB0646AD493046FFF7FAFC304612F0D2
:1092700051F940F61101A348006811F007FB0646BA
:10928000A7493046FFF7ECFC2FE29F48007818B161
:109290009D480078012824D111200BF0B7F9002453
:1092A00000E0641C99488442FBDBBE200BF0AEF961
:1092B00004200BF08DF9964800880BF089F9012005
:1092C0000BF086F9F0200BF083F900200BF080F909
:1092D00000200BF07DF902208B49087000208D4999
:1092E000087000208C4908607D4804E0D6E1B2E1B6
:1092F0008CE15EE1CBE040797D490860084600687A
:1093000000285AD04FF08040008B40F004004FF00E
:10931000804108830846808940F00200888123202C
:10932000C862052088636E48C07973490860086880
:1093300000EBD0714C1000EE104AB8EEC00ADFED21
:10934000790A80EE201A784880ED001A6D4800688E
:10935000002831D040F613016A48006811F096FAEF
:109360000646304611F09CFD40F614016548006841
:1093700011F08CFA0646304611F0F7F940F6170165
:109380006048006811F082FA06465B480168304682
:109390000BF07BFF304612F0E6F940F61601594813
:1093A000006811F073FA06465348016830460EF023
:1093B000B9FF304611F0E6F959E0494880794D4946
:1093C00008604FF08040008B20F004004FF0804197
:1093D00008830846808920F002008881454800689B
:1093E00000EB80004FF47A71A1EB4000C906C8621F
:1093F0004048006800EB800040F2CA31A1EB400019
:10940000490788633F48006888B340F617013D4824
:10941000006811F03BFA0646304611F041FD40F677
:1094200016013848006811F031FA0646304611F04E
:109430009CF940F613013348006811F027FA0646FC
:109440002C48016830460BF020FF304612F08BF9B3
:1094500040F614012B48006811F018FA064625481A
:10946000016830460EF05EFF304611F08BF925485A
:10947000006858B140F618012248006811F006FA59
:1094800006461B480168304601F05BFB2DE14FF0BA
:109490008040008C20F010004FF080410884084686
:1094A000008C20F0010008840020204908709FED06
:1094B000200A204880ED000A002010490860114869
:1094C0000068002874D01048007818B10E48007861
:1094D000012851D111200BF099F800242DE0000053
:1094E000B4280020A8280020BC000020C0000020D4
:1094F000E0010020E4010020E8010020F00100204C
:109500001864004084030020DA01002020BF02001C
:1095100046020020DB0100202414004009CD02088F
:109520009189000800004842EC010020F40100206D
:1095300000000000F8010020641C70488442FBDB3E
:10954000BE200BF063F804200BF042F86C48008852
:109550000BF03EF801200BF03BF8F0200BF038F850
:1095600000200BF035F800200BF032F8022065499E
:10957000087000206449087000206449086040F6C3
:1095800011016348006811F081F9064661493046CF
:10959000FFF766FB304611F0BDFF4FF401615C48F8
:1095A000006811F073F906465B493046FFF758FB37
:1095B0009BE05A4840795949097940EA01205849C5
:1095C000088058480078C87056484178544801715E
:1095D00055480178524841715448006858B9534879
:1095E00001784F4881714F48017B4D48C17105207A
:1095F0004B49887006E04D48017849488171042044
:1096000047498870464800F043FA6EE048480068D1
:1096100011F03CF811F024F90546182040F6180224
:109620000023CDE9032002930590032022231A464C
:109630000F21CDE900500A2008F0C5FE3C49086022
:10964000012108020CF060FB3AA23B49384800684F
:1096500008F0F6FD49E031480079324908702F489A
:10966000407948700020886088702C4880792E49A5
:1096700008602A48C07930B900202A494860274844
:10968000007A087303E04FF0004026494860254AFD
:109690004FF4807100200CF0C7FC26E024480068DD
:1096A00010F0F4FF11F0DCF80546182040F618021F
:1096B0000023CDE9032002930590032022231A46BC
:1096C0000F21CDE900500A2008F07DFE18490860FE
:1096D00000214FF480700CF017FB16A217491448B4
:1096E000006808F0ADFD00E000BF00BF144800684E
:1096F00040F002001249086006B070BD20BF0200B1
:1097000046020020DA010020DB0100202414004082
:109710008403002009CD020891890008B4280020A4
:10972000A8280020940E00201802002080050020A8
:109730004C0300200000000048B90BD070C20BD0D1
:109740001464004030B57848807B042804D0062893
:1097500049D00B287CD1D3E00020744908607449BB
:1097600008607148007C08606F48407C096841EAE5
:1097700000206F4908606C48807C096841EA00401D
:109780006B4908606848C07C096841EA0060684924
:10979000086002F0D3FE66480068B0F5003F01DCC7
:1097A00001240EE062480068B0F5802F01DC02243D
:1097B00007E05F480068B0F5C02F01DC032400E03B
:1097C00004242146082002F067FE4FF4B97059497D
:1097D0000880022088700120C870672155480171F7
:1097E00000F056F998E05248006850490968401A5C
:1097F000082833D34D4800684F4A811804230822B3
:109800004948103002F0C0FD484800680830474918
:1098100008604FF4B9704749088002208870012021
:10982000C87067214348017100F032F93F48006871
:10983000F021B0FBF1F201FB120038BB3F48006899
:1098400010F0800F05D080203C490A3108801DE0CF
:1098500061E0802039490831088017E03448006809
:10986000324B1B68C21A31480068334BC1180423BD
:109870002D48103002F088FD2D4800682B490968FA
:10988000401A2A490968084428490860284800689D
:1098900026490968884232D125480068011F2648B8
:1098A00026F090FB0546224800682349084450F8FA
:1098B000040CA84210D14FF4B9701E490880022050
:1098C00088700120C87063211A48017100F0E0F827
:1098D00001201B49087012E01A48006840F000405F
:1098E000184908604FF4B970124908800220887046
:1098F0000120C87065210F48017100F0C9F80BE024
:109900004FF4C4700B49088001208870C870084665
:1099100000F0BEF800E000BF00BF0B48006840F058
:1099200010000949086030BDB4280020A8080020B4
:10993000AC080020A82800200000080810140240ED
:10994000A4080020103C0240146400404D4901EB83
:109950000011096801F0020102295AD0494901EBBE
:109960000011896800EB4002474B03EB8202117142
:10997000444901EB001189680A0A00EB400103EB3E
:1099800081014A713F4901EB001189680A0C00EB23
:10999000400103EB81018A713A4901EB00118968AA
:1099A000090E00EB400203EB8202D171354901EB55
:1099B0000011C968CAB200EB400103EB81010A72D1
:1099C000304901EB0011C9680A0A00EB400103EBC2
:1099D00081014A722B4901EB0011C9680A0C00EBA6
:1099E000400103EB81018A72264901EB0011C9682D
:1099F000090E00EB400203EB8202D172214901EB18
:109A00000011496801F00F0100EB400203EB8202F4
:109A1000D1701C4901EB0011096840F2FF7202EAA3
:109A2000515100EB4002184B23F82210154901EB6D
:109A300000114968090A00EB400203EB82029170B1
:109A400030B11249096821F01001104A116005E097
:109A50000E49096821F002010C4A116040B10B491E
:109A6000091F096841F02001084A121F116007E030
:109A700006490839096841F02001044A083A116092
:109A800070470000B0650040B42800201464004016
:109A900010B5024600233048006800F08060B0F145
:109AA000806F01D1002113E02B48006800F00060B6
:109AB000B0F1006F01D101210AE02748006800F0F1
:109AC0008050B0F1805F01D1022101E0022010BD81
:109AD00010884405214800EB011004601F4800EB8A
:109AE0000110406820F00F041C4800EB0110446096
:109AF0001A4800EB0110406894782043174C04EB9F
:109B00000114606090790406507944EA00441079A9
:109B100044EA0020D47840EA0403104800EB011026
:109B20008360907A0406507A44EA0044107A44EA4A
:109B30000020D47940EA0403084800EB0110C36018
:109B4000064800EB0110006840F00104034800EBF8
:109B5000011004600020BAE70864004080650040FE
:109B60007CB5214C0546216831F8220F4A8D1044FE
:109B700008804888CA8D10444880284605F0C2FBFA
:109B80002168498CADF800104618284607F0CCFF34
:109B90003044401EADF8040005F000FC2168898CBB
:109BA000ADF802100844401EADF80600684611F0FA
:109BB00099FF04E0284602F0CDFC11F011FF0028C7
:109BC000F8D10A2D04D0BDF804002168401C488457
:109BD000206830F8221F428D891A01804188C28D89
:109BE000891A41807CBD0000E00800200B48006815
:109BF000018990F8702011FB02F309490B80438919
:109C000013FB02F34B8083895B1C53435B1E8B80E9
:109C1000C089401C5043401EC8807047E0080020A7
:109C20002C0D002070B500254FF4803400E0641E38
:109C300024B180200CF09AFF0028F8D014B9032535
:109C4000284670BD40F2FF500CF052FF2846F8E75E
:109C50002DE9F041064600274748056801E04648DF
:109C6000056815F0450FFAD015F0040F06D003274C
:109C700004200CF03DFF3846BDE8F08115F0010FDF
:109C800005D0012701200CF033FF3846F4E70CF033
:109C900067FFB04202D010273846EDE740F2FF5090
:109CA0000CF026FF00200CF075FF044633480442F8
:109CB00001D13846E0E714F0004F01D01C20DBE76B
:109CC00014F0804F01D00920D6E714F0005F01D0D6
:109CD0000A20D1E714F0805F01D00B20CCE714F00C
:109CE000006F01D00C20C7E714F0806F01D00D2069
:109CF000C2E714F0807F01D00E20BDE714F4000FFE
:109D000001D00F20B8E714F4800F01D01020B3E782
:109D100014F4001F01D01120AEE714F4801F01D00D
:109D20001220A9E714F4002F01D01320A4E714F4A3
:109D3000802F01D014209FE714F4003F01D015209C
:109D40009AE714F4803F01D0162095E714F4004FF1
:109D500001D0172090E714F4804F01D018208BE732
:109D600014F4005F01D0192086E714F0080F01D029
:109D70001A2081E738467FE7342C014008E0FFFDD8
:109D800070B500250F48046801E00E48046814F01F
:109D9000450FFAD014F0040F05D0032504200CF071
:109DA000A7FE284670BD14F0010F05D00125012043
:109DB0000CF09EFE2846F5E740F2FF500CF098FEAE
:109DC0002846EFE7342C014070B500250B480468A5
:109DD00001E00A48046814F0450FFAD014F0040FAB
:109DE00005D0032504200CF083FE284670BD40F208
:109DF000FF500CF07DFE2846F8E70000342C0140AF
:109E00002DE9F04106460F464FF00008224805684C
:109E100001E02148056815F0450FFAD015F0040F50
:109E200007D04FF0030804200CF062FE4046BDE866
:109E3000F08115F0010F06D04FF0010801200CF061
:109E400057FE4046F3E70CF08BFEB04203D04FF0D4
:109E500010084046EBE740F2FF500CF049FE0020AE
:109E60000CF098FE044614F4604F03D1200C3880A7
:109E70004046DCE714F4005F01D01320D7E714F468
:109E8000804F01D01020D2E714F4004F01D00F20F2
:109E9000CDE74046CBE70000342C014070B50026EA
:109EA0004FF480350F48046802E06D1E0D480468C9
:109EB00014F0450F01D1002DF7D115B114F0040FA6
:109EC00005D0032604200CF013FE304670BD14F0BC
:109ED000400F05D0002640200CF00AFE3046F5E782
:109EE0003046F3E7342C01401CB50020009001906F
:109EF0000548064A08210368054804F061F8054949
:109F00000860084600681CBD6003002089CE020876
:109F1000442403087805002010B586B010F0A0FC9A
:109F20000446684840F6070100220223CDE90043B9
:109F3000CDE9022104904FF482734FF4CD720F21CA
:109F40003C2010F0F5F96049086060495E480068FF
:109F500010F028FA4120302140F618020023CDE904
:109F60000232CDE9041003205749096841233A22FF
:109F7000CDE900104621642008F025FA5449086014
:109F800054A256495248006808F05AF954495048BA
:109F9000006808F0AAFA08214D48006808F0D3FAD2
:109FA0004120302140F60E020023CDE90232CDE9F6
:109FB000041003204449096841233A22CDE90010E6
:109FC0000021642008F0FFF94649086046A247498D
:109FD0004448006808F034F941494248006808F0F4
:109FE00084FA08213F48006808F0ADFA412030218A
:109FF00040F615020023CDE90232CDE9041003201A
:10A000003149096841233A22CDE90010002114208A
:10A0100008F0D9F93649086036A238493448006852
:10A0200008F00EF92E493248006808F05EFA08215F
:10A030002F48006808F087FA4120302140F61702C7
:10A040000023CDE90232CDE9041003201E4909683E
:10A0500041233A22CDE900104621142008F0B3F93B
:10A060002749086027A228492548006808F0E8F831
:10A070001B492348006808F038FA08212048006886
:10A0800008F061FA302040F616020023CDE90320E3
:10A090000293059003200C4909683A231A46CDE93A
:10A0A0000010C821142008F08EF91849086012A287
:10A0B00017491648006808F0C3F80348006806B05E
:10A0C00010BD0000B5DA0208600300208766DF00DB
:10A0D00074030020414C41524D000000B4B40BD039
:10A0E000FC8B03086403002050574D008C900BD06C
:10A0F0006803002054494D4500000000787E0BD0D5
:10A100006C03002053440000A0A20BD07003002079
:10A11000646C0BD010B586B072B6002006F04AFA17
:10A1200010F09EFB04466D4911F028F96C4806F0CA
:10A1300097FA6C48006800287ED110F091FB044625
:10A1400069484FF4006100220223CDE90043CDE9C4
:10A15000022104904FF482734FF4CD720F213C2002
:10A1600010F0E6F85F49086060495E48006810F04A
:10A1700019F94120302140F617020023CDE90232BF
:10A18000CDE9041003205749096841233A22CDE95B
:10A1900000100021F02008F016F95549086055A27A
:10A1A00056495348006808F04BF855495048006834
:10A1B00008F09BF908214E48006808F0C4F94120D6
:10A1C000302140F604020023CDE90232CDE904102B
:10A1D00003204449096841233A22CDE900100021B7
:10A1E0004FF4AA7008F0EFF84649086046A24849C3
:10A1F0004448006808F024F841494248006808F0E3
:10A2000074F908213F48006808F09DF94120302189
:10A2100040F615020023CDE90232CDE904100320F7
:10A220003049096841233A22CDE900105A214FF400
:10A23000AA7008F0C8F800E02EE03649086036A29F
:10A2400037493448006807F0FBFF2D493148006862
:10A2500008F04BF908212F48006808F074F9302005
:10A2600040F605020023CDE9032002930590032068
:10A270001C4909683A231A46CDE90010C8214FF459
:10A28000AA7008F0A0F82749086027A227492548A6
:10A29000006807F0D5FF03E01248006811F063FA88
:10A2A000234900200BF062FE214988780223002216
:10A2B000052103F0CDFF1FA004F03AF81C494878AF
:10A2C000022103F0C2FF1CA004F032F81849C8783C
:10A2D000022103F0BAFF62B606B010BD0DC7020836
:10A2E000D88B030838030020D1E602088080FF00E5
:10A2F00058030020494D41474500000014240BD06D
:10A30000FC8B03083C03002043414C494200000001
:10A3100028360BD0400300205041494E5400000025
:10A320003C480BD04403002000000000505A0BD0E2
:10A33000C00000202E0000002E3230001CB500208E
:10A34000009001900548064A08210368054803F07B
:10A3500037FE05490860084600681CBD6003002000
:10A36000C5E9020864230308840300201CB500200B
:10A37000009001900548064A07210368054803F04C
:10A380001FFE05490860084600681CBD60030020E8
:10A3900049D60208242503081808002010B50DF03E
:10A3A0003BFA10BD0246094B9A4201D2084801E02F
:10A3B0000648103811F0005F03D0064B0B40C36015
:10A3C00002E0044B0B4083607047000010640240C1
:10A3D000006002407D0F7D0F21B1026842F0010252
:10A3E000026003E0026822F0010202607047000090
:10A3F000016821F00101016000210160416081607C
:10A40000C1600161212141614A49884204D13D2155
:10A41000484A103A91608CE046491831884205D18B
:10A420004FF47461434A103A916082E041493031FF
:10A43000884205D14FF474113E4A103A916078E099
:10A440003C494831884205D14FF07461394A103A8D
:10A4500091606EE037496031884204D13649354A0F
:10A46000103AD16065E033497831884204D13349EC
:10A47000304A103AD1605CE02E499031884204D1D4
:10A480002F492C4A103AD16053E02A49A83188421A
:10A4900005D14FF03D51274A103AD16049E0294992
:10A4A000884204D13D21274A083A116041E02549FC
:10A4B0001831884205D14FF47461224A083A11607C
:10A4C00037E020493031884205D14FF474111D4ADC
:10A4D000083A11602DE01B494831884205D14FF000
:10A4E0007461184A083A116023E0164960318842C5
:10A4F00004D11149134A121F11601AE01149783131
:10A50000884204D10D490F4A121F116011E00D4914
:10A510009031884204D10A490A4A121F116008E0AA
:10A520000849A831884204D14FF03D51054A121F15
:10A5300011607047106002403D000020400F002075
:10A5400000003D201064024021B1026842F0200268
:10A55000026003E0026822F020020260704710B53A
:10A5600011F0800F09D022B1436943F080034361A9
:10A5700003E0436923F08003436180290BD02AB1B3
:10A58000036801F01E042343036004E0036801F044
:10A590001E04A343036010BD10B500220268134BD4
:10A5A0001A40CC680B6823434C6923438C692343CE
:10A5B000CC6923430C6A23434C6A23438C6A2343AC
:10A5C0004C6B23438C6B23431A430260426922F095
:10A5D0000702D1E90B3423431A4342610B694360FC
:10A5E0004B6883608B68C36010BD00003F801CF027
:10A5F0002DE9FC4100282ED0112916D0132910D0A6
:10A6000080460C4603F028F9009000F0DEFA05467B
:10A61000684603F06BF9204620F006FC064600244D
:10A620001CE0BDE8FC4100F082BABDE8FC4100F04E
:10A6300067B92146404600F0CBFA0190007820F03F
:10A64000F3FBC7B201A803F051F9B74205D1214687
:10A65000404600F076FABDE8FC81641CAC42E8DBC1
:10A66000F9E7F8B50C46050013D0002C11D003F023
:10A67000F3F80090C66B684603F038F92046FDF702
:10A68000F6FE421C2146304603F054F9284610F0ED
:10A69000C0FCF8BD2DE9FF4145680446284603F09B
:10A6A000DBF80190D0F8886001A803F01FF90EB123
:10A6B000012700E00027214628460FF087FB0028ED
:10A6C00055D020680F2856D006DC0B2862D00C2805
:10A6D00043D00E282AD173E0112839D0212802D086
:10A6E000262823D116E0E068416800291EDD0068B5
:10A6F0000D281BD1304609F034F9002806DB30461E
:10A7000009F02FF90146284600F01BFA284600F010
:10A7100077F86EE0E068012809D00A2802D00B28FB
:10A720006AD111E00A21284610F025FD64E0304688
:10A7300009F017F900285FDB304609F012F90146ED
:10A74000284600F0FEF954E0284600F059F853E09E
:10A75000FFB9E068007A90BB4EE0E06848B1007A4B
:10A7600008B1012100E00221284610F004FDBDE8F7
:10A77000FF810321F8E72E46284603F06DF802908A
:10A78000D0F88400056802A803F0B0F80DB1304697
:10A79000A84731E0284603F05FF80090C06B03F053
:10A7A00009F90098D0F888000FF070FF0098D0F8F1
:10A7B000940002F089FF684603F098F81CE010E06E
:10A7C000E0684168002917DD016809290DD00A29D0
:10A7D00012D01B2910D0202903D02846FFF708FFEC
:10A7E000C5E7284600F098F806E010F069F8B04296
:10A7F00002D1284610F08EFE20460FF013FFB6E778
:10A8000038B5040011D003F027F80090D0F8880084
:10A8100040B10FF03BFF00990020C1F888002046AE
:10A8200010F0F7FB684603F061F838BDF0B585B06D
:10A83000B0F90850468A84690296CDE9035400278E
:10A84000CDE90017B0F90C10B0F91050B0F90E4076
:10A85000B0F90A00194410442B46224600F002F8D1
:10A8600005B0F0BD2DE9FF410C461D46DDE90D7137
:10A87000DDE90B366C31DFF880E0DDF828C0CDE98A
:10A8800000C3CDE902E14FF0FF3321460FF01AFE7D
:10A8900004002DD002F0E0FF1022394600900FF0A6
:10A8A0009BFC00983822154980F88C604C30FDF7ED
:10A8B00090FE124E0098361F3168C0F884100021B7
:10A8C00080F89010C586204600F05EF9684603F0D7
:10A8D0000DF803F06CF80546204602F0BDFF00902D
:10A8E000C563684603F002F830684168204688472F
:10A8F00004B02046BDE8F08195A60008580A002063
:10A9000010B5044600F006F9010000D0411E2046B3
:10A91000BDE8104000F015B92DE9F14F9EB01E982A
:10A9200000287CD002F098FF08901E9810F0C3F821
:10A930001A900898B0F9367090F890101991C16B80
:10A94000179190F88C90B0F93410079100F03DF910
:10A95000824608980BACB0F88E101591B0F98210B1
:10A960000A91C16C0991D0E90012CDE90512D0F825
:10A9700094B0002100EB8102126D44F82120491CA3
:10A980000329F7D300210EAD00EB8102D26D45F80B
:10A990002120491C0329F7D3002111AE00EB8102CD
:10A9A000126F46F82120491C0329F7D308A802F0AA
:10A9B0009DFF1E9810F011F802F04EFF1490D0F891
:10A9C000008014A802F092FF4FEA284042420FFA9A
:10A9D00088F0414205A805F00AFD5FEA897003D5B9
:10A9E000BDF81600C01B01E0BDF81A00ADF8160056
:10A9F0001E980FF0F2FF01461A98CDE900070222D7
:10AA00000292BDF91630BDF91420002008F03DFF78
:10AA100080465FEAC97009D04046199900E076E0A7
:10AA200009F0B6F90121404609F0FAF8002708E0DC
:10AA30003946179803F01BF80146404608F0E9FD37
:10AA40007F1C5745F4D30027394654F82720404649
:10AA500009F00BF97F1C032FF6D30024214655F88B
:10AA60002420404609F018FA641C032CF6D3002475
:10AA7000214656F82420404609F06FF9641C032C47
:10AA8000F6D35FEA0B001ED002F0E6FE30F8025B60
:10AA900000240126169011E0169804F0070100EB3F
:10AAA000D40006FA01F10078084201D0012200E04A
:10AAB00000222146404609F000F9641CAC42EBDB61
:10AAC00016A802F013FF4046159909F024F94046F4
:10AAD000099909F0DEF840460A9909F0CDF9404697
:10AAE00010F018FD40461E9909F027F940460799D5
:10AAF00009F066F901211E9810F03DFB1E9802F046
:10AB0000ABFE0890C0F8888008A802F0EFFE1FB0E6
:10AB1000BDE8F08F38B5002438B102F09DFE0090FA
:10AB2000B0F93440684602F0E1FE204638BD10B569
:10AB30000446FFF7EFFF411C2046BDE81040AFF38D
:10AB4000008038B50C46050019D002F085FE009053
:10AB500000F03BF800B1401E844200DD044600983E
:10AB6000B0F93410A1420BD08486684602F0BEFED4
:10AB7000284610F04EFA0421284610F0FCFA38BDA1
:10AB8000684602F0B3FE38BDF8B5044602F064FE34
:10AB900001460090B0F9380010B9C86C04F072FC9E
:10ABA0000099CA6AB1F98030126800EB43001618A8
:10ABB000084610F088FF0546684602F097FE3246C8
:10ABC0002946204610F055FDF8BDC06B02F043BF8A
:10ABD00038B50D46002402F03FFE0090C06B2946B8
:10ABE00002F045FF0546684602F080FE1DB128468A
:10ABF00002F032FE0446204638BD70472DE9FC5F66
:10AC000015460746DFF89C8028440190D8F80000DC
:10AC10001C460E46C06E01EB040949464268019885
:10AC20009047781B0090D8F800004946C06E4268F3
:10AC300000989047D8F8000006EB050B07EB0409D5
:10AC4000C06E5946426848469047D8F80000A6EBC7
:10AC5000050A5146C06E426848469047002C1ED0F7
:10AC6000D8F80000361B4546C06E31464268019850
:10AC7000904728683146C06E42680098904728681F
:10AC80003C1B5946C06E4268204690472868514692
:10AC9000C06E426802B02046BDE8F05F1047BDE8D4
:10ACA000FC9F0000E008002070B505460C46611FBF
:10ACB000621D284603F05EFE691F6A1D204603F0F0
:10ACC000A7FD04222146284603F0C4FC70BD30B520
:10ACD0008DB004460D46032005F0F2FC0020ADF8CF
:10ACE00004000520ADF80600ADF808000021ADF81D
:10ACF0000A100A20ADF80C000521ADF80E100F2047
:10AD0000ADF810000021ADF812101420ADF81400B9
:10AD10000521ADF816100F20ADF818000A21ADF886
:10AD20001A101420ADF81C000F21ADF81E100F20D2
:10AD3000ADF820001421ADF822100A20ADF824004F
:10AD40000F21ADF826100520ADF828001421ADF82C
:10AD50002A100020ADF82C000F21ADF82E10052090
:10AD6000ADF830000A21ADF832106FF07F4005F0E9
:10AD700061FC2B4622460C2101A803F095FE0DB084
:10AD800030BD70B586B005460E461446032005F06A
:10AD900097FC0020ADF80000ADF802000520ADF8EA
:10ADA00004000021ADF80610601D00B2ADF80800E7
:10ADB00004EB440001B2ADF80A100520ADF80C0018
:10ADC00004EB4400400001B2ADF80E100020ADF8D5
:10ADD000100004EB4400400001B2ADF8121020B2A4
:10ADE000ADF8140004EB440001B2ADF816106FF09A
:10ADF0007F4005F01FFC33462A460621684603F0D3
:10AE000053FE06B070BD70B586B005460E461446BA
:10AE1000032005F055FC601D00B2ADF800000020D5
:10AE2000ADF8020020B2ADF804000021ADF8061024
:10AE30000020ADF8080004EB440001B2ADF80A10A0
:10AE400020B2ADF80C0004EB4400400001B2ADF8B4
:10AE50000E10601D00B2ADF8100004EB440040007D
:10AE600001B2ADF812100520ADF8140004EB440057
:10AE700001B2ADF816106FF07F4005F0DBFB3346F2
:10AE80002A460621684603F00FFE06B070BD2DE984
:10AE9000FC470E465FEA000978D002F0DDFC009026
:10AEA00090F85470D0F85880456BC46C684602F036
:10AEB0001DFDB8F1000F04D0314648464246904788
:10AEC00061E0122E18D006DC082E43D0102E3CD0A4
:10AED000112E06D112E0132E21D01D2E43D01E2E8E
:10AEE0003DD0202E4FDB17B1484614F02AF8B1B2FE
:10AEF00048461BF0D8F960B3611C27E04DB32846E3
:10AF000002F0AAFC05462146019005F077FD4419A0
:10AF1000204605F035FD01462346012210E0C5B16B
:10AF2000284602F099FC05462146019005F066FD91
:10AF30004419204605F024FD014623464FF0FF3218
:10AF4000484612F0A0F901A81BE0611E484600F037
:10AF5000F0FA18E0BCB1611E484600F0EAFA484633
:10AF600013F0EFFF0FE0484602F076FC0090012F4F
:10AF70000ED0012180F854102146484600F0D9FA3D
:10AF8000684602F0B3FC484610F043F8BDE8FC8781
:10AF9000002180F85410F3E7FEB5446805462046CA
:10AFA00010F00CFF0646294620460EF00FFF002841
:10AFB00034D028680E283DD004DC0B282FD00C2874
:10AFC0004AD116E00F2825D0A0F58070133843D160
:10AFD000204610F09FF9204600211DF0A5FC2046D8
:10AFE00002F03AFC0190C06F002110F079F901A83D
:10AFF0001DE0E86860B1017A29B10168204600F0DF
:10B0000009F9012100E00221204610F0B4F823E004
:10B010000321F9E7012120461DF086FCFEBD2046F4
:10B0200002F01AFC0090343002F076FB684602F021
:10B030005DFC11E086B1E868416800290CDD01681B
:10B04000092909D00A2907D00D2905D01B2903D0C9
:10B050002046FFF71CFFFEBD28460FF0E3FAFEBDB9
:10B06000F0B587B00DF1300EBEE8F0104FF0000ED5
:10B070008DE8F05000F028F807B0F0BDF0B587B0CB
:10B0800004460DF1080CD4E90567B0F90850408A70
:10B09000ACE8E1000020CDE90010B4F90C00B4F9EF
:10B0A0001060C118B4F90A00B4F90E5010443346C8
:10B0B0002A4600F009F8050002D0618A00F0FCF988
:10B0C00007B02846F0BD00002DE9FF410D46DDE93F
:10B0D0000D640F9FDDE90AC141F480515837DFF854
:10B0E00074E0CDE900C1CDE902E729460FF0EAF9A5
:10B0F00005002AD002F0B0FB1022314600900FF07C
:10B100006BF800981C2214496030FDF762FA009930
:10B11000012081F85500601C00D0012081F88000DA
:10B12000002C00DC082424B20C87002048874863E8
:10B13000641C684602F0DAFB214628461AF0D5FC6A
:10B1400018B928460FF0A2FA002504B02846BDE839
:10B15000F081000099AF0008900A00200148806843
:10B1600070470000900A00202DE9FC4115460E00B2
:10B1700022D0002820D002F06FFB0027019037700A
:10B18000406BB0B102F068FB009006F0B1FC0146E4
:10B19000009805F033FC0446681E844200DD044636
:10B1A000224630460099FDF78DF9684602F09EFB75
:10B1B000375501A802F09AFBBDE8FC8138B50024A0
:10B1C00030B102F049FB0090846C684602F08EFBBF
:10B1D000204638BDF8B515460C4606000ED002F0E4
:10B1E0003BFB009038B1022C05D200EB8400456790
:10B1F00030460FF00EFF684602F078FBF8BD10B540
:10B20000040006D000F095F92046BDE810400FF08C
:10B2100000BF10BD2DE9F04186B00C46060050D0AD
:10B2200002F01AFB0090406B98B302F015FB0390FC
:10B230000098806E05F014FA804630460FF03BFC13
:10B240000746039804F0B9F80546009890F8601096
:10B2500001F00301012916D002290DD0416EC06A08
:10B2600000680844241A641E039806F041FC014655
:10B27000002C0FDA002115E0781B401C00EBD07089
:10B28000A4EB6004F0E7406E791B081A241A641CD2
:10B29000EAE713E0AC4205DC02462146039806F0DB
:10B2A000C7FB0146304600F044F903A802F01EFB3C
:10B2B000404605F0D5F930460FF0ABFE684602F087
:10B2C00015FB06B0BDE8F0812DE9F8431D46DDE928
:10B2D000084916460F465FEA000841D002F0BCFA62
:10B2E00000903C301F49C1611F4901620021C0E943
:10B2F0000371C0E90065047280F81A90012101769B
:10B3000090F84470684602F0F1FA87B1284618F0C8
:10B31000F2FF0546304618F0EEFF0CB1401C6D1CE4
:10B32000854200DD28460146404600F031F840469F
:10B330001FF03EFE404602F08FFA009000F0E4F865
:10B340000A490978884205D10098C16C4046491CD9
:10B3500000F0EFF8684602F0C9FA40460FF059FED7
:10B36000BDE8F883A9C50108B1AF0208D4080020E0
:10B3700038B50C4605000AD002F06EFA009018B1FC
:10B38000846628460FF045FE684602F0AFFA38BDE5
:10B390007CB50C4606002ED002F05EFA0090B0F9A3
:10B3A0003810458FA14223D012DD406B80B102F0EE
:10B3B00053FA019006F09CFBA04206DD214601985D
:10B3C00005F01CFB019A0021115401A802F08EFA2D
:10B3D000684602F08BFA611B491C30461AF085FB67
:10B3E000304602F039FA0090048730460FF011FE23
:10B3F000684602F07BFA7CBD2DE9FC4788465FEA8F
:10B4000000094FF0000555D002F026FA0090B0F97F
:10B410003860446B684602F069FA0027B8F1000F03
:10B420003ED04CB1204602F017FA0190FDF71FF80C
:10B43000451C01A802F05AFA404606F059FB0446A2
:10B44000B04200DD34462146404605F0D7FA461C9E
:10B45000711B48461AF0E1FF08B3484602F0FCF9B8
:10B460000090406B02F0F8F9324641460190FDF73A
:10B4700029F80198304400F8017C0098C464B0F9C0
:10B4800038108C4205D190F85410012901D1641E66
:10B49000C464684602F02AFA01A802F027FA06E01E
:10B4A0000098343002F038F900984787C76448465E
:10B4B0000FF0AFFDBDE8FC8738B50C4605000AD09B
:10B4C00002F0CAF9009018B1046628460FF0A1FDF9
:10B4D000684602F00BFA38BDF8B515460C46060072
:10B4E0000ED002F0B9F9009038B1022C05D200EB71
:10B4F0008400C56630460FF08CFD684602F0F6F910
:10B50000F8BD00221FF0A4BA38B50446406B0025F0
:10B5100068B102F0A1F900900546E16C05F06EFA01
:10B52000284405F02DFA0546684602F0DFF9284662
:10B5300038BD1CB50C4602F08FF90090406BF0B19D
:10B5400002F08AF9019006F0D3FA009991F854209C
:10B5500002B10122002C00DA0024844200DD0446FE
:10B56000B1F93800801AA04200DA0446C86CA04243
:10B5700000D0CC640020086501A802F0B7F9684645
:10B5800002F0B4F91CBD000010B5002400E0641CFA
:10B5900013488442FBD30221124801F058FC70B9D1
:10B5A0000BF0A6FE104908700846007880B90F49D4
:10B5B000002025F065FB01200D49087008E00BF024
:10B5C000C3FA0021084625F05BFB012008490870FA
:10B5D000022000F01FF8072009F08EFC10BD0000CB
:10B5E00080F0FA0200040240D8010020B80F0020C9
:10B5F0003603002010B5002400E0641C0448844297
:10B60000FBD3102000F006F80A2009F075FC10BDED
:10B61000809698000149086070470000143C014082
:10B62000002123498279002A3AD00A461268036829
:10B630009A430B461A600A1D126803689A430B1D51
:10B640001A60027911440A6803681A430A60184AAA
:10B650000832126803689A43154B08331A601A1DA2
:10B66000126803689A43124B0C331A604279102A0D
:10B670000ED11A1F126803681A430D4B08331A6063
:10B680001A1D126803681A43094B0C331A600DE047
:10B690000749427911440A6803681A430A6005E0C1
:10B6A000027911440A6803689A430A6070470000EF
:10B6B000003C014099B1102808D14FF02042126E91
:10B6C00042F004024FF020431A661CE00E4A126852
:10B6D00042F004024FF02043C3F8802013E010280A
:10B6E00008D14FF02042126E084B1A404FF0204311
:10B6F0001A6608E0044A1268044B02EA03024FF09B
:10B700002043C3F880207047800000A0FBFF0F009B
:10B7100030B5002100220023446844F00804856805
:10B720002C43C5682C4305692C43456944EA4524EC
:10B73000856944EA4531C4692468C5696D6844EA8D
:10B740000524C5692D8944EA0544C5692D7B44EA71
:10B750000562046A2468056A6D6844EA0524056A7E
:10B760002D8944EA0544056A2D7B44EA0563046893
:10B77000102C05D14FF020442166A266E36607E055
:10B78000044C21604FF02044C4F88820024C236010
:10B7900030BD0000800000A08C0000A02DE9F04327
:10B7A00089B0984615460F4606004FF0000429D090
:10B7B00000F0F2F90446304600F0BEF9814603A9D4
:10B7C000304600F01EFBF80706D0BDF91C00001B38
:10B7D000401B401C822109E0B8070028BDF9180071
:10B7E000284402DA40F2022100E002210096CDE96D
:10B7F000018123461A464946FDF758F804460021C0
:10B80000FDF706FA09B02046BDE8F08310B5052320
:10B81000FFF7C4FF0446054A0021FDF70AFA044970
:10B8200020460FF0ABFD204610BD00005DF601087C
:10B8300075CE02082DE9F047456804468EB0002613
:10B84000284602F009F800905C30B0F820A0D0F84B
:10B850000C90D0F82480C76A006800B1066868467A
:10B8600002F044F805E079682046884700283DD179
:10B870003F68002FF7D12068142844D009DCA0F1DC
:10B880000B00072839D2DFE800F0BE3989B434B4A0
:10B89000110020287ED004DC17283ED01E282CD191
:10B8A0004BE026283CD02A2827D110E02846E6681D
:10B8B00001F0D2FF0190717A39B9317A012904D1AE
:10B8C00030F87C1F41F48071018001A88FE0284688
:10B8D00001F0C2FF0090E16811B1C0F8841002E0ED
:10B8E000D0F88400E060684602F000F80EB0BDE8D1
:10B8F000F087002E7DD02846B0477AE021462846C2
:10B900001CF0F2FCF2E705A9284600F07AFAE0689C
:10B910000699016007994160E8E7C4F80C90E5E7F3
:10B92000E0680228E2D10C95E0680D9027200A908B
:10B930000AA9A06810F05CFCD8E7E068012804D0F0
:10B940000021284600F09BF9D0E740460FF0B6FBF7
:10B9500058B140460FF0DEFD40460FF091FA88B135
:10B96000012140460EF0BCFA0CE048460FF020FEE4
:10B970008046284601F070FF0090C0F8808068463D
:10B9800001F0B4FF0121284600F079F9B8F1000F69
:10B99000ACD100E00EE00020E060A7E75FEA0A70AB
:10B9A00027D4E068C06820B3007A10B328460FF0AF
:10B9B000B1FD1EE0E668E6B12946706810F0E7F9CF
:10B9C00020B1012128461EF0B5FA12E000212846D8
:10B9D0001EF0B0FA2946306810F0C8F948B1284680
:10B9E00001F03AFF03903168C0F8801003A801F01D
:10B9F0007DFF214628460EF0E9F900288CD020462C
:10BA00000EF010FE72E7284601F026FF009070301D
:10BA100001F082FE6846EAE7F0B587B0B0F9084069
:10BA20000DF10C0C0C9E87694568ACE8F000448A67
:10BA30000025CDE900150294B0F90C10B0F91050B2
:10BA4000B0F90E40B0F90A00194410442B462246C2
:10BA500000F002F807B0F0BD2DE9F0478AB00DF113
:10BA60004C0CDDE91784BCE86006129F45F4805554
:10BA70006034DFF8B8C0CDE902C4CDE900750EF03E
:10BA800021FD04004DD001F0E7FE3022494604902C
:10BA90000EF0A2FB0498282225493430FCF799FDCA
:10BAA0000498234F5C30083FC0F8088006840026C5
:10BAB00046620661C6627968016004A801F016FF5B
:10BAC00005A9204600F09DF91A4841F282710396BB
:10BAD0000094CDE90110BDF91E00BDF91A10BDF9A1
:10BAE0001C20431ABDF918005B1C121A521C0EF0E0
:10BAF000E9FC06467868416820468847204601F000
:10BB0000ABFE0490866604A801F0F0FE42F2040049
:10BB1000054202D120460EF01DFE5146204600F09F
:10BB200018F90AB02046BDE8F087000035B80008D3
:10BB3000B40A002011C1000838B505004FF0000418
:10BB40000CD001F089FE0090C06D00218068026871
:10BB5000284690470446684601F0C8FE204638BD96
:10BB6000F8B50E4605004FF000040CD001F074FE4D
:10BB70000090C06D314680680268284690470446B0
:10BB8000684601F0B3FE2046F8BD00000148006899
:10BB900070470000B40A002030B587B005004FF0B0
:10BBA00000040ED001A900F02CF9284601F054FE43
:10BBB0000090B0F95440684601F098FE0CB9BDF908
:10BBC000044007B0204630BD30B504468BB0006855
:10BBD00001F042FE009090F87C10246A006FC1F3DF
:10BBE000C00508B101F038FE0690E06802902069B7
:10BBF0000390A088401EADF81000E089ADF8120057
:10BC00002089401CADF81400608AADF81600BDF81C
:10BC10000800401CADF80800BDF80A00401CADF853
:10BC20000A00BDF80C00401EADF80C000098406BF7
:10BC300004F016FD009808AA02A9B0F95A30069837
:10BC400005F09CF8009800EB8500806B07F0F0F899
:10BC5000009800EB8500006C07F022F908AB02AAFF
:10BC600004A906980EF0ECF9684601F03FFE06982C
:10BC700010B106A801F03AFE0BB0002030BD00283C
:10BC800001D01EF057B9704738B50C4600280CD0CB
:10BC900001F0E2FD0090816CA14203D08464806ECB
:10BCA0000FF0B7F9684601F021FE38BD2DE9FC41DF
:10BCB0000D46070028D001F0CFFD0190C16D8C68C2
:10BCC00000F006F980460198456301A801F00EFED8
:10BCD00022680121384690470646226803213846EB
:10BCE000904705462268002138469047044638466A
:10BCF00000F0D7F92B46324641463846009400F012
:10BD00005FF938460FF085F9BDE8FC8138B50C467F
:10BD100000280ED001F0A0FD009030F87C1F14B177
:10BD200041F0100101E021F010010180684601F0AE
:10BD3000DDFD38BD38B50D46040009D001F08CFD9D
:10BD400000900566684601F0D1FD20460FF061F9CC
:10BD500038BD7CB50D46040019D001F07DFD009082
:10BD6000006F0190684601F0C1FD294601A806F068
:10BD700041F800280BD0204601F06EFD009001999B
:10BD80000167684601F0B2FD20460FF042F97CBD24
:10BD90002DE9FC470D465FEA00094FF000042DD065
:10BDA00001F05AFD0190B0F95440A54223D000F0B3
:10BDB0008FF8804601980121A0F85450C06D856825
:10BDC00048462A68904707462A6803214846904714
:10BDD00006462A680021484690470546484600F036
:10BDE00060F933463A4641464846009500F0E8F887
:10BDF00048460FF00EF901A801F078FD2046BDE895
:10BE0000FC872DE9F34F85B000270C46B84605980E
:10BE100001F022FD0090C06D0121856805982A6817
:10BE2000904782462A6803210598904704902A6823
:10BE300002210598904703902A68002105989047B1
:10BE4000064600980FF03FFE834600980FF042FE32
:10BE50008146009890F83210890601D5B0F95880D3
:10BE600000F036F805460098C06E10B10EF034FEB2
:10BE7000074625806780A4F804A0049AABEB020073
:10BE800006EB0802401E2A4420813A44E280039BCC
:10BE9000A9EB0302521E6281A4F80CA02082701943
:10BEA000E681401E6082684601F020FDB4F90C0076
:10BEB0000190B4F91000029002AA01A9059800F0BF
:10BEC00039F80198A0810298208207B0BDE8F08F70
:10BED00010B50146002091F83220920607D5B1F93D
:10BEE0005400002803D1486B03F0D1FA801C10BD28
:10BEF00070B58AB00C46054601F0AEFC0990C06DE5
:10BF0000866809A801F0F2FC009534B1012C06D036
:10BF1000022C0BD0032C04D10AE0182000E01620DC
:10BF200001907168684688470AB070BD1520F7E730
:10BF30001720F5E72DE9FC4790468946044601F0B5
:10BF40008BFC0090C16D056868468E6801F0CEFCE0
:10BF50003268002120469047064620460EF09EFC9F
:10BF60002F1404462DB227E001F076FC0190B0F9C1
:10BF70000010B0F90420B0F90230491B521BDB1B42
:10BF8000B34212D190F82800000607D5D8F8000077
:10BF900088420ADB491EC8F8001006E0D9F8000004
:10BFA000904202DC521CC9F8002001A801F09EFC5E
:10BFB00020460EF00BFD0446002CD5D1BDE8FC87D1
:10BFC0002DE9FF4F83B00E460746DDF8409001F0A3
:10BFD00043FC0190C16D8D68FFF77AFF044601A80C
:10BFE00001F084FC2A6801213846904783462A687C
:10BFF00003213846904782462A68002138469047F8
:10C000000546B44207D105998B4504D106998A4566
:10C0100001D14D4542D0A41B0026B04638460EF053
:10C020003DFC39E001F018FC0090806A010602D561
:10C030004FEA805002E0810528D50006002825DB64
:10C0400024B12246114638460FF0D3F8009890F8F4
:10C05000280000060AD50698A5EB0902A0EB0A0005
:10C0600004FB1601761C38460FF083F80098008D0B
:10C0700080050BD50599A5EB0902ABEB010004FB8C
:10C08000080108F1010838460FF073F8684601F01E
:10C090002DFC38460EF09AFC0700C3D107B0BDE86E
:10C0A000F08F70B586B0064601F0D6FB0590D0E95A
:10C0B0001A4505A801F01AFC54EA050026D0694685
:10C0C0003046FFF79EFEACB1BDF90620BDF9041065
:10C0D00020460FF023F8BDF90A00BDF90610421AF8
:10C0E000BDF90800BDF90410521C411A491C204634
:10C0F0000FF0BFFA002D09D0BDF90600BDF90210FE
:10C10000421ABDF9041028460FF008F806B070BDB9
:10C110002DE9F0430446406885B006460EF05DFC0C
:10C12000814601F099FB0090D0F88080876C456EC5
:10C13000684601F0DBFB2068172859D008DC0E2880
:10C1400037D00F280BD0142852D015283AD14FE001
:10C150001E2818D01F2827D0222833D146E06FF0A0
:10C160007040874204D0384606F062FE01F0E0FEDF
:10C17000002D12D0D4E902122068CDE90106CDE9E4
:10C18000031201A822E0E068002806D05FEA080058
:10C1900006D0B04504D00FF0BDF905B0BDE8F0837E
:10C1A00030460FF005FA16E0214648460DF00EFE27
:10C1B000F3E7E0684168002904DD00680928EFD052
:10C1C0000A2805D0A5B12046C4F80490A847E4E7A2
:10C1D00030460FF0F5F90446484601F03DFB00906B
:10C1E000C0F88040684601F081FBD6E7E760D4E7FD
:10C1F00020460EF017FAD0E72DE9FC4107460D4620
:10C200000026002400200090019008205A49086070
:10C2100010204860402088600020C8604FF4806093
:10C22000086108460AF0F0FC1020FDF711FD0446F5
:10C2300014B12046BDE8FC815048008800044E49F6
:10C24000086037204860402088600020C8604FF4B4
:10C250008060086108460AF0D7FC3720FDF7F8FC3B
:10C2600004460CB12046E5E74FF6FF7044490860EC
:10C2700008204860302088600220C86000200861E3
:10C280000120486108460AF045FC00203A49086050
:10C2900033204860402088600020C8604FF48060F0
:10C2A000086108460AF0B0FC3320FDF7D1FC0446D3
:10C2B0000CB12046BEE709E04FF400100AF056FC2E
:10C2C00020B10AF09BFC4DF82600761C2D48006832
:10C2D00040F22A610842EFD008200AF047FC28B15A
:10C2E00008200AF005FC04242046A3E702200AF0F7
:10C2F0003DFC28B102200AF0FBFB0224204699E70E
:10C3000020200AF033FC28B120200AF0F1FB06249B
:10C3100020468FE74FF400700AF028FC30B14FF44C
:10C3200000700AF0E5FB0724204683E740F2FF5047
:10C330000AF0DEFB00980006009901F47F4140EA14
:10C340000120009901F47F0140EA1120009940EAA0
:10C350001160686001980006019901F47F4140EA8C
:10C360000120019901F47F0140EA1120019940EA7E
:10C370001160286020465DE74828002090080020D2
:10C380005C280020342C014070B5044600BF414DAC
:10C390002D6805F48035B5F5803FF8D03D4D2D680A
:10C3A00015F0010F02D001253A4E3560394D2D1D93
:10C3B0002D6845F08075374E361D3560012B04D051
:10C3C000022B20D0042B5AD13BE0324D2D1D2D687D
:10C3D00025F440752F4E361D356035462D6845F0E5
:10C3E0000105356000200BE0255C0D5400BF294D90
:10C3F0002D6815F0010FFAD00125264E3560401C3E
:10C400009042F1D33BE0234D2D1D2D6845F48075FE
:10C41000204E361D356035462D6845F001053560E6
:10C4200000200BE0255A0D5200BF1A4D2D6815F063
:10C43000010FFAD00125174E3560801C9042F1D3D0
:10C440001DE0144D2D1D2D6845F40075114E361D4F
:10C45000356035462D6845F00105356000200BE05C
:10C4600025580D5000BF0B4D2D6815F0010FFAD067
:10C470000125084E3560001D9042F1D300BF00BF7A
:10C48000044D2D1D2D6825F00105024E361D356029
:10C4900070BD00000C3C024010B5024600BF264BA8
:10C4A0001B6803F48033B3F5803FF8D0224B1B6840
:10C4B00013F0010F02D001231F4C23601E4B1B1DE4
:10C4C0001B6843F080731C4C241D236023461B68AB
:10C4D00043F40073236023461B6843F00203236088
:10C4E00010461CE0144B1B1D1B6823F0F803124C74
:10C4F000241D236023461B6843EAC00323602346B0
:10C500001B6843F48033236000BF0B4B1B6813F0A0
:10C51000010FFAD00123084C2360431CD8B25318F2
:10C520008342DFDC044B1B1D1B6823F00203024C1B
:10C53000241D236010BD00000C3C0240024803494A
:10C54000086003480860704723016745043C0240C7
:10C55000AB89EFCD10B504460A280FD00D2C11D0B1
:10C5600009480068C0690168204688470748016893
:10C57000002907D02046BDE810400847BDE810401C
:10C5800001F0B2BE10BD0000E00800200809002044
:10C590002DE9FF5F8346DDE90E45984691468A46C0
:10C5A00004F5B47405F5B4754FF0FF3601274FF468
:10C5B000B47003E0A4F5B474A5F5B4758442F9DA57
:10C5C000002D65DD5A2C11DA002C00DA00245A2DDA
:10C5D00001DA284600E05A20CDE90040CDE9027694
:10C5E00043464A465146584613F090F85A3D5A3C45
:10C5F000002D4DDD5A2C14DA002C00DA00245A2DBF
:10C6000001DA284600E05A20C4F15A01C0F15A006C
:10C610008DE8430043464A4651465846039613F078
:10C6200075F85A3D5A3C002D32DD5A2C12DA002C96
:10C6300000DA00245A2D01DA284600E05A200DF1D4
:10C64000040C0094ACE8C10043464A4651465846A3
:10C6500013F05CF85A3D5A3C002D19DD5A2C14DABF
:10C66000002C00DA00245A2D01DA284600E05A2076
:10C67000C4F15A01C0F15A008DE8830043464A468E
:10C6800051465846039713F041F85A3D5A3C97E7F4
:10C69000BDE8FF9F2DE9F0430446C56887B090468A
:10C6A0008946002003F0D9FF064625B1287910B14C
:10C6B00046F0020001E026F0020003F0CEFF206900
:10C6C000012558B1D4E902128DE82600039563884C
:10C6D0002288046841464846A0471EE0124F134B8B
:10C6E000214638681B68427CE068984730B9E0888A
:10C6F000012801D0002001E03868806BA288E3881F
:10C70000A1680095CDE90410CDE902320195638856
:10C7100022884146484605F04FFF07B03046BDE845
:10C72000F04303F09ABF0000E0080020D808002082
:10C730002DE9F0478146884640F2C32050434FF42C
:10C740007A7190FBF1F502FB02F002EBD27100EB83
:10C7500061066D1C1746002341464846FEF74EFA17
:10C76000012413E004FB04F007FB0700B04206DDE0
:10C770003B46224641464846FEF740FA7F1E3B466E
:10C78000224641464846FEF739FA641CAC42E9DDD0
:10C79000BDE8F0871CB50024019401AC009400F0C2
:10C7A000E7F81CBD2DE9FF4F83B0814606988A4605
:10C7B000A0EB0A08109E00200090A2EB0904356847
:10C7C000934654EA080018D02046FBF7FCFF0746C2
:10C7D0004046FBF7F8FF87420BDA20464446804686
:10C7E0004846D14682465846DDF818B006900120EA
:10C7F0000090002C07DD204606E007B04846BDE863
:10C80000F04F00F03BB96042A0420AD04846D946FA
:10C810006442C8F1000883464FF0FF37DDF818A0E6
:10C8200000E001275148B8F1000F11D004EBD4719A
:10C830004FEA610B01DACBF1000B4C480068807EB7
:10C8400088B3002F02DA30682044306000257BE096
:10C8500000990029016821D0897E11B10027804606
:10C8600015E007B05A4649465046BDE8F04F06F07D
:10C8700007B828466D1C1DF0C9FC38B9D8F800006F
:10C8800009EB0701C06E4268504690477F1CA742E3
:10C89000EFDD6D1E356007B0BDE8F08F8A7E1AB1FE
:10C8A0000027804617E019E0C86E5A4651460368D3
:10C8B00007B04846BDE8F04F184728466D1C1DF0EC
:10C8C000A5FC38B9D8F8001009EB0700C96E4A6812
:10C8D000514690477F1CA742EFDDDAE700250FE0C5
:10C8E00008FB05B090FBF4F101EB0A00009951B18F
:10C8F0001E4A09EB05011268D26E526890476D1C02
:10C90000A542EDDDC7E7194909EB05030968C96EC2
:10C910004A6801461846F1E708FB05B090FBF4F1C0
:10C9200001EB0A0001903068384430601DF06EFC65
:10C9300048B9009890B10D4809EB05010068C06E38
:10C940004268019890476D1CA542E5DD3068002FD4
:10C9500001DA20443060C01B30609CE7034909EBDA
:10C9600005000968C96E4A680199EBE7E0080020F4
:10C970002DE9FF470F4640491646804609680C9846
:10C980001D460A7E012A1CD0A8EB0600791B50EA3E
:10C9900001031CD0A2F101091FF0EEF900F580603F
:10C9A000824605F04FFB00FB09F4504605F04EFBB4
:10C9B00000FB09F1002C0CDAC4F500708012404233
:10C9C0000AE00090324639464046FFF7EBFEBDE8EC
:10C9D000FF8704F50074A012002904DAC1F5007184
:10C9E00089124C4202E001F500718C12002804DD2E
:10C9F000411C01EBD171491003E000EBD0714910EB
:10CA0000401E00EBD0704210002C04DD601C00EBD7
:10CA1000D070401003E004EBD4704010641E04EBAF
:10CA2000D47308EB0104ADF800403C18ADF80240A7
:10CA3000A8EB02045B10B21AADF80440ADF8082070
:10CA40003144FC1AEA1AADF80C102844ADF80A205B
:10CA5000ADF80E000023ADF806401A4604216846E2
:10CA600000F07AF83946404615F002FC2946304677
:10CA700015F0FEFBABE70000E0080020064A136853
:10CA80001A7E012A05D0521E02EBD272521000F01B
:10CA900005B8DA6E52681047E00800202DE9F05F13
:10CAA0000646884640F2C32050434FF47A7190FB0B
:10CAB000F1F702FB02F002EBD27100EB610B2549AA
:10CAC00014467F1C09683244301BC96E0B6841460E
:10CAD000984701253AE000BF05FB05F004FB04017F
:10CAE00059451CDDBC4219DD1A4B06EB050AA6EBC5
:10CAF00005091B68AAF1010208EB0401DB6E09F1CC
:10CB000001001B689847134BAAF10102A8EB04012E
:10CB10001B6809F10100DB6E1B689847641E0D4815
:10CB200006EB040AA6EB0409006808EB050152466F
:10CB3000C06E0368484698470648A8EB0501524670
:10CB40000068C06E0368484698476D1CBD42C3DD4F
:10CB5000BDE8F09FE00800202DE9FF4F40F6FF748C
:10CB60000F46664283B09B46814600210BE000BF22
:10CB700009EB8100B0F90200A04200DA0446B0429D
:10CB800000DD0646491CB942F2DB6848006840698E
:10CB900000280DD0B0F906101A46A1EB0B01B142E6
:10CBA00000DA0E46B0F90200801AA04200DD044609
:10CBB000B5E0DFF87CA100200546CAF8000089E056
:10CBC000781E854201DA6B1C00E0002309EB850C1E
:10CBD00009EB8302BCF90200B2F90210A04245D170
:10CBE000A14215D139F92330059A39F9251003EB03
:10CBF000020C4E4A05981268084404EB0B01D26EF1
:10CC00006045136801DA62462BE00246604628E080
:10CC10002846A4464FF000087A1E0BE008B1401EDB
:10CC200000E0781E09EB8003B3F90230634504D1BC
:10CC300008F101089045F1DB2346A34249D0A3EB5C
:10CC4000040239F92500A1EB040C059B92EA0C02C1
:10CC500009D4364A184404EB0B011268D26E1368EB
:10CC60000246984735E00FF0D3FB32E0A14230D0C6
:10CC700001DBA04203DDA0422BDBA14229DCE04620
:10CC800088420ADC0346A04223DC0846A14220DB9E
:10CC9000B8F900C0B2F9001008E00B46A14218DC58
:10CCA000A04216DBB2F900C0B8F90010E21AA1EBFD
:10CCB0000C0151430029A0EB030202DD01EB6201EC
:10CCC00002E0A1EB6201491CC01A91FBF0F0604444
:10CCD000C9E76D1CBD42FFF673AF0598009004EBE9
:10CCE0000B00019000208046054613E01149B8F181
:10CCF000000F31F915A009D0009901EB0A02084490
:10CD00000A490968C96E0B680199984788F00108BB
:10CD100050466D1C064909688D42E7DB641CB4422D
:10CD20007FF747AF07B0BDE8F08F0000E0080020B4
:10CD300040090020602A002010B5002003F076FC96
:10CD40006FF07F4003F076FC012003F0B9FC002077
:10CD500003F0BEFC002003F0C5FC002003F07DFCC6
:10CD60000448006803F07CFCBDE81040002003F09C
:10CD700083BC0000DC080020F0B50A460021002337
:10CD8000002400BF3DE0012505FA01F3156805EA1E
:10CD900003049C4234D105684F000326BE40B543CE
:10CDA000056015794E00B540066835430560157974
:10CDB000012D02D01579022D16D185684F0003266A
:10CDC000BE40B543856055794E00B5408668354311
:10CDD0008560456801268E40B54345604568967973
:10CDE0008E40B6B235434560C5684F000326BE404D
:10CDF000B543C560D5794E00B540C6683543C560BA
:10CE0000491C1029BFD3F0BDF0B5002300244D0705
:10CE1000ED0E02FA05F3CE1000F1200555F826506C
:10CE20004E07F70E0F26BE40B543CF1000F1200687
:10CE300046F82750CE1000F1200555F8265045EA57
:10CE40000304CE1000F1200545F82640F0BD02464F
:10CE5000002013690B4201D0012000E00020704740
:10CE6000418370470183704770B50C46054600F05A
:10CE700015F9A8682168C16261680163A16841630E
:10CE8000490707D5D0E90021C0E90012D0E9022105
:10CE9000C0E90212A18981842169002903D001DC43
:10CEA0004FF00001016270BD2DE9F0411E461746AA
:10CEB0008846054600F0F2F8AC686822414604F561
:10CEC0008470FBF786FB2846B8472846B047286998
:10CED00080688047A062BDE8F081000010B504467C
:10CEE00000F0DCF8A0680E494C30114AC1650D49CC
:10CEF00081650D4901660D4981660021C16613688F
:10CF000043660C4BC0E91E315168416730F8261C5E
:10CF100021F0030120F8261C0749416410BD0000E0
:10CF2000E5A2020855A70208ADA202084B9A020822
:10CF300084090020EF9B0208DDA1020810B5044619
:10CF400000F0ACF8A4680C489034102120650B4820
:10CF500060650B48A0650B48E0650B48E0600B4836
:10CF60002061206BA06654F890292046904710203D
:10CF7000A0630748606410BDF90D02083D31020846
:10CF8000DDCF00080DD1000879980208A1B202088F
:10CF90005CB9030870B50C46054600F07FF80A48F6
:10CFA000AA6814B1012C08D103E0084901600849BE
:10CFB00002E00849016008494160016842F8B01F79
:10CFC0004068106170BD000084090020039A0208C7
:10CFD000659B02082B9A0208B19B0208F8B5846889
:10CFE00015460F4694F8260080074CD5D4F8FC303F
:10CFF000204698470646D4F800312A46394620464E
:10D000009847D4F8943005461BB1002201212046F0
:10D0100098472069B04201DD012000E00020A169AD
:10D02000B14201DA012100E0002108436169A9420F
:10D0300001DD012100E000210843E169A94201DA94
:10D04000012100E0002108430AD06068401E0090E2
:10D050002368D4F8A4705B1E002211462046B8470E
:10D06000D4F8A8302A46314620469847D4F89C1078
:10D0700020468847D4F8943005466BB10122002140
:10D080002046984708E0D4F8A83020469847D4F8BE
:10D090009C102046884705462846F8BD70B50446D2
:10D0A0008068002812D14FF4B875284600F04AFB7A
:10D0B0002A460021A06004F049FFA0680221C18433
:10D0C0000121046401620249C0F8041170BD00002E
:10D0D000D5D0000810B590B0044620220A49684611
:10D0E000FBF777FA08492022203108A8FBF771FAEC
:10D0F000606B5DF82010C4F8FC1008A951F82000FE
:10D10000C4F8000110B010BD9C5C03082DE9F84381
:10D1100084689846154694F826000F46800740D547
:10D12000D4F8FC30204698470646D4F800312A4609
:10D1300039462046984705462069B04201DD012066
:10D1400000E00020A169B14201DA012100E00021E4
:10D1500008436169A94201DD012100E00021084383
:10D16000E169A94201DA012100E0002108430AD067
:10D170006068401E00902368D4F8A4705B1E0022F3
:10D1800011462046B847D4F8A8302A4631462046F2
:10D190009847D4F8A02001B041462046BDE8F043AE
:10D1A0001047D4F8A830F2E72DE9F04FDFF828B1A6
:10D1B00091B04FF0FF35DBF80030B3F92210069143
:10D1C000DE69B3F92490F469A189814206D8E28925
:10D1D000824203D3471AD4F8008012E0D4E90181D7
:10D1E00000296FD00A8882426CD84D88854269D365
:10D1F000801A82B2486800EB8200B0F90070B0F982
:10D200000250781C5ED0307EA17C10FB01FA217C9C
:10D21000CDE90801B3F92A60304605F053FEC0B2EB
:10D220000E90DBF8000007FB0A81A37C826B0127CC
:10D23000CDE90412CDE90273C069DDE90832C17E8F
:10D24000807ECDE900014946069805F0B5F9681CD5
:10D2500018D046F0020005F035FEDBF80000A37C94
:10D2600005FB0A81826BCDE90273CDE90412C06926
:10D27000DDE90832C17E807ECDE90001494606988D
:10D2800005F09AF9DBF800005D46C069417E007E3A
:10D29000814214D9022E12D086F0040005F012FE4D
:10D2A0002868C069027EC37E12FB0391437E857E9F
:10D2B000099A06984B4402FB050205F00BFB0E98F9
:10D2C00005F000FEDBF80000627C418C11444184D3
:10D2D00011B0BDE8F08F0000E008002004480068AD
:10D2E000C069C06909B1027C0A60407C70470000D7
:10D2F000E0080020022008807047C06982898A42C5
:10D3000002D8C2898A4210D2806880B102888A42DB
:10D310000DD843888B420AD3406800EB8100A0EB14
:10D320008200B0F90000002801DB012070470020D6
:10D33000704700002DE9F0432F4C034687B020686A
:10D340001946B0F92A80C069C06900F084F8002845
:10D350004ED041680088181A01EBC0054046AE78EF
:10D3600005F0B0FD814620686A680123816BCDE934
:10D370000236CDE90421C169CB7E8A7ECDE9002346
:10D380000B7EB0F924102A78B0F9220005F014F9C8
:10D390002068C069477E067EB7421DD9C07E4743DC
:10D3A0004643B8F1020F17D001F0C1FF804601F0EB
:10D3B000A1FF03F03FF921682A78CB69B1F9220077
:10D3C000DB7E12FB0302B1F92410CB19314405F0C6
:10D3D00081FA404603F02EF9484605F073FD2068B7
:10D3E0006A78C369B0F922109B7E12FB0311418455
:10D3F00007B0BDE8F0830000E008002030B50F4C16
:10D4000005460B4620682946C069C06900F023F82C
:10D41000002811D04168008824682A1A0120E46994
:10D4200000EBC200085CA47E10FB04F0002B03D0CC
:10D4300011F832106143196030BD0000E00800208F
:10D4400001200880704700B5C06900F004F800288A
:10D4500000D0012000BD06E002888A4202D842883E
:10D460008A4202D280680028F6D1704710B516F0C3
:10D47000C3FA0448016A04480068C16600F1080163
:10D48000416110BD000D0020E00800202DE9FE4F95
:10D4900005460C9C0E464FEA4400A2EB0501984657
:10D4A0001746091A61D4A8EB0601081A5DD4DFF803
:10D4B000C0A04FF00009DAF8000090F8711019B917
:10D4C00010F8709F042101700EF0AAFA05440EF0C6
:10D4D000B5FA06440EF0A4FA07440EF0AFFADAF8F3
:10D4E000002000EB080192F8710030B992F870004A
:10D4F0004543464347434143444392F870007F1EEF
:10D5000000EB07084718761E284600F041F8ADF8F2
:10D510000400404600F03CF8ADF80800304600F04A
:10D5200037F8ADF80600384600F032F8ADF80A00DA
:10D5300001A80EF0D7FA0EE04146284600F07CF82C
:10D540003B46424631462846009415F01BFFFFF744
:10D550008DFF0EF045FA0028EED1DAF8000090F8C1
:10D560007110002901D180F87090BDE8FE8F000095
:10D57000E008002008B50091B0F90630B0F90420A9
:10D58000B0F90210B0F90000FFF780FF08BD0000FD
:10D590000449096891F8701009B190FBF1F000B2EC
:10D5A00070470000E00800202DE9F0411E4C0546C0
:10D5B0000E462068002768B905F069FAE06100F0BE
:10D5C000C1F8206068B304F12401184808600846D7
:10D5D00004F008FC002D00DA0025E169731B4A1EE7
:10D5E0002046934201DD6E18761EAE4201DA2E46C9
:10D5F00001270F4C2268D16E4B68836301620A4990
:10D600000C4B34310B60D16602C862C010F012F8C6
:10D61000FCF7ECFA044821682C3048613846BDE834
:10D62000F0810127D6E70000000D00204D740208AC
:10D63000E008002001210208044A126892F87020D4
:10D6400090FBF2F091FBF2F1FFF7AEBFE008002093
:10D65000F8B505460C000DD0084600F015F8060098
:10D6600010D000F0F9F8224600902DB12946FAF7C3
:10D6700029FF04E00020F8BD002104F067FC6846A3
:10D6800000F034F93046F8BD002801D00FF08EB814
:10D69000704738B50546FFF7F7FF040009D000F0E2
:10D6A000DBF82A460021009004F050FC684600F0A8
:10D6B0001DF9204638BD0000024A106021F0030029
:10D6C000506070478829002010B5002814D0044607
:10D6D0000A48006B10F8341000290DD002290BD233
:10D6E000042101EBC401415848680EF0ADFE20460C
:10D6F000BDE810401CF08EB810BD0000CC28002002
:10D70000002805D0034A916B016001B14860906325
:10D7100070470000CC28002010B504460068FFF7D1
:10D72000D3FF0020206010BD70B50D4606460024D2
:10D7300005E000BF06EB8400FFF7EEFF641CAC427F
:10D74000F8DB70BD2DE9F041044618F005FD2648D0
:10D75000E41C24F00305C16B2D1DA94200D90D4620
:10D76000846B13E054F8042CAA420ED184B12168D2
:10D7700009B162684A60616809B122680A60826B17
:10D78000A2422ED1216881632BE02468002CE9D1CC
:10D790008046416B80680F1857F8040C3E1A3068B9
:10D7A00038B100201CF012FB57F8040C3E1A306808
:10D7B000B8B97068A84214DB3044441B30461CF0F2
:10D7C000BDFAD8F80810491BC8F80810D8F810108E
:10D7D0002944C8F8101070683146401B0EF034FE22
:10D7E00020C42046BDE8F081CC28002010B50024DC
:10D7F00018F0B2FC0C490F2001EBC002126C1AB1F8
:10D8000001EBC000006C08E0401EF5D508E041685F
:10D81000A14200D90C46806810B180680028F6D17A
:10D82000A4F10C0010BD0000CC2800200248816843
:10D830000068081A70470000CC280020002138B189
:10D840000449042202EBC000096B085841680C39F6
:10D8500008467047CC28002005498A69521C8A6115
:10D86000096B01EBC0010A78521C0A7000F056B82F
:10D87000CC2800207CB506460C460846FFF704FF7E
:10D8800005001CD0DEB13046FFF7D8FFA04200DA19
:10D8900004462846FFF7E0FF00903046FFF7DCFF24
:10D8A0000146019022460098FAF70CFE684600F007
:10D8B0001DF801A800F01AF83046FFF705FF2846CA
:10D8C0007CBD000010B5FFF791FF64220649B0F55A
:10D8D000800F04D990FBF2F0C969484310BDC969B3
:10D8E0004143B1FBF2F010BDCC2800200A49026888
:10D8F0000B6B52F8082C03EBC2021378022B03D3F4
:10D900008B690BB15B1E8B611178491E1170002170
:10D910000160084670470000CC280020002806D08F
:10D920000349042202EBC000096B08580830704715
:10D93000CC2800202DE9FC414FF000060B465FEAA1
:10D94000000834462BD032B111461846FFF780FE4E
:10D95000060000D101244046FFF77EFF00900788B3
:10D9600045686846FFF7C2FFCCB9B900091D2846D3
:10D97000FFF780FF050015D0FFF76EFF019040F81C
:10D98000276001A8FFF7B2FF4046FFF765FF009050
:10D9900045600188491C01806846FFF7A7FF2046C3
:10D9A000BDE8FC813046FFF78FFE0124F7E7082031
:10D9B000FFF76FBE7CB5050023D0FFF74DFF009049
:10D9C0004068C0B1FFF748FF0024019005E00198CE
:10D9D00000EB8400FFF7A0FE641C00980088A042C2
:10D9E000F5DC01A8FFF782FF0098001DFFF794FE09
:10D9F0000099002008806846FFF778FF2846FFF767
:10DA000063FE7CBD1CB50C46FFF726FF0090018825
:10DA1000A1421CD94068D0B1FFF71EFF019000EB76
:10DA20008400FFF779FE00990888401E80B20880C4
:10DA3000401E019906E000BF01EB8402526841F8E4
:10DA40002420641C8442F7DD01A8FFF74FFF6846DD
:10DA5000FFF74CFF1CBD38B5002430B1FFF7FCFECA
:10DA6000009004886846FFF741FF204638BD38B56E
:10DA70000D46002448B1FFF7EFFE2946009000F064
:10DA80005BF804466846FFF731FF204638BD38B5DD
:10DA90000D46002448B1FFF7DFFE2946009000F054
:10DAA0005DF804466846FFF721FF204638BD2DE9A2
:10DAB000FE43984691460D460024D0B3FFF7CCFEB6
:10DAC00001900788466801A8FFF710FFBD4230D2D9
:10DAD0007EB33046FFF7C0FE009050F82540684600
