:020000040800F2
:10800000001600108D8200089D4E010835200108E1
:10801000694D0108A590000845A501080000000071
:108020000000000000000000000000000D8A0108B0
:108030003FAE000800000000B1540108418F010864
:10804000A7820008A7820008A7820008BD64010873
:10805000A7820008A7820008A7820008C1B600080E
:10806000A7820008A78200082DB70008A782000891
:10807000A7820008A7820008A7820008A78200083C
:10808000A7820008A7820008A7820008A78200082C
:10809000A9900008B9900008A7820008A7820008EC
:1080A000A7820008A7820008A7820008A78200080C
:1080B0001D910108A7820008A7820008A782000876
:1080C000A7820008A7820008A7820008A7820008EC
:1080D000A7820008A7820008A7820008A7820008DC
:1080E000A78200088D5F0108A7820008A782000808
:1080F000A7820008A7820008A7820008A7820008BC
:10810000A7820008A7820008A7820008A7820008AB
:10811000A7820008A78200088D910108E19101085B
:10812000A7820008A7820008A7820008E1A500082E
:10813000A7820008A7820008A7820008A78200087B
:10814000A7820008A7820008A7820008A78200086B
:10815000A7820008A7820008A7820008A78200085B
:10816000A7820008A7820008A7820008A78200084B
:10817000A7820008A7820008A7820008A78200083B
:10818000A7820008A7820008A7820008A78200082B
:10819000A7820008A7820008A7820008A78200081B
:1081A000A7820008A7820008A782000800F002F852
:1081B00000F05CF80AA090E8000C82448344AAF125
:1081C0000107DA4501D100F051F8AFF2090EBAE823
:1081D0000F0013F0010F18BFFB1A43F001031847FB
:1081E000F44E0300244F03000A444FF0000C10F833
:1081F000013B13F0070408BF10F8014B1D1108BF25
:1082000010F8015B641E05D010F8016B641E01F8C4
:10821000016BF9D113F0080F1EBF10F8014BAD1C14
:108220000C1B09D16D1E58BF01F801CBFAD505E032
:1082300014F8016B01F8016B6D1EF9D59142D6D38C
:10824000704700000023002400250026103A28BFB4
:1082500078C1FBD8520728BF30C148BF0B607047B8
:108260001FB52AF072F91FBD10B510BD00F074FAE9
:108270001146FFF7F5FF29F07DFA00F092FA03B4FA
:10828000FFF7F2FF03BC00F097FA000009488047AF
:1082900009480047FEE7FEE7FEE7FEE7FEE7FEE7E8
:1082A000FEE7FEE7FEE7FEE704480549054A064B00
:1082B00070470000516E0108AD81000800000010F9
:1082C00000160010000600100006001053EA020C11
:1082D00000F069802DE9F04B4FF00006002B1FBF26
:1082E000B3FA83F503FA05F424FA05F65E4012BFEB
:1082F0001643B2FA82F502FA05F4C5F120051EBF55
:1083000022FA05FC44EA0C04203556EA044C4FEAF4
:10831000144418BF641C4FF000084FF0000990424D
:1083200071EB030C39D3002919BFB1FA81F701FAB7
:1083300007F6B0FA80F700FA07F6C7F120071EBF6C
:1083400020FA07FC46EA0C062037B6FBF4FCA7EB44
:108350000507103F07F01F0BCBF120060CFA0BFBB3
:108360002CFA06F644BFB3460026202FA4BF5E4673
:108370004FF0000B5BEA060C08BF4FF0010B19EB46
:108380000B09ABFB027C48EB0608C01B06FB02CCCA
:108390000BFB03CC71EB0C01C1E70B4602464146D7
:1083A0004846BDE8F08B13B54FF000004FF00001D8
:1083B000AFF30080BDE81C407047401ECAB210F801
:1083C000011F8A4202D00029F9D10020704740EAFB
:1083D000010310B59B070FD1042A0DD310C808C99B
:1083E000121F9C42F8D020BA19BA884201D9012044
:1083F00010BD4FF0FF3010BD1AB1D30703D0521C8F
:1084000007E0002010BD10F8013B11F8014B1B1BC9
:1084100007D110F8013B11F8014B1B1B01D1921E33
:10842000F1D1184610BD40EA0103024630B59B0762
:1084300010D14FF0013400E008C208C91D1B9D4354
:1084400015EAC41FF8D013F0FF0102F8011B0DD08C
:108450001B0AF8E711F8013B002B02F8013B05D09D
:1084600011F8013B002B02F8013BF3D130BD10B5F0
:10847000431C02E010F8011B71B18107FAD14FF0E3
:10848000013202C88C1A8C4314EAC211F9D0C01A06
:108490000A0603D0C01E10BDC01A10BD0A0401D0C8
:1084A000801E10BD0902FCD0401E10BD421E12F8F5
:1084B000013F002BFBD111F8013B002B02F8013BDF
:1084C000F9D17047032A40F2308010F0030C00F01D
:1084D000158011F8013BBCF1020F624498BF11F8FE
:1084E00001CB00F8013B38BF11F8013BA2F10402B7
:1084F00098BF00F801CB38BF00F8013B11F003032F
:1085000000F06780083AC0F0088051F8043B083A50
:1085100051F804CBA0E80810F5E7121D5CBF51F834
:10852000043B40F8043BAFF30080D20724BF11F8AE
:10853000013B11F801CB48BF11F8012B24BF00F813
:10854000013B00F801CB48BF00F8012B7047431AEC
:1085500028BF9A427FF6B6AF032A1044114440F276
:10856000268010F0030F1EBF11F8013D521E00F8C7
:10857000013D10F0030F7FF4F6AF11F0030300F09C
:108580009F80083AC0F00B8051F8043D083A51F83A
:1085900004CD40F8043D40F804CDFFF7F3BF121DB1
:1085A0005CBF51F8043D40F8043DAFF30080D207B2
:1085B00024BF11F8013D11F801CD48BF11F8012C7D
:1085C00024BF00F8013D00F801CD48BF00F8012CA0
:1085D000704710B5203AC0F00B80B1E81850203A2F
:1085E000A0E81850B1E81850A0E81850BFF4F5AF53
:1085F0005FEA027C24BFB1E81850A0E8185044BFDD
:1086000018C918C0BDE810405FEA827C24BF51F849
:10861000043B40F8043B08BF7047D20728BF31F83D
:10862000023B48BF11F8012B28BF20F8023B48BF8E
:1086300000F8012B704702F0FF0343EA032242EAED
:10864000024200F069B84FF0000200B513469446AC
:108650009646203922BFA0E80C50A0E80C50B1F19A
:108660002001BFF4F7AF090728BFA0E80C5048BFAE
:108670000CC05DF804EB890028BF40F8042B08BF4C
:10868000704748BF20F8022B11F0804F18BF00F848
:10869000012B7047704770477047431A28BF9A42B2
:1086A0007FF697AF104410F0030F11441EBF11F86E
:1086B000013D521E00F8013D10F0030F7FF4F6AFAC
:1086C000103AC0F00A8010B531E91850103A20E98C
:1086D0001850BFF4F9AFBDE81040530724BF31E98B
:1086E000081020E9081044BF51F8043D40F8043D4B
:1086F00012F0030F08BF7047D20728BF31F8023DC0
:1087000048BF11F8012C28BF20F8023D48BF00F8EF
:10871000012C70474FF000020429C0F0128010F0C5
:10872000030C3FF492AFCCF1040CBCF1020F18BF64
:1087300000F8012BA8BF20F8022BA1EB0C01FFF7DA
:1087400084BF5FEAC17C24BF00F8012B00F8012B35
:1087500048BF00F8012B7047754600F029F8AE4677
:1087600005006946534620F00700854618B020B53D
:10877000FFF79AFDBDE820404FF000064FF00007DC
:108780004FF000084FF0000B21F00701AC46ACE8B9
:10879000C009ACE8C009ACE8C009ACE8C0098D4626
:1087A00070470446AFF300802046FFF768FD0000E5
:1087B00000487047B43C022001491820ABBEFEE7D8
:1087C000260002007047002800DC4042704700008D
:1087D00038B5456804460146284611F0D1FE002808
:1087E0002AD02068304A0F2819D006DC0B2824D064
:1087F0000C2810D00E2851D12FE0112802D02828A3
:108800004CD145E09268002A16D02146284601B096
:10881000BDE830401047214628465268F7E7284611
:1088200005F0C4F80090406E0468684605F008F949
:10883000002C01D02846A04738BD284605F0B6F8E0
:108840000090683005F012F8009803216C3005F0B4
:1088500015F8684605F0F4F820E0E1684868096812
:108860000D2902D0202913D105E0002810DD28466B
:108870001EF055FF06E0002804DD2846BDE838401C
:108880001EF04DBF2846BDE8384002211EF05DBFF6
:10889000E06818B90021284600F0C2F92046BDE87A
:1088A000384012F099BA0000801902202DE9FF41EA
:1088B0000AAF70CF002703958DE8D00000F003F8D1
:1088C00004B0BDE8F081F0B585B00DF1280CBCE82E
:1088D000F0004FF0000C8DE8F01000F025F805B026
:1088E000F0BDF0B5044685B08069B4F90850668AD9
:1088F0000027CDE90265CDE900170490B4F90C001A
:10890000B4F91060C118B4F90A00B4F90E5010445B
:1089100033462A4600F008F80546616800F0B6F9CB
:1089200005B02846F0BD0000F0B585B00C46DDE985
:108930000D514C31DFF850C0DDE90A67CDE902C1C5
:108940002146CDE9006712F097F9040018D005F030
:108950002DF810222946049012F018F804983022BD
:108960000A493430FFF735FE084D04990C3D28685C
:10897000486604A805F064F82868416820468847DE
:1089800005B02046F0BD0000D18700088C190220F8
:10899000F0B5044680688B4989B051F82050606872
:1089A00000287DD0052804D006287AD0122879D155
:1089B000AEE0E86900284FD095E80E008DE80F0082
:1089C00004F110010FC908F03FFE002655F82600FB
:1089D00007F042FEA169E8690A1A21690144606949
:1089E000304405F0BFFFA169E8690A1A2169014412
:1089F000E069801B05F0B6FFE169E8690A1A616960
:108A000001442069304406F05FF8E169E8690A1A18
:108A100061690144A069801B06F056F8761C022E9D
:108A2000D4DBA86807F018FEE069E9696669431AB3
:108A300020694218521E3144801C06F0C1F8E169D9
:108A4000E869A2690B1A61690144101A401C921E60
:108A500006F0B6F8EE6913E05FF0000655F8260060
:108A600007F0FAFDE069831BA069821B6069811928
:108A70002069304405F0CEFF761C022EEEDB022684
:108A8000D5E90301CDE900016169E06908444310BB
:108A9000A069891C821B2069304405F02FFF02E089
:108AA00089E012E08AE0D5E90501CDE90001E3693A
:108AB00060690121184401EB6001A0699B1E821BC3
:108AC0002069304405F01AFF78E0206804F06EFF5A
:108AD0000490206813F014FD40B1A06808B1002094
:108AE00008E00498006F28B1012003E00498406F6B
:108AF00000B10220049901EB8000C56E04A804F0C7
:108B00009FFF00231A462846216805F011FC55E016
:108B1000206804F04BFF0490866EEEB3B0F95C70F1
:108B2000A168D1B3032942D05FF0000100EB8101BD
:108B3000406D0C6C07F09AFD204607F08DFD05A8EE
:108B400006F048FCBDF81410A88B0144ADF81410D1
:108B5000BDF81810081AADF81800BDF81600801CF2
:108B6000ADF81600BDF81A00801EADF81A00049882
:108B70005E30B0F90220B0F9001005A807F048FCFB
:108B800004A804F05DFF022007F0B2FD304604F0B7
:108B90000DFF3A4605A901E00BE006E0079005F05D
:108BA00013FD07A804F04CFF08E00121BEE70221F5
:108BB000BCE704A8F6E7206813F0C4F809B0002069
:108BC000F0BD0000188E03081CB50446002000907C
:108BD0002346054A2B210190044805F09BFA0449DD
:108BE0000860084600681CBD5DC10208C42803086F
:108BF00074180220044A0349116004494A6A486211
:108C000010467047BC190220801902208C190220DE
:108C100000294FF0100101D011F03CBD11F094BCBF
:108C20004FF480720029114601D011F033BD11F0CC
:108C30008BBC08B50023009300F001F808BD70B5A7
:108C400016460C46054619463046049A05F058FB70
:108C5000024621462846BDE8704000F03FB80000BB
:108C600038B50C46054604F0A1FE0090064984651F
:108C70004166684604F0E4FE284613F063F828468F
:108C800012F08BFD38BD0000BC1902202DE9FF4118
:108C90000E4605004FF001041CD004F087FE019041
:108CA000876E01A8009704F0CBFE3146684609F0B4
:108CB0006BF878B100980024B84208D0284604F038
:108CC00075FE01900099816601A804F0B9FE28465E
:108CD00012F063FD04B02046BDE8F081F8B51546FA
:108CE0000C46060013D004F061FE0090032C0BD854
:108CF00000EB84006C3004F0B9FD009800EB8400B8
:108D0000C566304612F049FD684604F099FEF8BD8C
:108D1000F0B52DED028B85B0012098490870984977
:108D20000870984807F0A2FC4FF6FF7007F094FC1B
:108D300095480078A8B10EF089FC93490870084660
:108D4000007820B99149002027F0DAFF09E00021DE
:108D50008FA00CF00BF88C48007805B0BDEC028BAE
:108D6000F0BD3222AA218FA005F00CFC9348FFF73A
:108D700041FF12F04FF9074640F6010000210222A0
:108D80001E23CDE90072CDE902102822642196202D
:108D9000FFF799FD8A4908608AA189480068FFF7B2
:108DA00075FF12F037F907464FF4026000210222E6
:108DB0001E23CDE90072CDE90210282264214FF470
:108DC0009670FFF780FD8049086080A17E480068AA
:108DD000FFF75CFF12F01EF907467D4912F070FEA6
:108DE00001E005F09FFE6548007818B164480078FE
:108DF0000028F6D17248006812F022F87248006824
:108E000012F01EF800206E4908606F49086005F0F6
:108E100039F95A48007800287ED15C4927F070FF64
:108E20006CA16D4828F034F86C4908700846007849
:108E3000002872D10A22052169A005F0A3FB6C4924
:108E400091F856106B4A52F8210005F01BFB1E22C8
:108E5000052169A005F096FB6548007E801C012174
:108E600001FA00F662480069401C704360490A7AC2
:108E70000121914000FB01F400EE104AB8EE400AD7
:108E8000DFED620A80EE208A0620B0EE480A05F087
:108E9000AEFA5FA005F0F6FA322205215EA005F0D9
:108EA00071FB03216048008805F079FA5FA005F0A6
:108EB000E9FA462205215FA005F064FB4C49886B66
:108EC0000A2105F06CFA5A2205215EA005F05AFB32
:108ED0004749B1F85400052105F061FA6E220521D9
:108EE0005AA005F04FFB424991F82C00022105F0F1
:108EF00056FA01215AA00BF039FF01225CA15F480C
:108F000027F014FF3549087008460078002831D151
:108F100000BF5A4804AB01E02BE01FE05849C2688B
:108F200027F0F2FF2D4908700846007810B9049820
:108F30000028EED100BF00BF504827F01CFE50486B
:108F400009F07AF84FF0504045684E4908600146F4
:108F5000086880F3088800BFA8470BE000214AA0FA
:108F60000BF004FF0021084627F0CAFE1B490870D9
:108F700000E000BF04480078EFE600001410022073
:108F800015100220F0690308D8110220541F022096
:108F900053442063617264206973206572726F723A
:108FA0000000000020424F4F542046524F4D2053A6
:108FB000442043415244203F200000009189000892
:108FC000AC10022059455300B01002204E4F000053
:108FD00025CF0208303A0000B0230220DC11022025
:108FE00020434152442054595045203A200000006B
:108FF00098370220901002202053445F434152448E
:109000002053495A45203A202000000000008049A2
:10901000204D42595445000020534543544F52209F
:1090200053495A45203A2000D611022020204259A7
:10903000544500002052524F4455435420534E2073
:109040003A20000020524341203A2000204D414E5A
:10905000554641435455524552204944203A200038
:1090600053442063617264206973204F4B210000D8
:10907000303A73746D33322E686578008C2102208B
:10908000000003D008ED00E05344206361726420C7
:109090006973206E6F7420696E697469616C697A96
:1090A0006500000000BFFEE710B5002000F048FC9E
:1090B00000F014F810BD000010B50120054908703B
:1090C000002005490870012000F03AFC00F034FB54
:1090D00010BD0000511202205412022070B586B05B
:1090E000FC4880780C287DD2DFE800F00607263E99
:1090F0007C6AC9FEFDFCFBFAF1E24FF4C070F64950
:109100000880062088700120C870F4480178F24871
:109110000171F2484178F0484171F1488178EE4898
:109120008171EF484178EC48C171ED48C178EA4857
:10913000017200F0A7FCD2E2E6480079E749087026
:10914000E4484079487000200DF050F9E1488079FA
:10915000E3498870DF48C0794870DE48007AC870FB
:1091600000200DF0DFF8BAE24FF4C170DA49088050
:109170000120C870DB480178D7480171DA480178CE
:10918000D5484171D9480178D3488171D8480178D0
:10919000D148C171D7480068010ECF488172D548C7
:1091A0000068010CCC484172D2480068C1B2CA487C
:1091B00001720820C8498870084600F063FC8EE2FE
:1091C0004FF08040008C40F010004FF08041088448
:1091D0000846008C40F0010008840120C449086062
:1091E000C54800E07AE20068002847D0C34800780C
:1091F00018B1C2480078012824D111200BF0E6F9FB
:10920000002400E0641CBE488442FBDBBE200BF05F
:10921000DDF904200BF0B8F9BA4800880BF0B4F976
:1092200001200BF0B1F9F0200BF0AEF900200BF0AB
:10923000ABF900200BF0A8F90220B049087000201B
:10924000B14908700020B14908604FF40161AA4893
:10925000006811F0F5FE0646AD493046FFF700FD07
:10926000304612F0F9FC40F61101A348006811F0F5
:10927000E7FE0646A7493046FFF7F2FC2FE29F487B
:10928000007818B19D480078012824D111200BF0F6
:109290009DF9002400E0641C99488442FBDBBE2059
:1092A0000BF094F904200BF06FF9964800880BF04E
:1092B0006BF901200BF068F9F0200BF065F9002044
:1092C0000BF062F900200BF05FF902208B49087067
:1092D00000208D49087000208C4908607D4804E01A
:1092E000D6E1B2E18CE15EE1CBE040797D490860F6
:1092F0000846006800285AD04FF08040008B40F0AC
:1093000004004FF0804108830846808940F0020045
:1093100088812320C862052088636E48C07973491C
:109320000860086800EBD0714C1000EE104AB8EEEF
:10933000C00ADFED790A80EE201A784880ED001A25
:109340006D480068002831D040F613016A48006873
:1093500011F076FE0646304612F066F940F614012A
:109360006548006811F06CFE0646304611F0D7FDE6
:1093700040F617016048006811F062FE06465B483F
:10938000016830460BF081FF304612F08EFD40F64A
:1093900016015948006811F053FE0646534801680B
:1093A00030460FF06DF9304611F0C6FD59E04948DE
:1093B00080794D4908604FF08040008B20F0040018
:1093C0004FF0804108830846808920F002008881A0
:1093D0004548006800EB80004FF47A71A1EB400033
:1093E000C906C8624048006800EB800040F2CA31FC
:1093F000A1EB4000490788633F48006888B340F606
:1094000017013D48006811F01BFE0646304612F079
:109410000BF940F616013848006811F011FE0646B7
:10942000304611F07CFD40F613013348006811F01E
:1094300007FE06462C48016830460BF026FF3046F2
:1094400012F033FD40F614012B48006811F0F8FDCE
:1094500006462548016830460FF012F9304611F0F3
:109460006BFD2548006858B140F618012248006895
:1094700011F0E6FD06461B480168304601F083FC0A
:109480002DE14FF08040008C20F010004FF0804123
:1094900008840846008C20F0010008840020204940
:1094A00008709FED200A204880ED000A0020104936
:1094B000086011480068002874D01048007818B17E
:1094C0000E480078012851D111200BF07FF80024BC
:1094D0002DE000007438022068380220BC10022001
:1094E000C0100220E0110220E4110220E811022045
:1094F000F011022018640040A0130220DA110220AB
:1095000020BF020046120220DB110220241400407A
:10951000FDCF02089189000800004842EC110220AA
:10952000F411022000000000F8110220641C7048B1
:109530008442FBDBBE200BF049F804200BF024F83A
:109540006C4800880BF020F801200BF01DF8F0208B
:109550000BF01AF800200BF017F800200BF014F8AD
:1095600002206549087000206449087000206449A1
:10957000086040F611016348006811F061FD06467D
:1095800061493046FFF76CFB304612F065FB4FF443
:1095900001615C48006811F053FD06465B493046A6
:1095A000FFF75EFB9BE05A4840795949097940EA48
:1095B00001205849088058480078C87056484178BA
:1095C0005448017155480178524841715448006827
:1095D00058B9534801784F4881714F48017B4D4835
:1095E000C17105204B49887006E04D480178494813
:1095F0008171042047498870464800F043FA6EE0C4
:109600004848006811F01CFC11F004FD05461820C4
:1096100040F618020023CDE90320029305900320B1
:1096200022231A460F21CDE900500A2008F095FEAA
:109630003C490860012108020CF06EFC3AA23B494B
:109640003848006808F0C6FD49E0314800793249E1
:1096500008702F48407948700020886088702C4836
:1096600080792E4908602A48C07930B900202A49FB
:1096700048602748007A087303E04FF0004026490D
:109680004860254A4FF4807100200CF0D5FD26E09B
:109690002448006811F0D4FB11F0BCFC05461820EA
:1096A00040F618020023CDE9032002930590032021
:1096B00022231A460F21CDE900500A2008F04DFE62
:1096C0001849086000214FF480700CF025FC16A2A8
:1096D00017491448006808F07DFD00E000BF00BF96
:1096E0001448006840F002001249086006B070BDDE
:1096F00020BF020046120220DA110220DB110220F4
:1097000024140040A0130220FDCF02089189000814
:109710007438022068380220881E022018120220A5
:109720009C150220601302200000000048B90BD0F5
:1097300070C20BD01464004030B57848807B042898
:1097400004D0062849D00B287CD1D3E000207449EE
:109750000860744908607148007C08606F48407C6C
:10976000096841EA00206F4908606C48807C0968FC
:1097700041EA00406B4908606848C07C096841EADA
:1097800000606849086002F083FF66480068B0F531
:10979000003F01DC01240EE062480068B0F5802F34
:1097A00001DC022407E05F480068B0F5C02F01DC4F
:1097B000032400E004242146082002F017FF4FF4A0
:1097C000B97059490880022088700120C87067214B
:1097D0005548017100F056F998E052480068504928
:1097E0000968401A082833D34D4800684F4A811849
:1097F000042308224948103002F070FE48480068EF
:109800000830474908604FF4B97047490880022082
:1098100088700120C87067214348017100F032F957
:109820003F480068F021B0FBF1F201FB120038BBA9
:109830003F48006810F0800F05D080203C490A3175
:1098400008801DE061E0802039490831088017E078
:1098500034480068324B1B68C21A31480068334BE9
:10986000C11804232D48103002F038FE2D4800683E
:109870002B490968401A2A490968084428490860A0
:109880002848006826490968884232D1254800687E
:10989000011F264826F0F6FB0546224800682349AA
:1098A000084450F8040CA84210D14FF4B9701E4976
:1098B0000880022088700120C87063211A48017155
:1098C00000F0E0F801201B49087012E01A48006817
:1098D00040F00040184908604FF4B9701249088000
:1098E000022088700120C87065210F48017100F0C6
:1098F000C9F80BE04FF4C4700B4908800120887050
:10990000C870084600F0BEF800E000BF00BF0B487A
:10991000006840F010000949086030BD743802202A
:10992000C8180220CC18022068380220000008085D
:1099300010140240C4180220103C0240146400407D
:109940004D4901EB0011096801F0020102295AD0CA
:10995000494901EB0011896800EB4002474B03EBDA
:1099600082021171444901EB001189680A0A00EB77
:10997000400103EB81014A713F4901EB0011896805
:109980000A0C00EB400103EB81018A713A4901EBBB
:1099900000118968090E00EB400203EB8202D171CD
:1099A000354901EB0011C968CAB200EB400103EB75
:1099B00081010A72304901EB0011C9680A0A00EB03
:1099C000400103EB81014A722B4901EB0011C96888
:1099D0000A0C00EB400103EB81018A72264901EB7E
:1099E0000011C968090E00EB400203EB8202D1723C
:1099F000214901EB0011496801F00F0100EB400221
:109A000003EB8202D1701C4901EB0011096840F29E
:109A1000FF7202EA515100EB4002184B23F822106A
:109A2000154901EB00114968090A00EB400203EBFC
:109A30008202917030B11249096821F01001104A78
:109A4000116005E00E49096821F002010C4A11601D
:109A500040B10B49091F096841F02001084A121F53
:109A6000116007E006490839096841F02001044AFD
:109A7000083A116070470000B06500407438022059
:109A80001464004010B5024600233048006800F01E
:109A90008060B0F1806F01D1002113E02B48006895
:109AA00000F00060B0F1006F01D101210AE0274809
:109AB000006800F08050B0F1805F01D1022101E028
:109AC000022010BD10884405214800EB01100460FD
:109AD0001F4800EB0110406820F00F041C4800EB09
:109AE000011044601A4800EB01104068947820434C
:109AF000174C04EB0114606090790406507944EA35
:109B00000044107944EA0020D47840EA0403104865
:109B100000EB01108360907A0406507A44EA004416
:109B2000107A44EA0020D47940EA0403084800EBA4
:109B30000110C360064800EB0110006840F001040A
:109B4000034800EB011004600020BAE708640040FD
:109B5000806500407CB5214C0546216831F8220F14
:109B60004A8D104408804888CA8D10444880284691
:109B700005F020FC2168498CADF8001046182846F5
:109B800007F09CFF3044401EADF8040005F05EFC79
:109B90002168898CADF802100844401EADF806001B
:109BA000684612F041FB04E0284602F07DFD12F009
:109BB000B9FA0028F8D10A2D04D0BDF804002168B4
:109BC000401C4884206830F8221F428D891A018089
:109BD0004188C28D891A41807CBD00000019022095
:109BE0000B480068018990F8702011FB02F30949C5
:109BF0000B80438913FB02F34B8083895B1C534327
:109C00005B1E8B80C089401C5043401EC88070473B
:109C100000190220301D022010B500BF89480068DD
:109C200010F0200FFAD12D2087490860874800687E
:109C300020F00300854908600846006840F00100F4
:109C4000086000BF8148006800F00C000428F9D1CA
:109C50007E480838006820F080707C490839086028
:109C60007B480078002864D1012079490870794840
:109C7000794908607548001F006820F44030734936
:109C8000091F08607548006840F440407349086047
:109C90006E48006820F47C406C4908600846006803
:109CA00040F41440086069480838006840F080704B
:109CB00066490839086000BF64480838006800F049
:109CC0000070B0F1007FF7D16448006840F4803044
:109CD0006249086000BF6148406810F4803FFAD0D4
:109CE0005E48006840F400305C49086000BF5B4893
:109CF000406810F4003FFAD05448006820F0030098
:109D0000524908600846006840F00200086000BF41
:109D10004E48006800F008000828F9D100BF494803
:109D2000006810F0200FFAD140F6D4204C490860AA
:109D300062E00020464908704A48474908604348A5
:109D4000001F006840F480304049091F0860434804
:109D5000006820F44040414908600846006840F42B
:109D6000804008603948006820F47C40374908602A
:109D70000846006840F4805008603848006820F4C5
:109D800000303649086000BF3448406810F4003F96
:109D9000FAD13248006820F480303049086000BFB2
:109DA0002E48406810F4803FFAD1284808380068EF
:109DB00040F0807025490839086000BF2348083802
:109DC000006800F00070B0F1007FF7D11F48006814
:109DD00020F003001D4908600846006840F00200BA
:109DE000086000BF1948006800F008000828F9D191
:109DF00040F6D4201A490860174800684FF47A7179
:109E0000B0FBF1F4A4F10100B0F1807F00D30FE0CA
:109E1000601E4FF0E02148610F214FF0FF300BF042
:109E2000E3F800204FF0E02188610720086100BFBF
:109E300000BF0448006810F0200FFAD188200249C2
:109E4000086010BD580100A0500100A00838024071
:109E5000D51002200095BA0A0010022000700040C0
:109E6000540100A0804A5D0570B500254FF4803490
:109E700000E0641E24B180200CF080FF0028F8D0A0
:109E800014B90325284670BD40F2FF500CF038FF8E
:109E90002846F8E72DE9F0410646002747480568BF
:109EA00001E04648056815F0450FFAD015F0040F9B
:109EB00006D0032704200CF023FF3846BDE8F081CC
:109EC00015F0010F05D0012701200CF019FF3846CD
:109ED000F4E70CF04DFFB04202D010273846EDE712
:109EE00040F2FF500CF00CFF00200CF05BFF04462A
:109EF0003348044201D13846E0E714F0004F01D066
:109F00001C20DBE714F0804F01D00920D6E714F0C5
:109F1000005F01D00A20D1E714F0805F01D00B2050
:109F2000CCE714F0006F01D00C20C7E714F0806F6D
:109F300001D00D20C2E714F0807F01D00E20BDE7D4
:109F400014F4000F01D00F20B8E714F4800F01D0F3
:109F50001020B3E714F4001F01D01120AEE714F471
:109F6000801F01D01220A9E714F4002F01D0132084
:109F7000A4E714F4802F01D014209FE714F4003FCD
:109F800001D015209AE714F4803F01D0162095E700
:109F900014F4004F01D0172090E714F4804F01D043
:109FA00018208BE714F4005F01D0192086E714F025
:109FB000080F01D01A2081E738467FE7342C014092
:109FC00008E0FFFD70B500250F48046801E00E4869
:109FD000046814F0450FFAD014F0040F05D00325DF
:109FE00004200CF08DFE284670BD14F0010F05D042
:109FF000012501200CF084FE2846F5E740F2FF50D1
:10A000000CF07EFE2846EFE7342C014070B50025A9
:10A010000B48046801E00A48046814F0450FFAD0C0
:10A0200014F0040F05D0032504200CF069FE284627
:10A0300070BD40F2FF500CF063FE2846F8E70000C8
:10A04000342C01402DE9F04106460F464FF0000840
:10A050002248056801E02148056815F0450FFAD04F
:10A0600015F0040F07D04FF0030804200CF048FE51
:10A070004046BDE8F08115F0010F06D04FF0010811
:10A0800001200CF03DFE4046F3E70CF071FEB042BB
:10A0900003D04FF010084046EBE740F2FF500CF0C1
:10A0A0002FFE00200CF07EFE044614F4604F03D116
:10A0B000200C38804046DCE714F4005F01D0132008
:10A0C000D7E714F4804F01D01020D2E714F4004FEA
:10A0D00001D00F20CDE74046CBE70000342C0140F3
:10A0E00070B500264FF480350F48046802E06D1EFD
:10A0F0000D48046814F0450F01D1002DF7D115B1BA
:10A1000014F0040F05D0032604200CF0F9FD3046AE
:10A1100070BD14F0400F05D0002640200CF0F0FD7B
:10A120003046F5E73046F3E7342C01401CB50020FB
:10A13000009001900548064A08210368054803F08D
:10A14000E9FF05490860084600681CBD7C13022031
:10A1500081D10208942603089415022010B586B018
:10A1600010F058FF0446684840F607010022022319
:10A17000CDE90043CDE90221049040F201134FF4F0
:10A18000CD720F213C2010F0ADFC604908606049A1
:10A190005E48006810F0E0FC4120302140F61802D3
:10A1A0000023CDE90232CDE90410032057490968A4
:10A1B00041233A22CDE900104621642008F0CDF871
:10A1C0005449086054A256495248006808F002F801
:10A1D00054495048006808F052F908214D48006879
:10A1E00008F07BF94120302140F60E020023CDE932
:10A1F0000232CDE9041003204449096841233A2280
:10A20000CDE900100021642008F0A7F84649086055
:10A2100046A247494448006807F0DCFF41494248EC
:10A22000006808F02CF908213F48006808F055F94B
:10A230004120302140F615020023CDE90232CDE95C
:10A24000041003203149096841233A22CDE9001066
:10A250000021142008F081F83649086036A23849F8
:10A260003448006807F0B6FF2E493248006808F00D
:10A2700006F908212F48006808F02FF94120302105
:10A2800040F617020023CDE90232CDE90410032085
:10A290001E49096841233A22CDE9001046211420C5
:10A2A00008F05BF82749086027A22849254800687C
:10A2B00007F090FF1B492348006808F0E0F80821E8
:10A2C0002048006808F009F9302040F61602002303
:10A2D000CDE903200293059003200C4909683A2335
:10A2E0001A46CDE90010C821142008F036F81849A4
:10A2F000086012A217491648006807F06BFF034870
:10A30000006806B010BD0000B9DD02087C13022011
:10A310008766DF0090130220414C41524D0000003F
:10A32000B4B40BD0F48D03088013022050574D00B5
:10A330008C900BD08413022054494D45000000003E
:10A34000787E0BD08813022053440000A0A20BD0CB
:10A350008C130220646C0BD010B586B072B600204E
:10A3600006F03AF910F056FE04466D4911F0A8FBCC
:10A370006C4806F07BF96C48006800287ED110F02C
:10A3800049FE044669484FF4006100220223CDE9EA
:10A390000043CDE90221049040F201134FF4CD7245
:10A3A0000F213C2010F09EFB5F49086060495E4829
:10A3B000006810F0D1FB4120302140F61702002345
:10A3C000CDE90232CDE90410032057490968412341
:10A3D0003A22CDE900100021F02007F0BEFF5549D8
:10A3E000086055A256495348006807F0F3FE5549E6
:10A3F0005048006808F043F808214E48006808F00B
:10A400006CF84120302140F604020023CDE90232ED
:10A41000CDE9041003204449096841233A22CDE9DB
:10A42000001000214FF4AA7007F097FF464908601A
:10A4300046A248494448006807F0CCFE41494248DA
:10A44000006808F01CF808213F48006808F045F84B
:10A450004120302140F615020023CDE90232CDE93A
:10A46000041003203049096841233A22CDE9001045
:10A470005A214FF4AA7007F070FF00E02EE0364931
:10A48000086036A237493448006807F0A3FE2D491A
:10A490003148006807F0F3FF08212F48006808F0F2
:10A4A0001CF8302040F605020023CDE9032002937A
:10A4B000059003201C4909683A231A46CDE900108B
:10A4C000C8214FF4AA7007F048FF2749086027A267
:10A4D00027492548006807F07DFE03E01248006820
:10A4E00011F0E3FC234900200BF048FE2149887855
:10A4F00002230022052103F055FF1FA003F0C2FF35
:10A500001C494878022103F04AFF1CA003F0BAFF5F
:10A510001849C878022103F042FF62B606B010BDA8
:10A5200059CA0208D08D03084C13022091E8020892
:10A530008080FF006C130220494D41474500000018
:10A5400014240BD0F48D03085013022043414C49CE
:10A550004200000028360BD0541302205041494ECF
:10A56000540000003C480BD05813022000000000AB
:10A57000505A0BD0C01002202E0000002E323000A6
:10A580001CB50020009001900548064A0821036888
:10A59000054803F0BFFD05490860084600681CBD7A
:10A5A0007C130220BDEA0208B4250308A013022090
:10A5B0001CB50020009001900548064A0721036859
:10A5C000054803F0A7FD05490860084600681CBD62
:10A5D0007C13022035D9020874270308341802209E
:10A5E00010B50DF0C7FA10BD0246094B9A4201D2D0
:10A5F000084801E00648103811F0005F03D0064B10
:10A600000B40C36002E0044B0B40836070470000C6
:10A6100010640240006002407D0F7D0F21B102688E
:10A6200042F00102026003E0026822F001020260CF
:10A6300070470000016821F0010101600021016004
:10A6400041608160C1600161212141614A498842C4
:10A6500004D13D21484A103A91608CE046491831B6
:10A66000884205D14FF47461434A103A916082E008
:10A6700041493031884205D14FF474113E4A103AB5
:10A68000916078E03C494831884205D14FF07461CF
:10A69000394A103A91606EE037496031884204D1FE
:10A6A0003649354A103AD16065E0334978318842FD
:10A6B00004D13349304A103AD1605CE02E499031E0
:10A6C000884204D12F492C4A103AD16053E02A49DC
:10A6D000A831884205D14FF03D51274A103AD16048
:10A6E00049E02949884204D13D21274A083A1160AE
:10A6F00041E025491831884205D14FF47461224A5E
:10A70000083A116037E020493031884205D14FF4D2
:10A7100074111D4A083A11602DE01B4948318842E6
:10A7200005D14FF07461184A083A116023E01649C8
:10A730006031884204D11149134A121F11601AE096
:10A7400011497831884204D10D490F4A121F116016
:10A7500011E00D499031884204D10A490A4A121F7A
:10A76000116008E00849A831884204D14FF03D51FA
:10A77000054A121F11607047106002403D00002022
:10A78000400F002000003D201064024021B102680B
:10A7900042F02002026003E0026822F02002026020
:10A7A000704710B511F0800F09D022B1436943F012
:10A7B0008003436103E0436923F080034361802900
:10A7C0000BD02AB1036801F01E042343036004E0A8
:10A7D000036801F01E04A343036010BD10B50022FE
:10A7E0000268134B1A40CC680B6823434C6923431F
:10A7F0008C692343CC6923430C6A23434C6A23436B
:10A800008C6A23434C6B23438C6B23431A430260B3
:10A81000426922F00702D1E90B3423431A43426113
:10A820000B6943604B6883608B68C36010BD000098
:10A830003F801CF02DE9FC4100282ED0112916D0B4
:10A84000132910D080460C4603F0B0F8009000F0B9
:10A85000DEFA0546684603F0F3F8204620F0A2FC35
:10A86000064600241CE0BDE8FC4100F082BABDE8C9
:10A87000FC4100F067B92146404600F0CBFA019058
:10A88000007820F08FFCC7B201A803F0D9F8B742D6
:10A8900005D12146404600F076FABDE8FC81641CF3
:10A8A000AC42E8DBF9E7F8B50C46050013D0002C04
:10A8B00011D003F07BF80090C66B684603F0C0F837
:10A8C0002046FDF7D4FD421C2146304603F0DCF85B
:10A8D000284610F062FFF8BD2DE9FF4145680446A7
:10A8E000284603F063F80190D0F8886001A803F0CF
:10A8F000A7F80EB1012700E00027214628460FF0F7
:10A900003FFE002855D020680F2856D006DC0B28C3
:10A9100062D00C2843D00E282AD173E0112839D0F8
:10A92000212802D0262823D116E0E06841680029BA
:10A930001EDD00680D281BD1304608F0E8FF002816
:10A9400006DB304608F0E3FF0146284600F01BFA1C
:10A95000284600F077F86EE0E068012809D00A2860
:10A9600002D00B286AD111E00A21284610F0A6FF78
:10A9700064E0304608F0CBFF00285FDB304608F08B
:10A98000C6FF0146284600F0FEF954E0284600F0D4
:10A9900059F853E0FFB9E068007A90BB4EE0E068F8
:10A9A00048B1007A08B1012100E00221284610F0E8
:10A9B00085FFBDE8FF810321F8E72E46284602F017
:10A9C000F5FF0290D0F88400056802A803F038F87B
:10A9D0000DB13046A84731E0284602F0E7FF00906D
:10A9E000C06B03F091F80098D0F8880010F028FAB6
:10A9F0000098D0F8940002F011FF684603F020F8A8
:10AA00001CE010E0E0684168002917DD01680929B1
:10AA10000DD00A2912D01B2910D0202903D0284696
:10AA2000FFF708FFC5E7284600F098F806E010F0A9
:10AA300021FBB04202D1284611F00EF9204610F059
:10AA4000CBF9B6E738B5040011D002F0AFFF0090A3
:10AA5000D0F8880040B110F0F3F900990020C1F857
:10AA60008800204610F099FE684602F0E9FF38BDE4
:10AA7000F0B585B0B0F90850468A84690296CDE9F0
:10AA800003540027CDE90017B0F90C10B0F91050AD
:10AA9000B0F90E40B0F90A00194410442B46224682
:10AAA00000F002F805B0F0BD2DE9FF410C461D464F
:10AAB000DDE90D71DDE90B366C31DFF880E0DDF8A2
:10AAC00028C0CDE900C3CDE902E14FF0FF332146B4
:10AAD00010F0D2F804002DD002F068FF10223946A1
:10AAE00000900FF053FF00983822154980F88C60D1
:10AAF0004C30FDF76EFD124E0098361F3168C0F8DD
:10AB00008410002180F89010C586204600F05EF980
:10AB1000684602F095FF02F0F4FF0546204602F079
:10AB200045FF0090C563684602F08AFF30684168BF
:10AB30002046884704B02046BDE8F081D9A8000827
:10AB40004C1A022010B5044600F006F9010000D0AE
:10AB5000411E2046BDE8104000F015B92DE9F14F27
:10AB60009EB01E9800287CD002F020FF08901E980E
:10AB700010F065FB1A900898B0F9367090F89010B4
:10AB80001991C16B179190F88C90B0F9341007911E
:10AB900000F03DF9824608980BACB0F88E10159184
:10ABA000B0F982100A91C16C0991D0E90012CDE987
:10ABB0000512D0F894B0002100EB8102126D44F828
:10ABC0002120491C0329F7D300210EAD00EB81029F
:10ABD000D26D45F82120491C0329F7D3002111AE7D
:10ABE00000EB8102126F46F82120491C0329F7D39C
:10ABF00008A802F025FF1E9810F0C9FA02F0D6FE50
:10AC00001490D0F8008014A802F01AFF4FEA2840F0
:10AC100042420FFA88F0414205A805F0F9FB5FEACD
:10AC2000897003D5BDF81600C01B01E0BDF81A00FD
:10AC3000ADF816001E9810F0AAFA01461A98CDE950
:10AC4000000702220292BDF91630BDF9142000203F
:10AC500008F0F1FD80465FEAC97009D040461999B5
:10AC600000E076E009F06AF80121404608F0AEFF06
:10AC7000002708E03946179802F0A3FF0146404636
:10AC800008F09DFC7F1C5745F4D30027394654F843
:10AC90002720404608F0BFFF7F1C032FF6D3002477
:10ACA000214655F82420404609F0CCF8641C032CBA
:10ACB000F6D30024214656F82420404609F023F814
:10ACC000641C032CF6D35FEA0B001ED002F06EFE6C
:10ACD00030F8025B00240126169011E0169804F06B
:10ACE000070100EBD40006FA01F10078084201D018
:10ACF000012200E000222146404608F0B4FF641C17
:10AD0000AC42EBDB16A802F09BFE4046159908F01A
:10AD1000D8FF4046099908F092FF40460A9909F089
:10AD200081F8404610F098FF40461E9908F0DBFF7E
:10AD30004046079909F01AF801211E9810F0BEFD4F
:10AD40001E9802F033FE0890C0F8888008A802F030
:10AD500077FE1FB0BDE8F08F38B5002438B102F09F
:10AD600025FE0090B0F93440684602F069FE2046A6
:10AD700038BD10B50446FFF7EFFF411C2046BDE883
:10AD80001040AFF3008038B50C46050019D002F032
:10AD90000DFE009000F03BF800B1401E844200DD43
:10ADA00004460098B0F93410A1420BD0848668465E
:10ADB00002F046FE284610F0F0FC0421284610F070
:10ADC0007DFD38BD684602F03BFE38BDF8B504464F
:10ADD00002F0ECFD01460090B0F9380010B9C86CE3
:10ADE00004F068FB0099CA6AB1F98030126800EB80
:10ADF00043001618084611F008FA0546684602F0A6
:10AE00001FFE32462946204610F0D5FFF8BDC06B24
:10AE100002F0CBBE38B50D46002402F0C7FD00900D
:10AE2000C06B294602F0CDFE0546684602F008FEDA
:10AE30001DB1284602F0BAFD0446204638BD7047D1
:10AE40002DE9FC5F15460746DFF89C8028440190F9
:10AE5000D8F800001C460E46C06E01EB04094946B6
:10AE6000426801989047781B0090D8F80000494646
:10AE7000C06E426800989047D8F8000006EB050BBA
:10AE800007EB0409C06E5946426848469047D8F817
:10AE90000000A6EB050A5146C06E4268484690473E
:10AEA000002C1ED0D8F80000361B4546C06E314637
:10AEB00042680198904728683146C06E4268009801
:10AEC000904728683C1B5946C06E42682046904710
:10AED00028685146C06E426802B02046BDE8F05F67
:10AEE0001047BDE8FC9F00000019022070B5054620
:10AEF0000C46611F621D284603F0E6FD691F6A1DAE
:10AF0000204603F02FFD04222146284603F04CFC86
:10AF100070BD30B58DB004460D46032005F0D6FB5C
:10AF20000020ADF804000520ADF80600ADF80800DB
:10AF30000021ADF80A100A20ADF80C000521ADF88B
:10AF40000E100F20ADF810000021ADF812101420E3
:10AF5000ADF814000521ADF816100F20ADF818005B
:10AF60000A21ADF81A101420ADF81C000F21ADF81D
:10AF70001E100F20ADF820001421ADF822100A2079
:10AF8000ADF824000F21ADF826100520ADF82800FB
:10AF90001421ADF82A100020ADF82C000F21ADF8D7
:10AFA0002E100520ADF830000A21ADF832106FF0F8
:10AFB0007F4005F051FB2B4622460C2101A803F0EF
:10AFC000CBFD0DB030BD2DE9FC470E465FEA000910
:10AFD00078D002F0EBFC009090F85470D0F85880D4
:10AFE000456BC46C684602F02BFDB8F1000F04D02D
:10AFF000314648464246904761E0122E18D006DCA2
:10B00000082E43D0102E3CD0112E06D112E0132E64
:10B0100021D01D2E43D01E2E3DD0202E4FDB17B148
:10B02000484614F000FBB1B248461BF0A0FB60B3E9
:10B03000611C27E04DB3284602F0B8FC05462146C6
:10B04000019005F0C1FC4419204605F07FFC014643
:10B050002346012210E0C5B1284602F0A7FC0546B0
:10B060002146019005F0B0FC4419204605F06EFC25
:10B07000014623464FF0FF32484612F0A6FC01A8D5
:10B080001BE0611E484600F0F0FA18E0BCB1611EFA
:10B09000484600F0EAFA484614F0C5FA0FE0484680
:10B0A00002F084FC0090012F0ED0012180F8541092
:10B0B0002146484600F0D9FA684602F0C1FC4846ED
:10B0C00010F06BFBBDE8FC87002180F85410F3E71B
:10B0D000FEB544680546204611F012FA0646294698
:10B0E00020460FF04DFA002834D028680E283DD0B5
:10B0F00004DC0B282FD00C284AD116E00F2825D0CD
:10B10000A0F58070133843D1204610F0A5FC2046EE
:10B1100000211DF035FE204602F048FC0190C06F72
:10B12000002110F07FFC01A81DE0E86860B1017A01
:10B1300029B10168204600F009F9012100E002214F
:10B14000204610F0BBFB23E00321F9E70121204654
:10B150001DF016FEFEBD204602F028FC00903430A3
:10B1600002F084FB684602F06BFC11E086B1E868EF
:10B17000416800290CDD0168092909D00A2907D096
:10B180000D2905D01B2903D02046FFF71CFFFEBD6B
:10B1900028460FF021FEFEBDF0B587B00DF1300E50
:10B1A000BEE8F0104FF0000E8DE8F05000F028F8E7
:10B1B00007B0F0BDF0B587B004460DF1080CD4E936
:10B1C0000567B0F90850408AACE8E1000020CDE9FD
:10B1D0000010B4F90C00B4F91060C118B4F90A00F9
:10B1E000B4F90E50104433462A4600F009F8050021
:10B1F00002D0618A00F0FCF907B02846F0BD0000DB
:10B200002DE9FF410D46DDE90D640F9FDDE90AC11F
:10B2100041F480515837DFF874E0CDE900C1CDE941
:10B2200002E729460FF028FD05002AD002F0BEFBF8
:10B230001022314600900FF0A9FB00981C221449FF
:10B240006030FDF7C6F90099012081F85500601CB7
:10B2500000D0012081F88000002C00DC082424B2FA
:10B260000C87002048874863641C684602F0E8FBAE
:10B27000214628461AF0E1FE18B928460FF0E0FDF5
:10B28000002504B02846BDE8F0810000D1B00008D8
:10B29000841A02200148806870470000841A022046
:10B2A0002DE9FC4115460E0022D0002820D002F0E6
:10B2B0007DFB002701903770406BB0B102F076FB48
:10B2C000009006F0DFFB0146009805F07DFB044688
:10B2D000681E844200DD0446224630460099FDF790
:10B2E000F1F8684602F0ACFB375501A802F0A8FB64
:10B2F000BDE8FC8138B5002430B102F057FB009066
:10B30000846C684602F09CFB204638BDF8B51546B3
:10B310000C4606000ED002F049FB009038B1022C1A
:10B3200005D200EB84004567304610F036FA6846D7
:10B3300002F086FBF8BD10B5040006D000F095F9C8
:10B340002046BDE8104010F028BA10BD2DE9F041AC
:10B3500086B00C46060050D002F028FB0090406BEF
:10B3600098B302F023FB03900098806E05F07EF9FD
:10B37000804630460FF063FF0746039804F075F8E7
:10B380000546009890F8601001F00301012916D0DD
:10B3900002290DD0416EC06A00680844241A641E58
:10B3A000039806F06FFB0146002C0FDA002115E030
:10B3B000781B401C00EBD070A4EB6004F0E7406EFB
:10B3C000791B081A241A641CEAE713E0AC4205DC76
:10B3D00002462146039806F0F5FA0146304600F091
:10B3E00044F903A802F02CFB404605F03FF9304633
:10B3F00010F0D3F9684602F023FB06B0BDE8F081F7
:10B400002DE9F8431D46DDE9084916460F465FEA77
:10B41000000841D002F0CAFA00903C301F49C161D7
:10B420001F4901620021C0E90371C0E9006504728F
:10B4300080F81A900121017690F84470684602F075
:10B44000FFFA87B1284619F02AFA0546304619F066
:10B4500026FA0CB1401C6D1C854200DD28460146D1
:10B46000404600F031F840461FF060FF404602F0D1
:10B470009DFA009000F0E4F80A490978884205D165
:10B480000098C16C4046491C00F0EFF8684602F095
:10B49000D7FA404610F081F9BDE8F883EDCC0108F9
:10B4A0002DB30208F418022038B50C4605000AD066
:10B4B00002F07CFA009018B18466284610F06DF90D
:10B4C000684602F0BDFA38BD7CB50C4606002ED0A9
:10B4D00002F06CFA0090B0F93810458FA14223D0E9
:10B4E00012DD406B80B102F061FA019006F0CAFAF9
:10B4F000A04206DD2146019805F066FA019A002176
:10B50000115401A802F09CFA684602F099FA611BF6
:10B51000491C30461AF091FD304602F047FA00907F
:10B520000487304610F039F9684602F089FA7CBD8C
:10B530002DE9FC4788465FEA00094FF0000555D029
:10B5400002F034FA0090B0F93860446B684602F0BB
:10B5500077FA0027B8F1000F3ED04CB1204602F038
:10B5600025FA0190FCF783FF451C01A802F068FA58
:10B57000404606F087FA0446B04200DD34462146D4
:10B58000404605F021FA461C711B48461BF0A9F9FC
:10B5900008B3484602F00AFA0090406B02F006FA3F
:10B5A000324641460190FCF78DFF0198304400F887
:10B5B000017C0098C464B0F938108C4205D190F831
:10B5C0005410012901D1641EC464684602F038FA9F
:10B5D00001A802F035FA06E00098343002F046F98E
:10B5E00000984787C764484610F0D7F8BDE8FC8745
:10B5F00038B50C4605000AD002F0D8F9009018B111
:10B600000466284610F0C9F8684602F019FA38BDF9
:10B61000F8B515460C4606000ED002F0C7F90090AA
:10B6200038B1022C05D200EB8400C566304610F01C
:10B63000B4F8684602F004FAF8BD00221FF0DCBB43
:10B6400038B50446406B002568B102F0AFF90090B0
:10B650000546E16C05F0B8F9284405F077F9054690
:10B66000684602F0EDF9284638BD1CB50C4602F0DC
:10B670009DF90090406BF0B102F098F9019006F04E
:10B6800001FA009991F8542002B10122002C00DA4D
:10B690000024844200DD0446B1F93800801AA0423B
:10B6A00000DA0446C86CA04200D0CC6400200865D3
:10B6B00001A802F0C5F9684602F0C2F91CBD0000FD
:10B6C00010B5002400E0641C13488442FBD302211F
:10B6D000124801F066FC70B90BF0B8FF1049087011
:10B6E0000846007880B90F49002025F009FB0120A9
:10B6F0000D49087008E00BF02FFB0021084625F0EB
:10B70000FFFA012008490870022000F01FF8072006
:10B7100009F0D2FB10BD000080F0FA0200040240E4
:10B72000D8110220541F02204813022010B5002413
:10B7300000E0641C04488442FBD3102000F006F8AB
:10B740000A2009F0B9FB10BDA0860100014908607C
:10B7500070470000143C0140002123498279002AEF
:10B760003AD00A46126803689A430B461A600A1DCB
:10B77000126803689A430B1D1A60027911440A6823
:10B7800003681A430A60184A0832126803689A4329
:10B79000154B08331A601A1D126803689A43124B3E
:10B7A0000C331A604279102A0ED11A1F12680368EE
:10B7B0001A430D4B08331A601A1D126803681A43A6
:10B7C000094B0C331A600DE00749427911440A68AD
:10B7D00003681A430A6005E0027911440A680368A5
:10B7E0009A430A6070470000003C014099B110285C
:10B7F00008D14FF02042126E42F004024FF0204375
:10B800001A661CE00E4A126842F004024FF0204310
:10B81000C3F8802013E0102808D14FF02042126EA8
:10B82000084B1A404FF020431A6608E0044A126899
:10B83000044B02EA03024FF02043C3F88020704714
:10B84000800000A0FBFF0F0030B500210022002384
:10B85000446844F0080485682C43C5682C43056996
:10B860002C43456944EA4524856944EA4531C46965
:10B870002468C5696D6844EA0524C5692D8944EAD0
:10B880000544C5692D7B44EA0562046A2468056A9B
:10B890006D6844EA0524056A2D8944EA0544056A71
:10B8A0002D7B44EA05630468102C05D14FF0204439
:10B8B0002166A266E36607E0044C21604FF0204455
:10B8C000C4F88820024C236030BD0000800000A036
:10B8D0008C0000A02DE9F04389B0984615460F462C
:10B8E00006004FF0000429D000F0EAF90446304683
:10B8F00000F0D2F9814603A9304600F02CFBF8078E
:10B9000006D0BDF91C00001B401B401C822109E031
:10B91000B8070028BDF91800284402DA40F20221D5
:10B9200000E002210096CDE9018123461A464946EE
:10B93000FCF7BCFF04460021FDF76AF909B0204678
:10B94000BDE8F08310B50523FFF7C4FF0446054AA0
:10B950000021FDF76EF90449204610F0B1F82046A9
:10B9600010BD000041FD01086DD102082DE9F0472E
:10B97000456804468EB00026284602F017F800906D
:10B980005C30B0F820A0D0F80C90D0F82480C76AC2
:10B99000006800B10668684602F052F805E0796870
:10B9A0002046884700283DD13F68002FF7D1206806
:10B9B000142844D009DCA0F10B00072839D2DFE8B5
:10B9C00000F0BE3989B434B4110020287ED004DCE4
:10B9D00017283ED01E282CD14BE026283CD02A2800
:10B9E00027D110E02846E66801F0E0FF0190717A67
:10B9F00039B9317A012904D130F87C1F41F48071C2
:10BA0000018001A88FE0284601F0D0FF0090E16896
:10BA100011B1C0F8841002E0D0F88400E0606846FC
:10BA200002F00EF80EB0BDE8F087002E7DD028465B
:10BA3000B0477AE0214628461CF082FEF2E705A9CD
:10BA4000284600F088FAE06806990160079941608D
:10BA5000E8E7C4F80C90E5E7E0680228E2D10C952D
:10BA6000E0680D9027200A900AA9A06810F062FFF4
:10BA7000D8E7E068012804D00021284600F093F9B7
:10BA8000D0E740460FF0EBFE58B1404610F0E4F826
:10BA900040460FF0B9FD88B1012140460EF0FAFD95
:10BAA0000CE0484610F026F98046284601F07EFF5B
:10BAB0000090C0F88080684601F0C2FF012128464E
:10BAC00000F071F9B8F1000FACD100E00EE00020F9
:10BAD000E060A7E75FEA0A7027D4E068C06820B397
:10BAE000007A10B3284610F0B7F81EE0E668E6B119
:10BAF0002946706810F0EDFC20B1012128461EF0A7
:10BB000045FC12E0002128461EF040FC2946306822
:10BB100010F0CEFC48B1284601F048FF0390316890
:10BB2000C0F8801003A801F08BFF214628460EF0D4
:10BB300027FD00288CD020460FF04EF972E72846EA
:10BB400001F034FF0090703001F090FE6846EAE7A3
:10BB50002DE9F04387B00DF138088146B8E8F110BF
:10BB60004FF00008CDF818808DE8F110484600F03D
:10BB700023F807B0BDE8F083F0B587B0B0F908400E
:10BB80000DF10C0C0C9E87694568ACE8F000448A06
:10BB90000025CDE900150294B0F90C10B0F9105051
:10BBA000B0F90E40B0F90A00194410442B46224661
:10BBB00000F002F807B0F0BD2DE9F0478AB00DF1B2
:10BBC0004C0CDDE91784BCE86006129F45F48055F3
:10BBD0006034DFF8B8C0CDE902C4CDE900750FF0DC
:10BBE0004BF804004DD001F0E1FE302249460490AC
:10BBF0000EF0CCFE0498282225493430FCF7E9FCED
:10BC00000498234F5C30083FC0F808800684002663
:10BC100046620661C6627968016004A801F010FFFF
:10BC200005A9204600F097F91A4841F2827103965F
:10BC30000094CDE90110BDF91E00BDF91A10BDF93F
:10BC40001C20431ABDF918005B1C121A521C0FF07D
:10BC500013F806467868416820468847204601F078
:10BC6000A5FE0490866604A801F0EAFE42F20400F4
:10BC7000054202D120460FF047F95146204600F018
:10BC8000FEF80AB02046BDE8F08700006DB9000854
:10BC9000A81A022065C2000838B505004FF000045C
:10BCA0000CD001F083FE0090C06D00218068026816
:10BCB000284690470446684601F0C2FE204638BD3B
:10BCC00030B587B005004FF000040ED001A900F098
:10BCD00042F9284601F06AFE0090B0F954406846E7
:10BCE00001F0AEFE0CB9BDF9044007B0204630BDEE
:10BCF00030B504468BB0006801F058FE009090F813
:10BD00007C10246A006FC1F3C00508B101F04EFE3B
:10BD10000690E068029020690390A088401EADF86C
:10BD20001000E089ADF812002089401CADF8140025
:10BD3000608AADF81600BDF80800401CADF8080098
:10BD4000BDF80A00401CADF80A00BDF80C00401E0A
:10BD5000ADF80C000098406B04F088FC009808AA2D
:10BD600002A9B0F95A30069804F0D2FF009800EB0F
:10BD70008500806B07F026F8009800EB8500006CCA
:10BD800007F058F808AB02AA04A906980EF032FD95
:10BD9000684601F055FE069810B106A801F050FE65
:10BDA0000BB0002030BD002801D01EF0EFBA704764
:10BDB000F8B515460C4606000DD001F0F7FD0090D1
:10BDC000022C05D200EB8400856330460FF0E5FCC1
:10BDD000684601F035FEF8BD2DE9FC410D4607002F
:10BDE00028D001F0E3FD0190C16D8C6800F01AF9D4
:10BDF00080460198456301A801F022FE22680121D6
:10BE00003846904706462268032138469047054643
:10BE100022680021384690470446384600F0EBF986
:10BE20002B46324641463846009400F073F93846B6
:10BE30000FF0B3FCBDE8FC8138B50C4600280ED0ED
:10BE400001F0B4FD009030F87C1F14B141F01001F6
:10BE500001E021F010010180684601F0F1FD38BDDC
:10BE600038B50D46040009D001F0A0FD009005662C
:10BE7000684601F0E5FD20460FF08FFC38BD7CB52B
:10BE80000D46040019D001F091FD0090006F019063
:10BE9000684601F0D5FD294601A805F075FF002888
:10BEA0000BD0204601F082FD0090019901676846A1
:10BEB00001F0C6FD20460FF070FC7CBD38B50C4685
:10BEC00005000ED001F072FD0090B0F95A10A142A9
:10BED00004D0A0F85A4028460FF05FFC684601F0F5
:10BEE000AFFD38BD2DE9FC470D465FEA00094FF074
:10BEF00000042DD001F05AFD0190B0F95440A54244
:10BF000023D000F08FF8804601980121A0F854500A
:10BF1000C06D856848462A68904707462A6803210D
:10BF20004846904706462A680021484690470546FD
:10BF3000484600F060F933463A4641464846009587
:10BF400000F0E8F848460FF028FC01A801F078FD61
:10BF50002046BDE8FC872DE9F34F85B000270C464D
:10BF6000B846059801F022FD0090C06D012185685A
:10BF700005982A68904782462A68032105989047C9
:10BF800004902A6802210598904703902A680021AE
:10BF9000059890470646009810F037F983460098B8
:10BFA00010F03AF98146009890F83210890601D5D0
:10BFB000B0F9588000F036F805460098C06E10B110
:10BFC0000FF04EF9074625806780A4F804A0049A74
:10BFD000ABEB020006EB0802401E2A4420813A44E3
:10BFE000E280039BA9EB0302521E6281A4F80CA01D
:10BFF00020827019E681401E6082684601F020FDB3
:10C00000B4F90C000190B4F91000029002AA01A941
:10C01000059800F039F80198A0810298208207B0B5
:10C02000BDE8F08F10B50146002091F8322092064D
:10C0300007D5B1F95400002803D1486B03F03FFA4B
:10C04000801C10BD70B58AB00C46054601F0AEFCF0
:10C050000990C06D866809A801F0F2FC009534B122
:10C06000012C06D0022C0BD0032C04D10AE018209E
:10C0700000E0162001907168684688470AB070BDDC
:10C080001520F7E71720F5E72DE9FC47904689468C
:10C09000044601F08BFC0090C16D056868468E680F
:10C0A00001F0CEFC3268002120469047064620462B
:10C0B0000EF0CEFF2F1404462DB227E001F076FCDF
:10C0C0000190B0F90010B0F90420B0F90230491B1A
:10C0D000521BDB1BB34212D190F82800000607D593
:10C0E000D8F8000088420ADB491EC8F8001006E0B4
:10C0F000D9F80000904202DC521CC9F8002001A8C7
:10C1000001F09EFC20460FF03BF80446002CD5D1F0
:10C11000BDE8FC872DE9FF4F83B00E460746DDF8EA
:10C12000409001F043FC0190C16D8D68FFF77AFFEC
:10C13000044601A801F084FC2A6801213846904792
:10C1400083462A6803213846904782462A680021A0
:10C15000384690470546B44207D105998B4504D12E
:10C1600006998A4501D14D4542D0A41B0026B04610
:10C1700038460EF06DFF39E001F018FC0090806A3F
:10C18000010602D54FEA805002E0810528D500065D
:10C19000002825DB24B12246114638460FF0CBFBA0
:10C1A000009890F8280000060AD50698A5EB090229
:10C1B000A0EB0A0004FB1601761C38460FF07CFB4E
:10C1C0000098008D80050BD50599A5EB0902ABEB16
:10C1D000010004FB080108F1010838460FF06CFB70
:10C1E000684601F02DFC38460EF0CAFF0700C3D1A7
:10C1F00007B0BDE8F08F70B586B0064601F0D6FBFB
:10C200000590D0E91A4505A801F01AFC54EA05008A
:10C2100026D069463046FFF79EFEACB1BDF9062038
:10C22000BDF9041020460FF01CFBBDF90A00BDF952
:10C230000610421ABDF90800BDF90410521C411A3B
:10C24000491C20460FF0B7FD002D09D0BDF90600AE
:10C25000BDF90210421ABDF9041028460FF001FB87
:10C2600006B070BD2DE9F0430446406885B006462F
:10C270000EF08DFF814601F099FB0090D0F8808090
:10C28000876C456E684601F0DBFB2068172859D0A3
:10C2900008DC0E2837D00F280BD0142852D01528D0
:10C2A0003AD14FE01E2818D01F2827D0222833D19A
:10C2B00046E06FF07040874204D0384606F082FDB9
:10C2C00001F0E0FE002D12D0D4E902122068CDE981
:10C2D0000106CDE9031201A822E0E068002806D09B
:10C2E0005FEA080006D0B04504D00FF0B5FC05B0F9
:10C2F000BDE8F08330460FF0FDFC16E021464846CD
:10C300000EF03EF9F3E7E0684168002904DD0068BB
:10C310000928EFD00A2805D0A5B12046C4F804901A
:10C32000A847E4E730460FF0EDFC0446484601F02C
:10C330003DFB0090C0F88040684601F081FBD6E7E5
:10C34000E760D4E720460EF047FDD0E72DE9FC4139
:10C3500007460D460026002400200090019008208A
:10C360005A49086010204860402088600020C8605A
:10C370004FF48060086108460AF04EFD1020FDF77A
:10C3800089FD044614B12046BDE8FC815048008870
:10C3900000044E4908603720486040208860002033
:10C3A000C8604FF48060086108460AF035FD372008
:10C3B000FDF770FD04460CB12046E5E74FF6FF702F
:10C3C0004449086008204860302088600220C86026
:10C3D000002008610120486108460AF0A3FC002003
:10C3E0003A49086033204860402088600020C860D7
:10C3F0004FF48060086108460AF00EFD3320FDF717
:10C4000049FD04460CB12046BEE709E04FF4001098
:10C410000AF0B4FC20B10AF0F9FC4DF82600761CB5
:10C420002D48006840F22A610842EFD008200AF047
:10C43000A5FC28B108200AF063FC04242046A3E7E9
:10C4400002200AF09BFC28B102200AF059FC0224C9
:10C45000204699E720200AF091FC28B120200AF01C
:10C460004FFC062420468FE74FF400700AF086FC4C
:10C4700030B14FF400700AF043FC0724204683E7F4
:10C4800040F2FF500AF03CFC00980006009901F4CD
:10C490007F4140EA0120009901F47F0140EA112028
:10C4A000009940EA1160686001980006019901F462
:10C4B0007F4140EA0120019901F47F0140EA112007
:10C4C000019940EA1160286020465DE708380220A3
:10C4D000B01802201C380220342C014070B50446EC
:10C4E00000BF414D2D6805F48035B5F5803FF8D08B
:10C4F0003D4D2D6815F0010F02D001253A4E3560F3
:10C50000394D2D1D2D6845F08075374E361D35602F
:10C51000012B04D0022B20D0042B5AD13BE0324D0A
:10C520002D1D2D6825F440752F4E361D356035467E
:10C530002D6845F00105356000200BE0255C0D54A9
:10C5400000BF294D2D6815F0010FFAD00125264EA8
:10C550003560401C9042F1D33BE0234D2D1D2D68EA
:10C5600045F48075204E361D356035462D6845F002
:10C570000105356000200BE0255A0D5200BF1A4D11
:10C580002D6815F0010FFAD00125174E3560801C7B
:10C590009042F1D31DE0144D2D1D2D6845F400751A
:10C5A000114E361D356035462D6845F00105356064
:10C5B00000200BE025580D5000BF0B4D2D6815F0E5
:10C5C000010FFAD00125084E3560001D9042F1D3CD
:10C5D00000BF00BF044D2D1D2D6825F00105024E42
:10C5E000361D356070BD00000C3C024010B502469F
:10C5F00000BF264B1B6803F48033B3F5803FF8D0AF
:10C60000224B1B6813F0010F02D001231F4C236043
:10C610001E4B1B1D1B6843F080731C4C241D2360A4
:10C6200023461B6843F40073236023461B6843F0D2
:10C630000203236010461CE0144B1B1D1B6823F0F3
:10C64000F803124C241D236023461B6843EAC003F1
:10C65000236023461B6843F48033236000BF0B4BE9
:10C660001B6813F0010FFAD00123084C2360431C10
:10C67000D8B253188342DFDC044B1B1D1B6823F028
:10C680000203024C241D236010BD00000C3C02403C
:10C690000248034908600348086070472301674562
:10C6A000043C0240AB89EFCD10B504460A280FD0F8
:10C6B0000D2C11D009480068C069016820468847E0
:10C6C00007480168002907D02046BDE81040084708
:10C6D000BDE8104001F0B2BE10BD000000190220FC
:10C6E000281902202DE9FF5F8346DDE90E459846B3
:10C6F00091468A4604F5B47405F5B4754FF0FF36DB
:10C7000001274FF4B47003E0A4F5B474A5F5B47533
:10C710008442F9DA002D65DD5A2C11DA002C00DA9A
:10C7200000245A2D01DA284600E05A20CDE90040C5
:10C73000CDE9027643464A465146584613F058FB27
:10C740005A3D5A3C002D4DDD5A2C14DA002C00DAEB
:10C7500000245A2D01DA284600E05A20C4F15A017B
:10C76000C0F15A008DE8430043464A4651465846B8
:10C77000039613F03DFB5A3D5A3C002D32DD5A2CF6
:10C7800012DA002C00DA00245A2D01DA284600E0E3
:10C790005A200DF1040C0094ACE8C10043464A460F
:10C7A0005146584613F024FB5A3D5A3C002D19DDE2
:10C7B0005A2C14DA002C00DA00245A2D01DA28460B
:10C7C00000E05A20C4F15A01C0F15A008DE88300FC
:10C7D00043464A4651465846039713F009FB5A3DD3
:10C7E0005A3C97E7BDE8FF9F2DE9F0430446C56832
:10C7F00087B090468946002003F036FF064625B1F3
:10C80000287910B146F0020001E026F0020003F0A2
:10C810002BFF2069012558B1D4E902128DE82600CA
:10C82000039563882288046841464846A0471EE075
:10C83000124F134B214638681B68427CE0689847CA
:10C8400030B9E088012801D0002001E03868806B11
:10C85000A288E388A1680095CDE90410CDE90232F1
:10C860000195638822884146484605F06FFE07B06F
:10C870003046BDE8F04303F0F7BE00000019022087
:10C88000F81802202DE9F0478146884640F2C3207F
:10C8900050434FF47A7190FBF1F502FB02F002EB8A
:10C8A000D27100EB61066D1C1746002341464846D5
:10C8B000FEF7C6FA012413E004FB04F007FB0700AF
:10C8C000B04206DD3B46224641464846FEF7B8FAEE
:10C8D0007F1E3B46224641464846FEF7B1FA641C9D
:10C8E000AC42E9DDBDE8F0871CB50024019401AC41
:10C8F000009400F0E7F81CBD2DE9FF4F83B081469E
:10C9000006988A46A0EB0A08109E00200090A2EB31
:10C9100009043568934654EA080018D02046FBF70E
:10C9200052FF07464046FBF74EFF87420BDA204690
:10C93000444680464846D14682465846DDF818B0FF
:10C94000069001200090002C07DD204606E007B08D
:10C950004846BDE8F04F00F03BB96042A0420AD023
:10C960004846D9466442C8F1000883464FF0FF3775
:10C97000DDF818A000E001275148B8F1000F11D0F0
:10C9800004EBD4714FEA610B01DACBF1000B4C4898
:10C990000068807E88B3002F02DA3068204430605F
:10C9A00000257BE000990029016821D0897E11B122
:10C9B0000027804615E007B05A4649465046BDE874
:10C9C000F04F05F027BF28466D1C1DF003FE38B957
:10C9D000D8F8000009EB0701C06E42685046904746
:10C9E0007F1CA742EFDD6D1E356007B0BDE8F08FFC
:10C9F0008A7E1AB10027804617E019E0C86E5A46B1
:10CA00005146036807B04846BDE8F04F184728462E
:10CA10006D1C1DF0DFFD38B9D8F8001009EB0700D8
:10CA2000C96E4A68514690477F1CA742EFDDDAE79E
:10CA300000250FE008FB05B090FBF4F101EB0A00C4
:10CA4000009951B11E4A09EB05011268D26E526875
:10CA500090476D1CA542EDDDC7E7194909EB0503B9
:10CA60000968C96E4A6801461846F1E708FB05B037
:10CA700090FBF4F101EB0A0001903068384430601B
:10CA80001DF0A8FD48B9009890B10D4809EB0501CB
:10CA90000068C06E4268019890476D1CA542E5DDB4
:10CAA0003068002F01DA20443060C01B30609CE702
:10CAB000034909EB05000968C96E4A680199EBE76B
:10CAC000001902202DE9FF470F46404916468046CF
:10CAD00009680C981D460A7E012A1CD0A8EB0600A6
:10CAE000791B50EA01031CD0A2F101091FF0F0FAF2
:10CAF00000F58060824605F06FFA00FB09F45046AD
:10CB000005F06EFA00FB09F1002C0CDAC4F5007098
:10CB1000801240420AE00090324639464046FFF714
:10CB2000EBFEBDE8FF8704F50074A012002904DACB
:10CB3000C1F5007189124C4202E001F500718C12BE
:10CB4000002804DD411C01EBD171491003E000EB2A
:10CB5000D0714910401E00EBD0704210002C04DD53
:10CB6000601C00EBD070401003E004EBD470401068
:10CB7000641E04EBD47308EB0104ADF800403C18CC
:10CB8000ADF80240A8EB02045B10B21AADF8044005
:10CB9000ADF808203144FC1AEA1AADF80C1028440C
:10CBA000ADF80A20ADF80E000023ADF806401A4695
:10CBB0000421684600F07AF83946404615F042FEF6
:10CBC0002946304615F03EFEABE700000019022072
:10CBD000064A13681A7E012A05D0521E02EBD27251
:10CBE000521000F005B8DA6E5268104700190220A2
:10CBF0002DE9F05F0646884640F2C32050434FF4CB
:10CC00007A7190FBF1F702FB02F002EBD27100EBBC
:10CC1000610B254914467F1C09683244301BC96EDC
:10CC20000B684146984701253AE000BF05FB05F037
:10CC300004FB040159451CDDBC4219DD1A4B06EB0F
:10CC4000050AA6EB05091B68AAF1010208EB04011D
:10CC5000DB6E09F101001B689847134BAAF1010232
:10CC6000A8EB04011B6809F10100DB6E1B68984703
:10CC7000641E0D4806EB040AA6EB0409006808EBE5
:10CC800005015246C06E0368484698470648A8EB1F
:10CC9000050152460068C06E0368484698476D1CFF
:10CCA000BD42C3DDBDE8F09F001902202DE9FF4F12
:10CCB00040F6FF740F46664283B09B4681460021D2
:10CCC0000BE000BF09EB8100B0F90200A04200DADE
:10CCD0000446B04200DD0646491CB942F2DB684812
:10CCE0000068406900280DD0B0F906101A46A1EB83
:10CCF0000B01B14200DA0E46B0F90200801AA042E0
:10CD000000DD0446B5E0DFF87CA100200546CAF846
:10CD1000000089E0781E854201DA6B1C00E00023E8
:10CD200009EB850C09EB8302BCF90200B2F9021091
:10CD3000A04245D1A14215D139F92330059A39F9DC
:10CD4000251003EB020C4E4A05981268084404EBC8
:10CD50000B01D26E6045136801DA62462BE0024691
:10CD6000604628E02846A4464FF000087A1E0BE0F3
:10CD700008B1401E00E0781E09EB8003B3F90230D1
:10CD8000634504D108F101089045F1DB2346A34235
:10CD900049D0A3EB040239F92500A1EB040C059B53
:10CDA00092EA0C0209D4364A184404EB0B011268CB
:10CDB000D26E13680246984735E00FF0CBFE32E0A2
:10CDC000A14230D001DBA04203DDA0422BDBA14217
:10CDD00029DCE04688420ADC0346A04223DC084600
:10CDE000A14220DBB8F900C0B2F9001008E00B4600
:10CDF000A14218DCA04216DBB2F900C0B8F900105D
:10CE0000E21AA1EB0C0151430029A0EB030202DD61
:10CE100001EB620102E0A1EB6201491CC01A91FB27
:10CE2000F0F06044C9E76D1CBD42FFF673AF059892
:10CE3000009004EB0B00019000208046054613E0B3
:10CE40001149B8F1000F31F915A009D0009901EB93
:10CE50000A0208440A490968C96E0B680199984793
:10CE600088F0010850466D1C064909688D42E7DBD1
:10CE7000641CB4427FF747AF07B0BDE8F08F0000F5
:10CE80000019022034190220203A022010B5002097
:10CE900003F0DEFB6FF07F4003F0DEFB012003F0C8
:10CEA00015FC002003F01AFC002003F021FC0020F8
:10CEB00003F0DAFB0448006803F0D8FBBDE810403B
:10CEC000002003F0DFBB0000FC180220F0B50A468A
:10CED00000210023002400BF3DE0012505FA01F3F5
:10CEE000156805EA03049C4234D105684F00032607
:10CEF000BE40B543056015794E00B5400668354320
:10CF000005601579012D02D01579022D16D185689D
:10CF10004F000326BE40B543856055794E00B540AD
:10CF2000866835438560456801268E40B543456077
:10CF3000456896798E40B6B235434560C5684F0066
:10CF40000326BE40B543C560D5794E00B540C668DE
:10CF50003543C560491C1029BFD3F0BDF0B500238F
:10CF600000244D07ED0E02FA05F3CE1000F1200566
:10CF700055F826504E07F70E0F26BE40B543CF108A
:10CF800000F1200646F82750CE1000F1200555F894
:10CF9000265045EA0304CE1000F1200545F826404E
:10CFA000F0BD0246002013690B4201D0012000E0D1
:10CFB00000207047418370470183704770B50C466D
:10CFC000054600F015F9A8682168C162616801632F
:10CFD000A1684163490707D5D0E90021C0E90012E3
:10CFE000D0E90221C0E90212A189818421690029C6
:10CFF00003D001DC4FF00001016270BD2DE9F0416A
:10D000001E4617468846054600F0F2F8AC686822CE
:10D01000414604F58470FBF7DCFA2846B8472846F9
:10D02000B047286980688047A062BDE8F0810000B1
:10D0300010B5044600F0DCF8A0680E494C30114AE7
:10D04000C1650D4981650D4901660D498166002163
:10D05000C166136843660C4BC0E91E3151684167D5
:10D0600030F8261C21F0030120F8261C07494164F2
:10D0700010BD0000A1A60208FDAA020869A60208C8
:10D08000A39E02087819022047A00208A5A502085D
:10D0900010B5044600F0ACF8A4680C489034102198
:10D0A00020650B4860650B48A0650B48E0650B48A0
:10D0B000E0600B482061206BA06654F89029204660
:10D0C00090471020A0630748606410BDE113020878
:10D0D000E536020831D1000861D20008D19C02086F
:10D0E0000DB6020854BB030870B50C46054600F0A7
:10D0F0007FF80A48AA6814B1012C08D103E0084956
:10D100000160084902E0084901600849416001687E
:10D1100042F8B01F4068106170BD0000781902200D
:10D120005B9E0208BD9F0208839E020809A00208B8
:10D13000F8B5846815460F4694F8260080074CD54C
:10D14000D4F8FC30204698470646D4F800312A46E9
:10D15000394620469847D4F8943005461BB1002242
:10D160000121204698472069B04201DD012000E0FE
:10D170000020A169B14201DA012100E00021084349
:10D180006169A94201DD012100E000210843E16954
:10D19000A94201DA012100E0002108430AD06068B9
:10D1A000401E00902368D4F8A4705B1E0022114634
:10D1B0002046B847D4F8A8302A463146204698473A
:10D1C000D4F89C1020468847D4F8943005466BB1BB
:10D1D000012200212046984708E0D4F8A8302046D4
:10D1E0009847D4F89C102046884705462846F8BD45
:10D1F00070B504468068002812D14FF4B8752846EF
:10D2000000F04AFB2A460021A06004F069FEA068F5
:10D210000221C1840121046401620249C0F80411A1
:10D2200070BD000029D2000810B590B0044620223D
:10D230000A496846FBF7CDF908492022203108A8A1
:10D24000FBF7C7F9606B5DF82010C4F8FC1008A963
:10D2500051F82000C4F8000110B010BD945E03081E
:10D260002DE9F84384689846154694F826000F4641
:10D27000800740D5D4F8FC30204698470646D4F8BD
:10D2800000312A4639462046984705462069B04273
:10D2900001DD012000E00020A169B14201DA012195
:10D2A00000E0002108436169A94201DD012100E09D
:10D2B00000210843E169A94201DA012100E00021CF
:10D2C00008430AD06068401E00902368D4F8A47018
:10D2D0005B1E002211462046B847D4F8A8302A46E3
:10D2E000314620469847D4F8A02001B04146204658
:10D2F000BDE8F0431047D4F8A830F2E72DE9F04F2D
:10D30000DFF828B191B04FF0FF35DBF80030B3F90A
:10D3100022100691DE69B3F92490F469A189814253
:10D3200006D8E289824203D3471AD4F8008012E07B
:10D33000D4E9018100296FD00A8882426CD84D88D7
:10D34000854269D3801A82B2486800EB8200B0F946
:10D350000070B0F90250781C5ED0307EA17C10FBCA
:10D3600001FA217CCDE90801B3F92A60304605F0C5
:10D3700073FDC0B20E90DBF8000007FB0A81A37CAE
:10D38000826B0127CDE90412CDE90273C069DDE9A2
:10D390000832C17E807ECDE900014946069805F03D
:10D3A000D5F8681C18D046F0020005F055FDDBF8F2
:10D3B0000000A37C05FB0A81826BCDE90273CDE9F5
:10D3C0000412C069DDE90832C17E807ECDE900012A
:10D3D0004946069805F0BAF8DBF800005D46C069DA
:10D3E000417E007E814214D9022E12D086F00400C4
:10D3F00005F032FD2868C069027EC37E12FB0391EE
:10D40000437E857E099A06984B4402FB050205F08F
:10D410002BFA0E9805F020FDDBF80000627C418CB1
:10D420001144418411B0BDE8F08F000000190220C2
:10D4300004480068C069C06909B1027C0A60407C88
:10D440007047000000190220022008807047C06960
:10D4500082898A4202D8C2898A4210D2806880B109
:10D4600002888A420DD843888B420AD3406800EB79
:10D470008100A0EB8200B0F90000002801DB012050
:10D4800070470020704700002DE9F0432F4C034601
:10D4900087B020681946B0F92A80C069C06900F0D9
:10D4A00084F800284ED041680088181A01EBC005A6
:10D4B0004046AE7805F0D0FC814620686A680123BA
:10D4C000816BCDE90236CDE90421C169CB7E8A7E2C
:10D4D000CDE900230B7EB0F924102A78B0F92200A0
:10D4E00005F034F82068C069477E067EB7421DD932
:10D4F000C07E47434643B8F1020F17D001F06FFFDB
:10D50000804601F04FFF03F0A7F821682A78CB6925
:10D51000B1F92200DB7E12FB0302B1F92410CB1912
:10D52000314405F0A1F9404603F096F8484605F06D
:10D5300093FC20686A78C369B0F922109B7E12FBC5
:10D540000311418407B0BDE8F083000000190220F8
:10D5500030B50F4C05460B4620682946C069C069A6
:10D5600000F023F8002811D04168008824682A1AA6
:10D570000120E46900EBC200085CA47E10FB04F00B
:10D58000002B03D011F832106143196030BD000048
:10D590000019022001200880704700B5C06900F022
:10D5A00004F8002800D0012000BD06E002888A426D
:10D5B00002D842888A4202D280680028F6D1704799
:10D5C00010B516F0EDFC0448016A04480068C16615
:10D5D00000F10801416110BD041D02200019022064
:10D5E0002DE9FE4F05460C9C0E464FEA4400A2EB87
:10D5F000050198461746091A61D4A8EB0601081AD6
:10D600005DD4DFF8C0A04FF00009DAF8000090F810
:10D61000711019B910F8709F042101700EF0A2FD6D
:10D6200005440EF0ADFD06440EF09CFD07440EF0DF
:10D63000A7FDDAF8002000EB080192F8710030B97C
:10D6400092F870004543464347434143444392F8B0
:10D6500070007F1E00EB07084718761E284600F072
:10D6600041F8ADF80400404600F03CF8ADF8080081
:10D67000304600F037F8ADF80600384600F032F8D2
:10D68000ADF80A0001A80EF0CFFD0EE04146284695
:10D6900000F07CF83B46424631462846009416F09E
:10D6A00045F9FFF78DFF0EF03DFD0028EED1DAF8C9
:10D6B000000090F87110002901D180F87090BDE849
:10D6C000FE8F00000019022008B50091B0F9063065
:10D6D000B0F90420B0F90210B0F90000FFF780FFA4
:10D6E00008BD00000449096891F8701009B190FB69
:10D6F000F1F000B270470000001902202DE9F0415E
:10D700001E4C05460E462068002768B905F089F9C9
:10D71000E06100F0C1F8206068B304F1240118480A
:10D720000860084604F028FB002D00DA0025E169B6
:10D73000731B4A1E2046934201DD6E18761EAE42D0
:10D7400001DA2E4601270F4C2268D16E4B688363A5
:10D7500001620A490C4B34310B60D16602C862C0C9
:10D7600010F01EFBFCF73CFA044821682C3048619D
:10D770003846BDE8F0810127D6E70000041D0220ED
:10D78000A578020800190220D5260208044A12686A
:10D7900092F8702090FBF2F091FBF2F1FFF7AEBF30
:10D7A00000190220F8B505460C000DD0084600F01F
:10D7B00015F8060010D000F0F9F8224600902DB1BF
:10D7C0002946FAF77FFE04E00020F8BD002104F0AE
:10D7D00087FB684600F034F93046F8BD002801D0D8
:10D7E0000FF086BB704738B50546FFF7F7FF04001A
:10D7F00009D000F0DBF82A460021009004F070FB0D
:10D80000684600F01DF9204638BD0000024A10604D
:10D8100021F00300506070474839022010B50028FD
:10D8200014D004460A48006B10F8341000290DD0BB
:10D8300002290BD2042101EBC401415848680FF0C2
:10D84000A5F92046BDE810401CF010BA10BD00003C
:10D850008C380220002805D0034A916B016001B189
:10D8600048609063704700008C38022010B5044671
:10D870000068FFF7D3FF0020206010BD70B50D4693
:10D880000646002405E000BF06EB8400FFF7EEFF2C
:10D89000641CAC42F8DB70BD2DE9F041044618F081
:10D8A000BFFE2648E41C24F00305C16B2D1DA942D0
:10D8B00000D90D46846B13E054F8042CAA420ED113
:10D8C00084B1216809B162684A60616809B122685F
:10D8D0000A60826BA2422ED1216881632BE024680A
:10D8E000002CE9D18046416B80680F1857F8040C72
:10D8F0003E1A306838B100201CF094FC57F8040C34
:10D900003E1A3068B8B97068A84214DB3044441B32
:10D9100030461CF03FFCD8F80810491BC8F8081026
:10D92000D8F810102944C8F8101070683146401B10
:10D930000FF02CF920C42046BDE8F0818C3802207D
:10D9400010B5002418F06CFE0C490F2001EBC0024A
:10D95000126C1AB101EBC000006C08E0401EF5D556
:10D9600008E04168A14200D90C46806810B1806887
:10D970000028F6D1A4F10C0010BD00008C38022064
:10D98000024881680068081A704700008C3802203D
:10D99000002138B10449042202EBC000096B085889
:10D9A00041680C39084670478C38022005498A695D
:10D9B000521C8A61096B01EBC0010A78521C0A7083
:10D9C00000F056B88C3802207CB506460C46084656
:10D9D000FFF704FF05001CD0DEB13046FFF7D8FF8B
:10D9E000A04200DA04462846FFF7E0FF00903046E8
:10D9F000FFF7DCFF0146019022460098FAF762FD2E
:10DA0000684600F01DF801A800F01AF83046FFF74C
:10DA100005FF28467CBD000010B5FFF791FF64228A
:10DA20000649B0F5800F04D990FBF2F0C96948436C
:10DA300010BDC9694143B1FBF2F010BD8C38022022
:10DA40000A4902680B6B52F8082C03EBC2021378E8
:10DA5000022B03D38B690BB15B1E8B611178491EBE
:10DA60001170002101600846704700008C380220C8
:10DA7000002806D00349042202EBC000096B0858B5
:10DA8000083070478C3802202DE9FC414FF0000629
:10DA90000B465FEA000834462BD032B111461846D7
:10DAA000FFF780FE060000D101244046FFF77EFF0D
:10DAB0000090078845686846FFF7C2FFCCB9B900F7
:10DAC000091D2846FFF780FF050015D0FFF76EFF00
:10DAD000019040F8276001A8FFF7B2FF4046FFF72A
