:020000042000DA
:100000000016001095020020BD940020C578002045
:10001000899300204112002019D700200000000021
:1000200000000000000000000000000045C20020A9
:100030008126002000000000519A0020F1C7002016
:10004000B3020020B3020020B3020020DDA3002091
:10005000B3020020B3020020B30200205D2700207D
:10006000B3020020B3020020C9270020B302002001
:10007000B3020020B3020020B3020020B30200202C
:10008000B3020020B3020020B3020020B30200201C
:100090004512002055120020B3020020B3020020B8
:1000A000B3020020B3020020B3020020B3020020FC
:1000B0008DC90020B3020020B3020020B30200204B
:1000C000B3020020B3020020B3020020B3020020DC
:1000D000B3020020B3020020B3020020B3020020CC
:1000E000B3020020AD9E0020B3020020B302002026
:1000F000B3020020B3020020B3020020B3020020AC
:10010000B3020020B3020020B3020020B30200209B
:10011000B3020020B3020020FDC9002051CA002014
:10012000B3020020B3020020B3020020E12300202C
:10013000B3020020B3020020B3020020B30200206B
:10014000B3020020B3020020B3020020B30200205B
:10015000B3020020B3020020B3020020B30200204B
:10016000B3020020B3020020B3020020B30200203B
:10017000B3020020B3020020B3020020B30200202B
:10018000B3020020B3020020B3020020B30200201B
:10019000B3020020B3020020B3020020B30200200B
:1001A000B3020020B3020020B302002000F002F8E6
:1001B00000F061F80AA090E8000C82448344AAF1A0
:1001C0000107DA4501D100F056F8AFF2090EBAE89E
:1001D0000F0013F0010F18BFFB1A43F0010318477B
:1001E000E4FB010014FC01000A444FF0000C10F87D
:1001F000013B13F0070408BF10F8014B1D1108BFA5
:1002000010F8015B641E05D010F8016B641E01F844
:10021000016BF9D113F0080F1EBF10F8014BAD1C94
:100220000C1B09D16D1E58BF01F801CBFAD505E0B2
:1002300014F8016B01F8016B6D1EF9D59142D6D30C
:10024000704700000023002400250026103A28BF34
:1002500078C1FBD8520728BF30C148BF0B60704738
:10026000782900F0BF80002070471FB51AF0DDF834
:100270001FBD10B510BD00F0BBFB1146FFF7F5FF29
:1002800019F01CFA00F0D9FB03B4FFF7F2FF03BC2E
:1002900000F0DEFB0A4880470A4880470A480047CA
:1002A000FEE7FEE7FEE7FEE7FEE7FEE7FEE7FEE726
:1002B000FEE7FEE705480649064A074B704700007F
:1002C00011C80020FDAC0020AD010020000000108E
:1002D00000160010000600100006001053EA020C81
:1002E00000F069802DE9F04B4FF00006002B1FBF96
:1002F000B3FA83F503FA05F424FA05F65E4012BF5B
:100300001643B2FA82F502FA05F4C5F120051EBFC4
:1003100022FA05FC44EA0C04203556EA044C4FEA64
:10032000144418BF641C4FF000084FF000099042BD
:1003300071EB030C39D3002919BFB1FA81F701FA27
:1003400007F6B0FA80F700FA07F6C7F120071EBFDC
:1003500020FA07FC46EA0C062037B6FBF4FCA7EBB4
:100360000507103F07F01F0BCBF120060CFA0BFB23
:100370002CFA06F644BFB3460026202FA4BF5E46E3
:100380004FF0000B5BEA060C08BF4FF0010B19EBB6
:100390000B09ABFB027C48EB0608C01B06FB02CC3A
:1003A0000BFB03CC71EB0C01C1E70B460246414647
:1003B0004846BDE8F08B13B54FF000004FF0000148
:1003C000AFF30080BDE81C40704700000FB4044943
:1003D00010B503AA029800F07DFA10BC5DF814FB7A
:1003E0004823022070B504460D4621461068AFF33D
:1003F00000802188090502D5104A7A4402E00F4A9C
:100400007A440E32002104F1240307E000F00F06C5
:100410004FEA1010965D5E5401F101010028F5D1FC
:1004200003462078000704D5702D02D009B111329F
:1004300002232046BDE8704000F0EFB932F8010019
:100440002DE9F0474FF0000A89460446C0F820A085
:100450002046E1688847002876D0252806D0D4E9D0
:1004600001219047206A401C2062F1E7E1682046A4
:1004700000258847C4F81CA006460027C4F818A029
:100480002A2E09D0304617F011FC38B304EB870848
:10049000303EC8F8186019E059F8041B204604EBF8
:1004A00087029161E1688847012F064618D1E0690B
:1004B000002820DA25F020051DE0D8F8180000EB10
:1004C000800006EB40003038C8F818002046E1688C
:1004D0008847064617F0EAFB0028EED1012F0AD024
:1004E0002E2E08D12046E16888477F1C0646022F41
:1004F00045F02005C4DBA069002803DA404245F03E
:100500000105A061E80701D025F01005B6B1A6F1FC
:100510004100192802D8203645F400654A46314684
:10052000204625604D46FFF79BFE58B1012806D0B6
:10053000ED1D25F0070000F1080989E704E005F149
:10054000040985E730468AE7206ABDE8F08740EA7B
:10055000010310B59B070FD1042A0DD310C808C999
:10056000121F9C42F8D020BA19BA884201D9012042
:1005700010BD4FF0FF3010BD1AB1D30703D0521C8D
:1005800007E0002010BD10F8013B11F8014B1B1BC8
:1005900007D110F8013B11F8014B1B1B01D1921E32
:1005A000F1D1184610BD40EA0103024630B59B0761
:1005B00010D14FF0013400E008C208C91D1B9D4353
:1005C00015EAC41FF8D013F0FF0102F8011B0DD08B
:1005D0001B0AF8E711F8013B002B02F8013B05D09C
:1005E00011F8013B002B02F8013BF3D130BD10B5EF
:1005F000431C02E010F8011B71B18107FAD14FF0E2
:10060000013202C88C1A8C4314EAC211F9D0C01A04
:100610000A0603D0C01E10BDC01A10BD0A0401D0C6
:10062000801E10BD0902FCD0401E10BD421E12F8F3
:10063000013F002BFBD111F8013B002B02F8013BDD
:10064000F9D17047032A40F2308010F0030C00F01B
:10065000158011F8013BBCF1020F624498BF11F8FC
:1006600001CB00F8013B38BF11F8013BA2F10402B5
:1006700098BF00F801CB38BF00F8013B11F003032D
:1006800000F06780083AC0F0088051F8043B083A4F
:1006900051F804CBA0E80810F5E7121D5CBF51F833
:1006A000043B40F8043BAFF30080D20724BF11F8AD
:1006B000013B11F801CB48BF11F8012B24BF00F812
:1006C000013B00F801CB48BF00F8012B7047431AEB
:1006D00028BF9A427FF6B6AF032A1044114440F275
:1006E000268010F0030F1EBF11F8013D521E00F8C6
:1006F000013D10F0030F7FF4F6AF11F0030300F09B
:100700000E81083AC0F00B8051F8043D083A51F8C8
:1007100004CD40F8043D40F804CDFFF7F3BF121DAF
:100720005CBF51F8043D40F8043DAFF30080D207B0
:1007300024BF11F8013D11F801CD48BF11F8012C7B
:1007400024BF00F8013D00F801CD48BF00F8012C9E
:10075000704710B5203AC0F00B80B1E81850203A2D
:10076000A0E81850B1E81850A0E81850BFF4F5AF51
:100770005FEA027C24BFB1E81850A0E8185044BFDB
:1007800018C918C0BDE810405FEA827C24BF51F848
:10079000043B40F8043B08BF7047D20728BF31F83C
:1007A000023B48BF11F8012B28BF20F8023B48BF8D
:1007B00000F8012B704702F0FF0343EA032242EAEC
:1007C000024200F0D8B84FF0000200B5134694463C
:1007D0009646203922BFA0E80C50A0E80C50B1F199
:1007E0002001BFF4F7AF090728BFA0E80C5048BFAD
:1007F0000CC05DF804EB890028BF40F8042B08BF4B
:10080000704748BF20F8022B11F0804F18BF00F846
:10081000012B70477047704770472DE9F0470D4630
:1008200099469246044600F124080168880604D5DA
:10083000E06921F01001216000E00120A84202DD02
:10084000A0EB050700E00027A16907EB050202EB1A
:100850000900A1EB0000A0612078C00602D4204668
:10086000AFF30080002608E0D4E901211AF8060061
:100870009047206A401C761C20624E45F4DB2078AD
:10088000C0060AD52046AFF3008006E0D4E9012176
:1008900030209047206A401C2062381EA7F10107D3
:1008A000F4DC07E0D4E9012118F805009047206A3C
:1008B000401C2062281EA5F10105F3DC2046AFF3A1
:1008C00000802078000602D50220BDE8F0870120D4
:1008D000FBE70000074B70B50D467B4400F071F854
:1008E0000446284600F080F810B14FF0FF3070BD8C
:1008F000204670BDBB8B0100431A28BF9A427FF689
:1009000028AF104410F0030F11441EBF11F8013D31
:10091000521E00F8013D10F0030F7FF4F6AF103ABD
:10092000C0F00A8010B531E91850103A20E918508B
:10093000BFF4F9AFBDE81040530724BF31E90810F8
:1009400020E9081044BF51F8043D40F8043D12F07E
:10095000030F08BF7047D20728BF31F8023D48BFD8
:1009600011F8012C28BF20F8023D48BF00F8012CE7
:1009700070474FF000020429C0F0128010F0030C01
:100980003FF423AFCCF1040CBCF1020F18BF00F808
:10099000012BA8BF20F8022BA1EB0C01FFF715BF1C
:1009A0005FEAC17C24BF00F8012B00F8012B48BF8F
:1009B00000F8012B7047000001694A1C02610878A9
:1009C000704700B58FB0CDE901310021059105498F
:1009D0007944CDE9031011466846FFF731FD0FB0A9
:1009E00000BD0000E5FFFFFF007B00F080007047C6
:1009F000754600F029F8AE4605006946534620F0DA
:100A00000700854618B020B5FFF754FCBDE820402C
:100A10004FF000064FF000074FF000084FF0000BBA
:100A200021F00701AC46ACE8C009ACE8C009ACE86D
:100A3000C009ACE8C0098D4670470446AFF300809A
:100A40002046FFF721FC000000487047D033022009
:100A500001491820ABBEFEE72600020070470028BF
:100A600000DC40427047000038B545680446014646
:100A700028460CF06FFE00282AD02068304A0F2844
:100A800019D006DC0B2824D00C2810D00E2851D108
:100A90002FE0112802D028284CD145E09268002A86
:100AA00016D02146284601B0BDE830401047214607
:100AB00028465268F7E7284603F0FAFC0090406E9B
:100AC0000468684603F03EFD002C01D02846A0478C
:100AD00038BD284603F0ECFC0090683003F048FC79
:100AE000009803216C3003F04BFC684603F02AFDAC
:100AF00020E0E168486809680D2902D0202913D157
:100B000005E0002810DD284613F048FC06E0002828
:100B100004DD2846BDE8384013F040BC2846BDE857
:100B20003840022113F050BCE06818B90021284673
:100B300000F074F92046BDE838400DF0FBB9000024
:100B400074260220F0B585B00DF1280CBCE8F00049
:100B50004FF0000C8DE8F01000F002F805B0F0BD89
:100B6000F0B585B00C46DDE90D514C31DFF850C0D1
:100B7000DDE90A67CDE902C12146CDE900670DF044
:100B800029F9040018D003F093FC102229460490A0
:100B90000CF0CAFF049830220A493430FFF7D9FD1F
:100BA000084D04990C3D2868486604A803F0CAFC67
:100BB000286841682046884705B02046F0BD0000FF
:100BC000690A002080260220F0B5044680688B491F
:100BD00089B051F82050606800287DD0052804D0E5
:100BE00006287AD0122879D1AEE0E86900284FD0E3
:100BF00095E80E008DE80F0004F110010FC906F012
:100C000091F9002655F8260005F0C2F9A169E869B6
:100C10000A1A216901446069304404F0F9F9A169B4
:100C2000E8690A1A21690144E069801B04F0F0F9BF
:100C3000E169E8690A1A616901442069304404F0F5
:100C400099FAE169E8690A1A61690144A069801B9F
:100C500004F090FA761C022ED4DBA86805F098F90F
:100C6000E069E9696669431A20694218521E3144F5
:100C7000801C04F0B9FAE169E869A2690B1A61699C
:100C80000144101A401C921E04F0AEFAEE6913E003
:100C90005FF0000655F8260005F07AF9E069831B3D
:100CA000A069821B606981192069304404F008FA48
:100CB000761C022EEEDB0226D5E90301CDE9000108
:100CC0006169E06908444310A069891C821B20699E
:100CD000304404F069F902E089E012E08AE0D5E9E5
:100CE0000501CDE90001E36960690121184401EBC8
:100CF0006001A0699B1E821B2069304404F054F9F6
:100D000078E0206803F0D4FB049020680EF0AAFB82
:100D100040B1A06808B1002008E00498006F28B135
:100D2000012003E00498406F00B10220049901EB18
:100D30008000C56E04A803F005FC00231A4628466F
:100D4000216803F06FFE55E0206803F0B1FB0490CA
:100D5000866EEEB3B0F95C70A168D1B3032942D0BE
:100D60005FF0000100EB8101406D0C6C05F01AF999
:100D7000204605F00DF905A804F036FBBDF8141067
:100D8000A88B0144ADF81410BDF81810081AADF87E
:100D90001800BDF81600801CADF81600BDF81A004A
:100DA000801EADF81A0004985E30B0F90220B0F948
:100DB000001005A804F0C8FF04A803F0C3FB02203C
:100DC00005F032F9304603F073FB3A4605A901E01D
:100DD0000BE006E0079003F04DFF07A803F0B2FB1D
:100DE00008E00121BEE70221BCE704A8F6E720687D
:100DF0000DF0EAFF09B00020F0BD000094CD012005
:100E0000044A0349116004494A6A4862104670471F
:100E1000B026022074260220802602204FF4807221
:100E20000029114601D00CF01FBD0CF077BC00006A
:100E300038B50C46054603F03BFB00900649846537
:100E40004166684603F07EFB28460DF0BDFF28464C
:100E50000DF00FFD38BD0000B02602202DE9FF4146
:100E60000E4605004FF001041CD003F021FB019059
:100E7000876E01A8009703F065FB3146684606F0CF
:100E8000CBFB78B100980024B84208D0284603F084
:100E90000FFB01900099816601A803F053FB2846DF
:100EA0000DF0E7FC04B02046BDE8F081F0B52DED73
:100EB000028B85B0012098490870984908709848BD
:100EC00005F070F84FF6FF7005F062F8954800786D
:100ED000A8B10AF0F9FA934908700846007820B9D9
:100EE0009149002017F0BEFF09E000218FA008F013
:100EF0004DFA8C48007805B0BDEC028BF0BD322273
:100F0000AA218FA003F094FE9348FFF779FF0DF01C
:100F10000BF9074640F60100002102221E23CDE90D
:100F20000072CDE90210282264219620FFF70AFE04
:100F30008A4908608AA189480068FFF78FFF0DF091
:100F4000F3F807464FF40260002102221E23CDE988
:100F50000072CDE90210282264214FF49670FFF749
:100F6000F1FD8049086080A17E480068FFF776FFA8
:100F70000DF0DAF807467D490DF0E4FD01E004F0DC
:100F800019F96548007818B1644800780028F6D14E
:100F9000724800680DF002F8724800680CF0FEFF1D
:100FA00000206E4908606F49086003F04FFC5A4802
:100FB000007800287ED15C4917F054FF6CA16D4881
:100FC00018F018F86C49087008460078002872D1AB
:100FD0000A22052169A003F02BFE6C4991F85610F6
:100FE0006B4A52F8210003F0A3FD1E22052169A0DF
:100FF00003F01EFE6548007E801C012101FA00F608
:1010000062480069401C704360490A7A012191409E
:1010100000FB01F400EE104AB8EE400ADFED620A70
:1010200080EE208A0620B0EE480A03F044FD5FA05F
:1010300003F07EFD322205215EA003F0F9FD0321BD
:101040006048008803F019FD5FA003F071FD46229F
:1010500005215FA003F0ECFD4C49886B0A2103F0E9
:101060000CFD5A2205215EA003F0E2FD4749B1F8CC
:101070005400052103F001FD6E2205215AA003F062
:10108000D7FD424991F82C00022103F0F6FC012122
:101090005AA008F07BF901225CA15F4817F0F8FE26
:1010A0003549087008460078002831D100BF5A48F9
:1010B00004AB01E02BE01FE05849C26817F0D6FFEF
:1010C0002D4908700846007810B904980028EED120
:1010D00000BF00BF504817F0BAFE504806F0F4FBBE
:1010E0004FF0504045684E4908600146086880F35B
:1010F000088800BFA8470BE000214AA008F046F985
:101100000021084617F0AEFE1B49087000E000BF42
:1011100004480078EFE60000142002201520022089
:1011200004BA0120D82102209C2A022053442063C3
:10113000617264206973206572726F720000000032
:1011400020424F4F542046524F4D2053442043419C
:101150005244203F20000000C90B0020AC20022098
:1011600059455300B02002204E4F0000CD7701209A
:10117000303A0000F82E0220DC21022020434152A8
:10118000442054595045203A2000000008300220E5
:10119000902002202053445F434152442053495A37
:1011A00045203A202000000000008049204D42598F
:1011B0005445000020534543544F522053495A454B
:1011C000203A2000D6210220202042595445000018
:1011D0002052524F4455435420534E203A20000091
:1011E00020524341203A2000204D414E5546414374
:1011F0005455524552204944203A2000534420631C
:10120000617264206973204F4B210000303A73747F
:101210006D33322E68657800D42C0220000003D094
:1012200008ED00E053442063617264206973206E0E
:101230006F7420696E697469616C697A6500000079
:1012400000BFFEE710B5002000F048FC00F014F8E5
:1012500010BD000010B501200549087000200549A7
:101260000870012000F03AFC00F034FB10BD0000D3
:10127000512202205422022070B586B0FC488078AA
:101280000C287DD2DFE800F00607263E7C6AC9FE06
:10129000FDFCFBFAF1E24FF4C070F649088006202D
:1012A00088700120C870F4480178F2480171F24852
:1012B0004178F0484171F1488178EE488171EF48FA
:1012C0004178EC48C171ED48C178EA48017200F0FC
:1012D000A7FCD2E2E6480079E7490870E448407983
:1012E0004870002009F012F8E1488079E3498870DD
:1012F000DF48C0794870DE48007AC870002008F0E6
:10130000A1FFBAE24FF4C170DA4908800120C87029
:10131000DB480178D7480171DA480178D548417136
:10132000D9480178D3488171D8480178D148C17132
:10133000D7480068010ECF488172D5480068010C7B
:10134000CC484172D2480068C1B2CA480172082034
:10135000C8498870084600F063FC8EE24FF0804078
:10136000008C40F010004FF0804108840846008C4B
:1013700040F0010008840120C4490860C54800E02D
:101380007AE20068002847D0C348007818B1C24804
:101390000078012824D1112007F03CFC002400E053
:1013A000641CBE488442FBDBBE2007F033FC0420F3
:1013B00007F00EFCBA48008807F00AFC012007F08D
:1013C00007FCF02007F004FC002007F001FC0020DF
:1013D00007F0FEFB0220B04908700020B1490870F8
:1013E0000020B14908604FF40161AA4800680CF080
:1013F000B1FE0646AD493046FFF71AFD30460DF006
:101400006DFC40F61101A34800680CF0A3FE0646EF
:10141000A7493046FFF70CFD2FE29F48007818B12E
:101420009D480078012824D1112007F0F3FB002407
:1014300000E0641C99488442FBDBBE2007F0EAFB15
:10144000042007F0C5FB9648008807F0C1FB012087
:1014500007F0BEFBF02007F0BBFB002007F0B8FB55
:10146000002007F0B5FB02208B49087000208D4951
:10147000087000208C4908607D4804E0D6E1B2E1A4
:101480008CE15EE1CBE040797D4908600846006868
:1014900000285AD04FF08040008B40F004004FF0FD
:1014A000804108830846808940F00200888123201B
:1014B000C862052088636E48C0797349086008686F
:1014C00000EBD0714C1000EE104AB8EEC00ADFED10
:1014D000790A80EE201A784880ED001A6D4800687D
:1014E000002831D040F613016A4800680CF032FE43
:1014F000064630460DF004F940F6140165480068D0
:101500000CF028FE064630460CF0B7FD40F61701F9
:10151000604800680CF01EFE06465B4801683046D5
:1015200008F083F930460DF0A9FC40F61601594841
:1015300000680CF00FFE06465348016830460AF07A
:1015400075FD30460CF09CFD59E0494880794D49C5
:1015500008604FF08040008B20F004004FF0804185
:1015600008830846808920F0020088814548006889
:1015700000EB80004FF47A71A1EB4000C906C8620D
:101580004048006800EB800040F2CA31A1EB400007
:10159000490788633F48006888B340F617013D4813
:1015A00000680CF0D7FD064630460DF0A9F840F66D
:1015B0001601384800680CF0CDFD064630460CF0A8
:1015C0005CFD40F61301334800680CF0C3FD06468D
:1015D0002C480168304608F028F930460DF04EFCE2
:1015E00040F614012B4800680CF0B4FD064625486F
:1015F000016830460AF01AFD30460CF041FD2548DE
:10160000006858B140F61801224800680CF0A2FDAD
:1016100006461B480168304601F00CF82DE14FF0FA
:101620008040008C20F010004FF080410884084674
:10163000008C20F0010008840020204908709FEDF4
:10164000200A204880ED000A002010490860114857
:101650000068002874D01048007818B10E4800784F
:10166000012851D1112007F0D5FA00242DE0000007
:10167000E4300220D8300220BC200220C02002200A
:10168000E0210220E4210220E8210220F0210220B2
:1016900018640040A8230220DA21022020BF0200A3
:1016A00046220220DB21022024140040257801205C
:1016B000C90B002000004842EC210220F421022046
:1016C00000000000F8210220641C70488442FBDB0B
:1016D000BE2007F09FFA042007F07AFA6C480088D1
:1016E00007F076FA012007F073FAF02007F070FA9D
:1016F000002007F06DFA002007F06AFA0220654921
:10170000087000206449087000206449086040F6B1
:101710001101634800680CF01DFD06466149304622
:10172000FFF786FB30460DF0D9FA4FF401615C48B3
:1017300000680CF00FFD06465B493046FFF778FB6A
:101740009BE05A4840795949097940EA01205849B3
:10175000088058480078C87056484178544801714C
:1017600055480178524841715448006858B9534867
:1017700001784F4881714F48017B4D48C171052068
:101780004B49887006E04D48017849488171042032
:1017900047498870464800F043FA6EE048480068C0
:1017A0000CF0FCFB0CF0C0FC0546182040F61802BB
:1017B0000023CDE9032002930590032022231A463B
:1017C0000F21CDE900500A2006F00FFA3C490860CD
:1017D0000121080208F030FB3AA23B493848006872
:1017E00006F040F949E031480079324908702F4845
:1017F000407948700020886088702C4880792E4994
:1018000008602A48C07930B900202A494860274832
:10181000007A087303E04FF0004026494860254AEB
:101820004FF48071002008F097FC26E024480068FF
:101830000CF0B4FB0CF078FC0546182040F61802BA
:101840000023CDE9032002930590032022231A46AA
:101850000F21CDE900500A2006F0C7F918490860A9
:1018600000214FF4807008F0E7FA16A217491448D7
:10187000006806F0F7F800E000BF00BF14480068F9
:1018800040F002001249086006B070BD20BF02009F
:1018900046220220DA210220DB210220241400400B
:1018A000A823022025780120C90B0020E430022063
:1018B000D8300220D029022018220220A42502209C
:1018C000682302200000000048B90BD070C20BD082
:1018D0001464004030B57848807B042804D0062882
:1018E00049D00B287CD1D3E00020744908607449AA
:1018F00008607148007C08606F48407C096841EAD4
:1019000000206F4908606C48807C096841EA00400B
:101910006B4908606848C07C096841EA0060684912
:10192000086001F047FD66480068B0F5003F01DC43
:1019300001240EE062480068B0F5802F01DC02242B
:1019400007E05F480068B0F5C02F01DC032400E029
:1019500004242146082001F0DBFC4FF4B9705949FA
:101960000880022088700120C870672155480171E5
:1019700000F056F998E05248006850490968401A4A
:10198000082833D34D4800684F4A811804230822A1
:101990004948103001F034FC484800680830474995
:1019A00008604FF4B9704749088002208870012010
:1019B000C87067214348017100F032F93F48006860
:1019C000F021B0FBF1F201FB120038BB3F48006888
:1019D00010F0800F05D080203C490A3108801DE0BE
:1019E00061E0802039490831088017E034480068F8
:1019F000324B1B68C21A31480068334BC1180423AC
:101A00002D48103001F0FCFB2D4800682B49096877
:101A1000401A2A490968084428490860284800688B
:101A200026490968884232D125480068011F2648A6
:101A300016F024FD0546224800682349084450F862
:101A4000040CA84210D14FF4B9701E49088002203E
:101A500088700120C87063211A48017100F0E0F815
:101A600001201B49087012E01A48006840F000404D
:101A7000184908604FF4B970124908800220887034
:101A80000120C87065210F48017100F0C9F80BE012
:101A90004FF4C4700B49088001208870C870084654
:101AA00000F0BEF800E000BF00BF0B48006840F047
:101AB00010000949086030BDE4300220D42502201E
:101AC000D8250220D8300220000008081014024057
:101AD000D0250220103C0240146400404D4901EB27
:101AE0000011096801F0020102295AD0494901EBAD
:101AF0000011896800EB4002474B03EB8202117131
:101B0000444901EB001189680A0A00EB400103EB2C
:101B100081014A713F4901EB001189680A0C00EB11
:101B2000400103EB81018A713A4901EB0011896898
:101B3000090E00EB400203EB8202D171354901EB43
:101B40000011C968CAB200EB400103EB81010A72BF
:101B5000304901EB0011C9680A0A00EB400103EBB0
:101B600081014A722B4901EB0011C9680A0C00EB94
:101B7000400103EB81018A72264901EB0011C9681B
:101B8000090E00EB400203EB8202D172214901EB06
:101B90000011496801F00F0100EB400203EB8202E3
:101BA000D1701C4901EB0011096840F2FF7202EA92
:101BB000515100EB4002184B23F82210154901EB5C
:101BC00000114968090A00EB400203EB82029170A0
:101BD00030B11249096821F01001104A116005E086
:101BE0000E49096821F002010C4A116040B10B490D
:101BF000091F096841F02001084A121F116007E01F
:101C000006490839096841F02001044A083A116080
:101C100070470000B0650040E430022014640040CA
:101C200010B5024600233048006800F08060B0F133
:101C3000806F01D1002113E02B48006800F00060A4
:101C4000B0F1006F01D101210AE02748006800F0DF
:101C50008050B0F1805F01D1022101E0022010BD6F
:101C600010884405214800EB011004601F4800EB78
:101C70000110406820F00F041C4800EB0110446084
:101C80001A4800EB0110406894782043174C04EB8D
:101C90000114606090790406507944EA0044107998
:101CA00044EA0020D47840EA0403104800EB011015
:101CB0008360907A0406507A44EA0044107A44EA39
:101CC0000020D47940EA0403084800EB0110C36007
:101CD000064800EB0110006840F00104034800EBE7
:101CE000011004600020BAE70864004080650040ED
:101CF00010B500BF8C48006810F0200FFAD12D20DD
:101D00008A4908608A48006820F003008849086012
:101D10000846006840F00100086000BF8448006881
:101D200000F00C000428F9D181480838006820F040
:101D300080707F49083908607E480078002867D1A4
:101D400059207D49086101207A4908707B487C4907
:101D500008607748001F006820F440307449091F6C
:101D600008607848006840F4404076490860704850
:101D7000006820F47C406E4908600846006840F422
:101D8000144008606A480838006840F0807068496C
:101D90000839086000BF66480838006800F0007025
:101DA000B0F1007FF7D16748006840F480306549A2
:101DB000086000BF6348406810F4803FFAD0614873
:101DC000006840F400305F49086000BF5D4840682B
:101DD00010F4003FFAD05648006820F00300544940
:101DE00008600846006840F00200086000BF5048E4
:101DF000006800F008000828F9D100BF4A480068D0
:101E000010F0200FFAD140F6D4204F49086065E069
:101E10002C20494908610020464908704B48484930
:101E200008604348001F006840F480304049091FA3
:101E300008604448006820F4404042490860084671
:101E4000006840F4804008603948006820F47C4015
:101E5000374908600846006840F4805008603948F7
:101E6000006820F400303749086000BF35484068FA
:101E700010F4003FFAD13348006820F48030314933
:101E8000086000BF2F48406810F4803FFAD128480E
:101E90000838006840F0807025490839086000BFA4
:101EA00023480838006800F00070B0F1007FF7D1D7
:101EB0001F48006820F003001D49086008460068BC
:101EC00040F00200086000BF1948006800F00800F8
:101ED0000828F9D140F6D4201B490860184800684A
:101EE0004FF47A71B0FBF1F4A4F10100B0F1807FFE
:101EF00000D30FE0601E4FF0E02148610F214FF04A
:101F0000FF3007F05DFB00204FF0E02188610720E3
:101F1000086100BF00BF0448006810F0200FFAD12C
:101F200088200249086010BD580100A0500100A09F
:101F300008380240D5200220000004E00095BA0ACB
:101F40000020022000700040540100A0804A5D057E
:101F500070B500254FF4803400E0641E24B1802069
:101F600008F062FE0028F8D014B90325284670BD99
:101F700040F2FF5008F01AFE2846F8E72DE9F0413C
:101F8000064600274748056801E04648056815F001
:101F9000450FFAD015F0040F06D00327042008F0EF
:101FA00005FE3846BDE8F08115F0010F05D0012788
:101FB000012008F0FBFD3846F4E708F02FFEB042A0
:101FC00002D010273846EDE740F2FF5008F0EEFD52
:101FD000002008F03DFE04463348044201D1384653
:101FE000E0E714F0004F01D01C20DBE714F0804F35
:101FF00001D00920D6E714F0005F01D00A20D1E714
:1020000014F0805F01D00B20CCE714F0006F01D0FA
:102010000C20C7E714F0806F01D00D20C2E714F048
:10202000807F01D00E20BDE714F4000F01D00F20F7
:10203000B8E714F4800F01D01020B3E714F4001FA8
:1020400001D01120AEE714F4801F01D01220A9E7BF
:1020500014F4002F01D01320A4E714F4802F01D032
:1020600014209FE714F4003F01D015209AE714F4E0
:10207000803F01D0162095E714F4004F01D01720BF
:1020800090E714F4804F01D018208BE714F4005F20
:1020900001D0192086E714F0080F01D01A2081E73B
:1020A00038467FE7342C014008E0FFFD70B500257D
:1020B0000F48046801E00E48046814F0450FFAD098
:1020C00014F0040F05D00325042008F06FFD284606
:1020D00070BD14F0010F05D00125012008F066FD48
:1020E0002846F5E740F2FF5008F060FD2846EFE78C
:1020F000342C014070B500250B48046801E00A4803
:10210000046814F0450FFAD014F0040F05D003252D
:10211000042008F04BFD284670BD40F2FF5008F047
:1021200045FD2846F8E70000342C01402DE9F04138
:1021300006460F464FF000082248056801E0214896
:10214000056815F0450FFAD015F0040F07D04FF0D1
:102150000308042008F02AFD4046BDE8F08115F090
:10216000010F06D04FF00108012008F01FFD404686
:10217000F3E708F053FDB04203D04FF0100840469B
:10218000EBE740F2FF5008F011FD002008F060FD81
:10219000044614F4604F03D1200C38804046DCE73D
:1021A00014F4005F01D01320D7E714F4804F01D05E
:1021B0001020D2E714F4004F01D00F20CDE74046A5
:1021C000CBE70000342C014070B500264FF4803579
:1021D0000F48046802E06D1E0D48046814F0450FB6
:1021E00001D1002DF7D115B114F0040F05D003264D
:1021F000042008F0DBFC304670BD14F0400F05D021
:102200000026402008F0D2FC3046F5E73046F3E7E0
:10221000342C014010B586B072B6002003F078FE71
:102220000BF082FF044661490CF08CFC604803F01F
:10223000B9FE6048006800287ED10BF075FF0446A7
:102240005D484FF4006100220223CDE90043CDE94F
:102250000221049040F201134FF4CD720F213C2073
:102260000BF0FBFC534908605449524800680BF0DE
:102270002FFD4120302140F617020023CDE9023224
:10228000CDE9041003204B49096841233A22CDE9E6
:1022900000100021F02005F0A8FC494908604949D8
:1022A0004748006805F013FD08214548006805F01F
:1022B00020FD4120302140F604020023CDE9023206
:1022C000CDE9041003203B49096841233A22CDE9B6
:1022D000001000214FF4AA7005F087FC3A4908600D
:1022E00038493948006805F0F2FC08213648006892
:1022F00005F0FFFC4120302140F615020023CDE916
:102300000232CDE9041003202A49096841233A2208
:10231000CDE900105A214FF4AA7005F066FC2B4954
:10232000086028492948006805F0D1FC08212748A1
:10233000006805F0DEFC00E016E0302040F6050203
:102340000023CDE903200293059003201949096871
:102350003A231A46CDE90010C8214FF4AA7005F0BF
:1023600044FC1B49086003E0124800680CF086FD3D
:102370001849002007F092FE1649887802230022AF
:10238000052102F07DFB14A002F0D2FB1149487830
:10239000022102F072FB11A002F0CAFB0D49C878BD
:1023A000022102F06AFB62B606B010BD85730120FF
:1023B0004CCD012054230220697A01208080FF0047
:1023C0007423022070CD0120582302205C230220B8
:1023D00060230220C02002202E0000002E32300098
:1023E00010B509F005FB10BD0246094B9A4201D217
:1023F000084801E00648103811F0005F03D0064B92
:102400000B40C36002E0044B0B4083607047000048
:1024100010640240006002407D0F7D0F21B1026810
:1024200042F00102026003E0026822F00102026051
:1024300070470000016821F0010101600021016086
:1024400041608160C1600161212141614A49884246
:1024500004D13D21484A103A91608CE04649183138
:10246000884205D14FF47461434A103A916082E08A
:1024700041493031884205D14FF474113E4A103A37
:10248000916078E03C494831884205D14FF0746151
:10249000394A103A91606EE037496031884204D180
:1024A0003649354A103AD16065E03349783188427F
:1024B00004D13349304A103AD1605CE02E49903162
:1024C000884204D12F492C4A103AD16053E02A495E
:1024D000A831884205D14FF03D51274A103AD160CA
:1024E00049E02949884204D13D21274A083A116030
:1024F00041E025491831884205D14FF47461224AE0
:10250000083A116037E020493031884205D14FF454
:1025100074111D4A083A11602DE01B494831884268
:1025200005D14FF07461184A083A116023E016494A
:102530006031884204D11149134A121F11601AE018
:1025400011497831884204D10D490F4A121F116098
:1025500011E00D499031884204D10A490A4A121FFC
:10256000116008E00849A831884204D14FF03D517C
:10257000054A121F11607047106002403D000020A4
:10258000400F002000003D201064024021B102688D
:1025900042F02002026003E0026822F020020260A2
:1025A000704710B511F0800F09D022B1436943F094
:1025B0008003436103E0436923F080034361802982
:1025C0000BD02AB1036801F01E042343036004E02A
:1025D000036801F01E04A343036010BD10B5002280
:1025E0000268134B1A40CC680B6823434C692343A1
:1025F0008C692343CC6923430C6A23434C6A2343ED
:102600008C6A23434C6B23438C6B23431A43026035
:10261000426922F00702D1E90B3423431A43426195
:102620000B6943604B6883608B68C36010BD00001A
:102630003F801CF038B50C46050019D001F038FF7A
:10264000009000F01AF800B1401E844200DD0446FC
:102650000098B0F93410A1420BD08486684601F08E
:1026600071FF28460CF005F9042128460CF067F9A3
:1026700038BD684601F066FF38BDC06B01F0EEBFA3
:10268000704700002DE9FC5F15460746DFF89C8087
:1026900028440190D8F800001C460E46C06E01EB9D
:1026A00004094946426801989047781B0090D8F881
:1026B00000004946C06E426800989047D8F8000074
:1026C00006EB050B07EB0409C06E59464268484605
:1026D0009047D8F80000A6EB050A5146C06E426844
:1026E00048469047002C1ED0D8F80000361B4546BF
:1026F000C06E314642680198904728683146C06EE6
:1027000042680098904728683C1B5946C06E426852
:102710002046904728685146C06E426802B0204665
:10272000BDE8F05F1047BDE8FC9F0000F8250220DF
:1027300070B505460C46611F621D284602F01AFD61
:10274000691F6A1D204602F063FC042221462846C8
:1027500002F080FB70BD002213F029BF10B50024E9
:1027600000E0641C13488442FBD30221124801F0AC
:102770008CFA70B908F0A8FE104908700846007875
:1027800080B90F49002016F06DFB01200D4908703B
:1027900008E008F037FA0021084616F063FB012034
:1027A00008490870022000F01FF8072006F094FE88
:1027B00010BD000080F0FA0200040240D82102207F
:1027C0009C2A02205123022010B5002400E0641C42
:1027D00004488442FBD3102000F006F80A2006F0DB
:1027E0007BFE10BDA0860100014908607047000013
:1027F000143C0140002123498279002A3AD00A463C
:10280000126803689A430B461A600A1D126803682F
:102810009A430B1D1A60027911440A6803681A432F
:102820000A60184A0832126803689A43154B083345
:102830001A601A1D126803689A43124B0C331A600F
:102840004279102A0ED11A1F126803681A430D4BE1
:1028500008331A601A1D126803681A43094B0C33B7
:102860001A600DE00749427911440A6803681A4367
:102870000A6005E0027911440A6803689A430A6015
:1028800070470000003C014099B1102808D14FF07A
:102890002042126E42F004024FF020431A661CE000
:1028A0000E4A126842F004024FF02043C3F8802021
:1028B00013E0102808D14FF02042126E084B1A4046
:1028C0004FF020431A6608E0044A1268044B02EAFB
:1028D00003024FF02043C3F880207047800000A01F
:1028E000FBFF0F0030B5002100220023446844F0B4
:1028F000080485682C43C5682C4305692C43456949
:1029000044EA4524856944EA4531C4692468C569B7
:102910006D6844EA0524C5692D8944EA0544C56902
:102920002D7B44EA0562046A2468056A6D6844EAFE
:102930000524056A2D8944EA0544056A2D7B44EA8D
:1029400005630468102C05D14FF020442166A2666F
:10295000E36607E0044C21604FF02044C4F888206F
:10296000024C236030BD0000800000A08C0000A05D
:102970002DE9F047456804468EB00026284601F050
:1029800097FD00905C30B0F820A0D0F80C90D0F803
:102990002480C76A006800B10668684601F0D2FD6D
:1029A00005E079682046884700283DD13F68002F20
:1029B000F7D12068142844D009DCA0F10B000728C7
:1029C00039D2DFE800F0BE3989B434B411002028D0
:1029D0007ED004DC17283ED01E282CD14BE02628C0
:1029E0003CD02A2827D110E02846E66801F060FD97
:1029F0000190717A39B9317A012904D130F87C1FFC
:102A000041F48071018001A88FE0284601F050FD5B
:102A10000090E16811B1C0F8841002E0D0F88400A1
:102A2000E060684601F08EFD0EB0BDE8F087002E34
:102A30007DD02846B0477AE02146284611F0EAFECC
:102A4000F2E705A9284600F0BFF9E06806990160A1
:102A500007994160E8E7C4F80C90E5E7E0680228D0
:102A6000E2D10C95E0680D9027200A900AA9A06891
:102A70000CF0FAFED8E7E068012804D000212846CF
:102A800000F047F9D0E740460BF055FF58B14046FB
:102A90000CF024F940460BF023FE88B1012140469A
:102AA0000AF0E2FE0CE048460CF066F98046284643
:102AB00001F0FEFC0090C0F88080684601F042FD05
:102AC0000121284600F025F9B8F1000FACD100E053
:102AD0000EE00020E060A7E75FEA0A7027D4E06814
:102AE000C06820B3007A10B328460CF0F7F81EE057
:102AF000E668E6B1294670680CF09DFC20B1012122
:102B0000284613F079F812E00021284613F074F8F3
:102B1000294630680CF07EFC48B1284601F0C8FC1C
:102B200003903168C0F8801003A801F00BFD214626
:102B300028460AF00FFE00288CD020460BF0FAF948
:102B400072E7284601F0B4FC0090703001F010FCF0
:102B50006846EAE72DE9F04387B00DF13808814671
:102B6000B8E8F1104FF00008CDF818808DE8F110AA
:102B7000484600F003F807B0BDE8F0832DE9F047C0
:102B80008AB00DF14C0CDDE91784BCE86006129F99
:102B900045F480556034DFF8B8C0CDE902C4CDE912
:102BA00000750BF017F904004DD001F081FC3022C4
:102BB000494604900AF0B8FF049828222549343089
:102BC000FDF7C7FD0498234F5C30083FC0F808802C
:102BD0000684002646620661C6627968016004A820
:102BE00001F0B0FC05A9204600F0EEF81A4841F2C9
:102BF000827103960094CDE90110BDF91E00BDF964
:102C00001A10BDF91C20431ABDF918005B1C121ADA
:102C1000521C0BF0DFF8064678684168204688476A
:102C2000204601F045FC0490866604A801F08AFC69
:102C300042F20400054202D120460BF013FA51463D
:102C4000204600F08EF80AB02046BDE8F08700006C
:102C50007129002044270220872F002030B5044628
:102C60008BB0006801F024FC009090F87C10246A7E
:102C7000006FC1F3C00508B101F01AFC0690E068CE
:102C8000029020690390A088401EADF81000E089F2
:102C9000ADF812002089401CADF81400608AADF830
:102CA0001600BDF80800401CADF80800BDF80A0089
:102CB000401CADF80A00BDF80C00401EADF80C0039
:102CC0000098406B03F06EF9009808AA02A9B0F9C9
:102CD0005A30069803F08AFC009800EB8500806B60
:102CE00005F010FC009800EB8500006C05F042FC3C
:102CF00008AB02AA04A906980AF04AFE684601F049
:102D000021FC069810B106A801F01CFC0BB00020B5
:102D100030BD002801D012F06FBF7047F8B51546DE
:102D20000C4606000DD001F0C3FB0090022C05D22A
:102D300000EB8400856330460BF09BFD684601F094
:102D400001FCF8BD38B50D46040009D001F0B0FB18
:102D500000900566684601F0F5FB20460BF089FD02
:102D600038BD7CB50D46040019D001F0A1FB0090E0
:102D7000006F0190684601F0E5FB294601A804F0C8
:102D80004BFC00280BD0204601F092FB00900199EB
:102D90000167684601F0D6FB20460BF06AFD7CBD5A
:102DA00038B50C4605000ED001F082FB0090B0F95A
:102DB0005A10A14204D0A0F85A4028460BF059FD01
:102DC000684601F0BFFB38BD2DE9F34F85B0002701
:102DD0000C46B846059801F06BFB0090C06D0121D0
:102DE000856805982A68904782462A6803210598D5
:102DF000904704902A6802210598904703902A681A
:102E0000002105989047064600980CF0B1F98346DA
:102E100000980CF0B4F98146009890F832108906B9
:102E200001D5B0F9588000F036F805460098C06E1C
:102E300010B10BF082FA074625806780A4F804A041
:102E4000049AABEB020006EB0802401E2A442081E4
:102E50003A44E280039BA9EB0302521E6281A4F86C
:102E60000CA020827019E681401E6082684601F045
:102E700069FBB4F90C000190B4F91000029002AAA9
:102E800001A9059800F039F80198A08102982082E4
:102E900007B0BDE8F08F10B50146002091F8322050
:102EA000920607D5B1F95400002803D1486B02F00F
:102EB000FDFA801C10BD70B58AB00C46054601F0C5
:102EC000F7FA0990C06D866809A801F03BFB0095F0
:102ED00034B1012C06D0022C0BD0032C04D10AE013
:102EE000182000E0162001907168684688470AB0F3
:102EF00070BD1520F7E71720F5E72DE9FC47904650
:102F00008946044601F0D4FA0090C16D0568684610
:102F10008E6801F017FB3268002120469047064674
:102F200020460BF01FF92F1404462DB227E001F0C4
:102F3000BFFA0190B0F90010B0F90420B0F90230E6
:102F4000491B521BDB1BB34212D190F8280000062C
:102F500007D5D8F8000088420ADB491EC8F80010DF
:102F600006E0D9F80000904202DC521CC9F80020AB
:102F700001A801F0E7FA20460BF084F90446002C82
:102F8000D5D1BDE8FC872DE9F0430446406885B003
:102F900006460BF07EF9814601F08AFA0090D0F8DF
:102FA0008080876C456E684601F0CCFA206817284F
:102FB00059D008DC0E2837D00F280BD0142852D057
:102FC00015283AD14FE01E2818D01F2827D02228D4
:102FD00033D146E06FF07040874204D0384605F0A8
:102FE00091FA01F033FC002D12D0D4E902122068CE
:102FF000CDE90106CDE9031201A822E0E06800282E
:1030000006D05FEA080006D0B04504D00BF066FE9B
:1030100005B0BDE8F08330460BF0AEFE16E0214669
:1030200048460AF097FBF3E7E0684168002904DDB1
:1030300000680928EFD00A2805D0A5B12046C4F8B9
:103040000490A847E4E730460BF09EFE044648464D
:1030500001F02EFA0090C0F88040684601F072FA44
:10306000D6E7E760D4E720460AF064FFD0E7000027
:103070002DE9FC4107460D46002600240020009063
:10308000019008205A49086010204860402088605C
:103090000020C8604FF480600861084607F012FE07
:1030A0001020FEF76BFF044614B12046BDE8FC81FA
:1030B0005048008800044E4908603720486040208E
:1030C00088600020C8604FF480600861084607F0FF
:1030D000F9FD3720FEF752FF04460CB12046E5E724
:1030E0004FF6FF704449086008204860302088602F
:1030F0000220C8600020086101204861084607F0EE
:1031000067FD00203A49086033204860402088600D
:103110000020C8604FF480600861084607F0D2FDC7
:103120003320FEF72BFF04460CB12046BEE709E032
:103130004FF4001007F078FD20B107F0BDFD4DF809
:103140002600761C2D48006840F22A610842EFD024
:10315000082007F069FD28B1082007F027FD0424A6
:103160002046A3E7022007F05FFD28B1022007F008
:103170001DFD0224204699E7202007F055FD28B1C7
:10318000202007F013FD062420468FE74FF400703F
:1031900007F04AFD30B14FF4007007F007FD072437
:1031A000204683E740F2FF5007F000FD009800063C
:1031B000009901F47F4140EA0120009901F47F0168
:1031C00040EA1120009940EA116068600198000609
:1031D000019901F47F4140EA0120019901F47F0146
:1031E00040EA1120019940EA1160286020465DE71D
:1031F00078300220BC2502208C300220342C014083
:1032000070B5044600BF414D2D6805F48035B5F515
:10321000803FF8D03D4D2D6815F0010F02D00125FB
:103220003A4E3560394D2D1D2D6845F08075374E6D
:10323000361D3560012B04D0022B20D0042B5AD12F
:103240003BE0324D2D1D2D6825F440752F4E361D67
:10325000356035462D6845F00105356000200BE0EE
:10326000255C0D5400BF294D2D6815F0010FFAD0D3
:103270000125264E3560401C9042F1D33BE0234DA2
:103280002D1D2D6845F48075204E361D3560354660
:103290002D6845F00105356000200BE0255A0D52E0
:1032A00000BF1A4D2D6815F0010FFAD00125174EF9
:1032B0003560801C9042F1D31DE0144D2D1D2D680A
:1032C00045F40075114E361D356035462D6845F0C4
:1032D0000105356000200BE025580D5000BF0B4D57
:1032E0002D6815F0010FFAD00125084E3560001D3C
:1032F0009042F1D300BF00BF044D2D1D2D6825F075
:103300000105024E361D356070BD00000C3C0240C8
:1033100010B5024600BF264B1B6803F48033B3F59B
:10332000803FF8D0224B1B6813F0010F02D001231D
:103330001F4C23601E4B1B1D1B6843F080731C4CED
:10334000241D236023461B6843F400732360234637
:103350001B6843F00203236010461CE0144B1B1D46
:103360001B6823F0F803124C241D236023461B68BE
:1033700043EAC003236023461B6843F48033236081
:1033800000BF0B4B1B6813F0010FFAD00123084C50
:103390002360431CD8B253188342DFDC044B1B1D4F
:1033A0001B6823F00203024C241D236010BD0000A3
:1033B0000C3C02400248034908600348086070471B
:1033C00023016745043C0240AB89EFCD2DE9FF5F47
:1033D0008346DDE90E45984691468A4604F5B47465
:1033E00005F5B4754FF0FF3601274FF4B47003E0D4
:1033F000A4F5B474A5F5B4758442F9DA002D65DD41
:103400005A2C11DA002C00DA00245A2D01DA284651
:1034100000E05A20CDE90040CDE9027643464A4615
:10342000514658460DF01EF95A3D5A3C002D4DDDCF
:103430005A2C14DA002C00DA00245A2D01DA28461E
:1034400000E05A20C4F15A01C0F15A008DE843004F
:1034500043464A465146584603960DF003F95A3DF5
:103460005A3C002D32DD5A2C12DA002C00DA0024EE
:103470005A2D01DA284600E05A200DF1040C009480
:10348000ACE8C10043464A46514658460DF0EAF8BA
:103490005A3D5A3C002D19DD5A2C14DA002C00DA62
:1034A00000245A2D01DA284600E05A20C4F15A01BE
:1034B000C0F15A008DE8830043464A4651465846BB
:1034C00003970DF0CFF85A3D5A3C97E7BDE8FF9FB0
:1034D0002DE9F0430446C56887B090468946002030
:1034E00002F05EFD064625B1287910B146F00200D3
:1034F00001E026F0020002F053FD2069012558B1D9
:10350000D4E902128DE826000395638822880468B6
:1035100041464846A0471EE0124F134B21463868EB
:103520001B68427CE068984730B9E088012801D0E8
:10353000002001E03868806BA288E388A1680095CC
:10354000CDE90410CDE90232019563882288414615
:10355000484604F0F7FB07B03046BDE8F04302F000
:103560001FBD0000F8250220F02502202DE9F047BC
:103570008146884640F2C32050434FF47A7190FB55
:10358000F1F502FB02F002EBD27100EB61066D1C5B
:103590001746002341464846FFF774F8012413E01C
:1035A00004FB04F007FB0700B04206DD3B46224661
:1035B00041464846FFF766F87F1E3B462246414695
:1035C0004846FFF75FF8641CAC42E9DDBDE8F087D0
:1035D0001CB50024019401AC009400F0E7F81CBD78
:1035E0002DE9FF4F83B0814606988A46A0EB0A0872
:1035F000109E00200090A2EB09043568934654EA1F
:10360000080018D02046FDF72AFA07464046FDF785
:1036100026FA87420BDA2046444680464846D14681
:1036200082465846DDF818B0069001200090002C24
:1036300007DD204606E007B04846BDE8F04F00F041
:103640003BB96042A0420AD04846D9466442C8F11C
:10365000000883464FF0FF37DDF818A000E001278F
:103660005148B8F1000F11D004EBD4714FEA610B4F
:1036700001DACBF1000B4C480068807E88B3002F44
:1036800002DA30682044306000257BE00099002990
:10369000016821D0897E11B10027804615E007B06E
:1036A0005A4649465046BDE8F04F04F0AFBC2846A4
:1036B0006D1C12F09BFB38B9D8F8000009EB07012C
:1036C000C06E4268504690477F1CA742EFDD6D1EDA
:1036D000356007B0BDE8F08F8A7E1AB100278046BA
:1036E00017E019E0C86E5A465146036807B04846CD
:1036F000BDE8F04F184728466D1C12F077FB38B92B
:10370000D8F8001009EB0700C96E4A685146904787
:103710007F1CA742EFDDDAE700250FE008FB05B0CC
:1037200090FBF4F101EB0A00009951B11E4A09EB3C
:1037300005011268D26E526890476D1CA542EDDDFE
:10374000C7E7194909EB05030968C96E4A680146CC
:103750001846F1E708FB05B090FBF4F101EB0A0015
:10376000019030683844306012F040FB48B900984E
:1037700090B10D4809EB05010068C06E42680198E0
:1037800090476D1CA542E5DD3068002F01DA20442A
:103790003060C01B30609CE7034909EB05000968F5
:1037A000C96E4A680199EBE7F82502202DE9FF4729
:1037B0000F4640491646804609680C981D460A7E09
:1037C000012A1CD0A8EB0600791B50EA01031CD08B
:1037D000A2F1010913F090FD00F58060824604F02B
:1037E00043F800FB09F4504604F042F800FB09F1ED
:1037F000002C0CDAC4F50070801240420AE0009000
:10380000324639464046FFF7EBFEBDE8FF8704F538
:103810000074A012002904DAC1F5007189124C422B
:1038200002E001F500718C12002804DD411C01EB5F
:10383000D171491003E000EBD0714910401E00EB3C
:10384000D0704210002C04DD601C00EBD0704010E2
:1038500003E004EBD4704010641E04EBD47308EB57
:103860000104ADF800403C18ADF80240A8EB02049A
:103870005B10B21AADF80440ADF808203144FC1AD0
:10388000EA1AADF80C102844ADF80A20ADF80E0085
:103890000023ADF806401A460421684600F07AF885
:1038A000394640460EF03EFE294630460EF03AFEBE
:1038B000ABE70000F8250220064A13681A7E012AA9
:1038C00005D0521E02EBD272521000F005B8DA6E2B
:1038D00052681047F82502202DE9F05F0646884619
:1038E00040F2C32050434FF47A7190FBF1F702FB92
:1038F00002F002EBD27100EB610B254914467F1CEC
:1039000009683244301BC96E0B684146984701254F
:103910003AE000BF05FB05F004FB040159451CDD3E
:10392000BC4219DD1A4B06EB050AA6EB05091B681C
:10393000AAF1010208EB0401DB6E09F101001B682A
:103940009847134BAAF10102A8EB04011B6809F187
:103950000100DB6E1B689847641E0D4806EB040AE5
:10396000A6EB0409006808EB05015246C06E036827
:10397000484698470648A8EB050152460068C06EC5
:103980000368484698476D1CBD42C3DDBDE8F09F03
:10399000F82502202DE9FF4F40F6FF740F466642DE
:1039A00083B09B46814600210BE000BF09EB8100FC
:1039B000B0F90200A04200DA0446B04200DD06463B
:1039C000491CB942F2DB68480068406900280DD004
:1039D000B0F906101A46A1EB0B01B14200DA0E460F
:1039E000B0F90200801AA04200DD0446B5E0DFF81D
:1039F0007CA100200546CAF8000089E0781E8542B7
:103A000001DA6B1C00E0002309EB850C09EB830253
:103A1000BCF90200B2F90210A04245D1A14215D171
:103A200039F92330059A39F9251003EB020C4E4A77
:103A300005981268084404EB0B01D26E60451368C8
:103A400001DA62462BE00246604628E02846A4469A
:103A50004FF000087A1E0BE008B1401E00E0781E0F
:103A600009EB8003B3F90230634504D108F1010882
:103A70009045F1DB2346A34249D0A3EB040239F978
:103A80002500A1EB040C059B92EA0C0209D4364AEE
:103A9000184404EB0B011268D26E13680246984773
:103AA00035E00BF0D3FF32E0A14230D001DBA04281
:103AB00003DDA0422BDBA14229DCE04688420ADC80
:103AC0000346A04223DC0846A14220DBB8F900C02F
:103AD000B2F9001008E00B46A14218DCA04216DB48
:103AE000B2F900C0B8F90010E21AA1EB0C01514381
:103AF0000029A0EB030202DD01EB620102E0A1EB71
:103B00006201491CC01A91FBF0F06044C9E76D1CCA
:103B1000BD42FFF673AF0598009004EB0B000190D7
:103B200000208046054613E01149B8F1000F31F935
:103B300015A009D0009901EB0A0208440A49096856
:103B4000C96E0B680199984788F0010850466D1CB2
:103B5000064909688D42E7DB641CB4427FF747AF32
:103B600007B0BDE8F08F0000F82502202C260220C7
:103B70003C32022010B5002002F006FA6FF07F40C0
:103B800002F006FA012002F03DFA002002F042FAAB
:103B9000002002F049FA002002F002FA044800680E
:103BA00002F000FABDE81040002002F007BA000061
:103BB000F4250220F0B50A4600210023002400BFAE
:103BC0003DE0012505FA01F3156805EA03049C426E
:103BD00034D105684F000326BE40B5430560157912
:103BE0004E00B5400668354305601579012D02D0B9
:103BF0001579022D16D185684F000326BE40B543C6
:103C0000856055794E00B5408668354385604568C6
:103C100001268E40B5434560456896798E40B6B220
:103C200035434560C5684F000326BE40B543C560B7
:103C3000D5794E00B540C6683543C560491C10298A
:103C4000BFD3F0BDF0B5002300244D07ED0E02FAFE
:103C500005F3CE1000F1200555F826504E07F70E5B
:103C60000F26BE40B543CF1000F1200646F827507E
:103C7000CE1000F1200555F8265045EA0304CE1079
:103C800000F1200545F82640F0BD024600201369EA
:103C90000B4201D0012000E00020704741837047B3
:103CA0000183704770B50C46054600F015F9A86809
:103CB0002168C16261680163A1684163490707D552
:103CC000D0E90021C0E90012D0E90221C0E90212C6
:103CD000A18981842169002903D001DC4FF0000112
:103CE000016270BD2DE9F0411E4617468846054623
:103CF00000F0F2F8AC686822414604F58470FCF7E5
:103D000028FD2846B8472846B0472869806880477C
:103D1000A062BDE8F081000010B5044600F0DCF8B8
:103D2000A0680E494C30114AC1650D4981650D49A5
:103D300001660D4981660021C166136843660C4B1C
:103D4000C0E91E315168416730F8261C21F003019B
:103D500020F8261C0749416410BD0000B95E01200F
:103D600015630120815E0120875701206C26022007
:103D70002B590120BD5D012010B5044600F0ACF8C0
:103D8000A4680C489034102120650B4860650B48EE
:103D9000A0650B48E0650B48E0600B482061206B94
:103DA000A06654F89029204690471020A063074849
:103DB000606410BDB11B0120152B0120193E0020AD
:103DC000493F0020215701200169012030EB0120EB
:103DD00070B50C46054600F07FF80A48AA6814B191
:103DE000012C08D103E008490160084902E00849B4
:103DF000016008494160016842F8B01F40681061E5
:103E000070BD00006C2602203F570120A158012000
:103E100067570120ED580120F8B5846815460F4614
:103E200094F8260080074CD5D4F8FC3020469847FB
:103E30000646D4F800312A46394620469847D4F839
:103E4000943005461BB10022012120469847206985
:103E5000B04201DD012000E00020A169B14201DA99
:103E6000012100E0002108436169A94201DD01212F
:103E700000E000210843E169A94201DA012100E0E4
:103E8000002108430AD06068401E00902368D4F8DF
:103E9000A4705B1E002211462046B847D4F8A83013
:103EA0002A46314620469847D4F89C102046884739
:103EB000D4F8943005466BB1012200212046984782
:103EC00008E0D4F8A83020469847D4F89C10204643
:103ED000884705462846F8BD70B504468068002826
:103EE00012D14FF4B875284600F058FA2A4600213E
:103EF000A06003F03DFCA0680221C184012104649C
:103F000001620249C0F8041170BD0000113F002099
:103F100010B590B0044620220A496846FCF719FC07
:103F200008492022203108A8FCF713FC606B5DF8DB
:103F30002010C4F8FC1008A951F82000C4F80001B2
:103F400010B010BDA8AE01202DE9F8438468984652
:103F5000154694F826000F46800740D5D4F8FC306B
:103F6000204698470646D4F800312A46394620466E
:103F7000984705462069B04201DD012000E000209D
:103F8000A169B14201DA012100E000210843616921
:103F9000A94201DD012100E000210843E169A942B5
:103FA00001DA012100E0002108430AD06068401EC8
:103FB00000902368D4F8A4705B1E002211462046AE
:103FC000B847D4F8A8302A46314620469847D4F856
:103FD000A02001B041462046BDE8F0431047D4F888
:103FE000A830F2E72DE9F04FDFF828B191B04FF09B
:103FF000FF35DBF80030B3F922100691DE69B3F922
:104000002490F469A189814206D8E289824203D3CF
:10401000471AD4F8008012E0D4E9018100296FD05A
:104020000A8882426CD84D88854269D3801A82B250
:10403000486800EB8200B0F90070B0F90250781CBB
:104040005ED0307EA17C10FB01FA217CCDE9080115
:10405000B3F92A60304604F09FFAC0B20E90DBF844
:10406000000007FB0A81A37C826B0127CDE90412C3
:10407000CDE90273C069DDE90832C17E807ECDE9F9
:1040800000014946069803F05DFE681C18D046F012
:10409000020004F081FADBF80000A37C05FB0A8132
:1040A000826BCDE90273CDE90412C069DDE9083203
:1040B000C17E807ECDE900014946069803F042FEAC
:1040C000DBF800005D46C069417E007E814214D964
:1040D000022E12D086F0040004F05EFA2868C0694F
:1040E000027EC37E12FB0391437E857E099A069869
:1040F0004B4402FB050203F0B3FF0E9804F04CFAA8
:10410000DBF80000627C418C1144418411B0BDE8B1
:10411000F08F0000F825022004480068C069C069DB
:1041200009B1027C0A60407C70470000F82502203B
:10413000022008807047C06982898A4202D8C289F9
:104140008A4210D2806880B102888A420DD84388A2
:104150008B420AD3406800EB8100A0EB8200B0F9EB
:104160000000002801DB012070470020704700009C
:104170002DE9F0432F4C034687B020681946B0F96B
:104180002A80C069C06900F084F800284ED04168D8
:104190000088181A01EBC0054046AE7804F0FCF91F
:1041A000814620686A680123816BCDE90236CDE93A
:1041B0000421C169CB7E8A7ECDE900230B7EB0F954
:1041C00024102A78B0F9220003F0BCFD2068C069F1
:1041D000477E067EB7421DD9C07E47434643B8F1AD
:1041E000020F17D001F005F9804601F0E5F801F063
:1041F000CFFE21682A78CB69B1F92200DB7E12FB61
:104200000302B1F92410CB19314403F029FF4046D1
:1042100001F0BEFE484604F0BFF920686A78C36921
:10422000B0F922109B7E12FB0311418407B0BDE858
:10423000F0830000F825022030B50F4C05460B46F0
:1042400020682946C069C06900F023F8002811D011
:104250004168008824682A1A0120E46900EBC20042
:10426000085CA47E10FB04F0002B03D011F8321080
:104270006143196030BD0000F8250220012008804C
:10428000704700B5C06900F004F8002800D0012094
:1042900000BD06E002888A4202D842888A4202D2E1
:1042A00080680028F6D17047F8B505460C000DD09F
:1042B000084600F015F8060010D000F0F9F8224684
:1042C00000902DB12946FCF7BDF904E00020F8BDAF
:1042D000002103F04DFA684600F034F93046F8BD8D
:1042E000002801D00BF054BC704738B50546FFF7E5
:1042F000F7FF040009D000F0DBF82A460021009007
:1043000003F036FA684600F01DF9204638BD00007B
:10431000024A106021F0030050607047B83102205B
:1043200010B5002814D004460A48006B10F8341069
:1043300000290DD002290BD2042101EBC401415800
:1043400048680BF09FFB2046BDE8104011F0D6B93D
:1043500010BD0000FC300220002805D0034A916BFC
:10436000016001B14860906370470000FC3002209A
:1043700010B504460068FFF7D3FF0020206010BD91
:1043800070B50D460646002405E000BF06EB84002C
:10439000FFF7EEFF641CAC42F8DB70BD2DE9F04185
:1043A00004460FF01DFD2648E41C24F00305C16BF4
:1043B0002D1DA94200D90D46846B13E054F8042C3E
:1043C000AA420ED184B1216809B162684A6061686D
:1043D00009B122680A60826BA2422ED121688163F2
:1043E0002BE02468002CE9D18046416B80680F18CF
:1043F00057F8040C3E1A306838B1002011F048FB21
:1044000057F8040C3E1A3068B8B97068A84214DB3B
:104410003044441B304611F0F3FAD8F80810491B19
:10442000C8F80810D8F810102944C8F8101070689F
:104430003146401B0BF026FB20C42046BDE8F0812E
:10444000FC30022010B500240FF0CAFC0C490F20EC
:1044500001EBC002126C1AB101EBC000006C08E065
:10446000401EF5D508E04168A14200D90C4680689D
:1044700010B180680028F6D1A4F10C0010BD000036
:10448000FC300220024881680068081A704700006A
:10449000FC300220002138B10449042202EBC000A4
:1044A000096B085841680C3908467047FC300220F7
:1044B00005498A69521C8A61096B01EBC0010A78BF
:1044C000521C0A7000F056B8FC3002207CB506463B
:1044D0000C460846FFF704FF05001CD0DEB130464D
:1044E000FFF7D8FFA04200DA04462846FFF7E0FFB6
:1044F00000903046FFF7DCFF01460190224600980D
:10450000FCF7A0F8684600F01DF801A800F01AF8C2
:104510003046FFF705FF28467CBD000010B5FFF7C9
:1045200091FF64220649B0F5800F04D990FBF2F0A8
:10453000C969484310BDC9694143B1FBF2F010BDE0
:10454000FC3002200A4902680B6B52F8082C03EB7E
:10455000C2021378022B03D38B690BB15B1E8B61F4
:104560001178491E11700021016008467047000053
:10457000FC300220002806D00349042202EBC000D0
:10458000096B085808307047FC3002202DE9FC41C7
:104590004FF000060B465FEA000834462BD032B1DC
:1045A00011461846FFF780FE060000D10124404660
:1045B000FFF77EFF0090078845686846FFF7C2FF57
:1045C000CCB9B900091D2846FFF780FF050015D0BA
:1045D000FFF76EFF019040F8276001A8FFF7B2FFD8
:1045E0004046FFF765FF009045600188491C018047
:1045F0006846FFF7A7FF2046BDE8FC813046FFF77D
:104600008FFE0124F7E70820FFF76FBE7CB5050099
:1046100023D0FFF74DFF00904068C0B1FFF748FF7F
:104620000024019005E0019800EB8400FFF7A0FE54
:10463000641C00980088A042F5DC01A8FFF782FF07
:104640000098001DFFF794FE00990020088068463E
:10465000FFF778FF2846FFF763FE7CBD38B50024DE
:1046600030B1FFF725FF009004886846FFF76AFF26
:10467000204638BD38B50D46002448B1FFF718FF75
:104680002946009000F018F804466846FFF75AFFE4
:10469000204638BD38B50D4601880024A94209D905
:1046A000406838B1FFF704FF009050F82540684695
:1046B000FFF748FF204638BD10B50024FFF7EAFF9A
:1046C00010B1FFF7F5FE0446204610BD70B50C464C
:1046D000054600F03DFFC1B223462846BDE87040C4
:1046E000002200F001B80000F0B52D271C68B0F1E1
:1046F000004F08D0002500280DDA661C1E602770C8
:104700004042012408E0661C01251E606FF0004055
:104710002770491E01E00024091BC9B22AB3491EB3
:10472000C9B222E00C46491EC9B2944205D1124CCE
:1047300027781C68661C1E602770104C54F8216096
:1047400090FBF6F4E4B20A2C11D804FB160011B960
:104750000DB1641CE4B20A2C02D10124491CC9B277
:104760001E683034771C1F6034700029DAD1196854
:1047700000200870F0BD0000EC25022074D101205B
:1047800010B5002807DD0A682B24531C0B60147039
:10479000096800220A7010BD70B506460D46144621
:1047A000104600F02DFE0300164804EB84010AD0E9
:1047B00050F8210041688068711A2A1ABDE87040DB
:1047C000184601F0F9BB00EB8104A268B24201D0A7
:1047D000012200E00022E368AB4201D0012300E0A7
:1047E00000231A430CD0236943B150F8210081689B
:1047F00040686A1A311A184601F060FBC4E9026584
:1048000070BD00006033022010B5C2B2CBB2D21A24
:1048100002D5C2F1000212B293B2C0F30722C1F373
:10482000072403FB03F3121B01D5524212B2000C02
:1048300092B2A0EB114002FB023200B2002801DA72
:10484000404200B280B200FB002010BD10B5002134
:10485000084600F041FE40F6FF725042BDE81040AD
:1048600013460146AFF300802DE9FC4107461C4684
:1048700015460E46042003F08FFE80461148C0689E
:10488000C16C006D0F4406440D440444ADF8007043
:10489000ADF80450ADF80260ADF8064068460AF085
:1048A00075FC07E023462A463146384603F0D8FB1C
:1048B0000AF020FC0028F5D1404603F06DFEBDE86B
:1048C000FC810000EC250220B0F90630B0F904208C
:1048D000B0F90210B0F90000FFF7C6BF2DE9F041B2
:1048E0001C4616460D460746022B02DB0020BDE89B
:1048F000F0811C20FFF752FD0028F8D00DB10561B2
:104900000AE0094A52F8241009B905E011460A687C
:10491000002AFBD10969016184618682002101605E
:104920004160C0E90217E2E71026022070B51D467B
:10493000FFF7D4FF040001D000F00EF8E068006833
:1049400020B90348006800EB85008465204670BDEF
:10495000F8250220FFF700BD70B590B38269022AE6
:1049600030DA1C4C54F8221019B944F822002FE018
:1049700019464B68002BFBD106E0CB68C5681B6865
:104980002D68AB4203DD09680029F6D11AE0C1B1F8
:10499000CB68C6681B683668B3420CD1838A012B8A
:1049A00005D008E01946DB681B68AB4203DB0B68E7
:1049B000002BF7D129B14B6833B118604A684260C7
:1049C00004E0FFE7012070BD44F822004860016068
:1049D000002070BD1026022011F03CBF022801DB30
:1049E00000207047054A52F8200004E0C2681268AF
:1049F0008A42F6D000680028F8D1704710260220BD
:104A0000022801DB00207047054951F8200004E02E
:104A1000C16809680029F6D000680028F8D17047FD
:104A2000102602202DE9F8431D461646884604004C
:104A30000CD0FFF73DFD0090006807686846FFF75F
:104A400081FD2B46324641462046B847BDE8F883F3
:104A500070B5044601F072FD051908E000F0AAFBEC
:104A6000052C01DD052000E0204601F059FD01F094
:104A700065FD2C1A002CF1DC70BD002200F011B88D
:104A80007FB51E4614460D46CDF80CD003AB002270
:104A90003146FFF729FE22462946684600F0C8F84D
:104AA0007FBD1FB503ABCDF80CD0FFF71DFE6846E8
:104AB00000F03EF81FBD10B504462DED028BB0EEA0
:104AC000408ABDEEC80A10EE100A00F041FD211A1E
:104AD000B5EEC08A491EF1EE10FA05D218EE100AA2
:104AE00010F1814F00D2491E002900DA0021B0EEFA
:104AF000480ABDEC028B2046BDE81040C9B2002236
:104B00000BF056BD7FB50C461546CDF80CD003A969
:104B1000FFF736FE002801DD641EE4B203AB2A462F
:104B20002146FFF7E1FD684600F002F87FBD000076
:104B30002DE9FC4706005BD000F06CFC3B4C814645
:104B40002068B0F9228000F099FC216807468A8C21
:104B5000D01B888441E000BF47F6FF71304602F069
:104B6000CBFB82460146304602F09CFB216805469D
:104B700091F82C0000F0030001283FD0022839D022
:104B800000204A8C101A4884ADF800006A1E1044B8
:104B9000ADF80400888CADF80200A9F101010844C9
:104BA000ADF806006A465146304601F0FBFE21682A
:104BB000BDF8020088845146304601F073FB06447C
:104BC00030780A281CD00D281AD0BDF800002168C2
:104BD00028444884307818B1761C30780028BBD13E
:104BE0002068818C39448184818D21F00301818585
:104BF000BDE8FC8705EBD5704010C2E72846C0E74A
:104C0000206890F82C1001F0030101290BD0022933
:104C100009D0018C418431780A29DBD1828C02EBE6
:104C200009018184D6E7A0F82280F4E7F825022064
:104C3000024B1B6859849A84FFF77ABFF82502203B
:104C40002DE9F04107460A4815460E460068B0F9BE
:104C50002C0040F0020001F0DDF904462A463146FE
:104C60003846FFF7E5FF2046BDE8F04101F0D2B934
:104C7000F825022047F6FF73AFF300802DE9FC41D1
:104C80001F46904606000D464FF0000416D065B151
:104C900008460AF0E7F8040007D0024629466846AD
:104CA00002F097FB68460AF0DDF83B46424629468B
:104CB000304601F0CFFE20460AF0D4F8BDE8FC8172
:104CC0002DE9FF4F85B090468A46070078D00C68E2
:104CD000DAF8046021B230B2401A401C029000F0B1
:104CE00099FB054618F00C0F1ED03846089A029919
:104CF00001F0F3FB08F00C01042904D0082902D0CC
:104D00000C2911D104E0311400FB1510401C09E0FE
:104D10002114C1EB264200FB1520401C00EBD07093
:104D200001EB600060F31F44504601F02FF9A5F13C
:104D3000010B04903846089A029902F0E7FC0390B0
:104D40004FEA244909EB0B0060F31F46CDE900460A
:104D50003846039902F0A6FA18F003010ED0012993
:104D600028D002290ED1BAF90420BAF90010521A3B
:104D7000101A00EBD07001EB600001E0BAF80000FF
:104D8000ADF800006A463846039901F00BFE38463C
:104D9000089A029902F0B0FC074409EB050060F3A1
:104DA0001F4438780028C5D1049809B0BDE8F04FF9
:104DB00001F0ECB8BAF80410081A401CE0E7FFE76D
:104DC00009B0BDE8F08F00002DE9FC4791460D4A7F
:104DD0009846DDE90A761268D36C1D18106D4418E8
:104DE00000200AF0D3F909E0CDE9007643464A46AF
:104DF00021462846FEF7EAFA0AF07CF90028F3D1AA
:104E0000BDE8FC87F82502207CB5064610480068FE
:104E1000C36C006D5D1884183188681E0844ADF8B5
:104E20000400ADF800507188601E0844ADF806001B
:104E3000ADF8024068460AF0A9F906E02246294684
:104E40003046FEF745FB0AF055F90028F6D17CBD47
:104E5000F82502207CB514460F4A1268D36C1E1840
:104E6000106D4518301BADF800003019ADF8040086
:104E7000281BADF802002819ADF8060068460AF0B4
:104E800085F906E0224629463046FEF76FFB0AF018
:104E900031F90028F6D17CBDF82502201CB50A4660
:104EA0000146684602F0A2FB2448BDF800100068E5
:104EB00030F84C2F1144ADF80010BDF80210828874
:104EC0001144ADF80210BDF8041002881144ADF889
:104ED0000410BDF8061080880844ADF80600684646
:104EE0000AF054F927E000BFBDF900400BE000BF15
:104EF000BDF90210204603F055F8BDF90610204612
:104F000003F050F8A41CBDF90400A042F0DABDF98A
:104F100002400AE0BDF90000214603F043F8BDF964
:104F20000400214603F03EF8A41CBDF90600A0428F
:104F3000F0DA0AF0DFF80028D6D11CBDF8250220EF
:104F40002DE9F04F0C46164987B00D68DDE9109841
:104F5000E96C0F18286D8D180619C418ADF810707B
:104F6000ADF81450ADF81260ADF8164004A80AF080
:104F70000DF9002811D0DFF82CB04FF0000ACDE970
:104F80000098CDE902BA2B462246394630460DF04C
:104F9000BCF90AF0AFF80028F1D107B0BDE8F08FF6
:104FA000F82502200D8000202DE9F04F164C87B027
:104FB0002568DDE91098EC6C2718286DA5184618AF
:104FC000C418ADF81070ADF81450ADF81260ADF81B
:104FD000164004A80AF0DAF8002811D0DFF82CB047
:104FE0004FF0010ACDE90098CDE902BA23462A46DE
:104FF000314638460DF089F90AF07CF80028F1D1E5
:1050000007B0BDE8F08F0000F82502204D7F00209A
:105010002DE9FC41104F04463B68D86C4518196DCA
:10502000ADF800500E198418ADF80440ADF80260D8
:10503000ADF8066068460AF0A9F808E0386822462C
:105040003146C06E0368284698470AF053F8002896
:10505000F4D1BDE8FC810000F82502202DE9F041E3
:105060000B4C2568EC6C2718286DA5184618C41839
:1050700000200AF08BF807E023462A4631463846DE
:10508000FEF7A6FA0AF036F80028F5D1BDE8F0815F
:10509000F825022070B5094A1268D36C1C18106DEF
:1050A000451800200AF072F805E029462046FEF770
:1050B00003FC0AF01FF80028F7D170BDF825022084
:1050C0002DE9FC411C4C2468E66C94F818C0371894
:1050D000206DACF1010C4518C418A7EB0C00164468
:1050E000ADF8000006EB0C00ADF80400A5EB0C00D9
:1050F000ADF8020004EB0C00ADF8060068460AF0BB
:1051000045F815E032462946384602F01FFF324680
:105110002146384602F01AFF621E691C384602F02A
:1051200075FF621E691C304602F070FF09F0E2FF55
:105130000028E7D1BDE8FC81F825022070B50E46B5
:105140008EB004460146154606A802F02CFABDF8BA
:105150001A30642B0CD1002000900AAB01AA214622
:1051600006A801F001FC2A46314601A8FFF74CFED3
:105170000EB070BD7CB50E4B1B68DC6C2618186D2C
:10518000ADF8006045188418ADF80460ADF8025021
:10519000ADF80640684609F0F9FF06E022462946C8
:1051A000304602F033FF09F0A5FF0028F6D17CBDA0
:1051B000F825022010B5002400E0012400F004F8D6
:1051C0000028FAD1204610BD064810B5006800241A
:1051D00010B1804700B1012408F056FF00B101244E
:1051E000204610BD182602202DE9FC410F4C2568F1
:1051F000EC6C2718286DA5184618C418ADF8007077
:10520000ADF80450ADF80260ADF80640684609F00C
:10521000BDFF07E023462A463146384602F020FF0C
:1052200009F068FF0028F5D1BDE8FC81F8250220CF
:10523000B0F90630B0F90420B0F90210B0F900005E
:10524000FFF7D2BF2DE9F04F2D4C87B02568EC6CED
:105250002D6D04EB000A04EB02096E1805EB030840
:10526000ADF808A0ADF80C90ADF80A60ADF80E806E
:1052700002A809F08BFF00283FD0A8EB0600401CD5
:105280000590109C0598B0EB440F32DBA9EB0A00A7
:10529000401CB0EB440F2CDB04FB04F027463546E2
:1052A00006EB040B04901AE0049807FB170002F0C9
:1052B000A2FA0AEB0401091A0191A9EB04010844BE
:1052C000024600902946019802F040FEDDE90020E8
:1052D000A91BA8EB010102F039FE6D1C7F1EAB4536
:1052E000E2DAA8EB04035B1E4A462946504602F068
:1052F000B7FE09F0FFFE0028C3D107B0BDE8F08F6C
:10530000F825022008B50B46002805D000928188B8
:105310008268C08800F001F808BD10B50828029C1A
:1053200030D008DC04FB01F401280AD0022813D095
:10533000042804D11CE0102828D020282CD00020DC
:1053400010BD04EBD30003F00701105CC1F10701AD
:10535000C84000F0010010BD04EB93000621105C72
:1053600001EA4301C1F10601C84000F0030010BD8D
:1053700004EB5300D907105C02D000F00F0010BD01
:10538000000910BD04FB0130105C10BD481004FB87
:10539000003032F8100010BD881004FB003052F8C5
:1053A000200010BD034951F82000C1688A6A082115
:1053B000104700001026022010B502F081FEBDE863
:1053C000104002F027BF000002490968C9694A6815
:1053D00000211047F8250220024A1268D26952685B
:1053E00010470000F8250220002801D008F08CBEEC
:1053F000704710B502F06CFEBDE8104002F00ABF25
:105400000021022802D2024951F8201008467047B4
:105410001C29022002480068C069407E70470000D5
:10542000F825022010B906480068C0690830027EDD
:105430008A70827E0A71427ECA7050F8082910472D
:10544000F825022001F024BF70B514460D4602F085
:105450008BFE002802D000202860206070BD01F083
:1054600075BF10B5044601F063FF01462046BDE854
:10547000104001F017BF01F061B800000A49002098
:10548000096891F82C2002F00C02042A07D0082A9F
:1054900001D00C2A02D1C869007E40087047C86953
:1054A000007E401E70470000F8250220017EC07E6D
:1054B00011FB00F070470000024951F8200000691C
:1054C0000068704710260220024951F82000006948
:1054D000406870471026022070B50D460EF032FB72
:1054E000044628460EF036FB204370BD124810B526
:1054F000016821F00101016010480121816010491B
:10550000016000680F49884200D0FEE701F00CFA04
:105510000D492E20087001F017F80C480EF028FCF9
:1055200013F050FC04460021084600F04FFD09F03E
:10553000FBF8204610BD0000002000E000300240D3
:10554000C2A507F4CDB5E8B5EC250220C431022090
:1055500010B5011E01DD024600E04A42064B012063
:1055600053F82040944202D8401C0A28F8DB002956
:1055700000DA401C10BD000074D101201CB520B918
:105580000C480068006E002812D0FEF791FF0090D2
:1055900044696846FEF7D6FF002C09D02046FEF786
:1055A00087FF019081688968884701A8FEF7CAFFD4
:1055B0001CBD0000F825022001490A4600F002B88F
:1055C00001F0FFFF2DE9F04387B015460C465FEA76
:1055D000000842D0002000F0E3FC8146204800682B
:1055E000066E4046FEF764FF00900068806900F098
:1055F0007DFC074640F6FF70001904D10098B0F911
:105600000440B0F906500098611E0289ADF80440CC
:105610001144ADF808104189681E0844ADF80650E1
:10562000ADF80A0008F062FB6846FEF78BFF01A8A0
:1056300009F0ACFD06E02A462146404600F03AFB60
:1056400009F058FD0028F6D1384600F04FFC3046EE
:1056500000F084F9484600F0A3FC07B0BDE8F083F1
:10566000F82502202DE9FE4F834619488A4619493C
:1056700000680C9E9846407C9146002751F82040D7
:10568000E1680968042903D02468002CF8D100E0FF
:1056900014B9FFF7B5F904460121E068C26A204653
:1056A0009047050011D02469A0688047401C02D1B2
:1056B000094C46F001060096CDE9015443464A469E
:1056C0005146584600F0D6F907463846BDE8FE8FE9
:1056D000F825022010260220ACD1012038B50400A4
:1056E00018D00D480068006EA04201D100F0F4FB14
:1056F0002046FEF7DDFE0090406908B100F0DBFEB9
:1057000000980068FFF726F96846FEF71BFF204661
:10571000FEF706FE38BD0000F82502202DE9FF4FF8
:1057200083B0454CDDF840B098468A4607002BD040
:1057300002A901A8FFF793FEB7F90060002E00DA76
:105740000026B7F90250002D00DA00252068A14696
:10575000407C02F01FFD01990144491EB7F9040085
:105760000EF0B6FC0446D9F80000407C02F018FDAB
:1057700002990144491EB7F906000EF0A9FCA71BC7
:105780007F1C441B641C0BE0206800263546407CCF
:1057900002F000FD07462068407C02F001FD04464F
:1057A000B8F1000F01D1C4F10008002F01DD002C79
:1057B00003DC002007B0BDE8F08F43463A46294697
:1057C0003046CDF800B0FFF74DFF5FEA000909D081
:1057D00000F090F88046484600F0C0F80027DFF857
:1057E0005CB01FE05146059888470120E2E7E11BC5
:1057F000414502DA484600F09BF83FB1EA193146CC
:10580000484600F0D5F84846FFF7B8FE51460598DF
:105810008847DBF8001009B1002088474846FFF7A9
:10582000CBFE4744A742E2DB4846FFF757FF002084
:1058300000F094F8BDE70000F82502204829022076
:1058400038B5002460B1FEF733FE009000680069AF
:105850008068804703F07EF904466846FEF772FED2
:10586000204638BD38B5FEF723FE00F1180400903D
:105870006846FEF767FE204638BD000038B50024B4
:1058800018B907480068006E38B1FEF711FE0090A5
:10589000B0F904406846FEF755FE204638BD0000CA
:1058A000F825022038B5002418B907480068006EB2
:1058B00038B1FEF7FDFD0090B0F908406846FEF7EC
:1058C00041FE204638BD0000F825022038B50024EE
:1058D00018B907480068006E38B1FEF7E9FD00907E
:1058E000B0F906406846FEF72DFE204638BD0000A0
:1058F000F825022038B5002418B907480068006E62
:1059000038B1FEF7D5FD0090B0F90A406846FEF7C1
:1059100019FE204638BD0000F825022010B50AF017
:105920006DFD002803D0BDE8104000F06DB810BD3B
:1059300038B50C4620B908480068006E00280AD027
:10594000FEF7B6FD0090B0F90A10A14200DD4481D7
:105950006846FEF7F7FD38BDF8250220F8B5134E6E
:1059600005003068046E0CD00CB100F0B5FA08F0F8
:10597000D7FA2846FEF79CFD009031680A6E1AB1EE
:1059800006E000F0A9FA0EE0D1E90223C1E91923EB
:105990000D660068FEF7E0FF6846FEF7D3FD02F0F3
:1059A00059FE02F0D9FD2046F8BD0000F82502207E
:1059B0007CB515460C4620B912480068006E0028D8
:1059C0001FD0FEF775FD2DB20090C58024B28480F3
:1059D00002F0C2FD0098406980B1FEF769FD009AAF
:1059E0000190B2F908108180B2F90A20C28011B189
:1059F0000AB10480458001A8FEF7A4FD6846FEF7C1
:105A0000A1FD7CBDF825022001490A4600F002B83C
:105A100001F0FFFF7FB515460C46060028D0FEF7C3
:105A200047FD40F6FF710190091903D1B0F9044018
:105A3000B0F906500289611E1144ADF80840ADF876
:105A40000C104189681E0844ADF80E00ADF80A50EC
:105A500001A8FEF777FD02A809F098FB06E02A46A8
:105A60002146304600F00EF909F044FB0028F6D13B
:105A70007FBD00002DE9FF4FDFF8E0B083B01C468A
:105A8000DBF80010DDE91060924600274B7C3A46B7
:105A90001299FEF723FF05005DD0286980688047D2
:105AA00003F058F881460AFB09F0C01D4FEAD00800
:105AB000FEF734FDF10705D1C11700EB917080109E
:105AC00000EB4000002C06DC1838B0FBF8F0644214
:105AD000A04200DC0446F00707D10090DDE9030195
