:020000040800F2
:10000000001600108D020008B9CB0008219D0008E1
:10001000B5CB000815100008852001087856341269
:100020000000000000000000000000009509010829
:10003000E7290008000000004DD10008B50A0108BA
:10004000A7020008A7020008A702000849DF00086D
:10005000A7020008A7020008A702000875330008DD
:10006000A7020008A702000839340008A702000808
:10007000A7020008A7020008A7020008A7020008BC
:10008000A7020008A7020008A7020008A7020008AC
:100090001910000827100008A7020008A70200088E
:1000A000A7020008A7020008A7020008A70200088C
:1000B000910C0108A7020008A7020008A702000887
:1000C000A7020008A7020008A7020008A70200086C
:1000D000A7020008A7020008A7020008A70200085C
:1000E000A702000819DA0008A7020008A702000802
:1000F000A7020008A7020008A7020008A70200083C
:10010000A70200084DE80008A7020008A70200089F
:10011000A7020008A7020008010D0108550D0108FB
:10012000A7020008A7020008A7020008A70200080B
:10013000A7020008A7020008A7020008A7020008FB
:10014000A7020008A7020008A7020008A7020008EB
:10015000A7020008A7020008A7020008A7020008DB
:10016000A7020008A7020008A7020008A7020008CB
:10017000A7020008A7020008A7020008A7020008BB
:10018000A7020008A7020008A7020008A7020008AB
:10019000A7020008A7020008A7020008A70200089B
:1001A000A7020008A7020008A702000800F002F852
:1001B00000F05CF80AA090E8000C82448344AAF1A5
:1001C0000107DA4501D100F051F8AFF2090EBAE8A3
:1001D0000F0013F0010F18BFFB1A43F0010318477B
:1001E0006C4603009C4603000A444FF0000C10F8D4
:1001F000013B13F0070408BF10F8014B1D1108BFA5
:1002000010F8015B641E05D010F8016B641E01F844
:10021000016BF9D113F0080F1EBF10F8014BAD1C94
:100220000C1B09D16D1E58BF01F801CBFAD505E0B2
:1002300014F8016B01F8016B6D1EF9D59142D6D30C
:10024000704700000023002400250026103A28BF34
:1002500078C1FBD8520728BF30C148BF0B60704738
:100260001FB52AF062F91FBD10B510BD00F0FDF9F1
:100270001146FFF7F5FF29F05FFB00F01BFA03B40E
:10028000FFF7F2FF03BC00F01FFA000009488047A7
:1002900009480047FEE7FEE7FEE7FEE7FEE7FEE768
:1002A000FEE7FEE7FEE7FEE704480549054A064B80
:1002B00070470000D50A0108AD01000800000010D9
:1002C000001600100006001000060010401ECAB202
:1002D00010F8011F8A4202D00029F9D1002070478E
:1002E00040EA010310B59B070FD1042A0DD310C8B3
:1002F00008C9121F9C42F8D020BA19BA884201D905
:10030000012010BD4FF0FF3010BD1AB1D30703D04C
:10031000521C07E0002010BD10F8013B11F8014B02
:100320001B1B07D110F8013B11F8014B1B1B01D11E
:10033000921EF1D1184610BD40EA0103024630B5C5
:100340009B0710D14FF0013400E008C208C91D1B03
:100350009D4315EAC41FF8D013F0FF0102F8011BFA
:100360000DD01B0AF8E711F8013B002B02F8013B06
:1003700005D011F8013B002B02F8013BF3D130BD51
:1003800010B5431C02E010F8011B71B18107FAD1CE
:100390004FF0013202C88C1A8C4314EAC211F9D012
:1003A000C01A0A0603D0C01E10BDC01A10BD0A0430
:1003B00001D0801E10BD0902FCD0401E10BD421E9F
:1003C00012F8013F002BFBD111F8013B002B02F882
:1003D000013BF9D17047032A40F2308010F0030C42
:1003E00000F0158011F8013BBCF1020F624498BF88
:1003F00011F801CB00F8013B38BF11F8013BA2F125
:10040000040298BF00F801CB38BF00F8013B11F09F
:10041000030300F06780083AC0F0088051F8043BFD
:10042000083A51F804CBA0E80810F5E7121D5CBFAC
:1004300051F8043B40F8043BAFF30080D20724BFDF
:1004400011F8013B11F801CB48BF11F8012B24BF73
:1004500000F8013B00F801CB48BF00F8012B7047C2
:10046000431A28BF9A427FF6B6AF032A10441144BC
:1004700040F2268010F0030F1EBF11F8013D521EFE
:1004800000F8013D10F0030F7FF4F6AF11F0030305
:1004900000F09F80083AC0F00B8051F8043D083A04
:1004A00051F804CD40F8043D40F804CDFFF7F3BF08
:1004B000121D5CBF51F8043D40F8043DAFF30080CD
:1004C000D20724BF11F8013D11F801CD48BF11F842
:1004D000012C24BF00F8013D00F801CD48BF00F811
:1004E000012C704710B5203AC0F00B80B1E81850CD
:1004F000203AA0E81850B1E81850A0E81850BFF40E
:10050000F5AF5FEA027C24BFB1E81850A0E81850AC
:1005100044BF18C918C0BDE810405FEA827C24BF00
:1005200051F8043B40F8043B08BF7047D20728BF8E
:1005300031F8023B48BF11F8012B28BF20F8023BDD
:1005400048BF00F8012B704702F0FF0343EA032283
:1005500042EA024200F069B84FF0000200B51346CB
:1005600094469646203922BFA0E80C50A0E80C50D3
:10057000B1F12001BFF4F7AF090728BFA0E80C5084
:1005800048BF0CC05DF804EB890028BF40F8042B7D
:1005900008BF704748BF20F8022B11F0804F18BFEA
:1005A00000F8012B7047704770477047431A28BF07
:1005B0009A427FF697AF104410F0030F11441EBF0C
:1005C00011F8013D521E00F8013D10F0030F7FF4B9
:1005D000F6AF103AC0F00A8010B531E91850103A61
:1005E00020E91850BFF4F9AFBDE81040530724BF0D
:1005F00031E9081020E9081044BF51F8043D40F8E3
:10060000043D12F0030F08BF7047D20728BF31F82E
:10061000023D48BF11F8012C28BF20F8023D48BF19
:1006200000F8012C70474FF000020429C0F012803E
:1006300010F0030C3FF492AFCCF1040CBCF1020FAC
:1006400018BF00F8012BA8BF20F8022BA1EB0C016A
:10065000FFF784BF5FEAC17C24BF00F8012B00F8DC
:10066000012B48BF00F8012B7047754600F028F8B1
:10067000AE4605006946534620F00700854618B08F
:1006800020B5FFF711FEBDE820404FF000064FF007
:1006900000074FF000084FF0000B21F00701AC46B7
:1006A000ACE8C009ACE8C009ACE8C009ACE8C009D6
:1006B0008D4670470446AFF300802046FFF7DFFD0C
:1006C00000487047742C022001491820ABBEFEE799
:1006D000260002007047002800DC404270470000FE
:1006E00038B5456804460146284611F0E9FC002863
:1006F0002AD02068304A0F2819D006DC0B2824D0D5
:100700000C2810D00E2851D12FE0112802D0282813
:100710004CD145E09268002A16D02146284601B007
:10072000BDE830401047214628465268F7E7284682
:1007300004F0D2FE0090406E0468684604F016FF94
:10074000002C01D02846A04738BD284604F0C4FE3E
:100750000090683004F020FE009803216C3004F013
:1007600023FE684604F002FF20E0E168486809685B
:100770000D2902D0202913D105E0002810DD2846DC
:100780001EF00DFF06E0002804DD2846BDE83840D5
:100790001EF005BF2846BDE8384002211EF015BFF7
:1007A000E06818B90021284600F0C2F92046BDE8EB
:1007B000384012F0B1B800008C0902202DE9FF4149
:1007C0000AAF70CF002703958DE8D00000F003F842
:1007D00004B0BDE8F081F0B585B00DF1280CBCE89F
:1007E000F0004FF0000C8DE8F01000F025F805B097
:1007F000F0BDF0B5044685B08069B4F90850668A4A
:100800000027CDE90265CDE900170490B4F90C008A
:10081000B4F91060C118B4F90A00B4F90E501044CC
:1008200033462A4600F008F80546616800F0B6F93C
:1008300005B02846F0BD0000F0B585B00C46DDE9F6
:100840000D514C31DFF850C0DDE90A67CDE902C136
:100850002146CDE9006711F0AFFF040018D004F085
:100860003BFE10222946049011F030FE04983022FD
:100870000A493430FFF736FE084D04990C3D2868CC
:10088000486604A804F072FE28684168204688473C
:1008900005B02046F0BD0000E106000898090220DE
:1008A000F0B5044680688B4989B051F820506068E3
:1008B00000287DD0052804D006287AD0122879D1C6
:1008C000AEE0E86900284FD095E80E008DE80F00F3
:1008D00004F110010FC908F02DFD002655F826007F
:1008E00007F0E8FCA169E8690A1A21690144606916
:1008F000304405F0CDFDA169E8690A1A2169014477
:10090000E069801B05F0C4FDE169E8690A1A6169C4
:1009100001442069304405F06DFEE169E8690A1A76
:1009200061690144A069801B05F064FE761C022EFB
:10093000D4DBA86807F0BEFCE069E9696669431A80
:1009400020694218521E3144801C05F021FFE169E4
:10095000E869A2690B1A61690144101A401C921ED1
:1009600005F016FFEE6913E05FF0000655F826006B
:1009700007F0A0FCE069831BA069821B60698119F4
:100980002069304405F0DCFD761C022EEEDB0226E9
:10099000D5E90301CDE900016169E069084443102C
:1009A000A069891C821B2069304405F03DFD02E0EE
:1009B00089E012E08AE0D5E90501CDE90001E369AB
:1009C00060690121184401EB6001A0699B1E821B34
:1009D0002069304405F028FD78E0206804F07CFDB3
:1009E0000490206813F064FB40B1A06808B10020B7
:1009F00008E00498006F28B1012003E00498406FDC
:100A000000B10220049901EB8000C56E04A804F037
:100A1000ADFD00231A462846216805F01FFA55E06F
:100A2000206804F059FD0490866EEEB3B0F95C7056
:100A3000A168D1B3032942D05FF0000100EB81012E
:100A4000406D0C6C07F04CFC204607F033FC05A809
:100A500006F0A8FABDF81410A88B0144ADF81410E4
:100A6000BDF81810081AADF81800BDF81600801C63
:100A7000ADF81600BDF81A00801EADF81A000498F3
:100A80005E30B0F90220B0F9001005A807F0EFFAC7
:100A900004A804F06BFD022007F064FC304604F06B
:100AA0001BFD3A4605A901E00BE006E0079005F0C2
:100AB00021FB07A804F05AFD08E00121BEE702214E
:100AC000BCE704A8F6E7206812F014FF09B0002084
:100AD000F0BD0000900503081CB5044600200090FE
:100AE0002346054A2B210190044805F0A9F8044942
:100AF0000860084600681CBDF5400208A4A802086A
:100B000054080220044A0349116004494A6A4862B1
:100B100010467047C80902208C090220980902205B
:100B200000294FF0100101D011F054BB11F0ACBA04
:100B30004FF480720029114601D011F04BBB11F027
:100B4000A3BA08B50023009300F001F808BD70B502
:100B500016460C46054619463046049A05F066F9D5
:100B6000024621462846BDE8704000F03FB800002C
:100B700038B50C46054604F0AFFC00900649846584
:100B80004166684604F0F2FC284612F0B3FE28469F
:100B900012F0B9FB38BD0000C80902202DE9FF4161
:100BA0000E4605004FF001041CD004F095FC0190A6
:100BB000876E01A8009704F0D9FC3146684608F01A
:100BC00059FF78B100980024B84208D0284604F0B4
:100BD00083FC01900099816601A804F0C7FC2846B7
:100BE00012F091FB04B02046BDE8F081F8B515463F
:100BF0000C46060013D004F06FFC0090032C0BD8B9
:100C000000EB84006C3004F0C7FB009800EB84001C
:100C1000C566304612F077FB684604F0A7FCF8BDC5
:100C2000F0B52DED028B85B00120AE490870AE49BC
:100C30000870AE4807F054FB4FF6FF7007F03AFB20
:100C4000AB4800782A283FD00EF004F9A849087074
:100C5000084600782A2804D1A6480DF0CBFFA44905
:100C60000870A34800782A2807D1A249B1F8421099
:100C700008040EF077FE9E4908709D4800782A28E7
:100C800005D14FF400600DF057FF9949087098485E
:100C900000782A2804D100200EF07EFE94490870C6
:100CA000934800782A2804D19349002028F038F985
:100CB0000AE0002291A193A007F0D2F98C480078B5
:100CC00005B0BDEC028BF0BD3222AA2192A005F046
:100CD000EFF99748FFF716FF11F03CFF074640F683
:100CE0000100002102221E23CDE90072CDE902108D
:100CF000282264219620FFF76EFD8E4908608EA1A0
:100D00008C480068FFF74AFF11F024FF07464FF4B4
:100D10000260002102221E23CDE90072CDE90210FB
:100D2000282264214FF49670FFF755FD834908602F
:100D300083A182480068FFF731FF11F00BFF0746DF
:100D4000804912F095FC01E005F0C2FC654800788E
:100D500018B1654800780028F6D17648006811F08F
:100D60000FFE7648006811F00BFE00207149086004
:100D70007249086004F01CFF5A48007800287DD1B1
:100D80005D4928F0CDF870A1704828F091F97049BC
:100D9000087008460078002871D10A2205216DA04C
:100DA00005F086F9534991F840106E4A52F8210037
:100DB00005F0FEF81E2205216BA005F079F94D48DB
:100DC000007D801C012101FA00F64A48C089401CC0
:100DD000704348490A7A0121914000FB01F400EE7A
:100DE000104AB8EE400ADFED650A80EE208A062040
:100DF000B0EE480A05F091F861A005F0D9F832226A
:100E0000052161A005F054F903216348008805F02D
:100E10005CF862A005F0CCF84622052161A005F03F
:100E200047F93449486B0A2105F04FF85A22052149
:100E300060A005F03DF92F49B1F84200052105F009
:100E400044F86E2205215DA005F032F9294991F898
:100E50002800022105F039F8002228A15CA007F043
:100E6000FFF801225EA1614828F070F83849087047
:100E700008460078002832D100BF01E02EE021E0D2
:100E80005A4804AB5A49C26828F04EF930490870F4
:100E90000846007810B904980028EED100BF00BFC2
:100EA000524827F078FF524808F03CFF4FF01040BE
:100EB0004568504908600146086880F3088800BF0B
:100EC000A8470CE000220DA14BA007F0C9F80021B3
:100ED000084628F025F81E49087000E000BF0448C5
:100EE0000078EDE6140002201500022068E10208F7
:100EF000D8010220600F0220A40F02204D657373F9
:100F000061676500534420636172642069732065E2
:100F100072726F720000000020424F4F5420465200
:100F20004F4D2053442043415244203F20000000B5
:100F3000A1080008AC00022059455300B00002206F
:100F40004E4F0000FD4D0208303A00000014022010
:100F5000DC01022020434152442054595045203A9C
:100F600020000000900002202053445F434152447F
:100F70002053495A45203A202000000000008049B3
:100F8000204D42595445000020534543544F5220B0
:100F900053495A45203A2000D601022020204259C8
:100FA000544500002052524F4455435420534E2084
:100FB0003A20000020524341203A2000204D414E6B
:100FC000554641435455524552204944203A200049
:100FD00053442063617264206973204F4B210000E9
:100FE000303A73746D33322E68657800DC1102205C
:100FF0000000039008ED00E0534420636172642018
:101000006973206E6F7420696E697469616C697AA6
:101010006500000000BFFEE710B5002000F09CFB5B
:1010200000F008F810BD10B5012000F095FB00F0AD
:101030002FFB10BD70B586B0FC4880780C287DD29F
:10104000DFE800F00607263E6A6BCAFEFDFCFBFAED
:10105000F1E24FF4C070F649088006208870012044
:10106000C870F4480178F2480171F2484178F048BC
:101070004171F1488178EE488171EF484178EC4840
:10108000C171ED48C178EA48017200F007FCD2E274
:10109000E6480079E7490870E44840794870002044
:1010A0000CF0EAFEE1488079E3498870DF48C079B6
:1010B0004870DE48007AC87000200CF079FEBAE271
:1010C0004FF4C170DA4908800120C870DB4801780C
:1010D000D7480171DA480178D5484171D94801787B
:1010E000D3488171D8480178D148C171D748006888
:1010F000010ECF488172D5480068010CCC4841727E
:10110000D2480068C1B2CA4801720820C849887034
:10111000084600F0C3FB8EE28DE24FF08040008C69
:1011200040F010004FF0804108840846008C40F0E9
:10113000010008840120C449086000E07AE2C44844
:101140000068002847D0C348007818B1C14800782B
:10115000012824D111200BF067F9002400E0641C61
:10116000BD488442FBDBBE200BF05EF904200BF08F
:101170003DF9BA4800880BF039F901200BF036F937
:10118000F0200BF033F900200BF030F900200BF0C9
:101190002DF90220AF4908700020B14908700020E5
:1011A000B04908604FF40161A948006811F0E8FCFB
:1011B0000646AD493046FFF7DBFC304612F024FB13
:1011C00040F61101A248006811F0DAFC0646A74972
:1011D0003046FFF7CDFC2EE29E48007818B19D48BE
:1011E0000078012824D111200BF01EF9002400E022
:1011F000641C99488442FBDBBE200BF015F90420E7
:101200000BF0F4F8954800880BF0F0F801200BF093
:10121000EDF8F0200BF0EAF800200BF0E7F80020E2
:101220000BF0E4F802208B49087000208C4908700C
:1012300000208C49086004E0D6E1B2E18CE15EE177
:10124000CCE07A4840797D4908600846006800286B
:101250005AD04FF08040008B40F004004FF08041A6
:1012600008830846808940F0020088812320C862F4
:10127000052088636D48C07972490860086800EBF2
:10128000D0714C1000EE104AB8EEC00ADFED780ABB
:1012900080EE201A774880ED001A6D48006800281B
:1012A00031D040F613016A48006811F069FC064627
:1012B000304611F06FFF40F614016548006811F0E8
:1012C0005FFC0646304611F0CAFB40F61701604845
:1012D000006811F055FC06465A48016830460BF08C
:1012E00022FE304612F0B9FB40F61601584800685D
:1012F00011F046FC06465348016830460FF084F969
:10130000304611F0B9FB59E0484880794C490860F3
:101310004FF08040008B20F004004FF080410883A4
:101320000846808920F0020088814548006800EB6B
:1013300080004FF47A71A1EB4000C906C8624048B2
:10134000006800EB800040F2CA31A1EB4000490781
:1013500088633F48006888B340F617013C4800683E
:1013600011F00EFC0646304611F014FF40F616014F
:101370003748006811F004FC0646304611F06FFB58
:1013800040F613013248006811F0FAFB06462C487B
:10139000016830460BF0C7FD304612F05EFB40F6A8
:1013A00014012B48006811F0EBFB06462448016845
:1013B00030460FF029F9304611F05EFB24480068F2
:1013C00058B140F618012248006811F0D9FB0646D2
:1013D0001A480168304601F0AAFA2CE14FF080402B
:1013E000008C20F010004FF0804108840846008CEB
:1013F00020F00100088400201F4908709FED1F0A9B
:101400001F4880ED000A00200F490860104800685E
:10141000002873D00F48007818B10E4800780128D2
:1014200050D111200BF000F800242CE034280220C9
:1014300028280220BC000220C0000220E001022077
:10144000E4010220E8010220F001022018640040BB
:1014500080030220DA01022020BF0200460202209F
:10146000DB010220241400401D500208A1080008DE
:1014700000004842EC010220F401022000000000BC
:10148000F8010220641C70488442FBDBBE200AF095
:10149000CBFF04200AF0AAFF6C4800880AF0A6FFE0
:1014A00001200AF0A3FFF0200AF0A0FF00200AF0BC
:1014B0009DFF00200AF09AFF022065490870002075
:1014C0006449087000206449086040F611016348CF
:1014D000006811F055FB064661493046FFF748FBAE
:1014E000304612F091F94FF401615C48006811F048
:1014F00047FB06465B493046FFF73AFB9BE05A48FC
:1015000040795949097940EA0120584908805848EA
:101510000078C870564841785448017155480178A0
:10152000524841715448006858B9534801784F48AF
:1015300081714F48017B4D48C17105204B4988702E
:1015400006E04D4801784948817104204749887078
:10155000464800F0A3F96EE04848006811F010FA20
:1015600011F0F8FA0546182040F618020023CDE9DC
:10157000032002930590032022231A460F21CDE970
:1015800000500A2008F05FFD3C4908600121080274
:101590000CF008FA3AA23B493848006808F090FC81
:1015A00049E031480079324908702F484079487045
:1015B0000020886088702C4880792E4908602A486D
:1015C000C07930B900202A4948602748007A08735A
:1015D00003E04FF0004026494860254A4FF48071EF
:1015E00000200CF06FFB26E02448006811F0C8F9D9
:1015F00011F0B0FA0546182040F618020023CDE994
:10160000032002930590032022231A460F21CDE9DF
:1016100000500A2008F017FD1849086000214FF417
:1016200080700CF0BFF916A217491448006808F042
:1016300047FC00E000BF00BF1448006840F0020013
:101640001249086006B070BD20BF020046020220A9
:10165000DA010220DB010220241400408003022072
:101660001D500208A1080008342802202828022062
:10167000940E0220180202207C050220480302205A
:101680000000000048B90B9070C20B901464004039
:1016900010B52748807B02280BD003DC38B1012825
:1016A0003AD105E0032805D00B2835D103E034E01A
:1016B00033E032E031E04FF4C4701E49088001206D
:1016C0008870C870084600F0E9F81B4806F008FE6C
:1016D0000522782119A004F0EBFC1A490968080ECC
:1016E000032104F0F2FB0522BE2117A004F0E0FC68
:1016F00014490968C1F30740032104F0E6FB052201
:101700004FF4827112A004F0D3FC0E490968C8B2EC
:10171000012104F0DAFB00E000BF00BF0948001F10
:10172000006840F010000749091F086010BD000064
:10173000342802202828022018F9020852454320A4
:1017400000000000186400405445432000000000E1
:1017500045524620000000004D4901EB0011096888
:1017600001F0020102295AD0494901EB00118968B0
:1017700000EB4002474B03EB82021171444901EB3D
:10178000001189680A0A00EB400103EB81014A71EC
:101790003F4901EB001189680A0C00EB400103EBA3
:1017A00081018A713A4901EB00118968090E00EB49
:1017B000400203EB8202D171354901EB0011C96887
:1017C000CAB200EB400103EB81010A72304901EB20
:1017D0000011C9680A0A00EB400103EB81014A725B
:1017E0002B4901EB0011C9680A0C00EB400103EB27
:1017F00081018A72264901EB0011C968090E00EBCC
:10180000400203EB8202D172214901EB00114968C9
:1018100001F00F0100EB400203EB8202D1701C4982
:1018200001EB0011096840F2FF7202EA515100EB2E
:101830004002184B23F82210154901EB00114968AA
:10184000090A00EB400203EB8202917030B11249A9
:10185000096821F01001104A116005E00E4909687D
:1018600021F002010C4A116040B10B49091F0968BF
:1018700041F02001084A121F116007E006490839AB
:10188000096841F02001044A083A116070470000DD
:10189000B0650040342802201464004010B50246B0
:1018A00000233048006800F08060B0F1806F01D103
:1018B000002113E02B48006800F00060B0F1006FD9
:1018C00001D101210AE02748006800F08050B0F102
:1018D000805F01D1022101E0022010BD1088440583
:1018E000214800EB011004601F4800EB0110406824
:1018F00020F00F041C4800EB011044601A4800EB74
:101900000110406894782043174C04EB0114606088
:1019100090790406507944EA0044107944EA0020A2
:10192000D47840EA0403104800EB01108360907AF9
:101930000406507A44EA0044107A44EA0020D4793C
:1019400040EA0403084800EB0110C360064800EBBE
:101950000110006840F00104034800EB011004602E
:101960000020BAE708640040806500407CB5214C47
:101970000546216831F8220F4A8D104408804888B6
:10198000CA8D10444880284605F0FCFA2168498C2D
:10199000ADF800104618284607F006FF3044401EF8
:1019A000ADF8040005F03AFB2168898CADF802100F
:1019B0000844401EADF80600684612F00DFA04E037
:1019C000284602F007FC12F085F90028F8D10A2D0C
:1019D00004D0BDF804002168401C4884206830F819
:1019E000221F428D891A01804188C28D891A418047
:1019F0007CBD0000E00802200B480068018990F8D7
:101A0000702011FB02F309490B80438913FB02F399
:101A10004B8083895B1C53435B1E8B80C089401CB9
:101A20005043401EC8807047E00802202C0D022061
:101A300070B52A254FF4803400E0641E24B1802064
:101A40000CF0D8FE0028F8D014B90325284670BD44
:101A500040F2FF500CF08AFE2846F8E72DE9F041ED
:101A600006462A274748056801E04648056815F0FC
:101A7000450FFAD015F0040F06D0032704200CF010
:101A800075FE3846BDE8F08115F0010F05D001273D
:101A900001200CF06BFE3846F4E70CF0A5FEB042D6
:101AA00002D010273846EDE740F2FF500CF05EFE02
:101AB00000200CF0BFFE04463348044201D13846F2
:101AC000E0E714F0004F01D01C20DBE714F0804F5A
:101AD00001D00920D6E714F0005F01D00A20D1E739
:101AE00014F0805F01D00B20CCE714F0006F01D020
:101AF0000C20C7E714F0806F01D00D20C2E714F06E
:101B0000807F01D00E20BDE714F4000F01D00F201C
:101B1000B8E714F4800F01D01020B3E714F4001FCD
:101B200001D01120AEE714F4801F01D01220A9E7E4
:101B300014F4002F01D01320A4E714F4802F01D057
:101B400014209FE714F4003F01D015209AE714F405
:101B5000803F01D0162095E714F4004F01D01720E4
:101B600090E714F4804F01D018208BE714F4005F45
:101B700001D0192086E714F0080F01D01A2081E760
:101B800038467FE7342C014008E0FFFD70B52A2578
:101B90000F48046801E00E48046814F0450FFAD0BD
:101BA00014F0040F05D0032504200CF0DFFD2846B7
:101BB00070BD14F0010F05D0012501200CF0D6FDF9
:101BC0002846F5E740F2FF500CF0D0FD2846EFE73D
:101BD000342C014070B52A250B48046801E00A48FE
:101BE000046814F0450FFAD014F0040F05D0032553
:101BF00004200CF0BBFD284670BD40F2FF500CF0F5
:101C0000B5FD2846F8E70000342C01402DE9F041ED
:101C100006460F464FF02A082248056801E0214891
:101C2000056815F0450FFAD015F0040F07D04FF0F6
:101C3000030804200CF09AFD4046BDE8F08115F041
:101C4000010F06D04FF0010801200CF08FFD404637
:101C5000F3E70CF0C9FDB04203D04FF01008404646
:101C6000EBE740F2FF500CF081FD00200CF0E2FDAC
:101C7000044614F4604F03D1200C38804046DCE762
:101C800014F4005F01D01320D7E714F4804F01D083
:101C90001020D2E714F4004F01D00F20CDE74046CA
:101CA000CBE70000342C014070B52A264FF4803574
:101CB0000F48046802E06D1E0D48046814F0450FDB
:101CC00001D1002DF7D115B114F0040F05D0032672
:101CD00004200CF04BFD304670BD14F0400F05D0D1
:101CE0002A2640200CF042FD3046F5E73046F3E767
:101CF000342C01401CB50020009001900548064A94
:101D000008210368054803F09BFF05490860084661
:101D100000681CBD5C0302209D51020874A60208E5
:101D20007405022010B586B010F014FF0446684810
:101D300040F6070100220223CDE90043CDE902214C
:101D400004904FF482734FF4CD720F213C2010F0B9
:101D500069FC6049086060495E48006810F09CFCBE
:101D60004120302140F618020023CDE90232CDE9AE
:101D7000041003205749096841233A22CDE9001095
:101D80004621642008F05FF95449086054A256497E
:101D90005248006808F094F854495048006808F028
:101DA000E4F908214D48006808F00DFA412030217F
:101DB00040F60E020023CDE90232CDE904100320E3
:101DC0004449096841233A22CDE9001000216420EA
:101DD00008F039F94649086046A247494448006876
:101DE00008F06EF841494248006808F0BEF9082141
:101DF0003F48006808F0E7F94120302140F615021D
:101E00000023CDE90232CDE90410032031490968ED
:101E100041233A22CDE900100021142008F013F9E3
:101E20003649086036A238493448006808F048F856
:101E30002E493248006808F098F908212F480068B8
:101E400008F0C1F94120302140F617020023CDE906
:101E50000232CDE9041003201E49096841233A22C9
:101E6000CDE900104621142008F0EDF8274908605C
:101E700027A228492548006808F022F81B49234872
:101E8000006808F072F908212048006808F09BF902
:101E9000302040F616020023CDE90320029305907E
:101EA00003200C4909683A231A46CDE90010C821DD
:101EB000142008F0C8F81849086012A217491648FB
:101EC000006807F0FDFF0348006806B010BD000081
:101ED000C95D02085C0302208766DF0070030220F0
:101EE000414C41524D000000B4B40B906C05030806
:101EF0006003022050574D008C900B906403022029
:101F000054494D4500000000787E0B906803022084
:101F100053440000A0A20B906C030220646C0B9051
:101F200010B586B072B6002006F084F910F012FEEB
:101F300004466D4911F09CFB6C4806F0D1F96C48E1
:101F4000006800287ED110F005FE044669484FF471
:101F5000006100220223CDE90043CDE90221049073
:101F60004FF482734FF4CD720F213C2010F05AFBD6
:101F70005F49086060495E48006810F08DFB4120B1
:101F8000302140F617020023CDE90232CDE90410DA
:101F900003205749096841233A22CDE90010002166
:101FA000F02008F050F85549086055A256495348AA
:101FB000006807F085FF55495048006808F0D5F8DB
:101FC00008214E48006808F0FEF84120302140F614
:101FD00004020023CDE90232CDE904100320444974
:101FE000096841233A22CDE9001000214FF4AA707C
:101FF00008F029F84649086046A248494448006864
:1020000007F05EFF41494248006808F0AEF8082139
:102010003F48006808F0D7F84120302140F615020B
:102020000023CDE90232CDE90410032030490968CC
:1020300041233A22CDE900105A214FF4AA7008F04A
:1020400002F800E02EE03649086036A237493448ED
:10205000006807F035FF2D493148006808F085F821
:1020600008212F48006808F0AEF8302040F605023D
:102070000023CDE903200293059003201C49096841
:102080003A231A46CDE90010C8214FF4AA7007F090
:10209000DAFF2749086027A227492548006807F08A
:1020A0000FFF03E01248006811F0D7FC234900201D
:1020B0000BF0AAFD2149887802230022052103F0B4
:1020C00007FF1FA003F074FF1C494878022103F0AA
:1020D000FCFE1CA003F06CFF1849C878022103F035
:1020E000F4FE62B606B010BDFD49020848050308BB
:1020F00034030220E56902088080FF0054030220B7
:10210000494D41474500000014240B906C0503081D
:102110003803022043414C494200000028360B900E
:102120003C0302205041494E540000003C480B90B3
:102130004003022000000000505A0B90C000022013
:102140002E0000002E3230001CB5002000900190BF
:102150000548064A08210368054803F071FD054952
:102160000860084600681CBD5C030220D96C0208A8
:1021700094A50208800302201CB500200090019065
:102180000548064A07210368054803F059FD05493B
:102190000860084600681CBD5C0302205D59020807
:1021A00054A70208140802200246094B9A4201D2A1
:1021B000084801E00648103811F0005F03D0064BD4
:1021C0000B40C36002E0044B0B408360704700008B
:1021D00010640240006002407D0F7D0F21B1026853
:1021E00042F00102026003E0026822F00102026094
:1021F000704721B1026842F02002026003E00268E9
:1022000022F020020260704730B503460A460020E3
:1022100000240A4DAB4201D2094901E007491039B7
:1022200012F0005F01D04C6800E00C68054D2C40B6
:10223000144201D0012000E0002030BD10640240B3
:10224000006002407D0F7D0F10B511F0800F09D0A6
:1022500022B1436943F08003436103E0436923F003
:102260008003436180290BD02AB1036801F01E046A
:102270002343036004E0036801F01E04A3430360EA
:1022800010BD000010B500220268134B1A40CC6844
:102290000B6823434C6923438C692343CC69234354
:1022A0000C6A23434C6A23438C6A23434C6B2343BD
:1022B0008C6B23431A430260426922F00702D1E982
:1022C0000B3423431A4342610B6943604B688360BC
:1022D0008B68C36010BD00003F801CF030B58FB02C
:1022E00004460D464FF0FA511A48FFF75DFF0021F2
:1022F0001848FFF773FF002004904FF00060009033
:102300000020039004200B9003200C9002944FF4C3
:1023100000000D90401208900011069000200990D6
:102320000D4801904FF400100E90401207900020CD
:1023300005904FF400300A9069460648FFF7A2FF67
:1023400020210448FFF755FF01210248FFF746FF0F
:102350000FB030BD58640240802C014030B58FB0C2
:1023600004460D464FF0FA511A48FFF71DFF0021B1
:102370001848FFF733FF002004904FF000600090F2
:102380004020039004200B9003200C9002944FF403
:1023900000000D9040120890001106900020099056
:1023A0000D4801904FF400100E904012079000204D
:1023B00005904FF400300A9069460648FFF762FF27
:1023C00020210448FFF715FF01210248FFF706FF0F
:1023D0000FB030BD58640240802C01402DE9FC4113
:1023E00000282ED0112916D0132910D080460C4673
:1023F00003F072F8009000F0DEFA0546684603F03C
:10240000B5F8204620F08AFE064600241CE0BDE810
:10241000FC4100F082BABDE8FC4100F067B92146FA
:10242000404600F0CBFA0190007820F077FEC7B26A
:1024300001A803F09BF8B74205D12146404600F0C1
:1024400076FABDE8FC81641CAC42E8DBF9E7F8B53C
:102450000C46050013D0002C11D003F03DF800907D
:10246000C66B684603F082F82046FDF789FF421CE0
:102470002146304603F09EF8284610F044FFF8BD90
:102480002DE9FF4145680446284603F025F80190F0
:10249000D0F8886001A803F069F80EB1012700E0C8
:1024A0000027214628460FF00BFE002855D0206853
:1024B0000F2856D006DC0B2862D00C2843D00E28FB
:1024C0002AD173E0112839D0212802D0262823D11F
:1024D00016E0E068416800291EDD00680D281BD168
:1024E000304609F04CF9002806DB304609F047F980
:1024F0000146284600F01BFA284600F077F86EE007
:10250000E068012809D00A2802D00B286AD111E01E
:102510000A21284610F0A9FF64E0304609F02FF99F
:1025200000285FDB304609F02AF90146284600F012
:10253000FEF954E0284600F059F853E0FFB9E0688E
:10254000007A90BB4EE0E06848B1007A08B1012102
:1025500000E00221284610F088FFBDE8FF8103213A
:10256000F8E72E46284602F0B7FF0290D0F8840024
:10257000056802A802F0FAFF0DB13046A84731E025
:10258000284602F0A9FF0090C06B03F053F80098B2
:10259000D0F8880010F0F4F90098D0F8940002F018
:1025A000D3FE684602F0E2FF1CE010E0E0684168FC
:1025B000002917DD016809290DD00A2912D01B292D
:1025C00010D0202903D02846FFF708FFC5E728468A
:1025D00000F098F806E010F0EDFAB04202D128467B
:1025E00011F012F9204610F097F9B6E738B504005B
:1025F00011D002F071FF0090D0F8880040B110F0C7
:10260000BFF900990020C1F88800204610F07BFE39
:10261000684602F0ABFF38BDF0B585B0B0F90850A0
:10262000468A84690296CDE903540027CDE9001754
:10263000B0F90C10B0F91050B0F90E40B0F90A0022
:10264000194410442B46224600F002F805B0F0BDB4
:102650002DE9FF410C461D46DDE90D71DDE90B3624
:102660006C31DFF880E0DDF828C0CDE900C3CDE9AA
:1026700002E14FF0FF33214610F09EF804002DD008
:1026800002F02AFF1022394600900FF01FFF009839
:102690003822154980F88C604C30FDF723FF124E2C
:1026A0000098361F3168C0F88410002180F890101F
:1026B000C586204600F05EF9684602F057FF02F03A
:1026C000B6FF0546204602F007FF0090C563684646
:1026D00002F04CFF306841682046884704B020462D
:1026E000BDE8F08181240008580A022010B5044694
:1026F00000F006F9010000D0411E2046BDE8104060
:1027000000F015B92DE9F14F9EB01E9800287CD03D
:1027100002F0E2FE08901E9810F047FB1A9008980D
:10272000B0F9367090F890101991C16B179190F82C
:102730008C90B0F93410079100F03DF9824608986A
:102740000BACB0F88E101591B0F982100A91C16CE3
:102750000991D0E90012CDE90512D0F894B000211A
:1027600000EB8102126D44F82120491C0329F7D3A4
:1027700000210EAD00EB8102D26D45F82120491CED
:102780000329F7D3002111AE00EB8102126F46F846
:102790002120491C0329F7D308A802F0E7FE1E9860
:1027A00010F095FA02F098FE1490D0F8008014A86A
:1027B00002F0DCFE4FEA284042420FFA88F0414224
:1027C00005A805F054FC5FEA897003D5BDF8160032
:1027D000C01B01E0BDF81A00ADF816001E9810F0FD
:1027E00076FA01461A98CDE9000702220292BDF955
:1027F0001630BDF91420002008F055FF80465FEA2E
:10280000C97009D04046199900E076E009F0CEF988
:102810000121404609F012F9002708E039461798CF
:1028200002F065FF0146404608F001FE7F1C574557
:10283000F4D30027394654F82720404609F023F9FD
:102840007F1C032FF6D30024214655F82420404650
:1028500009F030FA641C032CF6D30024214656F804
:102860002420404609F087F9641C032CF6D35FEA64
:102870000B001ED002F030FE30F8025B002401266F
:10288000169011E0169804F0070100EBD40006FA48
:1028900001F10078084201D0012200E00022214627
:1028A000404609F018F9641CAC42EBDB16A802F0B4
:1028B0005DFE4046159909F03CF94046099909F03A
:1028C000F6F840460A9909F0E5F9404610F09CFFF9
:1028D00040461E9909F03FF94046079909F07EF9F4
:1028E00001211E9810F0C1FD1E9802F0F5FD089020
:1028F000C0F8888008A802F039FE1FB0BDE8F08F4C
:1029000038B5002438B102F0E7FD0090B0F934404A
:10291000684602F02BFE204638BD10B50446FFF78E
:10292000EFFF411C2046BDE81040AFF3008038B5F2
:102930000C46050019D002F0CFFD009000F03BF8E6
:1029400000B1401E844200DD04460098B0F9341006
:10295000A1420BD08486684602F008FE284610F09B
:10296000D2FC0421284610F080FD38BD684602F0F4
:10297000FDFD38BDF8B5044602F0AEFD01460090FD
:10298000B0F9380010B9C86C04F0BCFB0099CA6AF1
:10299000B1F98030126800EB43001618084611F0B8
:1029A0000CFA0546684602F0E1FD3246294620460B
:1029B00010F0D9FFF8BDC06B02F08DBE38B50D46E2
:1029C000002402F089FD0090C06B294602F08FFEC2
:1029D0000546684602F0CAFD1DB1284602F07CFD9E
:1029E0000446204638BD70472DE9FC5F1546074672
:1029F000DFF89C8028440190D8F800001C460E4661
:102A0000C06E01EB04094946426801989047781B63
:102A10000090D8F800004946C06E42680098904780
:102A2000D8F8000006EB050B07EB0409C06E594609
:102A3000426848469047D8F80000A6EB050A514680
:102A4000C06E426848469047002C1ED0D8F800005F
:102A5000361B4546C06E314642680198904728684B
:102A60003146C06E42680098904728683C1B594622
:102A7000C06E42682046904728685146C06E426842
:102A800002B02046BDE8F05F1047BDE8FC9F0000A3
:102A9000E008022070B505460C46611F621D2846FD
:102AA00003F0A8FD691F6A1D204603F0F1FC042213
:102AB0002146284603F00EFC70BD30B58DB00446AB
:102AC0000D46032005F03CFC0020ADF80400052075
:102AD000ADF80600ADF808000021ADF80A100A2094
:102AE000ADF80C000521ADF80E100F20ADF8100068
:102AF0000021ADF812101420ADF814000521ADF836
:102B000016100F20ADF818000A21ADF81A10142085
:102B1000ADF81C000F21ADF81E100F20ADF82000FD
:102B20001421ADF822100A20ADF824000F21ADF8D1
:102B300026100520ADF828001421ADF82A10002039
:102B4000ADF82C000F21ADF82E100520ADF83000A7
:102B50000A21ADF832106FF07F4005F0ABFB2B4639
:102B600022460C2101A803F0DFFD0DB030BD70B589
:102B700086B005460E461446032005F0E1FB002012
:102B8000ADF80000ADF802000520ADF8040000210A
:102B9000ADF80610601D00B2ADF8080004EB44006B
:102BA00001B2ADF80A100520ADF80C0004EB4400AA
:102BB000400001B2ADF80E100020ADF8100004EB9B
:102BC0004400400001B2ADF8121020B2ADF814007C
:102BD00004EB440001B2ADF816106FF07F4005F031
:102BE00069FB33462A460621684603F09DFD06B080
:102BF00070BD70B586B005460E461446032005F03C
:102C00009FFB601D00B2ADF800000020ADF802008F
:102C100020B2ADF804000021ADF806100020ADF898
:102C2000080004EB440001B2ADF80A1020B2ADF880
:102C30000C0004EB4400400001B2ADF80E10601D22
:102C400000B2ADF8100004EB4400400001B2ADF852
:102C500012100520ADF8140004EB440001B2ADF8E9
:102C600016106FF07F4005F025FB33462A460621FB
:102C7000684603F059FD06B070BD2DE9FC470E46CD
:102C80005FEA000978D002F027FC009090F85470B9
:102C9000D0F85880456BC46C684602F067FCB8F108
:102CA000000F04D0314648464246904761E0122E5C
:102CB00018D006DC082E43D0102E3CD0112E06D1A1
:102CC00012E0132E21D01D2E43D01E2E3DD0202EDB
:102CD0004FDB17B1484614F0AEFAB1B248461BF0CC
:102CE0005CFC60B3611C27E04DB3284602F0F4FBA6
:102CF00005462146019005F0C1FC4419204605F027
:102D00007FFC01462346012210E0C5B1284602F0AF
:102D1000E3FB05462146019005F0B0FC441920462E
:102D200005F06EFC014623464FF0FF32484612F094
:102D300024FC01A81BE0611E484600F0F0FA18E0F0
:102D4000BCB1611E484600F0EAFA484614F073FA36
:102D50000FE0484602F0C0FB0090012F0ED0012189
:102D600080F854102146484600F0D9FA684602F02F
:102D7000FDFB484610F0C7FABDE8FC87002180F84B
:102D80005410F3E7FEB544680546204611F090F96B
:102D90000646294620460FF093F9002834D02868CB
:102DA0000E283DD004DC0B282FD00C284AD116E089
:102DB0000F2825D0A0F58070133843D1204610F09D
:102DC00023FC204600211DF029FF204602F084FB51
:102DD0000190C06F002110F0FDFB01A81DE0E86824
:102DE00060B1017A29B10168204600F009F901219A
:102DF00000E00221204610F038FB23E00321F9E730
:102E0000012120461DF00AFFFEBD204602F064FBB2
:102E10000090343002F0C0FA684602F0A7FB11E0DF
:102E200086B1E868416800290CDD0168092909D0EC
:102E30000A2907D00D2905D01B2903D02046FFF70A
:102E40001CFFFEBD28460FF067FDFEBDF0B587B044
:102E50000DF1300EBEE8F0104FF0000E8DE8F0508E
:102E600000F028F807B0F0BDF0B587B004460DF1CA
:102E7000080CD4E90567B0F90850408AACE8E100D5
:102E80000020CDE90010B4F90C00B4F91060C118AD
:102E9000B4F90A00B4F90E50104433462A4600F043
:102EA00009F8050002D0618A00F0FCF907B0284655
:102EB000F0BD00002DE9FF410D46DDE90D640F9FD7
:102EC000DDE90AC141F480515837DFF874E0CDE9FB
:102ED00000C1CDE902E729460FF06EFC05002AD0BB
:102EE00002F0FAFA1022314600900FF0EFFA009843
:102EF0001C2214496030FDF7F5FA0099012081F891
:102F00005500601C00D0012081F88000002C00DCFE
:102F1000082424B20C87002048874863641C684654
:102F200002F024FB214628461AF059FF18B928461A
:102F30000FF026FD002504B02846BDE8F081000012
:102F4000852D0008900A0220014880687047000023
:102F5000900A02202DE9FC4115460E0022D00028DF
:102F600020D002F0B9FA002701903770406BB0B161
:102F700002F0B2FA009006F0FBFB0146009805F063
:102F80007DFB0446681E844200DD0446224630462E
:102F90000099FDF720FA684602F0E8FA375501A8D3
:102FA00002F0E4FABDE8FC8138B5002430B102F04B
:102FB00093FA0090846C684602F0D8FA204638BD37
:102FC000F8B515460C4606000ED002F085FA0090C2
:102FD00038B1022C05D200EB84004567304610F072
:102FE00092F9684602F0C2FAF8BD10B5040006D0A6
:102FF00000F095F92046BDE8104010F084B910BDEE
:103000002DE9F04186B00C46060050D002F064FA7B
:103010000090406B98B302F05FFA03900098806EC6
:1030200005F05EF9804630460FF0BFFE0746039874
:1030300004F003F80546009890F8601001F00301D1
:10304000012916D002290DD0416EC06A00680844DB
:10305000241A641E039806F08BFB0146002C0FDA3D
:10306000002115E0781B401C00EBD070A4EB60043D
:10307000F0E7406E791B081A241A641CEAE713E093
:10308000AC4205DC02462146039806F011FB0146DE
:10309000304600F044F903A802F068FA404605F013
:1030A0001FF9304610F02FF9684602F05FFA06B0BB
:1030B000BDE8F0812DE9F8431D46DDE908491646D3
:1030C0000F465FEA000841D002F006FA00903C305B
:1030D0001F49C1611F4901620021C0E90371C0E9B4
:1030E0000065047280F81A900121017690F844700E
:1030F000684602F03BFA87B1284619F076FA054691
:10310000304619F072FA0CB1401C6D1C854200DD8E
:1031100028460146404600F031F8404620F0C2F80B
:10312000404602F0D9F9009000F0E4F80A49097825
:10313000884205D10098C16C4046491C00F0EFF868
:10314000684602F013FA404610F0DDF8BDE8F88357
:103150009D480108A5320208D408022038B50C4663
:1031600005000AD002F0B8F9009018B1846628462C
:1031700010F0C9F8684602F0F9F938BD7CB50C4684
:1031800006002ED002F0A8F90090B0F93810458F53
:10319000A14223D012DD406B80B102F09DF9019075
:1031A00006F0E6FAA04206DD2146019805F066FA2F
:1031B000019A0021115401A802F0D8F9684602F0E2
:1031C000D5F9611B491C30461AF009FE304602F061
:1031D00083F900900487304610F095F8684602F0B5
:1031E000C5F97CBD2DE9FC4788465FEA00094FF030
:1031F000000555D002F070F90090B0F93860446BCA
:10320000684602F0B3F90027B8F1000F3ED04CB188
:10321000204602F061F90190FDF7B2F8451C01A8C3
:1032200002F0A4F9404606F0A3FA0446B04200DDDD
:1032300034462146404605F021FA461C711B48469B
:103240001BF065FA08B3484602F046F90090406B5F
:1032500002F042F9324641460190FDF7BCF8019870
:10326000304400F8017C0098C464B0F938108C42F6
:1032700005D190F85410012901D1641EC464684638
:1032800002F074F901A802F071F906E000983430F8
:1032900002F082F800984787C764484610F033F878
:1032A000BDE8FC8738B50C4605000AD002F014F9D9
:1032B000009018B10466284610F025F8684602F020
:1032C00055F938BDF8B515460C4606000ED002F08B
:1032D00003F9009038B1022C05D200EB8400C566DA
:1032E000304610F010F8684602F040F9F8BD0022B0
:1032F0001FF028BD38B50446406B002568B102F0C8
:10330000EBF800900546E16C05F0B8F9284405F0AB
:1033100077F90546684602F029F9284638BD1CB5FC
:103320000C4602F0D9F80090406BF0B102F0D4F8EE
:10333000019006F01DFA009991F8542002B1012283
:10334000002C00DA0024844200DD0446B1F9380084
:10335000801AA04200DA0446C86CA04200D0CC64B7
:103360000020086501A802F001F9684602F0FEF8A5
:103370001CBD000010B5002400E0641C28488442F5
:10338000FBD30221274801F0A2FBB8BB0BF062FD82
:1033900025490870084600782A2804D123480BF0F4
:1033A00029FC21490870204800782A2807D11F49A4
:1033B000B1F8421008040CF0D5FA1B4908701A48FD
:1033C00000782A2805D14FF400600BF0B5FB1649B0
:1033D0000870154800782A2804D100200CF0DCFA87
:1033E00011490870104800782A2811D1104900208E
:1033F00025F096FD01200F49087009E0FFE70BF06A
:10340000E7F90021084625F08BFD012009490870E5
:10341000022000F021F8072009F0DCFB10BD0000BD
:1034200080F0FA0200040240D8010220600F02205E
:10343000A40F02203103022010B5002400E0641C18
:1034400004488442FBD3102000F006F80A2009F05B
:10345000C1FB10BD809698000149086070470000CC
:10346000143C0140002123498279002A3AD00A46BF
:10347000126803689A430B461A600A1D12680368B3
:103480009A430B1D1A60027911440A6803681A43B3
:103490000A60184A0832126803689A43154B0833C9
:1034A0001A601A1D126803689A43124B0C331A6093
:1034B0004279102A0ED11A1F126803681A430D4B65
:1034C00008331A601A1D126803681A43094B0C333B
:1034D0001A600DE00749427911440A6803681A43EB
:1034E0000A6005E0027911440A6803689A430A6099
:1034F00070470000003C014099B1102808D14FF0FE
:103500002042126E42F004024FF020431A661CE083
:103510000E4A126842F004024FF02043C3F88020A4
:1035200013E0102808D14FF02042126E084B1A40C9
:103530004FF020431A6608E0044A1268044B02EA7E
:1035400003024FF02043C3F880207047800000A0A2
:10355000FBFF0F0030B5002100220023446844F037
:10356000080485682C43C5682C4305692C434569CC
:1035700044EA4524856944EA4531C4692468C5693B
:103580006D6844EA0524C5692D8944EA0544C56986
:103590002D7B44EA0562046A2468056A6D6844EA82
:1035A0000524056A2D8944EA0544056A2D7B44EA11
:1035B00005630468102C05D14FF020442166A266F3
:1035C000E36607E0044C21604FF02044C4F88820F3
:1035D000024C236030BD0000800000A08C0000A0E1
:1035E0002DE9F04389B0984615460F4606004FF086
:1035F000000429D000F0F2F90446304600F0BEF98C
:10360000814603A9304600F01EFBF80706D0BDF93D
:103610001C00001B401B401C822109E0B807002849
:10362000BDF91800284402DA40F2022100E002212C
:103630000096CDE9018123461A464946FDF7BEF8BA
:1036400004460021FDF76CFA09B02046BDE8F0837E
:1036500010B50523FFF7C4FF0446054A0021FDF716
:1036600070FA0449204610F003F8204610BD00000F
:1036700051790108895102082DE9F047456804464F
:103680008EB00026284601F027FF00905C30B0F88D
:1036900020A0D0F80C90D0F82480C76A006800B150
:1036A0000668684601F062FF05E0796820468847B1
:1036B00000283DD13F68002FF7D12068142844D05E
:1036C00009DCA0F10B00072839D2DFE800F0BE3991
:1036D00089B434B4110020287ED004DC17283ED0F1
:1036E0001E282CD14BE026283CD02A2827D110E0D8
:1036F0002846E66801F0F0FE0190717A39B9317A16
:10370000012904D130F87C1F41F48071018001A8A7
:103710008FE0284601F0E0FE0090E16811B1C0F8AA
:10372000841002E0D0F88400E060684601F01EFFDB
:103730000EB0BDE8F087002E7DD02846B0477AE075
:10374000214628461CF04AFFF2E705A9284600F06A
:103750007AFAE0680699016007994160E8E7C4F8E1
:103760000C90E5E7E0680228E2D10C95E0680D9046
:1037700027200A900AA9A06810F0B4FED8E7E068F4
:10378000012804D00021284600F09BF9D0E74046EC
:103790000FF00EFE58B1404610F036F840460FF0DC
:1037A000E9FC88B1012140460EF014FD0CE04846CA
:1037B00010F078F88046284601F08EFE0090C0F8A0
:1037C0008080684601F0D2FE0121284600F079F998
:1037D000B8F1000FACD100E00EE00020E060A7E7F8
:1037E0005FEA0A7027D4E068C06820B3007A10B39B
:1037F000284610F009F81EE0E668E6B12946706830
:1038000010F03FFC20B1012128461EF00DFD12E012
:10381000002128461EF008FD2946306810F020FCE3
:1038200048B1284601F058FE03903168C0F8801076
:1038300003A801F09BFE214628460EF041FC00281B
:103840008CD020460FF068F872E7284601F044FE5D
:103850000090703001F0A0FD6846EAE7F0B587B04F
:10386000B0F908400DF10C0C0C9E87694568ACE876
:10387000F000448A0025CDE900150294B0F90C103F
:10388000B0F91050B0F90E40B0F90A0019441044D4
:103890002B46224600F002F807B0F0BD2DE9F047B4
:1038A0008AB00DF14C0CDDE91784BCE86006129F6C
:1038B00045F480556034DFF8B8C0CDE902C4CDE9E5
:1038C00000750EF079FF04004DD001F005FE3022A6
:1038D000494604900EF0FAFD049828222549343018
:1038E000FCF700FE0498234F5C30083FC0F80880C6
:1038F0000684002646620661C6627968016004A8F3
:1039000001F034FE05A9204600F09DF91A4841F265
:10391000827103960094CDE90110BDF91E00BDF936
:103920001A10BDF91C20431ABDF918005B1C121AAD
:10393000521C0EF041FF06467868416820468847D1
:10394000204601F0C9FD0490866604A801F00EFE31
:1039500042F20400054202D120460FF075F85146AC
:10396000204600F018F90AB02046BDE8F0870000B4
:1039700079360008B40A0220553F000838B5050022
:103980004FF000040CD001F0A7FD0090C06D0021A5
:1039900080680268284690470446684601F0E6FDC4
:1039A000204638BDF8B50E4605004FF000040CD097
:1039B00001F092FD0090C06D314680680268284693
:1039C00090470446684601F0D1FD2046F8BD00004E
:1039D0000148006870470000B40A022030B587B083
:1039E00005004FF000040ED001A900F02CF9284684
:1039F00001F072FD0090B0F95440684601F0B6FD48
:103A00000CB9BDF9044007B0204630BD30B50446BE
:103A10008BB0006801F060FD009090F87C10246A83
:103A2000006FC1F3C00508B101F056FD0690E068D3
:103A3000029020690390A088401EADF81000E08934
:103A4000ADF812002089401CADF81400608AADF872
:103A50001600BDF80800401CADF80800BDF80A00CB
:103A6000401CADF80A00BDF80C00401EADF80C007B
:103A70000098406B04F034FC009808AA02A9B0F941
:103A80005A30069804F0BAFF009800EB8500806B6E
:103A900007F0DCF8009800EB8500006C07F00EF9E9
:103AA00008AB02AA04A906980EF044FC684601F08F
:103AB0005DFD069810B106A801F058FD0BB000207E
:103AC00030BD002801D01EF0AFBB704738B50C46A2
:103AD00000280CD001F000FD0090816CA14203D0C1
:103AE0008464806E0FF00FFC684601F03FFD38BD26
:103AF0002DE9FC410D46070028D001F0EDFC0190B6
:103B0000C16D8C6800F006F980460198456301A8F4
:103B100001F02CFD226801213846904706462268B4
:103B200003213846904705462268002138469047D1
:103B30000446384600F0D7F92B463246414638460F
:103B4000009400F05FF938460FF0DDFBBDE8FC8122
:103B500038B50C4600280ED001F0BEFC009030F8BD
:103B60007C1F14B141F0100101E021F0100101802F
:103B7000684601F0FBFC38BD38B50D46040009D09D
:103B800001F0AAFC00900566684601F0EFFC2046B3
:103B90000FF0B9FB38BD7CB50D46040019D001F01B
:103BA0009BFC0090006F0190684601F0DFFC294605
:103BB00001A805F05FFF00280BD0204601F08CFC27
:103BC000009001990167684601F0D0FC20460FF093
:103BD0009AFB7CBD2DE9FC470D465FEA00094FF0DA
:103BE00000042DD001F078FC0190B0F95440A542BA
:103BF00023D000F08FF8804601980121A0F854509E
:103C0000C06D856848462A68904707462A680321A0
:103C10004846904706462A68002148469047054690
:103C2000484600F060F933463A464146484600951A
:103C300000F0E8F848460FF066FB01A801F096FC9A
:103C40002046BDE8FC872DE9F34F85B000270C46E0
:103C5000B846059801F040FC0090C06D01218568D0
:103C600005982A68904782462A680321059890475C
:103C700004902A6802210598904703902A68002141
:103C8000059890470646009810F097F883460098EC
:103C900010F09AF88146009890F83210890601D504
:103CA000B0F9588000F036F805460098C06E10B1A3
:103CB0000FF08CF8074625806780A4F804A0049ACA
:103CC000ABEB020006EB0802401E2A4420813A4476
:103CD000E280039BA9EB0302521E6281A4F80CA0B0
:103CE00020827019E681401E6082684601F03EFC29
:103CF000B4F90C000190B4F91000029002AA01A9D5
:103D0000059800F039F80198A0810298208207B048
:103D1000BDE8F08F10B50146002091F832209206E0
:103D200007D5B1F95400002803D1486B03F0EFF92F
:103D3000801C10BD70B58AB00C46054601F0CCFB66
:103D40000990C06D866809A801F010FC009534B197
:103D5000012C06D0022C0BD0032C04D10AE0182031
:103D600000E0162001907168684688470AB070BD6F
:103D70001520F7E71720F5E72DE9FC47904689461F
:103D8000044601F0A9FB0090C16D056868468E6885
:103D900001F0ECFB326800212046904706462046A1
:103DA0000EF0F6FE2F1404462DB227E001F094FB2E
:103DB0000190B0F90010B0F90420B0F90230491BAD
:103DC000521BDB1BB34212D190F82800000607D526
:103DD000D8F8000088420ADB491EC8F8001006E047
:103DE000D9F80000904202DC521CC9F8002001A85A
:103DF00001F0BCFB20460EF063FF0446002CD5D139
:103E0000BDE8FC872DE9FF4F83B00E460746DDF87D
:103E1000409001F061FB0190C16D8D68FFF77AFF62
:103E2000044601A801F0A2FB2A6801213846904708
:103E300083462A6803213846904782462A68002133
:103E4000384690470546B44207D105998B4504D1C1
:103E500006998A4501D14D4542D0A41B0026B046A3
:103E600038460EF095FE39E001F036FB0090806A8E
:103E7000010602D54FEA805002E0810528D50006F0
:103E8000002825DB24B12246114638460FF02BFBD3
:103E9000009890F8280000060AD50698A5EB0902BC
:103EA000A0EB0A0004FB1601761C38460FF0DBFA83
:103EB0000098008D80050BD50599A5EB0902ABEBA9
:103EC000010004FB080108F1010838460FF0CBFAA5
:103ED000684601F04BFB38460EF0F2FE0700C3D1F6
:103EE00007B0BDE8F08F70B586B0064601F0F4FA71
:103EF0000590D0E91A4505A801F038FB54EA050001
:103F000026D069463046FFF79EFEACB1BDF90620CB
:103F1000BDF9041020460FF07BFABDF90A00BDF987
:103F20000610421ABDF90800BDF90410521C411ACE
:103F3000491C20460FF017FD002D09D0BDF90600E1
:103F4000BDF90210421ABDF9041028460FF060FABC
:103F500006B070BD2DE9F0430446406885B00646C2
:103F60000EF0B5FE814601F0B7FA0090D0F88080DF
:103F7000876C456E684601F0F9FA2068172859D019
:103F800008DC0E2837D00F280BD0142852D0152863
:103F90003AD14FE01E2818D01F2827D0222833D12D
:103FA00046E06FF07040874204D0384606F04EFE7F
:103FB00001F0FEFD002D12D0D4E902122068CDE9F7
:103FC0000106CDE9031201A822E0E068002806D02E
:103FD0005FEA080006D0B04504D00FF015FC05B02C
:103FE000BDE8F08330460FF05DFC16E02146484600
:103FF0000EF066F8F3E7E0684168002904DD006828
:104000000928EFD00A2805D0A5B12046C4F80490AD
:10401000A847E4E730460FF04DFC0446484601F05F
:104020005BFA0090C0F88040684601F09FFAD6E73E
:10403000E760D4E720460EF06FFCD0E72DE9FC41A5
:1040400007460D4600262A240020009001900820F3
:104050005B49086010204860402088600020C860EC
:104060004FF48060086108460AF022FC1020FDF73A
:10407000F5FC04462A2C02D02046BDE8FC815148BC
:10408000008800044E49086037204860402088605E
:104090000020C8604FF48060086108460AF008FC00
:1040A0003720FDF7DBFC04462A2C01D02046E4E74C
:1040B0004548464908600820486030208860022052
:1040C000C860002008610120486108460AF066FBCC
:1040D00000203B4908603320486040208860002071
:1040E000C8604FF48060086108460AF0E1FB3320A5
:1040F000FDF7B4FC04462A2C01D02046BDE709E0B8
:104100004FF400100AF076FB20B10AF0CBFB4DF81B
:104110002600761C2E48006840F22A610842EFD043
:1041200008200AF067FB28B108200AF01FFB0424CE
:104130002046A2E702200AF05DFB28B102200AF027
:1041400015FB0224204698E720200AF053FB28B1F3
:1041500020200AF00BFB062420468EE74FF4007067
:104160000AF048FB30B14FF400700AF0FFFA072460
:10417000204682E740F2FF500AF0F8FA0098000665
:10418000009901F47F4140EA0120009901F47F0188
:1041900040EA1120009940EA116068600198000629
:1041A000019901F47F4140EA0120019901F47F0166
:1041B00040EA1120019940EA1160286020465CE73E
:1041C000C82702208C080220FFFF0F00DC270220F6
:1041D000342C014010B504460A280FD00D2C11D004
:1041E00009480068C0690168204688470748016897
:1041F000002907D02046BDE810400847BDE8104020
:1042000001F0B2BE10BD0000E00802200809022043
:104210002DE9FF5F8346DDE90E45984691468A46C3
:1042200004F5B47405F5B4754FF0FF3601274FF46B
:10423000B47003E0A4F5B474A5F5B4758442F9DA5A
:10424000002D65DD5A2C11DA002C00DA00245A2DDD
:1042500001DA284600E05A20CDE90040CDE9027697
:1042600043464A465146584613F0CAFB5A3D5A3C0B
:10427000002D4DDD5A2C14DA002C00DA00245A2DC2
:1042800001DA284600E05A20C4F15A01C0F15A0070
:104290008DE8430043464A4651465846039613F07C
:1042A000AFFB5A3D5A3C002D32DD5A2C12DA002C5D
:1042B00000DA00245A2D01DA284600E05A200DF1D8
:1042C000040C0094ACE8C10043464A4651465846A7
:1042D00013F096FB5A3D5A3C002D19DD5A2C14DA86
:1042E000002C00DA00245A2D01DA284600E05A207A
:1042F000C4F15A01C0F15A008DE8830043464A4692
:1043000051465846039713F07BFB5A3D5A3C97E7BA
:10431000BDE8FF9F2DE9F0430446C56887B090468D
:104320008946002003F0D9FF064625B1287910B14F
:1043300046F0020001E026F0020003F0CEFF206903
:10434000012558B1D4E902128DE82600039563884F
:104350002288046841464846A0471EE0124F134B8E
:10436000214638681B68427CE068984730B9E0888D
:10437000012801D0002001E03868806BA288E38822
:10438000A1680095CDE90410CDE90232019563885A
:1043900022884146484606F01DF807B03046BDE881
:1043A000F04303F09ABF0000E0080220D808022082
:1043B0002DE9F0478146884640F2C32050434FF430
:1043C0007A7190FBF1F502FB02F002EBD27100EB87
:1043D00061066D1C1746002341464846FEF704FB64
:1043E000012413E004FB04F007FB0700B04206DDE4
:1043F0003B46224641464846FEF7F6FA7F1E3B46BC
:10440000224641464846FEF7EFFA641CAC42E9DD1D
:10441000BDE8F0871CB50024019401AC009400F0C5
:10442000E7F81CBD2DE9FF4F83B0814606988A4608
:10443000A0EB0A08109E00200090A2EB090435684A
:10444000934654EA080018D02046FCF744F9074682
:104450004046FCF740F987420BDA20464446804646
:104460004846D14682465846DDF818B006900120ED
:104470000090002C07DD204606E007B04846BDE866
:10448000F04F00F03BB96042A0420AD04846D946FE
:104490006442C8F1000883464FF0FF37DDF818A0EA
:1044A00000E001275148B8F1000F11D004EBD4719E
:1044B0004FEA610B01DACBF1000B4C480068807EBB
:1044C00088B3002F02DA30682044306000257BE09A
:1044D00000990029016821D0897E11B1002780460A
:1044E00015E007B05A4649465046BDE8F04F06F081
:1044F000D5B828466D1C1EF003F838B9D8F800006E
:1045000009EB0701C06E4268504690477F1CA742E6
:10451000EFDD6D1E356007B0BDE8F08F8A7E1AB101
:104520000027804617E019E0C86E5A4651460368D6
:1045300007B04846BDE8F04F184728466D1C1DF0EF
:10454000DFFF38B9D8F8001009EB0700C96E4A68D8
:10455000514690477F1CA742EFDDDAE700250FE0C8
:1045600008FB05B090FBF4F101EB0A00009951B192
:104570001E4A09EB05011268D26E526890476D1C05
:10458000A542EDDDC7E7194909EB05030968C96EC6
:104590004A6801461846F1E708FB05B090FBF4F1C4
:1045A00001EB0A0001903068384430601DF0A8FF2C
:1045B00048B9009890B10D4809EB05010068C06E3C
:1045C0004268019890476D1CA542E5DD3068002FD8
:1045D00001DA20443060C01B30609CE7034909EBDE
:1045E00005000968C96E4A680199EBE7E0080220F6
:1045F0002DE9FF470F4640491646804609680C984A
:104600001D460A7E012A1CD0A8EB0600791B50EA41
:1046100001031CD0A2F101091FF026FD00F5806006
:10462000824605F04FFB00FB09F4504605F04EFBB7
:1046300000FB09F1002C0CDAC4F500708012404236
:104640000AE00090324639464046FFF7EBFEBDE8EF
:10465000FF8704F50074A012002904DAC1F5007187
:1046600089124C4202E001F500718C12002804DD31
:10467000411C01EBD171491003E000EBD0714910EE
:10468000401E00EBD0704210002C04DD601C00EBDB
:10469000D070401003E004EBD4704010641E04EBB3
:1046A000D47308EB0104ADF800403C18ADF80240AB
:1046B000A8EB02045B10B21AADF80440ADF8082074
:1046C0003144FC1AEA1AADF80C102844ADF80A205F
:1046D000ADF80E000023ADF806401A4604216846E6
:1046E00000F07AF83946404615F03CFF294630463E
:1046F00015F038FFABE70000E0080220064A136817
:104700001A7E012A05D0521E02EBD272521000F01E
:1047100005B8DA6E52681047E00802202DE9F05F14
:104720000646884640F2C32050434FF47A7190FB0E
:10473000F1F702FB02F002EBD27100EB610B2549AD
:1047400014467F1C09683244301BC96E0B68414611
:10475000984701253AE000BF05FB05F004FB040182
:1047600059451CDDBC4219DD1A4B06EB050AA6EBC8
:1047700005091B68AAF1010208EB0401DB6E09F1CF
:1047800001001B689847134BAAF10102A8EB040132
:104790001B6809F10100DB6E1B689847641E0D4819
:1047A00006EB040AA6EB0409006808EB0501524673
:1047B000C06E0368484698470648A8EB0501524674
:1047C0000068C06E0368484698476D1CBD42C3DD53
:1047D000BDE8F09FE00802202DE9FF4F40F6FF748E
:1047E0000F46664283B09B46814600210BE000BF26
:1047F00009EB8100B0F90200A04200DA0446B042A1
:1048000000DD0646491CB942F2DB68480068406991
:1048100000280DD0B0F906101A46A1EB0B01B142E9
:1048200000DA0E46B0F90200801AA04200DD04460C
:10483000B5E0DFF87CA100200546CAF8000089E059
:10484000781E854201DA6B1C00E0002309EB850C21
:1048500009EB8302BCF90200B2F90210A04245D173
:10486000A14215D139F92330059A39F9251003EB06
:10487000020C4E4A05981268084404EB0B01D26EF4
:104880006045136801DA62462BE00246604628E084
:104890002846A4464FF000087A1E0BE008B1401EDF
:1048A00000E0781E09EB8003B3F90230634504D1C0
:1048B00008F101089045F1DB2346A34249D0A3EB60
:1048C000040239F92500A1EB040C059B92EA0C02C5
:1048D00009D4364A184404EB0B011268D26E1368EF
:1048E0000246984735E00FF00DFF32E0A14230D08C
:1048F00001DBA04203DDA0422BDBA14229DCE04624
:1049000088420ADC0346A04223DC0846A14220DBA1
:10491000B8F900C0B2F9001008E00B46A14218DC5B
:10492000A04216DBB2F900C0B8F90010E21AA1EB00
:104930000C0151430029A0EB030202DD01EB6201EF
:1049400002E0A1EB6201491CC01A91FBF0F0604447
:10495000C9E76D1CBD42FFF673AF0598009004EBEC
:104960000B00019000208046054613E01149B8F184
:10497000000F31F915A009D0009901EB0A02084493
:104980000A490968C96E0B680199984788F00108BF
:1049900050466D1C064909688D42E7DB641CB44231
:1049A0007FF747AF07B0BDE8F08F0000E0080220B6
:1049B00040090220E029022010B5002003F076FC17
:1049C0006FF07F4003F076FC012003F0B9FC00207B
:1049D00003F0BEFC002003F0C5FC002003F07DFCCA
:1049E0000448006803F07CFCBDE81040002003F0A0
:1049F00083BC0000DC080220F0B50A460021002339
:104A0000002400BF3DE0012505FA01F3156805EA21
:104A100003049C4234D105684F000326BE40B543D1
:104A2000056015794E00B540066835430560157977
:104A3000012D02D01579022D16D185684F0003266D
:104A4000BE40B543856055794E00B5408668354314
:104A50008560456801268E40B54345604568967976
:104A60008E40B6B235434560C5684F000326BE4050
:104A7000B543C560D5794E00B540C6683543C560BD
:104A8000491C1029BFD3F0BDF0B5002300244D0709
:104A9000ED0E02FA05F3CE1000F1200555F8265070
:104AA0004E07F70E0F26BE40B543CF1000F120068B
:104AB00046F82750CE1000F1200555F8265045EA5B
:104AC0000304CE1000F1200545F82640F0BD024653
:104AD000002013690B4201D0012000E00020704744
:104AE000418370470183704770B50C46054600F05E
:104AF00015F9A8682168C16261680163A168416312
:104B0000490707D5D0E90021C0E90012D0E9022108
:104B1000C0E90212A18981842169002903D001DC46
:104B20004FF00001016270BD2DE9F0411E461746AD
:104B30008846054600F0F2F8AC686822414604F564
:104B40008470FBF7CFFC2846B8472846B047286951
:104B500080688047A062BDE8F081000010B504467F
:104B600000F0DCF8A0680E494C30114AC1650D49CF
:104B700081650D4901660D4981660021C166136892
:104B800043660C4BC0E91E315168416730F8261C62
:104B900021F0030120F8261C0749416410BD0000E4
:104BA000D9250208492A0208A12502083F1D02084A
:104BB00084090220E31E0208D124020810B504462D
:104BC00000F0ACF8A4680C489034102120650B4824
:104BD00060650B48A0650B48E0650B48E0600B483A
:104BE0002061206BA06654F8902920469047102041
:104BF000A0630748606410BDED90010831B401085E
:104C00005D4C00088D4D00086D1B020895350208AB
:104C1000CC32030870B50C46054600F07FF80A4810
:104C2000AA6814B1012C08D103E0084901600849C1
:104C300002E00849016008494160016842F8B01F7C
:104C40004068106170BD000084090220F71C020852
:104C5000591E02081F1D0208A51E0208F8B5846827
:104C600015460F4694F8260080074CD5D4F8FC3042
:104C7000204698470646D4F800312A463946204651
:104C80009847D4F8943005461BB1002201212046F4
:104C900098472069B04201DD012000E00020A169B1
:104CA000B14201DA012100E0002108436169A94213
:104CB00001DD012100E000210843E169A94201DA98
:104CC000012100E0002108430AD06068401E0090E6
:104CD0002368D4F8A4705B1E002211462046B84712
:104CE000D4F8A8302A46314620469847D4F89C107C
:104CF00020468847D4F8943005466BB10122002144
:104D00002046984708E0D4F8A83020469847D4F8C1
:104D10009C102046884705462846F8BD70B50446D5
:104D20008068002812D14FF4B875284600F04AFB7D
:104D30002A460021A06004F049FFA0680221C18436
:104D40000121046401620249C0F8041170BD000031
:104D5000554D000810B590B0044620220A49684617
:104D6000FBF7C0FB08492022203108A8FBF7BAFB5B
:104D7000606B5DF82010C4F8FC1008A951F8200001
:104D8000C4F8000110B010BD0CD602082DE9F8439C
:104D900084689846154694F826000F46800740D54B
:104DA000D4F8FC30204698470646D4F800312A460D
:104DB00039462046984705462069B04201DD01206A
:104DC00000E00020A169B14201DA012100E00021E8
:104DD00008436169A94201DD012100E00021084387
:104DE000E169A94201DA012100E0002108430AD06B
:104DF0006068401E00902368D4F8A4705B1E0022F7
:104E000011462046B847D4F8A8302A4631462046F5
:104E10009847D4F8A02001B041462046BDE8F043B1
:104E20001047D4F8A830F2E72DE9F04FDFF828B1A9
:104E300091B04FF0FF35DBF80030B3F92210069146
:104E4000DE69B3F92490F469A189814206D8E28928
:104E5000824203D3471AD4F8008012E0D4E90181DA
:104E600000296FD00A8882426CD84D88854269D368
:104E7000801A82B2486800EB8200B0F90070B0F985
:104E80000250781C5ED0307EA17C10FB01FA217CA0
:104E9000CDE90801B3F92A60304605F021FFC0B220
:104EA0000E90DBF8000007FB0A81A37C826B0127D0
:104EB000CDE90412CDE90273C069DDE90832C17E93
:104EC000807ECDE900014946069805F083FA681C0A
:104ED00018D046F0020005F003FFDBF80000A37CC9
:104EE00005FB0A81826BCDE90273CDE90412C0692A
:104EF000DDE90832C17E807ECDE900014946069891
:104F000005F068FADBF800005D46C069417E007E6E
:104F1000814214D9022E12D086F0040005F0E0FE82
:104F20002868C069027EC37E12FB0391437E857EA2
:104F3000099A06984B4402FB050205F0D9FB0E982E
:104F400005F0CEFEDBF80000627C418C1144418408
:104F500011B0BDE8F08F0000E008022004480068AE
:104F6000C069C06909B1027C0A60407C70470000DA
:104F7000E0080220022008807047C06982898A42C6
:104F800002D8C2898A4210D2806880B102888A42DF
:104F90000DD843888B420AD3406800EB8100A0EB18
:104FA0008200B0F90000002801DB012070470020DA
:104FB000704700002DE9F0432F4C034687B020686E
:104FC0001946B0F92A80C069C06900F084F8002849
:104FD0004ED041680088181A01EBC0054046AE78F3
:104FE00005F07EFE814620686A680123816BCDE969
:104FF0000236CDE90421C169CB7E8A7ECDE900234A
:105000000B7EB0F924102A78B0F9220005F0E2F9FD
:105010002068C069477E067EB7421DD9C07E4743DF
:105020004643B8F1020F17D001F0C1FF804601F0EE
:10503000A1FF03F03FF921682A78CB69B1F922007A
:10504000DB7E12FB0302B1F92410CB19314405F0C9
:105050004FFB404603F02EF9484605F041FE20681C
:105060006A78C369B0F922109B7E12FB0311418458
:1050700007B0BDE8F0830000E008022030B50F4C17
:1050800005460B4620682946C069C06900F023F830
:10509000002811D04168008824682A1A0120E46998
:1050A00000EBC200085CA47E10FB04F0002B03D0D0
:1050B00011F832106143196030BD0000E008022091
:1050C00001200880704700B5C06900F004F800288E
:1050D00000D0012000BD06E002888A4202D8428842
:1050E0008A4202D280680028F6D1704710B516F0C7
:1050F000FDFD0448016A04480068C16600F108012A
:10510000416110BD000D0220E00802202DE9FE4F94
:1051100005460C9C0E464FEA4400A2EB050198465A
:105120001746091A61D4A8EB0601081A5DD4DFF806
:10513000C0A04FF00009DAF8000090F8711019B91A
:1051400010F8709F042101700EF0E4FD05440EF08C
:10515000EFFD06440EF0DEFD07440EF0E9FDDAF83F
:10516000002000EB080192F8710030B992F870004D
:105170004543464347434143444392F870007F1EF2
:1051800000EB07084718761E284600F041F8ADF8F6
:105190000400404600F03CF8ADF80800304600F04E
:1051A00037F8ADF80600384600F032F8ADF80A00DE
:1051B00001A80EF011FE0EE04146284600F07CF8F2
:1051C0003B46424631462846009416F055FAFFF712
:1051D0008DFF0EF07FFD0028EED1DAF8000090F888
:1051E0007110002901D180F87090BDE8FE8F000099
:1051F000E008022008B50091B0F90630B0F90420AB
:10520000B0F90210B0F90000FFF780FF08BD000000
:105210000449096891F8701009B190FBF1F000B2EF
:1052200070470000E00802202DE9F0411E4C0546C1
:105230000E462068002768B905F037FBE06100F0F2
:10524000C1F8206068B304F12401184808600846DA
:1052500004F008FC002D00DA0025E169731B4A1EEA
:105260002046934201DD6E18761EAE4201DA2E46CC
:1052700001270F4C2268D16E4B68836301620A4993
:105280000C4B34310B60D16602C862C010F04CFB8D
:10529000FCF7B2FB044821682C3048613846BDE871
:1052A000F0810127D6E70000000D022041F7010838
:1052B000E0080220F5A30108044A126892F8702061
:1052C00090FBF2F091FBF2F1FFF7AEBFE008022095
:1052D000F8B505460C000DD0084600F015F806009C
:1052E00010D000F0F9F8224600902DB12946FBF7C6
:1052F00072F804E00020F8BD002104F067FC684665
:1053000000F034F93046F8BD002801D00FF0C8BBDA
:10531000704738B50546FFF7F7FF040009D000F0E5
:10532000DBF82A460021009004F050FC684600F0AB
:105330001DF9204638BD0000024A106021F003002C
:10534000506070470829022010B5002814D0044688
:105350000A48006B10F8341000290DD002290BD236
:10536000042101EBC401415848680FF0E7F92046D9
:10537000BDE810401CF0C8BB10BD00004C28022046
:10538000002805D0034A916B016001B14860906329
:10539000704700004C28022010B504460068FFF753
:1053A000D3FF0020206010BD70B50D4606460024D6
:1053B00005E000BF06EB8400FFF7EEFF641CAC4283
:1053C000F8DB70BD2DE9F041044619F03FF826489E
:1053D000E41C24F00305C16B2D1DA94200D90D4624
:1053E000846B13E054F8042CAA420ED184B12168D6
:1053F00009B162684A60616809B122680A60826B1B
:10540000A2422ED1216881632BE02468002CE9D1CF
:105410008046416B80680F1857F8040C3E1A3068BC
:1054200038B100201CF04CFE57F8040C3E1A3068CE
:10543000B8B97068A84214DB3044441B30461CF0F5
:10544000F7FDD8F80810491BC8F80810D8F8101054
:105450002944C8F8101070683146401B0FF06EF9EF
:1054600020C42046BDE8F0814C28022010B500245D
:1054700018F0ECFF0C490F2001EBC002126C1AB1BE
:1054800001EBC000006C08E0401EF5D508E0416863
:10549000A14200D90C46806810B180680028F6D17E
:1054A000A4F10C0010BD00004C28022002488168C5
:1054B0000068081A704700004C280220002138B10B
:1054C0000449042202EBC000096B085841680C39FA
:1054D000084670474C28022005498A69521C8A6197
:1054E000096B01EBC0010A78521C0A7000F056B833
:1054F0004C2802207CB506460C460846FFF704FF00
:1055000005001CD0DEB13046FFF7D8FFA04200DA1C
:1055100004462846FFF7E0FF00903046FFF7DCFF27
:105520000146019022460098FAF755FF684600F0C0
:105530001DF801A800F01AF83046FFF705FF2846CD
:105540007CBD000010B5FFF791FF64220649B0F55D
:10555000800F04D990FBF2F0C969484310BDC969B6
:105560004143B1FBF2F010BD4C2802200A49026809
:105570000B6B52F8082C03EBC2021378022B03D3F7
:105580008B690BB15B1E8B611178491E1170002174
:1055900001600846704700004C280220002806D011
:1055A0000349042202EBC000096B08580830704719
:1055B0004C2802202DE9FC414FF000060B465FEA23
:1055C000000834462BD032B111461846FFF780FE52
:1055D000060000D101244046FFF77EFF00900788B7
:1055E00045686846FFF7C2FFCCB9B900091D2846D7
:1055F000FFF780FF050015D0FFF76EFF019040F820
:10560000276001A8FFF7B2FF4046FFF765FF009053
:1056100045600188491C01806846FFF7A7FF2046C6
:10562000BDE8FC813046FFF78FFE0124F7E7082034
:10563000FFF76FBE7CB5050023D0FFF74DFF00904C
:105640004068C0B1FFF748FF0024019005E00198D1
:1056500000EB8400FFF7A0FE641C00980088A042C5
:10566000F5DC01A8FFF782FF0098001DFFF794FE0C
:105670000099002008806846FFF778FF2846FFF76A
:1056800063FE7CBD1CB50C46FFF726FF0090018829
:10569000A1421CD94068D0B1FFF71EFF019000EB7A
:1056A0008400FFF779FE00990888401E80B20880C8
:1056B000401E019906E000BF01EB8402526841F8E8
:1056C0002420641C8442F7DD01A8FFF74FFF6846E1
:1056D000FFF74CFF1CBD38B5002430B1FFF7FCFECE
:1056E000009004886846FFF741FF204638BD38B572
:1056F0000D46002448B1FFF7EFFE2946009000F068
:105700005BF804466846FFF731FF204638BD38B5E0
:105710000D46002448B1FFF7DFFE2946009000F057
:105720005DF804466846FFF721FF204638BD2DE9A5
:10573000FE43984691460D460024D0B3FFF7CCFEB9
:1057400001900788466801A8FFF710FFBD4230D2DC
:105750007EB33046FFF7C0FE009050F82540684603
:10576000FFF704FF24B12046FFF7A8FE404511D003
:105770004046FFF7CEFD04000CD03046FFF7ACFEEC
:1057800000EB850500902846FFF706FE68462C6072
:10579000FFF7ECFEB9F1000F0BD054B12046FFF734
:1057A0009BFE424649460290FAF715FE02A8FFF713
:1057B000DDFE2046BDE8FE8338B50D460188002495
:1057C000A94209D9406838B1FFF786FE009050F829
:1057D00025406846FFF7CAFE204638BD10B50024B4
:1057E000FFF7EAFF10B1FFF777FE0446204610BD31
:1057F00070B50C46054602F00BF8C1B223462846A8
:10580000BDE87040002200F001B80000F0B52D277F
:105810001C68B0F1004F08D0002500280DDA661C86
:105820001E6027704042012408E0661C01251E60AE
:105830006FF000402770491E01E00024091BC9B227
:105840002AB3491EC9B222E00C46491EC9B294428D
:1058500005D1124C27781C68661C1E602770104CFE
:1058600054F8216090FBF6F4E4B20A2C11D804FB42
:10587000160011B90DB1641CE4B20A2C02D1012446
:10588000491CC9B21E683034771C1F60347000296F
:10589000DAD1196800200870F0BD0000D408022099
:1058A0007009030810B5002807DD0A682B24531C73
:1058B0000B601470096800220A7010BD08B5134609
:1058C0000A4600906946024800F004F808BD00004E
:1058D000B75900083EB51446029100906A46194631
:1058E000204611F051FD3EBD3EB5069C0290CDE92B
:1058F000003413460A4602A9014800F003F83EBDF1
:10590000B75900082DE9FF410A4D1E4617462C687D
:10591000DDE90A32E46B2468CDE90020039101AA95
:105920003146384611F01CFE2968C96B0C6004B082
:10593000BDE8F081E008022008B569460090024801
:1059400000F004F808BD0000B75900081FB5012396
:10595000039101906A461A2101A800F093F810B152
:10596000012004B010BD009812300090684604F089
:105970003AF8F6E708B569460090024800F004F8E6
:1059800008BD0000B75900081FB50123039101901D
:105990006A461A2101A800F075F810B1012004B080
:1059A00010BD009816300090684604F01CF80028DE
:1059B000F5DA4042F3E70068184408601046704783
:1059C0002DE9F8431D46DDE90846174688460123C0
:1059D0006A46362100F056F898BB684603F0FAFF95
:1059E0008146009810300090684603F0FCFFC8F82C
:1059F0000000684603F0F7FF38600098801C0090B4
:105A0000684603F0E7FF2880684603F0ECFF30604B
:105A100000980C300090684603F0E5FF2A884FF4A8
:105A20008071082A13D005DC5AB1012A0AD0042A51
:105A30001ED109E0102A1ED0182A1CD0202A17D106
:105A400019E015E0022200E01022226000E021604F
:105A5000A0B1206088420BDCA9F59A41423907D1F8
:105A6000306868B101280BD0022809D0032807D07C
:105A70000120BDE8F88300202060EDE72068E9E719
:105A80000020F6E72DE9F04117460D4604460BB11C
:105A900000206060D4E901300A4626683946B047E4
:105AA000A84202D00120BDE8F0816068284460600F
:105AB0000020F8E7F8B50D46074600240E4E16E024
:105AC00000236A4604213846FFF7DCFF08B10120B5
:105AD000F8BD0098027841788378100440EA0120EC
