:020000042000DA
:10000000001600108D020020518F00204174002046
:100010001D8E00209D0F002039D000200000000020
:10002000000000000000000000000000D9BD00201A
:100030007D21002000000000BD940020DDC00020D4
:10004000AB020020AB020020AB020020259E002066
:10005000AB020020AB020020AB020020592200209E
:10006000AB020020AB020020C5220020AB02002022
:10007000AB020020AB020020AB020020AB0200204C
:10008000AB020020AB020020AB020020AB0200203C
:10009000A10F0020B10F0020AB020020AB02002016
:1000A000AB020020AB020020AB020020AB0200201C
:1000B00079C20020AB020020AB020020AB0200207E
:1000C000AB020020AB020020AB020020AB020020FC
:1000D000AB020020AB020020AB020020AB020020EC
:1000E000AB020020F5980020AB020020AB020020FC
:1000F000AB020020AB020020AB020020AB020020CC
:10010000AB020020AB020020AB020020AB020020BB
:10011000AB020020AB020020E9C200203DC300205A
:10012000AB020020AB020020AB020020DD1E00204D
:10013000AB020020AB020020AB020020AB0200208B
:10014000AB020020AB020020AB020020AB0200207B
:10015000AB020020AB020020AB020020AB0200206B
:10016000AB020020AB020020AB020020AB0200205B
:10017000AB020020AB020020AB020020AB0200204B
:10018000AB020020AB020020AB020020AB0200203B
:10019000AB020020AB020020AB020020AB0200202B
:1001A000AB020020AB020020AB02002000F002F8FE
:1001B00000F05CF80AA090E8000C82448344AAF1A5
:1001C0000107DA4501D100F051F8AFF2090EBAE8A3
:1001D0000F0013F0010F18BFFB1A43F0010318477B
:1001E00094F60100C4F601000A444FF0000C10F828
:1001F000013B13F0070408BF10F8014B1D1108BFA5
:1002000010F8015B641E05D010F8016B641E01F844
:10021000016BF9D113F0080F1EBF10F8014BAD1C94
:100220000C1B09D16D1E58BF01F801CBFAD505E0B2
:1002300014F8016B01F8016B6D1EF9D59142D6D30C
:10024000704700000023002400250026103A28BF34
:1002500078C1FBD8520728BF30C148BF0B60704738
:100260001FB519F022FE1FBD10B510BD00F06EFACB
:100270001146FFF7F5FF19F031F800F08CFA03B4DE
:10028000FFF7F2FF03BC00F091FA00000A48804734
:100290000A4880470A480047FEE7FEE7FEE7FEE718
:1002A000FEE7FEE7FEE7FEE7FEE7FEE70548064954
:1002B000064A074B70470000FDC0002045A70020FC
:1002C000AD01002000000010001600100006001014
:1002D0000006001053EA020C00F069802DE9F04B93
:1002E0004FF00006002B1FBFB3FA83F503FA05F4A5
:1002F00024FA05F65E4012BF1643B2FA82F502FAFE
:1003000005F4C5F120051EBF22FA05FC44EA0C04E1
:10031000203556EA044C4FEA144418BF641C4FF0D1
:1003200000084FF00009904271EB030C39D300290B
:1003300019BFB1FA81F701FA07F6B0FA80F700FAAF
:1003400007F6C7F120071EBF20FA07FC46EA0C0695
:100350002037B6FBF4FCA7EB0507103F07F01F0B97
:10036000CBF120060CFA0BFB2CFA06F644BFB34681
:100370000026202FA4BF5E464FF0000B5BEA060C60
:1003800008BF4FF0010B19EB0B09ABFB027C48EBEC
:100390000608C01B06FB02CC0BFB03CC71EB0C0167
:1003A000C1E70B46024641464846BDE8F08B13B50F
:1003B0004FF000004FF00001AFF30080BDE81C409B
:1003C000704740EA010310B59B070FD1042A0DD3F3
:1003D00010C808C9121F9C42F8D020BA19BA884226
:1003E00001D9012010BD4FF0FF3010BD1AB1D30765
:1003F00003D0521C07E0002010BD10F8013B11F89B
:10040000014B1B1B07D110F8013B11F8014B1B1BC3
:1004100001D1921EF1D1184610BD40EA01030246F7
:1004200030B59B0710D14FF0013400E008C208C975
:100430001D1B9D4315EAC41FF8D013F0FF0102F8FD
:10044000011B0DD01B0AF8E711F8013B002B02F845
:10045000013B05D011F8013B002B02F8013BF3D121
:1004600030BD10B5431C02E010F8011B71B18107CB
:10047000FAD14FF0013202C88C1A8C4314EAC2112F
:10048000F9D0C01A0A0603D0C01E10BDC01A10BD94
:100490000A0401D0801E10BD0902FCD0401E10BD10
:1004A000421E12F8013F002BFBD111F8013B002B3B
:1004B00002F8013BF9D17047032A40F2308010F076
:1004C000030C00F0158011F8013BBCF1020F6244EF
:1004D00098BF11F801CB00F8013B38BF11F8013B80
:1004E000A2F1040298BF00F801CB38BF00F8013B2D
:1004F00011F0030300F06780083AC0F0088051F85B
:10050000043B083A51F804CBA0E80810F5E7121DA7
:100510005CBF51F8043B40F8043BAFF30080D207C6
:1005200024BF11F8013B11F801CB48BF11F8012B92
:1005300024BF00F8013B00F801CB48BF00F8012BB5
:100540007047431A28BF9A427FF6B6AF032A104479
:10055000114440F2268010F0030F1EBF11F8013D38
:10056000521E00F8013D10F0030F7FF4F6AF11F0BA
:10057000030300F09F80083AC0F00B8051F8043D5F
:10058000083A51F804CD40F8043D40F804CDFFF797
:10059000F3BF121D5CBF51F8043D40F8043DAFF3BA
:1005A0000080D20724BF11F8013D11F801CD48BFEA
:1005B00011F8012C24BF00F8013D00F801CD48BF1F
:1005C00000F8012C704710B5203AC0F00B80B1E85C
:1005D0001850203AA0E81850B1E81850A0E8185078
:1005E000BFF4F5AF5FEA027C24BFB1E81850A0E881
:1005F000185044BF18C918C0BDE810405FEA827C9B
:1006000024BF51F8043B40F8043B08BF7047D207B1
:1006100028BF31F8023B48BF11F8012B28BF20F852
:10062000023B48BF00F8012B704702F0FF0343EA8A
:10063000032242EA024200F069B84FF0000200B51E
:10064000134694469646203922BFA0E80C50A0E8F5
:100650000C50B1F12001BFF4F7AF090728BFA0E8A3
:100660000C5048BF0CC05DF804EB890028BF40F86F
:10067000042B08BF704748BF20F8022B11F0804FB1
:1006800018BF00F8012B7047704770477047431A36
:1006900028BF9A427FF697AF104410F0030F114421
:1006A0001EBF11F8013D521E00F8013D10F0030F6E
:1006B0007FF4F6AF103AC0F00A8010B531E9185057
:1006C000103A20E91850BFF4F9AFBDE810405307C5
:1006D00024BF31E9081020E9081044BF51F8043D57
:1006E00040F8043D12F0030F08BF7047D20728BF3F
:1006F00031F8023D48BF11F8012C28BF20F8023D17
:1007000048BF00F8012C70474FF000020429C0F0E8
:10071000128010F0030C3FF492AFCCF1040CBCF14A
:10072000020F18BF00F8012BA8BF20F8022BA1EB85
:100730000C01FFF784BF5FEAC17C24BF00F8012BE6
:1007400000F8012B48BF00F8012B7047754600F0F8
:1007500029F8AE4605006946534620F00700854655
:1007600018B020B5FFF7A2FDBDE820404FF000060D
:100770004FF000074FF000084FF0000B21F0070189
:10078000AC46ACE8C009ACE8C009ACE8C009ACE8CC
:10079000C0098D4670470446AFF300802046FFF73E
:1007A0006EFD000000487047F063022001491820E8
:1007B000ABBEFEE7260002007047002800DC404286
:1007C0007047000038B545680446014628460CF0DD
:1007D00051FC00282AD02068304A0F2819D006DCA6
:1007E0000B2824D00C2810D00E2851D12FE011282E
:1007F00002D028284CD145E09268002A16D0214624
:10080000284601B0BDE830401047214628465268CE
:10081000F7E7284603F0CAFB0090406E046868467C
:1008200003F00EFC002C01D02846A04738BD284616
:1008300003F0BCFB0090683003F018FB0098032124
:100840006C3003F01BFB684603F0FAFB20E0E16824
:10085000486809680D2902D0202913D105E0002835
:1008600010DD284613F08CFB06E0002804DD284646
:10087000BDE8384013F084BB2846BDE8384002216B
:1008800013F094BBE06818B90021284600F074F911
:100890002046BDE838400CF0DDBF00009056022035
:1008A000F0B585B00DF1280CBCE8F0004FF0000C5D
:1008B0008DE8F01000F002F805B0F0BDF0B585B09D
:1008C0000C46DDE90D514C31DFF850C0DDE90A6717
:1008D000CDE902C12146CDE900670CF00BFF040011
:1008E00018D003F063FB1022294604900CF0ACFDF5
:1008F000049830220A493430FFF765FE084D049908
:100900000C3D2868486604A803F09AFB28684168F3
:100910002046884705B02046F0BD0000C5070020EE
:100920009C560220F0B5044680688B4989B051F886
:100930002050606800287DD0052804D006287AD091
:10094000122879D1AEE0E86900284FD095E80E0072
:100950008DE80F0004F110010FC906F0A1F8002680
:1009600055F8260005F0D2F8A169E8690A1A21694C
:1009700001446069304404F0C9F8A169E8690A1AC1
:1009800021690144E069801B04F0C0F8E169E8696D
:100990000A1A616901442069304404F069F9E16987
:1009A000E8690A1A61690144A069801B04F060F9D2
:1009B000761C022ED4DBA86805F0A8F8E069E96986
:1009C0006669431A20694218521E3144801C04F0A3
:1009D000C9F9E169E869A2690B1A61690144101A51
:1009E000401C921E04F0BEF9EE6913E05FF00006B1
:1009F00055F8260005F08AF8E069831BA069821B80
:100A0000606981192069304404F0D8F8761C022E00
:100A1000EEDB0226D5E90301CDE900016169E06959
:100A200008444310A069891C821B2069304404F0EB
:100A300039F802E089E012E08AE0D5E90501CDE964
:100A40000001E36960690121184401EB6001A069BC
:100A50009B1E821B2069304404F024F878E0206853
:100A600003F0A4FA049020680EF07EF940B1A0686B
:100A700008B1002008E00498006F28B1012003E0CD
:100A80000498406F00B10220049901EB8000C56E0C
:100A900004A803F0D5FA00231A462846216803F07B
:100AA0003FFD55E0206803F081FA0490866EEEB3B6
:100AB000B0F95C70A168D1B3032942D05FF00001A6
:100AC00000EB8101406D0C6C05F02AF8204605F022
:100AD0001DF805A804F046FABDF81410A88B0144CF
:100AE000ADF81410BDF81810081AADF81800BDF8CC
:100AF0001600801CADF81600BDF81A00801EADF877
:100B00001A0004985E30B0F90220B0F9001005A870
:100B100004F0D8FE04A803F093FA022005F042F88E
:100B2000304603F043FA3A4605A901E00BE006E03F
:100B3000079003F01DFE07A803F082FA08E00121E8
:100B4000BEE70221BCE704A8F6E720680DF0BEFD71
:100B500009B00020F0BD00006CC80120044A034920
:100B6000116004494A6A486210467047CC56022018
:100B7000905602209C5602204FF4807200291146A4
:100B800001D00CF001BB0CF059BA000038B50C468E
:100B9000054603F00BFA00900649846541666846F5
:100BA00003F04EFA28460DF091FD28460DF0F1FABB
:100BB00038BD0000CC5602202DE9FF410E4605004D
:100BC0004FF001041CD003F0F1F90190876E01A8E9
:100BD000009703F035FA3146684606F0DBFA78B143
:100BE00000980024B84208D0284603F0DFF90190AD
:100BF0000099816601A803F023FA28460DF0C9FA8E
:100C000004B02046BDE8F081F0B52DED028B85B033
:100C100001209849087098490870984804F080FFAE
:100C20004FF6FF7004F072FF95480078A8B10AF003
:100C30006FF9934908700846007820B9914900205F
:100C400017F03CFF09E000218FA008F0E9F88C487C
:100C5000007805B0BDEC028BF0BD3222AA218FA036
:100C600003F064FD9348FFF779FF0CF0EDFE0746B3
:100C700040F60100002102221E23CDE90072CDE9D9
:100C80000210282264219620FFF70AFE8A49086094
:100C90008AA189480068FFF78FFF0CF0D5FE074650
:100CA0004FF40260002102221E23CDE90072CDE93B
:100CB0000210282264214FF49670FFF7F1FD80495D
:100CC000086080A17E480068FFF776FF0CF0BCFE4C
:100CD00007467D490DF0B8FB01E004F029F86548AE
:100CE000007818B1644800780028F6D1724800688E
:100CF0000CF0E4FD724800680CF0E0FD00206E4945
:100D000008606F49086003F01FFB5A48007800280C
:100D10007ED15C4917F0D2FE6CA16D4817F096FFAA
:100D20006C49087008460078002872D10A22052113
:100D300069A003F0FBFC6C4991F856106B4A52F81D
:100D4000210003F073FC1E22052169A003F0EEFCD4
:100D50006548007E801C012101FA00F662480069A6
:100D6000401C704360490A7A0121914000FB01F464
:100D700000EE104AB8EE400ADFED620A80EE208AEB
:100D80000620B0EE480A03F014FC5FA003F04EFC0E
:100D9000322205215EA003F0C9FC032160480088CF
:100DA00003F0E9FB5FA003F041FC462205215FA0B0
:100DB00003F0BCFC4C49886B0A2103F0DCFB5A228F
:100DC00005215EA003F0B2FC4749B1F854000521AB
:100DD00003F0D1FB6E2205215AA003F0A7FC424983
:100DE00091F82C00022103F0C6FB01215AA008F063
:100DF00017F801225CA15F4817F076FE35490870AC
:100E000008460078002831D100BF5A4804AB01E001
:100E10002BE01FE05849C26817F054FF2D490870B5
:100E20000846007810B904980028EED100BF00BF32
:100E3000504817F038FE504806F004FB4FF0504081
:100E400045684E4908600146086880F3088800BF7D
:100E5000A8470BE000214AA007F0E2FF0021084666
:100E600017F02CFE1B49087000E000BF0448007812
:100E7000EFE600001450022015500220DCB40120DF
:100E8000D8510220B85A0220534420636172642072
:100E90006973206572726F720000000020424F4F2C
:100EA000542046524F4D2053442043415244203F4A
:100EB0002000000025090020AC50022059455300B5
:100EC000B05002204E4F000041740120303A000023
:100ED000145F0220DC510220204341524420545927
:100EE0005045203A20000000286002209050022047
:100EF0002053445F434152442053495A45203A20ED
:100F00002000000000008049204D42595445000057
:100F100020534543544F522053495A45203A20000C
:100F2000D651022020204259544500002052524FF1
:100F30004455435420534E203A2000002052434150
:100F4000203A2000204D414E5546414354555245CC
:100F500052204944203A20005344206361726420A7
:100F60006973204F4B210000303A73746D33322E79
:100F700068657800F05C0220000003D008ED00E016
:100F800053442063617264206973206E6F7420691A
:100F90006E697469616C697A6500000000BFFEE7E4
:100FA00010B5002000F048FC00F014F810BD00005F
:100FB00010B501200549087000200549087001207E
:100FC00000F03AFC00F034FB10BD0000515202204A
:100FD0005452022070B586B0FC4880780C287DD22F
:100FE000DFE800F00607263E7C6AC9FEFDFCFBFA3E
:100FF000F1E24FF4C070F6490880062088700120A5
:10100000C870F4480178F2480171F2484178F0481C
:101010004171F1488178EE488171EF484178EC48A0
:10102000C171ED48C178EA48017200F0A7FCD2E234
:10103000E6480079E7490870E448407948700020A4
:1010400008F088FEE1488079E3498870DF48C0797C
:101050004870DE48007AC870002008F017FEBAE237
:101060004FF4C170DA4908800120C870DB4801786C
:10107000D7480171DA480178D5484171D9480178DB
:10108000D3488171D8480178D148C171D7480068E8
:10109000010ECF488172D5480068010CCC484172DE
:1010A000D2480068C1B2CA4801720820C849887095
:1010B000084600F063FC8EE24FF08040008C40F068
:1010C00010004FF0804108840846008C40F0010079
:1010D00008840120C4490860C54800E07AE200683D
:1010E000002847D0C348007818B1C24800780128CA
:1010F00024D1112007F042FB002400E0641CBE480C
:101100008442FBDBBE2007F039FB042007F018FB0C
:10111000BA48008807F014FB012007F011FBF0200B
:1011200007F00EFB002007F00BFB002007F008FB88
:101130000220B04908700020B14908700020B14970
:1011400008604FF40161AA4800680CF093FC064661
:10115000AD493046FFF71AFD30460DF041FA40F632
:101160001101A34800680CF085FC0646A7493046EB
:10117000FFF70CFD2FE29F48007818B19D480078DA
:10118000012824D1112007F0F9FA002400E0641CA2
:1011900099488442FBDBBE2007F0F0FA042007F0F8
:1011A000CFFA9648008807F0CBFA012007F0C8FA7A
:1011B000F02007F0C5FA002007F0C2FA002007F07F
:1011C000BFFA02208B49087000208D49087000206A
:1011D0008C4908607D4804E0D6E1B2E18CE15EE133
:1011E000CBE040797D4908600846006800285AD065
:1011F0004FF08040008B40F004004FF080410883A6
:101200000846808940F0020088812320C8620520BA
:1012100088636E48C07973490860086800EBD07134
:101220004C1000EE104AB8EEC00ADFED790A80EEED
:10123000201A784880ED001A6D480068002831D0E7
:1012400040F613016A4800680CF014FC064630466C
:101250000CF0E6FE40F61401654800680CF00AFC4C
:10126000064630460CF099FB40F6170160480068CE
:101270000CF000FC06465B480168304608F00BF8AD
:1012800030460DF07DFA40F61601594800680CF022
:10129000F1FB06465348016830460AF0EBFB304646
:1012A0000CF07EFB59E0494880794D4908604FF0C9
:1012B0008040008B20F004004FF0804108830846F6
:1012C000808920F0020088814548006800EB80009A
:1012D0004FF47A71A1EB4000C906C862404800682B
:1012E00000EB800040F2CA31A1EB4000490788635F
:1012F0003F48006888B340F617013D4800680CF08D
:10130000B9FB064630460CF08BFE40F61601384815
:1013100000680CF0AFFB064630460CF03EFB40F692
:101320001301334800680CF0A5FB06462C48016801
:10133000304607F0B0FF30460DF022FA40F61401B7
:101340002B4800680CF096FB06462548016830469D
:101350000AF090FB30460CF023FB2548006858B19A
:1013600040F61801224800680CF084FB06461B4832
:101370000168304600F0DCFE2DE14FF08040008C2B
:1013800020F010004FF0804108840846008C20F0C7
:10139000010008840020204908709FED200A2048A1
:1013A00080ED000A002010490860114800680028FC
:1013B00074D01048007818B10E480078012851D137
:1013C000112007F0DBF900242DE000000461022069
:1013D000F8600220BC500220C0500220E0510220E0
:1013E000E4510220E8510220F0510220186400402C
:1013F00098530220DA51022020BF020046520220F8
:10140000DB5102202414004099740120250900209A
:1014100000004842EC510220F4510220000000007C
:10142000F8510220641C70488442FBDBBE2007F0A8
:10143000A5F9042007F084F96C48008807F080F9CA
:10144000012007F07DF9F02007F07AF9002007F07D
:1014500077F9002007F074F9022065490870002030
:101460006449087000206449086040F6110163482F
:1014700000680CF0FFFA064661493046FFF786FB2C
:1014800030460DF0ADF84FF401615C4800680CF097
:10149000F1FA06465B493046FFF778FB9BE05A4875
:1014A00040795949097940EA01205849088058484B
:1014B0000078C87056484178544801715548017801
:1014C000524841715448006858B9534801784F4810
:1014D00081714F48017B4D48C17105204B4988708F
:1014E00006E04D48017849488171042047498870D9
:1014F000464800F043FA6EE0484800680CF0DEF918
:101500000CF0A2FA0546182040F618020023CDE997
:10151000032002930590032022231A460F21CDE9D0
:1015200000500A2006F01FF93C490860012108021A
:1015300008F0A6F93AA23B493848006806F050F88E
:1015400049E031480079324908702F4840794870A5
:101550000020886088702C4880792E4908602A48CD
:10156000C07930B900202A4948602748007A0873BA
:1015700003E04FF0004026494860254A4FF480714F
:10158000002008F00DFB26E0244800680CF096F9D6
:101590000CF05AFA0546182040F618020023CDE94F
:1015A000032002930590032022231A460F21CDE940
:1015B00000500A2006F0D7F81849086000214FF4BF
:1015C000807008F05DF916A217491448006806F00B
:1015D00007F800E000BF00BF1448006840F00200B8
:1015E0001249086006B070BD20BF020046520220BA
:1015F000DA510220DB5102202414004098530220CB
:10160000997401202509002004610220F86002205D
:10161000EC59022018520220945502205C530220FB
:101620000000000048B90BD070C20BD01464004019
:1016300030B57848807B042804D0062849D00B2890
:101640007CD1D3E000207449086074490860714877
:10165000007C08606F48407C096841EA00206F49BF
:1016600008606C48807C096841EA00406B4908606A
:101670006848C07C096841EA00606849086001F078
:1016800017FC66480068B0F5003F01DC01240EE05D
:1016900062480068B0F5802F01DC022407E05F4853
:1016A0000068B0F5C02F01DC032400E004242146CB
:1016B000082001F0ABFB4FF4B970594908800220B3
:1016C00088700120C87067215548017100F056F9F3
:1016D00098E05248006850490968401A082833D3F6
:1016E0004D4800684F4A81180423082249481030A9
:1016F00001F004FB484800680830474908604FF48F
:10170000B97047490880022088700120C87067219D
:101710004348017100F032F93F480068F021B0FB06
:10172000F1F201FB120038BB3F48006810F0800F57
:1017300005D080203C490A3108801DE061E080200E
:1017400039490831088017E034480068324B1B687B
:10175000C21A31480068334BC11804232D48103099
:1017600001F0CCFA2D4800682B490968401A2A4933
:10177000096808442849086028480068264909681B
:10178000884232D125480068011F264816F0A2FC85
:101790000546224800682349084450F8040CA84232
:1017A00010D14FF4B9701E490880022088700120C2
:1017B000C87063211A48017100F0E0F801201B494C
:1017C000087012E01A48006840F0004018490860AC
:1017D0004FF4B97012490880022088700120C87047
:1017E00065210F48017100F0C9F80BE04FF4C47097
:1017F0000B49088001208870C870084600F0BEF8C8
:1018000000E000BF00BF0B48006840F0100009492D
:10181000086030BD04610220C4550220C855022072
:10182000F86002200000080810140240C055022091
:10183000103C0240146400404D4901EB001109685E
:1018400001F0020102295AD0494901EB00118968CF
:1018500000EB4002474B03EB82021171444901EB5C
:10186000001189680A0A00EB400103EB81014A710B
:101870003F4901EB001189680A0C00EB400103EBC2
:1018800081018A713A4901EB00118968090E00EB68
:10189000400203EB8202D171354901EB0011C968A6
:1018A000CAB200EB400103EB81010A72304901EB3F
:1018B0000011C9680A0A00EB400103EB81014A727A
:1018C0002B4901EB0011C9680A0C00EB400103EB46
:1018D00081018A72264901EB0011C968090E00EBEB
:1018E000400203EB8202D172214901EB00114968E9
:1018F00001F00F0100EB400203EB8202D1701C49A2
:1019000001EB0011096840F2FF7202EA515100EB4D
:101910004002184B23F82210154901EB00114968C9
:10192000090A00EB400203EB8202917030B11249C8
:10193000096821F01001104A116005E00E4909689C
:1019400021F002010C4A116040B10B49091F0968DE
:1019500041F02001084A121F116007E006490839CA
:10196000096841F02001044A083A116070470000FC
:10197000B0650040046102201464004010B50246C6
:1019800000233048006800F08060B0F1806F01D122
:10199000002113E02B48006800F00060B0F1006FF8
:1019A00001D101210AE02748006800F08050B0F121
:1019B000805F01D1022101E0022010BD10884405A2
:1019C000214800EB011004601F4800EB0110406843
:1019D00020F00F041C4800EB011044601A4800EB93
:1019E0000110406894782043174C04EB01146060A8
:1019F00090790406507944EA0044107944EA0020C2
:101A0000D47840EA0403104800EB01108360907A18
:101A10000406507A44EA0044107A44EA0020D4795B
:101A200040EA0403084800EB0110C360064800EBDD
:101A30000110006840F00104034800EB011004604D
:101A40000020BAE7086400408065004070B50025BA
:101A50004FF4803400E0641E24B1802008F008FEBA
:101A60000028F8D014B90325284670BD40F2FF5075
:101A700008F0C0FD2846F8E72DE9F04106460027AA
:101A80004748056801E04648056815F0450FFAD05B
:101A900015F0040F06D00327042008F0ABFD3846EC
:101AA000BDE8F08115F0010F05D00127012008F0F5
:101AB000A1FD3846F4E708F0D5FDB04202D010276A
:101AC0003846EDE740F2FF5008F094FD002008F0A2
:101AD000E3FD04463348044201D13846E0E714F000
:101AE000004F01D01C20DBE714F0804F01D009200B
:101AF000D6E714F0005F01D00A20D1E714F0805F30
:101B000001D00B20CCE714F0006F01D00C20C7E708
:101B100014F0806F01D00D20C2E714F0807F01D057
:101B20000E20BDE714F4000F01D00F20B8E714F425
:101B3000800F01D01020B3E714F4001F01D0112052
:101B4000AEE714F4801F01D01220A9E714F4002F8F
:101B500001D01320A4E714F4802F01D014209FE7B4
:101B600014F4003F01D015209AE714F4803F01D00F
:101B7000162095E714F4004F01D0172090E714F4D5
:101B8000804F01D018208BE714F4005F01D019209A
:101B900086E714F0080F01D01A2081E738467FE766
:101BA000342C014008E0FFFD70B500250F480468A3
:101BB00001E00E48046814F0450FFAD014F0040F49
:101BC00005D00325042008F015FD284670BD14F04B
:101BD000010F05D00125012008F00CFD2846F5E78E
:101BE00040F2FF5008F006FD2846EFE7342C014094
:101BF00070B500250B48046801E00A48046814F039
:101C0000450FFAD014F0040F05D00325042008F086
:101C1000F1FC284670BD40F2FF5008F0EBFC28466E
:101C2000F8E70000342C01402DE9F04106460F464C
:101C30004FF000082248056801E02148056815F0CA
:101C4000450FFAD015F0040F07D04FF00308042019
:101C500008F0D0FC4046BDE8F08115F0010F06D039
:101C60004FF00108012008F0C5FC4046F3E708F0FA
:101C7000F9FCB04203D04FF010084046EBE740F2C9
:101C8000FF5008F0B7FC002008F006FD044614F4ED
:101C9000604F03D1200C38804046DCE714F4005F2D
:101CA00001D01320D7E714F4804F01D01020D2E7E1
:101CB00014F4004F01D00F20CDE74046CBE70000E1
:101CC000342C014070B500264FF480350F4804686D
:101CD00002E06D1E0D48046814F0450F01D1002D7F
:101CE000F7D115B114F0040F05D00326042008F035
:101CF00081FC304670BD14F0400F05D00026402016
:101D000008F078FC3046F5E73046F3E7342C014024
:101D100010B586B072B6002003F0B8FE0BF094FE4A
:101D2000044661490CF090FB604803F0F9FE6048FE
:101D3000006800287ED10BF087FE04465D484FF412
:101D4000006100220223CDE90043CDE90221049085
:101D500040F201134FF4CD720F213C200BF00DFC2B
:101D6000534908605449524800680BF041FC412037
:101D7000302140F617020023CDE90232CDE90410EC
:101D800003204B49096841233A22CDE90010002184
:101D9000F02005F0E8FC49490860494947480068D7
:101DA00005F053FD08214548006805F060FD41201D
:101DB000302140F604020023CDE90232CDE90410BF
:101DC00003203B49096841233A22CDE90010002154
:101DD0004FF4AA7005F0C7FC3A4908603849394801
:101DE000006805F032FD08213648006805F03FFD27
:101DF0004120302140F615020023CDE90232CDE921
:101E0000041003202A49096841233A22CDE9001031
:101E10005A214FF4AA7005F0A6FC2B490860284906
:101E20002948006805F011FD08212748006805F0E1
:101E30001EFD00E016E0302040F605020023CDE94B
:101E40000320029305900320194909683A231A4692
:101E5000CDE90010C8214FF4AA7005F084FC1B499D
:101E6000086003E0124800680CF08AFC1849002062
:101E700007F038FE1649887802230022052102F077
:101E80007DFB14A002F0D2FB11494878022102F038
:101E900072FB11A002F0CAFB0D49C878022102F0C2
:101EA0006AFB62B606B010BD6D70012024C8012027
:101EB00048530220D97601208080FF006853022019
:101EC00048C801204C530220505302205453022092
:101ED000C05002202E0000002E32300010B509F054
:101EE000ABFA10BD0246094B9A4201D2084801E004
:101EF0000648103811F0005F03D0064B0B40C3605A
:101F000002E0044B0B408360704700001064024005
:101F1000006002407D0F7D0F21B1026842F0010296
:101F2000026003E0026822F00102026070470000D4
:101F3000016821F0010101600021016041608160C0
:101F4000C1600161212141614A49884204D13D219A
:101F5000484A103A91608CE046491831884205D1D0
:101F60004FF47461434A103A916082E04149303144
:101F7000884205D14FF474113E4A103A916078E0DE
:101F80003C494831884205D14FF07461394A103AD2
:101F900091606EE037496031884204D13649354A54
:101FA000103AD16065E033497831884204D1334931
:101FB000304A103AD1605CE02E499031884204D119
:101FC0002F492C4A103AD16053E02A49A83188425F
:101FD00005D14FF03D51274A103AD16049E02949D7
:101FE000884204D13D21274A083A116041E0254941
:101FF0001831884205D14FF47461224A083A1160C1
:1020000037E020493031884205D14FF474111D4A20
:10201000083A11602DE01B494831884205D14FF044
:102020007461184A083A116023E016496031884209
:1020300004D11149134A121F11601AE01149783175
:10204000884204D10D490F4A121F116011E00D4959
:102050009031884204D10A490A4A121F116008E0EF
:102060000849A831884204D14FF03D51054A121F5A
:1020700011607047106002403D000020400F0020BA
:1020800000003D201064024021B1026842F02002AD
:10209000026003E0026822F020020260704710B57F
:1020A00011F0800F09D022B1436943F080034361EE
:1020B00003E0436923F08003436180290BD02AB1F8
:1020C000036801F01E042343036004E0036801F089
:1020D0001E04A343036010BD10B500220268134B19
:1020E0001A40CC680B6823434C6923438C69234313
:1020F000CC6923430C6A23434C6A23438C6A2343F1
:102100004C6B23438C6B23431A430260426922F0D9
:102110000702D1E90B3423431A4342610B69436040
:102120004B6883608B68C36010BD00003F801CF06B
:1021300038B50C46050019D001F038FF009000F0CA
:102140001AF800B1401E844200DD04460098B0F940
:102150003410A1420BD08486684601F071FF2846F6
:102160000CF017F8042128460CF06CF838BD6846CE
:1021700001F066FF38BDC06B01F0EEBF7047000094
:102180002DE9FC5F15460746DFF89C802844019046
:10219000D8F800001C460E46C06E01EB0409494603
:1021A000426801989047781B0090D8F80000494693
:1021B000C06E426800989047D8F8000006EB050B07
:1021C00007EB0409C06E5946426848469047D8F864
:1021D0000000A6EB050A5146C06E4268484690478B
:1021E000002C1ED0D8F80000361B4546C06E314684
:1021F00042680198904728683146C06E426800984E
:10220000904728683C1B5946C06E4268204690475C
:1022100028685146C06E426802B02046BDE8F05FB3
:102220001047BDE8FC9F0000E855022070B5054648
:102230000C46611F621D284602F01AFD691F6A1DC7
:10224000204602F063FC04222146284602F080FB6F
:1022500070BD002214F003B810B5002400E0641C27
:1022600013488442FBD30221124801F08CFA70B962
:1022700008F04EFE104908700846007880B90F49F2
:10228000002016F01BFC01200D49087008E008F042
:10229000DDF90021084616F011FC012008490870FC
:1022A000022000F01FF8072006F060FE10BD0000BD
:1022B00080F0FA0200040240D8510220B85A0220ED
:1022C0004453022010B5002400E0641C04488442FA
:1022D000FBD3102000F006F80A2006F047FE10BDE0
:1022E00040420F000149086070470000143C014063
:1022F000002123498279002A3AD00A4612680368ED
:102300009A430B461A600A1D126803689A430B1D14
:102310001A60027911440A6803681A430A60184A6D
:102320000832126803689A43154B08331A601A1D65
:10233000126803689A43124B0C331A604279102AD0
:102340000ED11A1F126803681A430D4B08331A6026
:102350001A1D126803681A43094B0C331A600DE00A
:102360000749427911440A6803681A430A6005E084
:10237000027911440A6803689A430A6070470000B2
:10238000003C014099B1102808D14FF02042126E54
:1023900042F004024FF020431A661CE00E4A126815
:1023A00042F004024FF02043C3F8802013E01028CD
:1023B00008D14FF02042126E084B1A404FF02043D4
:1023C0001A6608E0044A1268044B02EA03024FF05E
:1023D0002043C3F880207047800000A0FBFF0F005F
:1023E00030B5002100220023446844F008048568C9
:1023F0002C43C5682C4305692C43456944EA4524B0
:10240000856944EA4531C4692468C5696D6844EA50
:102410000524C5692D8944EA0544C5692D7B44EA34
:102420000562046A2468056A6D6844EA0524056A41
:102430002D8944EA0544056A2D7B44EA0563046856
:10244000102C05D14FF020442166A266E36607E018
:10245000044C21604FF02044C4F88820024C2360D3
:1024600030BD0000800000A08C0000A02DE9F047E6
:10247000456804468EB00026284601F097FD00907E
:102480005C30B0F820A0D0F80C90D0F82480C76A57
:10249000006800B10668684601F0D2FD05E0796881
:1024A0002046884700283DD13F68002FF7D120689B
:1024B000142844D009DCA0F10B00072839D2DFE84A
:1024C00000F0BE3989B434B4110020287ED004DC79
:1024D00017283ED01E282CD14BE026283CD02A2895
:1024E00027D110E02846E66801F060FD0190717A7E
:1024F00039B9317A012904D130F87C1F41F4807157
:10250000018001A88FE0284601F050FD0090E168AD
:1025100011B1C0F8841002E0D0F88400E060684691
:1025200001F08EFD0EB0BDE8F087002E7DD028466C
:10253000B0477AE02146284611F06CFFF2E705A982
:10254000284600F0BFF9E0680699016007994160EC
:10255000E8E7C4F80C90E5E7E0680228E2D10C95C2
:10256000E0680D9027200A900AA9A0680CF0FEFDF3
:10257000D8E7E068012804D00021284600F047F998
:10258000D0E740460BF05AFE58B140460CF028F810
:1025900040460BF035FD88B1012140460AF0F4FDBC
:1025A0000CE048460CF06AF88046284601F0FEFC34
:1025B0000090C0F88080684601F042FD0121284665
:1025C00000F025F9B8F1000FACD100E00EE00020DA
:1025D000E060A7E75FEA0A7027D4E068C06820B32C
:1025E000007A10B328460BF0FBFF1EE0E668E6B168
:1025F000294670680CF0A1FB20B10121284613F098
:10260000FBF812E00021284613F0F6F8294630685E
:102610000CF082FB48B1284601F0C8FC03903168F9
:10262000C0F8801003A801F00BFD214628460AF0EF
:1026300021FD00288CD020460BF00CF972E72846CB
:1026400001F0B4FC0090703001F010FC6846EAE73D
:102650002DE9F04387B00DF138088146B8E8F11054
:102660004FF00008CDF818808DE8F110484600F0D2
:1026700003F807B0BDE8F0832DE9F0478AB00DF10B
:102680004C0CDDE91784BCE86006129F45F48055C8
:102690006034DFF8B8C0CDE902C4CDE900750BF0B5
:1026A00029F804004DD001F081FC30224946049005
:1026B0000AF0CAFE0498282225493430FDF783FF2A
:1026C0000498234F5C30083FC0F808800684002639
:1026D00046620661C6627968016004A801F0B0FC38
:1026E00005A9204600F0EEF81A4841F282710396DF
:1026F0000094CDE90110BDF91E00BDF91A10BDF915
:102700001C20431ABDF918005B1C121A521C0AF057
:10271000F1FF06467868416820468847204601F068
:1027200045FC0490866604A801F08AFC42F204008D
:10273000054202D120460BF025F95146204600F013
:102740008EF80AB02046BDE8F08700006D24002016
:1027500060570220832A002030B504468BB0006801
:1027600001F024FC009090F87C10246A006FC1F303
:10277000C00508B101F01AFC0690E06802902069DB
:102780000390A088401EADF81000E089ADF812005B
:102790002089401CADF81400608AADF81600BDF821
:1027A0000800401CADF80800BDF80A00401CADF858
:1027B0000A00BDF80C00401EADF80C000098406BFC
:1027C00003F0AEF9009808AA02A9B0F95A300698A9
:1027D00003F0CAFC009800EB8500806B05F050FC0C
:1027E000009800EB8500006C05F082FC08AB02AAA3
:1027F00004A906980AF05CFD684601F021FC0698E1
:1028000010B106A801F01CFC0BB0002030BD002860
:1028100001D012F0F1BF7047F8B515460C4606001E
:102820000DD001F0C3FB0090022C05D200EB840018
:10283000856330460BF0ADFC684601F001FCF8BD45
:1028400038B50D46040009D001F0B0FB00900566D4
:10285000684601F0F5FB20460BF09BFC38BD7CB5CB
:102860000D46040019D001F0A1FB0090006F01900B
:10287000684601F0E5FB294601A804F08BFC00281E
:102880000BD0204601F092FB009001990167684649
:1028900001F0D6FB20460BF07CFC7CBD38B50C4625
:1028A00005000ED001F082FB0090B0F95A10A14251
:1028B00004D0A0F85A4028460BF06BFC684601F0A3
:1028C000BFFB38BD2DE9F34F85B000270C46B84655
:1028D000059801F06BFB0090C06D0121856805989B
:1028E0002A68904782462A680321059890470490F9
:1028F0002A6802210598904703902A6800210598CC
:102900009047064600980CF0B5F8834600980CF006
:10291000B8F88146009890F83210890601D5B0F9D0
:10292000588000F036F805460098C06E10B10BF0E4
:1029300094F9074625806780A4F804A0049AABEBBD
:10294000020006EB0802401E2A4420813A44E2803D
:10295000039BA9EB0302521E6281A4F80CA0208203
:102960007019E681401E6082684601F069FBB4F987
:102970000C000190B4F91000029002AA01A9059878
:1029800000F039F80198A0810298208207B0BDE8D4
:10299000F08F10B50146002091F83220920607D53D
:1029A000B1F95400002803D1486B02F03DFB801CB4
:1029B00010BD70B58AB00C46054601F0F7FA0990D3
:1029C000C06D866809A801F03BFB009534B1012C6D
:1029D00006D0022C0BD0032C04D10AE0182000E012
:1029E000162001907168684688470AB070BD1520AE
:1029F000F7E71720F5E72DE9FC479046894604469E
:102A000001F0D4FA0090C16D056868468E6801F047
:102A100017FB3268002120469047064620460BF0FF
:102A200031F82F1404462DB227E001F0BFFA0190CF
:102A3000B0F90010B0F90420B0F90230491B521B64
:102A4000DB1BB34212D190F82800000607D5D8F856
:102A5000000088420ADB491EC8F8001006E0D9F8D9
:102A60000000904202DC521CC9F8002001A801F0CD
:102A7000E7FA20460BF096F80446002CD5D1BDE8C5
:102A8000FC872DE9F0430446406885B006460BF00C
:102A900090F8814601F08AFA0090D0F88080876C27
:102AA000456E684601F0CCFA2068172859D008DC3A
:102AB0000E2837D00F280BD0142852D015283AD121
:102AC0004FE01E2818D01F2827D0222833D146E0F7
:102AD0006FF07040874204D0384605F0D1FA01F01B
:102AE00033FC002D12D0D4E902122068CDE9010692
:102AF000CDE9031201A822E0E068002806D05FEAD1
:102B0000080006D0B04504D00BF06AFD05B0BDE862
:102B1000F08330460BF0B2FD16E0214648460AF03D
:102B2000A9FAF3E7E0684168002904DD0068092894
:102B3000EFD00A2805D0A5B12046C4F80490A847D4
:102B4000E4E730460BF0A2FD0446484601F02EFAB9
:102B50000090C0F88040684601F072FAD6E7E7605E
:102B6000D4E720460AF076FED0E700002DE9FC41CC
:102B700007460D4600260024002000900190082002
:102B80005A49086010204860402088600020C860D2
:102B90004FF480600861084607F0B8FD1020FEF78A
:102BA0006BFF044614B12046BDE8FC815048008804
:102BB00000044E49086037204860402088600020AB
:102BC000C8604FF480600861084607F09FFD372019
:102BD000FEF752FF04460CB12046E5E74FF6FF70C2
:102BE0004449086008204860302088600220C8609E
:102BF0000020086101204861084607F00DFD002013
:102C00003A49086033204860402088600020C8604E
:102C10004FF480600861084607F078FD3320FEF726
:102C20002BFF04460CB12046BEE709E04FF400102C
:102C300007F01EFD20B107F063FD4DF82600761C5D
:102C40002D48006840F22A610842EFD0082007F0C2
:102C50000FFD28B1082007F0CDFC04242046A3E78F
:102C6000022007F005FD28B1022007F0C3FC022472
:102C7000204699E7202007F0FBFC28B1202007F030
:102C8000B9FC062420468FE74FF4007007F0F0FCF3
:102C900030B14FF4007007F0ADFC0724204683E705
:102CA00040F2FF5007F0A6FC00980006009901F4DE
:102CB0007F4140EA0120009901F47F0140EA1120A0
:102CC000009940EA1160686001980006019901F4DA
:102CD0007F4140EA0120019901F47F0140EA11207F
:102CE000019940EA1160286020465DE79860022063
:102CF000AC550220AC600220342C014070B5044673
:102D000000BF414D2D6805F48035B5F5803FF8D002
:102D10003D4D2D6815F0010F02D001253A4E35606A
:102D2000394D2D1D2D6845F08075374E361D3560A7
:102D3000012B04D0022B20D0042B5AD13BE0324D82
:102D40002D1D2D6825F440752F4E361D35603546F6
:102D50002D6845F00105356000200BE0255C0D5421
:102D600000BF294D2D6815F0010FFAD00125264E20
:102D70003560401C9042F1D33BE0234D2D1D2D6862
:102D800045F48075204E361D356035462D6845F07A
:102D90000105356000200BE0255A0D5200BF1A4D89
:102DA0002D6815F0010FFAD00125174E3560801CF3
:102DB0009042F1D31DE0144D2D1D2D6845F4007592
:102DC000114E361D356035462D6845F001053560DC
:102DD00000200BE025580D5000BF0B4D2D6815F05D
:102DE000010FFAD00125084E3560001D9042F1D345
:102DF00000BF00BF044D2D1D2D6825F00105024EBA
:102E0000361D356070BD00000C3C024010B5024616
:102E100000BF264B1B6803F48033B3F5803FF8D026
:102E2000224B1B6813F0010F02D001231F4C2360BB
:102E30001E4B1B1D1B6843F080731C4C241D23601C
:102E400023461B6843F40073236023461B6843F04A
:102E50000203236010461CE0144B1B1D1B6823F06B
:102E6000F803124C241D236023461B6843EAC00369
:102E7000236023461B6843F48033236000BF0B4B61
:102E80001B6813F0010FFAD00123084C2360431C88
:102E9000D8B253188342DFDC044B1B1D1B6823F0A0
:102EA0000203024C241D236010BD00000C3C0240B4
:102EB00002480349086003480860704723016745DA
:102EC000043C0240AB89EFCD2DE9FF5F8346DDE98D
:102ED0000E45984691468A4604F5B47405F5B475D6
:102EE0004FF0FF3601274FF4B47003E0A4F5B4743B
:102EF000A5F5B4758442F9DA002D65DD5A2C11DA96
:102F0000002C00DA00245A2D01DA284600E05A206D
:102F1000CDE90040CDE9027643464A46514658463F
:102F20000DF058F85A3D5A3C002D4DDD5A2C14DA5C
:102F3000002C00DA00245A2D01DA284600E05A203D
:102F4000C4F15A01C0F15A008DE8430043464A4695
:102F50005146584603960DF03DF85A3D5A3C002D17
:102F600032DD5A2C12DA002C00DA00245A2D01DA54
:102F7000284600E05A200DF1040C0094ACE8C10092
:102F800043464A46514658460DF024F85A3D5A3CAD
:102F9000002D19DD5A2C14DA002C00DA00245A2DE9
:102FA00001DA284600E05A20C4F15A01C0F15A0063
:102FB0008DE8830043464A465146584603970DF034
:102FC00009F85A3D5A3C97E7BDE8FF9F2DE9F043C9
:102FD0000446C56887B090468946002002F09EFDF1
:102FE000064625B1287910B146F0020001E026F02E
:102FF000020002F093FD2069012558B1D4E90212C4
:103000008DE8260003956388228804684146484677
:10301000A0471EE0124F134B214638681B68427CC4
:10302000E068984730B9E088012801D0002001E02D
:103030003868806BA288E388A1680095CDE9041008
:10304000CDE902320195638822884146484604F062
:1030500037FC07B03046BDE8F04302F05FBD00002A
:10306000E8550220E05502202DE9F04781468846C8
:1030700040F2C32050434FF47A7190FBF1F502FB0C
:1030800002F002EBD27100EB61066D1C17460023C3
:1030900041464846FFF774F8012413E004FB04F0AE
:1030A00007FB0700B04206DD3B4622464146484644
:1030B000FFF766F87F1E3B46224641464846FFF72B
:1030C0005FF8641CAC42E9DDBDE8F0871CB5002464
:1030D000019401AC009400F0E7F81CBD2DE9FF4F0E
:1030E00083B0814606988A46A0EB0A08109E00200D
:1030F0000090A2EB09043568934654EA080018D002
:103100002046FDF75AFB07464046FDF756FB87422F
:103110000BDA2046444680464846D1468246584609
:10312000DDF818B0069001200090002C07DD204645
:1031300006E007B04846BDE8F04F00F03BB96042FA
:10314000A0420AD04846D9466442C8F100088346E6
:103150004FF0FF37DDF818A000E001275148B8F123
:10316000000F11D004EBD4714FEA610B01DACBF1FF
:10317000000B4C480068807E88B3002F02DA30686C
:103180002044306000257BE000990029016821D0AF
:10319000897E11B10027804615E007B05A4649469E
:1031A0005046BDE8F04F04F0EFBC28466D1C12F00D
:1031B00065FC38B9D8F8000009EB0701C06E426819
:1031C000504690477F1CA742EFDD6D1E356007B06B
:1031D000BDE8F08F8A7E1AB10027804617E019E01B
:1031E000C86E5A465146036807B04846BDE8F04FDE
:1031F000184728466D1C12F041FC38B9D8F8001069
:1032000009EB0700C96E4A68514690477F1CA742E8
:10321000EFDDDAE700250FE008FB05B090FBF4F1E5
:1032200001EB0A00009951B11E4A09EB0501126831
:10323000D26E526890476D1CA542EDDDC7E7194973
:1032400009EB05030968C96E4A6801461846F1E7AB
:1032500008FB05B090FBF4F101EB0A000190306827
:103260003844306012F00AFC48B9009890B10D481B
:1032700009EB05010068C06E4268019890476D1C1B
:10328000A542E5DD3068002F01DA20443060C01B24
:1032900030609CE7034909EB05000968C96E4A687C
:1032A0000199EBE7E85502202DE9FF470F46404919
:1032B0001646804609680C981D460A7E012A1CD0D5
:1032C000A8EB0600791B50EA01031CD0A2F101090A
:1032D00013F086FE00F58060824604F083F800FB60
:1032E00009F4504604F082F800FB09F1002C0CDAD6
:1032F000C4F50070801240420AE000903246394620
:103300004046FFF7EBFEBDE8FF8704F50074A0120E
:10331000002904DAC1F5007189124C4202E001F57E
:1033200000718C12002804DD411C01EBD1714910A1
:1033300003E000EBD0714910401E00EBD07042104A
:10334000002C04DD601C00EBD070401003E004EBA7
:10335000D4704010641E04EBD47308EB0104ADF884
:1033600000403C18ADF80240A8EB02045B10B21A12
:10337000ADF80440ADF808203144FC1AEA1AADF863
:103380000C102844ADF80A20ADF80E000023ADF86B
:1033900006401A460421684600F07AF8394640464D
:1033A0000EF002FE294630460EF0FEFDABE70000AF
:1033B000E8550220064A13681A7E012A05D0521EDB
:1033C00002EBD272521000F005B8DA6E5268104764
:1033D000E85502202DE9F05F0646884640F2C320FA
:1033E00050434FF47A7190FBF1F702FB02F002EBCD
:1033F000D27100EB610B254914467F1C09683244E9
:10340000301BC96E0B684146984701253AE000BF62
:1034100005FB05F004FB040159451CDDBC4219DD28
:103420001A4B06EB050AA6EB05091B68AAF1010277
:1034300008EB0401DB6E09F101001B689847134B90
:10344000AAF10102A8EB04011B6809F10100DB6E7F
:103450001B689847641E0D4806EB040AA6EB040996
:10346000006808EB05015246C06E0368484698475D
:103470000648A8EB050152460068C06E036848463E
:1034800098476D1CBD42C3DDBDE8F09FE8550220A2
:103490002DE9FF4F40F6FF740F46664283B09B460E
:1034A000814600210BE000BF09EB8100B0F902006A
:1034B000A04200DA0446B04200DD0646491CB9428B
:1034C000F2DB68480068406900280DD0B0F90610AA
:1034D0001A46A1EB0B01B14200DA0E46B0F9020028
:1034E000801AA04200DD0446B5E0DFF87CA1002090
:1034F0000546CAF8000089E0781E854201DA6B1C97
:1035000000E0002309EB850C09EB8302BCF9020003
:10351000B2F90210A04245D1A14215D139F92330A8
:10352000059A39F9251003EB020C4E4A05981268EA
:10353000084404EB0B01D26E6045136801DA624661
:103540002BE00246604628E02846A4464FF00008DB
:103550007A1E0BE008B1401E00E0781E09EB8003E4
:10356000B3F90230634504D108F101089045F1DB5D
:103570002346A34249D0A3EB040239F92500A1EB6D
:10358000040C059B92EA0C0209D4364A184404EB59
:103590000B011268D26E13680246984735E00BF0B3
:1035A000D7FE32E0A14230D001DBA04203DDA042D1
:1035B0002BDBA14229DCE04688420ADC0346A0421C
:1035C00023DC0846A14220DBB8F900C0B2F90010A4
:1035D00008E00B46A14218DCA04216DBB2F900C09D
:1035E000B8F90010E21AA1EB0C0151430029A0EB3D
:1035F000030202DD01EB620102E0A1EB6201491C62
:10360000C01A91FBF0F06044C9E76D1CBD42FFF6A3
:1036100073AF0598009004EB0B00019000208046EA
:10362000054613E01149B8F1000F31F915A009D092
:10363000009901EB0A0208440A490968C96E0B683F
:103640000199984788F0010850466D1C06490968A1
:103650008D42E7DB641CB4427FF747AF07B0BDE89B
:10366000F08F0000E8550220485602205C620220DC
:1036700010B5002002F046FA6FF07F4002F046FAE3
:10368000012002F07DFA002002F082FA002002F010
:1036900089FA002002F042FA0448006802F040FA79
:1036A000BDE81040002002F047BA0000E4550220B7
:1036B000F0B50A4600210023002400BF3DE00125AB
:1036C00005FA01F3156805EA03049C4234D1056844
:1036D0004F000326BE40B543056015794E00B54046
:1036E0000668354305601579012D02D01579022D44
:1036F00016D185684F000326BE40B54385605579D5
:103700004E00B540866835438560456801268E4089
:10371000B5434560456896798E40B6B235434560FD
:10372000C5684F000326BE40B543C560D5794E003D
:10373000B540C6683543C560491C1029BFD3F0BDEC
:10374000F0B5002300244D07ED0E02FA05F3CE106C
:1037500000F1200555F826504E07F70E0F26BE4003
:10376000B543CF1000F1200646F82750CE1000F1E7
:10377000200555F8265045EA0304CE1000F1200537
:1037800045F82640F0BD0246002013690B4201D0E7
:10379000012000E00020704741837047018370479B
:1037A00070B50C46054600F015F9A8682168C1629D
:1037B00061680163A1684163490707D5D0E9002129
:1037C000C0E90012D0E90221C0E90212A189818476
:1037D0002169002903D001DC4FF00001016270BDB6
:1037E0002DE9F0411E4617468846054600F0F2F8DE
:1037F000AC686822414604F58470FCF7E4FE284674
:10380000B8472846B047286980688047A062BDE86D
:10381000F081000010B5044600F0DCF8A0680E4905
:103820004C30114AC1650D4981650D4901660D494C
:1038300081660021C166136843660C4BC0E91E31E6
:103840005168416730F8261C21F0030120F8261C3E
:103850000749416410BD0000555B0120C55F012090
:103860001D5B012087530120885602202B55012023
:103870004D5A012010B5044600F0ACF8A4680C487D
:103880009034102120650B4860650B48A0650B48FB
:10389000E0650B48E0600B482061206BA06654F89F
:1038A0009029204690471020A0630748606410BD0F
:1038B0001D160120C525012015390020453A00209C
:1038C00021530120DD65012008E6012070B50C467A
:1038D000054600F07FF80A48AA6814B1012C08D107
:1038E00003E008490160084902E00849016008490D
:1038F0004160016842F8B01F4068106170BD00006F
:10390000885602203F530120A15401206753012013
:10391000ED540120F8B5846815460F4694F826004A
:1039200080074CD5D4F8FC30204698470646D4F89A
:1039300000312A46394620469847D4F89430054647
:103940001BB100220121204698472069B04201DDC9
:10395000012000E00020A169B14201DA012100E06C
:10396000002108436169A94201DD012100E0002135
:103970000843E169A94201DA012100E0002108437E
:103980000AD06068401E00902368D4F8A4705B1EC3
:10399000002211462046B847D4F8A8302A463146BE
:1039A00020469847D4F89C1020468847D4F8943095
:1039B00005466BB1012200212046984708E0D4F863
:1039C000A83020469847D4F89C10204688470546E2
:1039D0002846F8BD70B504468068002812D14FF41F
:1039E000B875284600F058FA2A460021A06003F076
:1039F0007DFCA0680221C1840121046401620249A6
:103A0000C0F8041170BD00000D3A002010B590B050
:103A1000044620220A496846FCF7D5FD08492022C1
:103A2000203108A8FCF7CFFD606B5DF82010C4F8CA
:103A3000FC1008A951F82000C4F8000110B010BD16
:103A400080A901202DE9F84384689846154694F82A
:103A500026000F46800740D5D4F8FC302046984712
:103A60000646D4F800312A4639462046984705468E
:103A70002069B04201DD012000E00020A169B142CF
:103A800001DA012100E0002108436169A94201DD5A
:103A9000012100E000210843E169A94201DA012186
:103AA00000E0002108430AD06068401E00902368AF
:103AB000D4F8A4705B1E002211462046B847D4F803
:103AC000A8302A46314620469847D4F8A02001B0B5
:103AD00041462046BDE8F0431047D4F8A830F2E74D
:103AE0002DE9F04FDFF828B191B04FF0FF35DBF84A
:103AF0000030B3F922100691DE69B3F92490F4691D
:103B0000A189814206D8E289824203D3471AD4F8B8
:103B1000008012E0D4E9018100296FD00A88824236
:103B20006CD84D88854269D3801A82B2486800EB10
:103B30008200B0F90070B0F90250781C5ED0307E7F
:103B4000A17C10FB01FA217CCDE90801B3F92A60C0
:103B5000304604F0DFFAC0B20E90DBF8000007FB3D
:103B60000A81A37C826B0127CDE90412CDE902739F
:103B7000C069DDE90832C17E807ECDE90001494699
:103B8000069803F09DFE681C18D046F0020004F071
:103B9000C1FADBF80000A37C05FB0A81826BCDE94A
:103BA0000273CDE90412C069DDE90832C17E807E6E
:103BB000CDE900014946069803F082FEDBF80000DB
:103BC0005D46C069417E007E814214D9022E12D02A
:103BD00086F0040004F09EFA2868C069027EC37E65
:103BE00012FB0391437E857E099A06984B4402FBA3
:103BF000050203F0F3FF0E9804F08CFADBF80000E6
:103C0000627C418C1144418411B0BDE8F08F00000A
:103C1000E855022004480068C069C06909B1027C07
:103C20000A60407C70470000E855022002200880AE
:103C30007047C06982898A4202D8C2898A4210D2FA
:103C4000806880B102888A420DD843888B420AD3AB
:103C5000406800EB8100A0EB8200B0F90000002872
:103C600001DB012070470020704700002DE9F04380
:103C70002F4C034687B020681946B0F92A80C069E6
:103C8000C06900F084F800284ED041680088181AF6
:103C900001EBC0054046AE7804F03CFA814620684E
:103CA0006A680123816BCDE90236CDE90421C1693F
:103CB000CB7E8A7ECDE900230B7EB0F924102A78D2
:103CC000B0F9220003F0FCFD2068C069477E067E43
:103CD000B7421DD9C07E47434643B8F1020F17D003
:103CE00001F045F9804601F025F901F00FFF216848
:103CF0002A78CB69B1F92200DB7E12FB0302B1F90D
:103D00002410CB19314403F069FF404601F0FEFE58
:103D1000484604F0FFF920686A78C369B0F92210B8
:103D20009B7E12FB0311418407B0BDE8F0830000C5
:103D3000E855022030B50F4C05460B462068294651
:103D4000C069C06900F023F8002811D041680088DC
:103D500024682A1A0120E46900EBC200085CA47EF2
:103D600010FB04F0002B03D011F8321061431960EE
:103D700030BD0000E855022001200880704700B5E2
:103D8000C06900F004F8002800D0012000BD06E062
:103D900002888A4202D842888A4202D28068002879
:103DA000F6D17047F8B505460C000DD0084600F076
:103DB00015F8060010D000F0F9F8224600902DB159
:103DC0002946FCF779FB04E00020F8BD002103F050
:103DD0008DFA684600F034F93046F8BD002801D06D
:103DE0000BF058BB704738B50546FFF7F7FF0400E6
:103DF00009D000F0DBF82A460021009003F076FAA3
:103E0000684600F01DF9204638BD0000024A1060E7
:103E100021F0030050607047D861022010B50028DF
:103E200014D004460A48006B10F8341000290DD055
:103E300002290BD2042101EBC401415848680BF060
:103E4000A3FA2046BDE8104011F058BA10BD00009A
:103E50001C610220002805D0034A916B016001B16A
:103E600048609063704700001C61022010B5044652
:103E70000068FFF7D3FF0020206010BD70B50D462D
:103E80000646002405E000BF06EB8400FFF7EEFFC6
:103E9000641CAC42F8DB70BD2DE9F04104460FF024
:103EA00067FD2648E41C24F00305C16B2D1DA942C3
:103EB00000D90D46846B13E054F8042CAA420ED1AD
:103EC00084B1216809B162684A60616809B12268F9
:103ED0000A60826BA2422ED1216881632BE02468A4
:103EE000002CE9D18046416B80680F1857F8040C0C
:103EF0003E1A306838B1002011F0CAFB57F8040CA4
:103F00003E1A3068B8B97068A84214DB3044441BCC
:103F1000304611F075FBD8F80810491BC8F8081096
:103F2000D8F810102944C8F8101070683146401BAA
:103F30000BF02AFA20C42046BDE8F0811C61022063
:103F400010B500240FF014FD0C490F2001EBC00246
:103F5000126C1AB101EBC000006C08E0401EF5D5F0
:103F600008E04168A14200D90C46806810B1806821
:103F70000028F6D1A4F10C0010BD00001C61022045
:103F8000024881680068081A704700001C6102201E
:103F9000002138B10449042202EBC000096B085823
:103FA00041680C39084670471C61022005498A693E
:103FB000521C8A61096B01EBC0010A78521C0A701D
:103FC00000F056B81C6102207CB506460C46084637
:103FD000FFF704FF05001CD0DEB13046FFF7D8FF25
:103FE000A04200DA04462846FFF7E0FF0090304682
:103FF000FFF7DCFF0146019022460098FCF75CFACF
:10400000684600F01DF801A800F01AF83046FFF7E6
:1040100005FF28467CBD000010B5FFF791FF642224
:104020000649B0F5800F04D990FBF2F0C969484306
:1040300010BDC9694143B1FBF2F010BD1C61022003
:104040000A4902680B6B52F8082C03EBC202137882
:10405000022B03D38B690BB15B1E8B611178491E58
:104060001170002101600846704700001C610220A9
:10407000002806D00349042202EBC000096B08584F
:10408000083070471C6102202DE9FC414FF000060A
:104090000B465FEA000834462BD032B11146184671
:1040A000FFF780FE060000D101244046FFF77EFFA7
:1040B0000090078845686846FFF7C2FFCCB9B90091
:1040C000091D2846FFF780FF050015D0FFF76EFF9A
:1040D000019040F8276001A8FFF7B2FF4046FFF7C4
:1040E00065FF009045600188491C01806846FFF724
:1040F000A7FF2046BDE8FC813046FFF78FFE012474
:10410000F7E70820FFF76FBE7CB5050023D0FFF767
:104110004DFF00904068C0B1FFF748FF00240190B8
:1041200005E0019800EB8400FFF7A0FE641C0098F6
:104130000088A042F5DC01A8FFF782FF0098001D6F
:10414000FFF794FE0099002008806846FFF778FF8B
:104150002846FFF763FE7CBD38B5002430B1FFF779
:1041600025FF009004886846FFF76AFF204638BDA7
:1041700038B50D46002448B1FFF718FF29460090D6
:1041800000F018F804466846FFF75AFF204638BD8D
:1041900038B50D4601880024A94209D9406838B1D4
:1041A000FFF704FF009050F825406846FFF748FFEE
:1041B000204638BD10B50024FFF7EAFF10B1FFF725
:1041C000F5FE0446204610BD70B50C46054600F0CD
:1041D0007DFFC1B223462846BDE87040002200F0B2
:1041E00001B80000F0B52D271C68B0F1004F08D0D1
:1041F000002500280DDA661C1E602770404201244D
:1042000008E0661C01251E606FF000402770491E03
:1042100001E00024091BC9B22AB3491EC9B222E039
:104220000C46491EC9B2944205D1124C27781C682D
:10423000661C1E602770104C54F8216090FBF6F449
:10424000E4B20A2C11D804FB160011B90DB1641C9C
:10425000E4B20A2C02D10124491CC9B21E683034D0
:10426000771C1F6034700029DAD1196800200870AB
:10427000F0BD0000DC5502204CCC012010B5002818
:1042800007DD0A682B24531C0B6014700968002298
:104290000A7010BD70B506460D461446104600F073
:1042A0006DFE0300164804EB84010AD050F821008B
:1042B00041688068711A2A1ABDE87040184601F0FA
:1042C00039BC00EB8104A268B24201D0012200E0B7
:1042D0000022E368AB4201D0012300E000231A432F
:1042E0000CD0236943B150F82100816840686A1AF4
:1042F000311A184601F0A0FBC4E9026570BD000048
:104300008063022010B5C2B2CBB2D21A02D5C2F17C
:10431000000212B293B2C0F30722C1F3072403FBD9
:1043200003F3121B01D5524212B2000C92B2A0EB61
:10433000114002FB023200B2002801DA404200B212
:1043400080B200FB002010BD10B50021084600F02F
:1043500081FE40F6FF725042BDE810401346014610
:10436000AFF300802DE9FC4107461C4615460E467A
:10437000042003F0CFFE80461148C068C16C006D78
:104380000F4406440D440444ADF80070ADF80450E9
:10439000ADF80260ADF8064068460AF079FB07E028
:1043A00023462A463146384603F018FC0AF024FB1F
:1043B0000028F5D1404603F0ADFEBDE8FC810000C9
:1043C000DC550220B0F90630B0F90420B0F9021033
:1043D000B0F90000FFF7C6BF2DE9F0411C461646B4
:1043E0000D460746022B02DB0020BDE8F0811C20B1
:1043F000FFF752FD0028F8D00DB105610AE0094A27
:1044000052F8241009B905E011460A68002AFBD1C8
:104410000969016184618682002101604160C0E90F
:104420000217E2E70056022070B51D46FFF7D4FFE1
:10443000040001D000F00EF8E068006820B90348DD
:10444000006800EB85008465204670BDE8550220B9
:10445000FFF700BD70B590B38269022A30DA1C4CB8
:1044600054F8221019B944F822002FE019464B687D
:10447000002BFBD106E0CB68C5681B682D68AB42FA
:1044800003DD09680029F6D11AE0C1B1CB68C6681E
:104490001B683668B3420CD1838A012B05D008E033
:1044A0001946DB681B68AB4203DB0B68002BF7D1B6
:1044B00029B14B6833B118604A68426004E0FFE7F5
:1044C000012070BD44F8220048600160002070BDEA
:1044D0000056022012F02CB8022801DB00207047A1
:1044E000054A52F8200004E0C26812688A42F6D0F9
:1044F00000680028F8D1704700560220022801DB2E
:1045000000207047054951F8200004E0C16809689F
:104510000029F6D000680028F8D170470056022024
:104520002DE9F8431D461646884604000CD0FFF7D7
:104530003DFD0090006807686846FFF781FD2B4647
:10454000324641462046B847BDE8F88370B5044678
:1045500001F0B2FD051908E000F0EAFB052C01DDD1
:10456000052000E0204601F099FD01F0A5FD2C1A80
:10457000002CF1DC70BD002200F011B87FB51E46A2
:1045800014460D46CDF80CD003AB00223146FFF7A0
:1045900029FE22462946684600F0C8F87FBD1FB5AF
:1045A00003ABCDF80CD0FFF71DFE684600F03EF8D7
:1045B0001FBD10B504462DED028BB0EE408ABDEE56
:1045C000C80A10EE100A00F081FD211AB5EEC08A6B
:1045D000491EF1EE10FA05D218EE100A10F1814FC3
:1045E00000D2491E002900DA0021B0EE480ABDECD5
:1045F000028B2046BDE81040C9B200220BF090BCEF
:104600007FB50C461546CDF80CD003A9FFF736FE52
:10461000002801DD641EE4B203AB2A462146FFF701
:10462000E1FD684600F002F87FBD00002DE9FC477F
:1046300006005BD000F0ACFC3B4C81462068B0F932
:10464000228000F0D9FC216807468A8CD01B888420
:1046500041E000BF47F6FF71304602F00BFC824696
:104660000146304602F0DCFB2168054691F82C003B
:1046700000F0030001283FD0022839D000204A8CE6
:10468000101A4884ADF800006A1E1044ADF804000A
:10469000888CADF80200A9F101010844ADF80600CC
:1046A0006A465146304601F03BFF2168BDF80200E2
:1046B00088845146304601F0B3FB064430780A281E
:1046C0001CD00D281AD0BDF8000021682844488469
:1046D000307818B1761C30780028BBD12068818CE6
:1046E00039448184818D21F003018185BDE8FC87F7
:1046F00005EBD5704010C2E72846C0E7206890F867
:104700002C1001F0030101290BD0022909D0018CE2
:10471000418431780A29DBD1828C02EB0901818442
:10472000D6E7A0F82280F4E7E8550220024B1B6888
:1047300059849A84FFF77ABFE85502202DE9F041A9
:1047400007460A4815460E460068B0F92C0040F0AE
:10475000020001F01DFA04462A4631463846FFF7AA
:10476000E5FF2046BDE8F04101F012BAE85502200D
:1047700047F6FF73AFF300802DE9FC411F469046DA
:1047800006000D464FF0000416D065B1084609F04A
:10479000EBFF040007D002462946684602F0D7FB2B
:1047A000684609F0E1FF3B4642462946304601F0A3
:1047B0000FFF204609F0D8FFBDE8FC812DE9FF4F2F
:1047C00085B090468A46070078D00C68DAF8046015
:1047D00021B230B2401A401C029000F0D9FB0546CD
:1047E00018F00C0F1ED03846089A029901F033FCDD
:1047F00008F00C01042904D0082902D00C2911D199
:1048000004E0311400FB1510401C09E02114C1EB39
:10481000264200FB1520401C00EBD07001EB60002D
:1048200060F31F44504601F06FF9A5F1010B0490AD
:104830003846089A029902F027FD03904FEA24496E
:1048400009EB0B0060F31F46CDE90046384603999B
:1048500002F0E6FA18F003010ED0012928D002294F
:104860000ED1BAF90420BAF90010521A101A00EB4E
:10487000D07001EB600001E0BAF80000ADF8000074
:104880006A463846039901F04BFE3846089A029969
:1048900002F0F0FC074409EB050060F31F44387890
:1048A0000028C5D1049809B0BDE8F04F01F02CB93B
:1048B000BAF80410081A401CE0E7FFE709B0BDE8A9
:1048C000F08F00002DE9FC4791460D4A9846DDE93E
:1048D0000A761268D36C1D18106D441800200AF077
:1048E000D7F809E0CDE9007643464A4621462846F6
:1048F000FEF7EAFA0AF080F80028F3D1BDE8FC8759
:10490000E85502207CB5064610480068C36C006D6F
:104910005D1884183188681E0844ADF80400ADF8AD
:1049200000507188601E0844ADF80600ADF80240E2
:1049300068460AF0ADF806E0224629463046FEF702
:1049400045FB0AF059F80028F6D17CBDE855022055
:104950007CB514460F4A1268D36C1E18106D4518AA
:10496000301BADF800003019ADF80400281BADF87D
:1049700002002819ADF8060068460AF089F806E03A
:10498000224629463046FEF76FFB0AF035F800282C
:10499000F6D17CBDE85502201CB50A4601466846A2
:1049A00002F0E2FB2448BDF80010006830F84C2FFC
:1049B0001144ADF80010BDF8021082881144ADF822
:1049C0000210BDF8041002881144ADF80410BDF8BF
:1049D000061080880844ADF8060068460AF058F8CA
:1049E00027E000BFBDF900400BE000BFBDF9021099
:1049F000204603F095F8BDF90610204603F090F824
:104A0000A41CBDF90400A042F0DABDF902400AE09E
:104A1000BDF90000214603F083F8BDF904002146EA
:104A200003F07EF8A41CBDF90600A042F0DA09F0FC
:104A3000E3FF0028D6D11CBDE85502202DE9F04F38
:104A40000C46164987B00D68DDE91098E96C0F181F
:104A5000286D8D180619C418ADF81070ADF81450F3
:104A6000ADF81260ADF8164004A80AF011F800285D
:104A700011D0DFF82CB04FF0000ACDE90098CDE955
:104A800002BA2B462246394630460DF074F909F039
:104A9000B3FF0028F1D107B0BDE8F08FE855022040
:104AA000897B00202DE9F04F164C87B02568DDE9A1
:104AB0001098EC6C2718286DA5184618C418ADF886
:104AC0001070ADF81450ADF81260ADF8164004A89F
:104AD00009F0DEFF002811D0DFF82CB04FF0010AFA
:104AE000CDE90098CDE902BA23462A463146384638
:104AF0000DF041F909F080FF0028F1D107B0BDE8C1
:104B0000F08F0000E8550220C97A00202DE9FC4111
:104B1000104F04463B68D86C4518196DADF800502D
:104B20000E198418ADF80440ADF80260ADF80660C7
:104B3000684609F0ADFF08E0386822463146C06E8D
:104B400003682846984709F057FF0028F4D1BDE8CC
:104B5000FC810000E85502202DE9F0410B4C25684E
:104B6000EC6C2718286DA5184618C418002009F009
:104B70008FFF07E023462A4631463846FEF7A6FA5D
:104B800009F03AFF0028F5D1BDE8F081E855022090
:104B900070B5094A1268D36C1C18106D45180020B6
:104BA00009F076FF05E029462046FEF703FC09F0F0
:104BB00023FF0028F7D170BDE85502202DE9FC4104
:104BC0001C4C2468E66C94F818C03718206DACF1C2
:104BD000010C4518C418A7EB0C001644ADF80000F2
:104BE00006EB0C00ADF80400A5EB0C00ADF80200DC
:104BF00004EB0C00ADF80600684609F049FF15E02B
:104C000032462946384602F05FFF32462146384692
:104C100002F05AFF621E691C384602F0B5FF621EA0
:104C2000691C304602F0B0FF09F0E6FE0028E7D12B
:104C3000BDE8FC81E855022070B50E468EB00446F2
:104C40000146154606A802F06CFABDF81A30642B2E
:104C50000CD1002000900AAB01AA214606A801F061
:104C600041FC2A46314601A8FFF74CFE0EB070BD4C
:104C70007CB50E4B1B68DC6C2618186DADF8006017
:104C800045188418ADF80460ADF80250ADF8064040
:104C9000684609F0FDFE06E022462946304602F04D
:104CA00073FF09F0A9FE0028F6D17CBDE85502206B
:104CB00070B51B4C05466069E0B904F12401194840
:104CC0000860084602F05EFA012000F0DFFE0020D6
:104CD00000F0DCFE144900231A4601F11800FFF72A
:104CE0007BFB606103F017F8C01DC008E061FFF7AF
:104CF000D3F820610D4955B1606808B1012070BD3D
:104D00000A686260084A00204C320A6070BD62681E
:104D100022B101200A600021616070BD002070BDD9
:104D20001C56022049400120A8A801204C5902200D
:104D300010B5002400E0012400F004F80028FAD1A6
:104D4000204610BD064810B50068002410B1804709
:104D500000B1012408F028FE00B10124204610BD56
:104D6000085602202DE9FC410F4C2568EC6C2718F1
:104D7000286DA5184618C418ADF80070ADF8045099
:104D8000ADF80260ADF80640684609F081FE07E024
:104D900023462A463146384602F020FF09F02CFE11
:104DA0000028F5D1BDE8FC81E8550220B0F90630B5
:104DB000B0F90420B0F90210B0F90000FFF7D2BF3B
:104DC0002DE9F04F2D4C87B02568EC6C2D6D04EB70
:104DD000000A04EB02096E1805EB0308ADF808A001
:104DE000ADF80C90ADF80A60ADF80E8002A809F09D
:104DF0004FFE00283FD0A8EB0600401C0590109CF9
:104E00000598B0EB440F32DBA9EB0A00401CB0EB75
:104E1000440F2CDB04FB04F02746354606EB040B5D
:104E200004901AE0049807FB170002F0A2FA0AEBBC
:104E30000401091A0191A9EB0401084402460090FB
:104E40002946019802F040FEDDE90020A91BA8EBED
:104E5000010102F039FE6D1C7F1EAB45E2DAA8EBC2
:104E600004035B1E4A462946504602F0B7FE09F08D
:104E7000C3FD0028C3D107B0BDE8F08FE85502207C
:104E800008B50B46002805D0009281888268C0884A
:104E900000F001F808BD10B50828029C30D008DCED
:104EA00004FB01F401280AD0022813D0042804D1FD
:104EB0001CE0102828D020282CD0002010BD04EBA6
:104EC000D30003F00701105CC1F10701C84000F0F6
:104ED000010010BD04EB93000621105C01EA4301C0
:104EE000C1F10601C84000F0030010BD04EB5300FF
:104EF000D907105C02D000F00F0010BD000910BDF2
:104F000004FB0130105C10BD481004FB003032F887
:104F1000100010BD881004FB003052F8200010BDB6
:104F2000034951F82000C1688A6A0821104700002F
:104F30000056022010B502F081FEBDE8104002F0DC
:104F400027BF000002490968C9694A680021104763
:104F5000E8550220024A1268D269526810470000E0
:104F6000E8550220002801D008F05EBD704710B55A
:104F700002F06CFEBDE8104002F00ABF00210228DA
:104F800002D2024951F820100846704738590220D1
:104F900002480068C069407E70470000E855022062
:104FA00010B906480068C0690830027E8A70827EA7
:104FB0000A71427ECA7050F808291047E85502204D
:104FC00001F024BF70B514460D4602F08BFE002898
:104FD00002D000202860206070BD01F075BF10B5C0
:104FE000044601F063FF01462046BDE8104001F091
:104FF00017BF01F061B800000A490020096891F864
:105000002C2002F00C02042A07D0082A01D00C2A16
:1050100002D1C869007E40087047C869007E401E02
:1050200070470000E8550220017EC07E11FB00F0B1
:1050300070470000024951F820000069006870477D
:1050400000560220024951F820000069406870476C
:105050000056022070B50D460EF0F8FA04462846B8
:105060000EF0FCFA204370BD124810B5016821F023
:105070000101016010480121816010490160006850
:105080000F49884200D0FEE701F00CFA0D492E20AE
:10509000087001F017F80C480EF032FC13F0BEFC5B
:1050A00004460021084600F04FFD08F0CDFF2046E1
:1050B00010BD0000002000E000300240C2A507F44F
:1050C000CDB5E8B5DC550220E461022010B5011E23
:1050D00001DD024600E04A42064B012053F8204021
:1050E000944202D8401C0A28F8DB002900DA401C50
:1050F00010BD00004CCC01201CB520B90C48006844
:10510000006E002812D0FEF751FF009044696846F7
:10511000FEF796FF002C09D02046FEF747FF0190CE
:1051200081688968884701A8FEF78AFF1CBD0000D6
:10513000E855022001490A4600F002B801F0FFFFDD
:105140002DE9F04387B015460C465FEA000842D0CF
:10515000002000F0E3FC814620480068066E4046CF
:10516000FEF724FF00900068806900F07DFC074690
:1051700040F6FF70001904D10098B0F90440B0F96E
:1051800006500098611E0289ADF804401144ADF844
:1051900008104189681E0844ADF80650ADF80A00B1
:1051A00008F034FA6846FEF74BFF01A809F070FCDE
:1051B00006E02A462146404600F03AFB09F01CFC76
:1051C0000028F6D1384600F04FFC304600F084F954
:1051D000484600F0A3FC07B0BDE8F083E855022084
:1051E0002DE9FE4F834619488A46194900680C9EEE
:1051F0009846407C9146002751F82040E1680968B4
:10520000042903D02468002CF8D100E014B9FFF77A
:1052100075F904460121E068C26A204690470500FE
:1052200011D02469A0688047401C02D1094C46F087
:1052300001060096CDE9015443464A465146584678
:1052400000F0D6F907463846BDE8FE8FE855022043
:105250000056022084CC012038B5040018D00D4837
:105260000068006EA04201D100F0F4FB2046FEF77A
:105270009DFE0090406908B100F0DBFE00980068D8
:10528000FFF7E6F86846FEF7DBFE2046FEF7C6FDB0
:1052900038BD0000E85502202DE9FF4F83B0454C92
:1052A000DDF840B098468A4607002BD002A901A835
:1052B000FFF793FEB7F90060002E00DA0026B7F979
:1052C0000250002D00DA00252068A146407C02F043
:1052D0001FFD01990144491EB7F904000EF0EAFCD4
:1052E0000446D9F80000407C02F018FD0299014400
:1052F000491EB7F906000EF0DDFCA71B7F1C441BFE
:10530000641C0BE0206800263546407C02F000FD5E
:1053100007462068407C02F001FD0446B8F1000F0A
:1053200001D1C4F10008002F01DD002C03DC0020B6
:1053300007B0BDE8F08F43463A4629463046CDF8DF
:1053400000B0FFF74DFF5FEA000909D000F090F8C8
:105350008046484600F0C0F80027DFF85CB01FE048
:105360005146059888470120E2E7E11B414502DAF2
:10537000484600F09BF83FB1EA193146484600F034
:10538000D5F84846FFF7B8FE514605988847DBF840
:10539000001009B1002088474846FFF7CBFE47447C
:1053A000A742E2DB4846FFF757FF002000F094F8E1
:1053B000BDE70000E85502206459022038B50024FA
:1053C00060B1FEF7F3FD00900068006980688047D7
:1053D00003F07EF904466846FEF732FE204638BDEB
:1053E00038B5FEF7E3FD00F1180400906846FEF7BB
:1053F00027FE204638BD000038B5002418B90748FC
:105400000068006E38B1FEF7D1FD0090B0F904409D
:105410006846FEF715FE204638BD0000E85502201C
:1054200038B5002418B907480068006E38B1FEF797
:10543000BDFD0090B0F908406846FEF701FE204629
:1054400038BD0000E855022038B5002418B90748D7
:105450000068006E38B1FEF7A9FD0090B0F9064073
:105460006846FEF7EDFD204638BD0000E8550220F5
:1054700038B5002418B907480068006E38B1FEF747
:1054800095FD0090B0F90A406846FEF7D9FD204628
:1054900038BD0000E855022010B50AF067FC00286E
:1054A00003D0BDE8104000F06DB810BD38B50C4613
:1054B00020B908480068006E00280AD0FEF776FD83
:1054C0000090B0F90A10A14200DD44816846FEF761
:1054D000B7FD38BDE8550220F8B5134E0500306819
:1054E000046E0CD00CB100F0B5FA08F0A9F928460A
:1054F000FEF75CFD009031680A6E1AB106E000F01C
:10550000A9FA0EE0D1E90223C1E919230D6600686A
:10551000FEF7A0FF6846FEF793FD02F059FE02F089
:10552000D9FD2046F8BD0000E85502207CB515469F
:105530000C4620B912480068006E00281FD0FEF704
:1055400035FD2DB20090C58024B2848002F0C2FDEA
:105550000098406980B1FEF729FD009A0190B2F9E8
:1055600008108180B2F90A20C28011B10AB104800A
:10557000458001A8FEF764FD6846FEF761FD7CBD2D
:10558000E855022001490A4600F002B801F0FFFF89
:105590007FB515460C46060028D0FEF707FD40F6FD
:1055A000FF710190091903D1B0F90440B0F9065018
:1055B0000289611E1144ADF80840ADF80C10418914
:1055C000681E0844ADF80E00ADF80A5001A8FEF7B9
:1055D00037FD02A809F05CFA06E02A46214630466B
:1055E00000F00EF909F008FA0028F6D17FBD00009E
:1055F0002DE9FF4FDFF8E0B083B01C46DBF8001068
:10560000DDE91060924600274B7C3A461299FEF77E
:10561000E3FE05005DD028698068804703F058F8F4
:1056200081460AFB09F0C01D4FEAD008FEF7F4FCE2
:10563000F10705D1C11700EB9170801000EB40001D
:10564000002C06DC1838B0FBF8F06442A04200DC05
:105650000446F00707D10090DDE9030123465246D6
:1056600000F05EFC0746002C03DC2846FEF7F0FE47
:105670002FE004FB08F01830F10702D0FEF7AEFB74
:1056800001E0FEF7B0FB06001CD0FEF78FFC019096
:105690000560039981800499C180A0F808A0448125
:1056A000C0F80C80C0E9049701A8FEF7C9FC129865
:1056B000AE602861DBF80000407CA861304607B08E
:1056C000BDE8F08F2846FEF7C3FE17B13846FEF757
:1056D000A5FB0020F3E70000E8550220014908601F
:1056E00070470000645902202DE9F74F92B09046B0
:1056F0001298FEF75BFC0B90B0F908100691B0F918
:105700000A100D9100680069D0F804B00BA8FEF7EC
:1057100097FC384C384D2068407C55F82000C16813
:105720008A6A082190478146182801D34FF0200942
:105730002068407C55F820000069079003C80C9051
:105740002E48814201D0012000E00020109000206E
:1057500000F0ECFC002849D10026DDE91207B24632
:105760000FAB069C4546761C0193FFF739FE0146B8
:1057700004FB0AF001EB8002234629463846CDF8A7
:1057800000B000F0D5FF050030D01098D0B1DDE9B1
:1057900006134A46284600F0CAFD98B9DDE90670AE
:1057A0002C46D0F810C0BCF1000F05D029460423C8
:1057B0003A460846E04705E00C992068884701C44E
:1057C0007F1EF9D10020CDE903050590012000904E
:1057D000CDE901094146034608F10108069A1398EC
:1057E00002F06EF80D98401E0D90B6D115B0BDE8D0
:1057F000F08F0000E855022000560220AF7D002007
:10580000F8B515460E460746FEF7D0FB0090006837
:105810001621C068426A0020904704466846FEF799
:105820000FFC002C03D02A4631463846A047F8BD6D
:10583000F8B515460E460746FEF7B8FB00904469DA
:105840006846FEF7FDFB3846FFF7B8FD034608281B
:1058500000DD2CB12A463146384610F0D5FEF8BDA1
:105860002A463146384611F067F8F8BD10B50028D1
:1058700021D009B30AB3B1F90040B2F900309C421B
:1058800000DA23460380B1F90240B2F902309C42AB
:1058900000DA23464380B1F90440B2F904309C4257
:1058A00000DD23468380B1F90610B2F9062091424B
:1058B00000DC1146C18010BD11460A6802604968CB
:1058C000416010BD00280BD003880B4403808388FF
:1058D00019448180418811444180C1881144C180AC
:1058E0007047000070B5104D0446D5E900018842AC
:1058F0000ED10E49884203D1D0E90F12406C03E06B
:105900000C38D0E9001280682160C4E9012006E06B
:1059100090E80E0084E80E000DF0B6FE2860207AB4
:10592000002800D0012070BD30590220F062022012
:105930000448D0E90010814201D1012070470020C5
:105940007047000030590220054A10B50349116024
:1059500010F0CAFCBDE8104000F02EB97DDC00203C
:105960000C56022070B5094C0020D4E900218A426F
:105970000AD0D2E9005610460DF090FE2060314664
:10598000284608F067FC012070BD00002459022061
:105990002DE9FC41154DDDE908742D68B5F9086065
:1059A000864200DD3046B5F90C60964200DA324698
:1059B000824219DBB5F90A608E4200DD3146B5F945
:1059C0000E509D4200DA2B468B420DDB00E02C4648
:1059D000E5682D6825B1042D02D02568002DF6D18B
:1059E000CDE9007402F04CFABDE8FC81E8550220D4
:1059F000B0F90220B1F906309A4213DCB1F9022065
:105A0000B0F906309A420DDCB0F90020B1F904304B
:105A10009A4207DCB1F90010B0F90400814201DCC0
:105A20000120704700207047014602487822006834
:105A3000FAF7C9BDE8550220002801D010F06CB972
:105A400070470000024978220968FAF7BCBD0000DF
:105A5000E855022010B502F0F1FA02F0B9FBBDE8FA
:105A6000104007F0D3BD000070B504460548022C75
:105A70000068457C02D24474FFF7ECFF02480460E2
:105A8000284670BDE85502209C5802202DE9F041BF
:105A9000194E050019493068194F407C51F8201003
:105AA0008C6917F8048003D00DF0DEFE60B11FE0B2
:105AB0000521FEF711FD06001AD00020FFF70EFEAB
:105AC0003046FEF707FD12E030680521407CFEF706
:105AD00003FD60B9AFF24B00FFF700FE30680849E4
