:020000042000DA
:10000000001600108D020020D59300208577002077
:10001000D1930020490F002051D60020000000009D
:10002000000000000000000000000000FDC50020EE
:100030001922002000000000319900201DC7002077
:10004000A7020020A7020020A702002099A20020FA
:10005000A7020020A7020020A7020020F52200200E
:10006000A7020020A7020020B9230020A702002039
:10007000A7020020A7020020A7020020A70200205C
:10008000A7020020A7020020A7020020A70200204C
:100090004D0F00205B0F0020A7020020A7020020C8
:1000A000A7020020A7020020A7020020A70200202C
:1000B000F9C80020A7020020A7020020A702002004
:1000C000A7020020A7020020A7020020A70200200C
:1000D000A7020020A7020020A7020020A7020020FC
:1000E000A7020020699D0020A7020020A70200208F
:1000F000A7020020A7020020A7020020A7020020DC
:10010000A702002029AB0020A7020020A7020020A0
:10011000A7020020A702002069C90020BDC9002055
:10012000A7020020A7020020A7020020A7020020AB
:10013000A7020020A7020020A7020020A70200209B
:10014000A7020020A7020020A7020020A70200208B
:10015000A7020020A7020020A7020020A70200207B
:10016000A7020020A7020020A7020020A70200206B
:10017000A7020020A7020020A7020020A70200205B
:10018000A7020020A7020020A7020020A70200204B
:10019000A7020020A7020020A7020020A70200203B
:1001A000A7020020A7020020A702002000F002F80A
:1001B00000F05CF80AA090E8000C82448344AAF1A5
:1001C0000107DA4501D100F051F8AFF2090EBAE8A3
:1001D0000F0013F0010F18BFFB1A43F0010318477B
:1001E000DC0002000C0102000A444FF0000C10F881
:1001F000013B13F0070408BF10F8014B1D1108BFA5
:1002000010F8015B641E05D010F8016B641E01F844
:10021000016BF9D113F0080F1EBF10F8014BAD1C94
:100220000C1B09D16D1E58BF01F801CBFAD505E0B2
:1002300014F8016B01F8016B6D1EF9D59142D6D30C
:10024000704700000023002400250026103A28BF34
:1002500078C1FBD8520728BF30C148BF0B60704738
:100260001FB51AF09CF91FBD10B510BD00F0F3F9D1
:100270001146FFF7F5FF19F0D3FB00F011FA03B4B4
:10028000FFF7F2FF03BC00F015FA000009488047B1
:1002900009480047FEE7FEE7FEE7FEE7FEE7FEE768
:1002A000FEE7FEE7FEE7FEE704480549054A064B80
:1002B000704700003DC70020AD0100200000001085
:1002C00000160010000600100006001040EA0103AE
:1002D00010B59B070FD1042A0DD310C808C9121FEF
:1002E0009C42F8D020BA19BA884201D9012010BD29
:1002F0004FF0FF3010BD1AB1D30703D0521C07E0F6
:10030000002010BD10F8013B11F8014B1B1B07D159
:1003100010F8013B11F8014B1B1B01D1921EF1D1CA
:10032000184610BD40EA0103024630B59B0710D1C4
:100330004FF0013400E008C208C91D1B9D4315EAB7
:10034000C41FF8D013F0FF0102F8011B0DD01B0AE7
:10035000F8E711F8013B002B02F8013B05D011F83A
:10036000013B002B02F8013BF3D130BD10B5431C1B
:1003700002E010F8011B71B18107FAD14FF0013290
:1003800002C88C1A8C4314EAC211F9D0C01A0A06AA
:1003900003D0C01E10BDC01A10BD0A0401D0801EBB
:1003A00010BD0902FCD0401E10BD421E12F8013FD4
:1003B000002BFBD111F8013B002B02F8013BF9D1D6
:1003C0007047032A40F2308010F0030C00F01580D3
:1003D00011F8013BBCF1020F624498BF11F801CB48
:1003E00000F8013B38BF11F8013BA2F1040298BFAD
:1003F00000F801CB38BF00F8013B11F0030300F017
:100400006780083AC0F0088051F8043B083A51F878
:1004100004CBA0E80810F5E7121D5CBF51F8043BBF
:1004200040F8043BAFF30080D20724BF11F8013B32
:1004300011F801CB48BF11F8012B24BF00F8013B94
:1004400000F801CB48BF00F8012B7047431A28BFC2
:100450009A427FF6B6AF032A1044114440F2268038
:1004600010F0030F1EBF11F8013D521E00F8013DB0
:1004700010F0030F7FF4F6AF11F0030300F09F803C
:10048000083AC0F00B8051F8043D083A51F804CD09
:1004900040F8043D40F804CDFFF7F3BF121D5CBFE8
:1004A00051F8043D40F8043DAFF30080D20724BF6B
:1004B00011F8013D11F801CD48BF11F8012C24BFFE
:1004C00000F8013D00F801CD48BF00F8012C70474D
:1004D00010B5203AC0F00B80B1E81850203AA0E8DF
:1004E0001850B1E81850A0E81850BFF4F5AF5FEA13
:1004F000027C24BFB1E81850A0E8185044BF18C9C6
:1005000018C0BDE810405FEA827C24BF51F8043B6C
:1005100040F8043B08BF7047D20728BF31F8023BC0
:1005200048BF11F8012B28BF20F8023B48BF00F854
:10053000012B704702F0FF0343EA032242EA024222
:1005400000F069B84FF0000200B513469446964695
:10055000203922BFA0E80C50A0E80C50B1F12001D6
:10056000BFF4F7AF090728BFA0E80C5048BF0CC084
:100570005DF804EB890028BF40F8042B08BF7047E2
:1005800048BF20F8022B11F0804F18BF00F8012B54
:100590007047704770477047431A28BF9A427FF6EA
:1005A00097AF104410F0030F11441EBF11F8013D26
:1005B000521E00F8013D10F0030F7FF4F6AF103A21
:1005C000C0F00A8010B531E91850103A20E91850EF
:1005D000BFF4F9AFBDE81040530724BF31E908105C
:1005E00020E9081044BF51F8043D40F8043D12F0E2
:1005F000030F08BF7047D20728BF31F8023D48BF3C
:1006000011F8012C28BF20F8023D48BF00F8012C4A
:1006100070474FF000020429C0F0128010F0030C64
:100620003FF492AFCCF1040CBCF1020F18BF00F8FC
:10063000012BA8BF20F8022BA1EB0C01FFF784BF10
:100640005FEAC17C24BF00F8012B00F8012B48BFF2
:1006500000F8012B7047754600F028F8AE460500FB
:100660006946534620F00700854618B020B5FFF7CD
:100670001BFEBDE820404FF000064FF000074FF092
:1006800000084FF0000B21F00701AC46ACE8C009B0
:10069000ACE8C009ACE8C009ACE8C0098D467047B9
:1006A0000446AFF300802046FFF7E9FD004870479D
:1006B000BC23022001491820ABBEFEE72600020041
:1006C0007047002800DC40427047000038B545689C
:1006D0000446014628460CF0D9FF00282AD020689D
:1006E000304A0F2819D006DC0B2824D00C2810D053
:1006F0000E2851D12FE0112802D028284CD145E0F6
:100700009268002A16D02146284601B0BDE8304044
:100710001047214628465268F7E7284603F0DAFCDE
:100720000090406E0468684603F01EFD002C01D066
:100730002846A04738BD284603F0CCFC009068301E
:1007400003F028FC009803216C3003F02BFC684672
:1007500003F00AFD20E0E168486809680D2902D02D
:10076000202913D105E0002810DD284613F088FF6A
:1007700006E0002804DD2846BDE8384013F080BFBD
:100780002846BDE83840022113F090BFE06818B950
:100790000021284600F096F92046BDE838400DF0CB
:1007A00065BB000084160220F0B585B00DF1280C61
:1007B000BCE8F0004FF0000C8DE8F01000F024F8D9
:1007C00005B0F0BDF0B5044685B08069B4F90850B5
:1007D000668A0027CDE90265CDE900170490B4F9D7
:1007E0000C00B4F91060C118B4F90A00B4F90E5045
:1007F000104433462A4600F007F80546616800F0C9
:1008000081F905B02846F0BDF0B585B00C46DDE9AC
:100810000D514C31DFF850C0DDE90A67CDE902C166
:100820002146CDE900670DF071FA040018D003F0FD
:1008300051FC1022294604900DF012F90498302240
:100840000A493430FFF744FE084D04990C3D2868EE
:10085000486604A803F088FC286841682046884759
:1008600005B02046F0BD0000CD0600209016022005
:10087000F0B5044680688B4989B051F82050606813
:1008800000287DD0052804D006287AD0122879D1F6
:10089000AEE0E86900284FD095E80E008DE80F0023
:1008A00004F110010FC906F09DFA002655F8260044
:1008B00005F086FAA169E8690A1A216901446069AC
:1008C000304404F009FAA169E8690A1A216901446F
:1008D000E069801B04F000FAE169E8690A1A6169BD
:1008E00001442069304404F0A9FAE169E8690A1A70
:1008F00061690144A069801B04F0A0FA761C022EF5
:10090000D4DBA86805F05CFAE069E9696669431A16
:1009100020694218521E3144801C04F029FBE16911
:10092000E869A2690B1A61690144101A401C921E01
:1009300004F01EFBEE6913E05FF0000655F8260098
:1009400005F03EFAE069831BA069821B606981198A
:100950002069304404F018FA761C022EEEDB0226E1
:10096000D5E90301CDE900016169E069084443105C
:10097000A069891C821B2069304404F079F902E0E7
:1009800089E012E08AE0D5E90501CDE90001E369DB
:1009900060690121184401EB6001A0699B1E821B64
:1009A0002069304404F064F978E0206803F092FB99
:1009B000049020680EF046FD40B1A06808B1002008
:1009C00008E00498006F28B1012003E00498406F0C
:1009D00000B10220049901EB8000C56E04A803F069
:1009E000C3FB00231A462846216803F07FFE55E02A
:1009F000206803F06FFB0490866EEEB3B0F95C7074
:100A0000A168D1B3032942D05FF0000100EB81015E
:100A1000406D0C6C05F0EAF9204605F0D1F905A807
:100A200004F0A6FBBDF81410A88B0144ADF8141017
:100A3000BDF81810081AADF81800BDF81600801C93
:100A4000ADF81600BDF81A00801EADF81A00049823
:100A50005E30B0F90220B0F9001005A805F08DF85D
:100A600004A803F081FB022005F002FA304603F0EF
:100A700031FB3A4605A901E00BE006E0079003F0E0
:100A80005DFF07A803F070FB08E00121BEE702212B
:100A9000BCE704A8F6E720680EF076F909B000205C
:100AA000F0BD0000B4D20120044A0349116004499A
:100AB0004A6A486210467047C01602208416022017
:100AC000901602204FF480720029114601D00CF0DC
:100AD00067BE0CF0BFBD000038B50C46054603F0FC
:100AE000F9FA0090064984654166684603F03CFBCC
:100AF00028460EF049F928460DF079FE38BD000071
:100B0000C01602202DE9FF410E4605004FF00104FA
:100B10001CD003F0DFFA0190876E01A8009703F064
:100B200023FB3146684606F0D7FC78B100980024D4
:100B3000B84208D0284603F0CDFA019000998166AA
:100B400001A803F011FB28460DF051FE04B0204629
:100B5000BDE8F081F0B52DED028B85B00120AE49E6
:100B60000870AE490870AE4805F040F94FF6FF70C6
:100B700005F026F9AB4800782A283FD00AF0C0FAE1
:100B8000A8490870084600782A2804D1A6480AF027
:100B900087F9A4490870A34800782A2807D1A249F8
:100BA000B1F8421008040BF033F89E4908709D48D4
:100BB00000782A2805D14FF400600AF02BF99949F2
:100BC0000870984800782A2804D100200BF03AF8E1
:100BD00094490870934800782A2804D1934900204A
:100BE00018F03CFB0AE0002291A193A004F0BEFFA4
:100BF0008C48007805B0BDEC028BF0BD3222AA21F2
:100C000092A003F079FE9748FFF74EFF0DF034FAFB
:100C1000074640F60100002102221E23CDE90072A2
:100C2000CDE90210282264219620FFF7BDFD8E49F0
:100C300008608EA18C480068FFF764FF0DF01CFA75
:100C400007464FF40260002102221E23CDE9007204
:100C5000CDE90210282264214FF49670FFF7A4FD1D
:100C60008349086083A182480068FFF74BFF0DF0BD
:100C700003FA074680490DF045FF01E004F04CF906
:100C80006548007818B1654800780028F6D17648A4
:100C900000680DF01FF9764800680DF01BF9002080
:100CA000714908607249086003F0E2FB5A48007815
:100CB00000287DD15D4918F0D1FA70A1704818F074
:100CC00095FB7049087008460078002871D10A2207
:100CD00005216DA003F010FE534991F840106E4AB3
:100CE00052F8210003F088FD1E2205216BA003F0BD
:100CF00003FE4D48007D801C012101FA00F64A48A0
:100D0000C089401C704348490A7A0121914000FB88
:100D100001F400EE104AB8EE400ADFED650A80EEFD
:100D2000208A0620B0EE480A03F029FD61A003F0F6
:100D300063FD3222052161A003F0DEFD032163483B
:100D4000008803F0FEFC62A003F056FD4622052158
:100D500061A003F0D1FD3449486B0A2103F0F1FC96
:100D60005A22052160A003F0C7FD2F49B1F84200C7
:100D7000052103F0E6FC6E2205215DA003F0BCFD19
:100D8000294991F82800022103F0DBFC002228A168
:100D90005CA004F0EBFE01225EA1614818F074FA39
:100DA0003849087008460078002832D100BF01E0B9
:100DB0002EE021E05A4804AB5A49C26818F052FBB1
:100DC000304908700846007810B904980028EED120
:100DD00000BF00BF524818F036FA524806F0D4FC63
:100DE0004FF010404568504908600146086880F39C
:100DF000088800BFA8470CE000220DA14BA004F01A
:100E0000B5FE0021084618F029FA1E49087000E0D6
:100E100000BF04480078EDE61410022015100220EF
:100E200024BF0120D8110220AC1A0220F01A02209F
:100E30004D6573736167650053442063617264207C
:100E40006973206572726F720000000020424F4F7C
:100E5000542046524F4D2053442043415244203F9A
:100E60002000000071080020AC10022059455300FA
:100E7000B01002204E4F00007D7B0120303A000070
:100E80004C1F0220DC1102202043415244205459BF
:100E90005045203A20000000901002202053445F6B
:100EA000434152442053495A45203A202000000033
:100EB00000008049204D42595445000020534543CD
:100EC000544F522053495A45203A2000D61102204F
:100ED00020204259544500002052524F445543545B
:100EE00020534E203A20000020524341203A200057
:100EF000204D414E55464143545552455220494498
:100F0000203A200053442063617264206973204FAB
:100F10004B210000303A73746D33322E68657800CF
:100F2000281D02200000039008ED00E053442063D8
:100F3000617264206973206E6F7420696E697469D0
:100F4000616C697A6500000000BFFEE710B5002003
:100F500000F0A2FC00F008F810BD10B5012000F070
:100F60009BFC00F02FFB10BD70B586B0FC4880786C
:100F70000C287DD2DFE800F00607263E6A6BCAFE29
:100F8000FDFCFBFAF1E24FF4C070F6490880062040
:100F900088700120C870F4480178F2480171F24865
:100FA0004178F0484171F1488178EE488171EF480D
:100FB0004178EC48C171ED48C178EA48017200F00F
:100FC0000DFDD2E2E6480079E7490870E44840792F
:100FD0004870002009F0F8F8E1488079E34988700A
:100FE000DF48C0794870DE48007AC870002009F0F8
:100FF00087F8BAE24FF4C170DA4908800120C8705E
:10100000DB480178D7480171DA480178D548417149
:10101000D9480178D3488171D8480178D148C17145
:10102000D7480068010ECF488172D5480068010C8E
:10103000CC484172D2480068C1B2CA480172082047
:10104000C8498870084600F0C9FC8EE28DE24FF076
:101050008040008C40F010004FF08041088408462A
:10106000008C40F0010008840120C449086000E0C1
:101070007AE2C4480068002847D0C348007818B115
:10108000C1480078012824D1112007F0DBFD00249D
:1010900000E0641CBD488442FBDBBE2007F0D2FDAB
:1010A000042007F0B1FDBA48008807F0ADFD01202B
:1010B00007F0AAFDF02007F0A7FD002007F0A4FD2F
:1010C000002007F0A1FD0220AF4908700020B149BF
:1010D00008700020B04908604FF40161A948006819
:1010E0000CF0E0FF0646AD493046FFF7F5FC304610
:1010F0000DF0D4FD40F61101A24800680CF0D2FFBB
:101100000646A7493046FFF7E7FC2EE29E480078E6
:1011100018B19D480078012824D1112007F092FDD4
:10112000002400E0641C99488442FBDBBE2007F0E9
:1011300089FD042007F068FD9548008807F064FDEC
:10114000012007F061FDF02007F05EFD002007F0B0
:101150005BFD002007F058FD02208B49087000203D
:101160008C49087000208C49086004E0D6E1B2E1A7
:101170008CE15EE1CCE07A4840797D490860084620
:10118000006800285AD04FF08040008B40F00400E7
:101190004FF0804108830846808940F00200888132
:1011A0002320C862052088636D48C07972490860B1
:1011B000086800EBD0714C1000EE104AB8EEC00A7F
:1011C000DFED780A80EE201A774880ED001A6D482E
:1011D0000068002831D040F613016A4800680CF01E
:1011E00061FF064630460DF049FA40F614016548A5
:1011F00000680CF057FF064630460CF0DAFE40F669
:101200001701604800680CF04DFF06465A48016817
:10121000304608F07AFA30460DF01FFE40F616010F
:10122000584800680CF03EFF0646534801683046B7
:101230000BF0D8F830460CF0BFFE59E048488079F2
:101240004C4908604FF08040008B20F004004FF0C4
:10125000804108830846808920F002008881454843
:10126000006800EB80004FF47A71A1EB4000C906E2
:10127000C8624048006800EB800040F2CA31A1EB30
:101280004000490788633F48006888B340F617016B
:101290003C4800680CF006FF064630460DF0EEF9BB
:1012A00040F61601374800680CF0FCFE0646304652
:1012B0000CF07FFE40F61301324800680CF0F2FE9D
:1012C00006462C480168304608F01FFA30460DF0FB
:1012D000C4FD40F614012B4800680CF0E3FE0646FE
:1012E0002448016830460BF07DF830460CF064FE6F
:1012F0002448006858B140F61801224800680CF0F4
:10130000D1FE06461A480168304600F05FFF2CE126
:101310004FF08040008C20F010004FF08041088496
:101320000846008C20F00100088400201F49087046
:101330009FED1F0A1F4880ED000A00200F4908603A
:1013400010480068002873D00F48007818B10E4884
:101350000078012850D1112007F074FC00242CE003
:10136000D0200220C4200220BC100220C010022085
:10137000E0110220E4110220E8110220F011022005
:101380001864004080130220DA11022020BF0200FE
:1013900046120220DB11022024140040D57B0120DC
:1013A0007108002000004842EC110220F4110220D4
:1013B00000000000F8110220641C70488442FBDB2E
:1013C000BE2007F03FFC042007F01EFC6C4800889C
:1013D00007F01AFC012007F017FCF02007F014FCBE
:1013E000002007F011FC002007F00EFC02206549E8
:1013F000087000206449087000206449086040F6C5
:101400001101634800680CF04DFE06466149304604
:10141000FFF762FB30460DF041FC4FF401615C4880
:1014200000680CF03FFE06465B493046FFF754FB70
:101430009BE05A4840795949097940EA01205849C6
:10144000088058480078C87056484178544801715F
:1014500055480178524841715448006858B953487A
:1014600001784F4881714F48017B4D48C17105207B
:101470004B49887006E04D48017849488171042045
:1014800047498870464800F0A9FA6EE0484800686D
:101490000CF020FD0CF0F0FD0546182040F6180277
:1014A0000023CDE9032002930590032022231A464E
:1014B0000F21CDE900500A2006F0F7FA3C490860F8
:1014C0000121080208F016FC3AA23B49384800689E
:1014D00006F028FA49E031480079324908702F486F
:1014E000407948700020886088702C4880792E49A7
:1014F00008602A48C07930B900202A494860274846
:10150000007A087303E04FF0004026494860254AFE
:101510004FF48071002008F07DFD26E0244800682B
:101520000CF0D8FC0CF0A8FD0546182040F6180277
:101530000023CDE9032002930590032022231A46BD
:101540000F21CDE900500A2006F0AFFA18490860D3
:1015500000214FF4807008F0CDFB16A21749144803
:10156000006806F0DFF900E000BF00BF1448006823
:1015700040F002001249086006B070BD20BF0200B2
:1015800046120220DA110220DB110220241400404E
:1015900080130220D57B012071080020D02002207A
:1015A000C4200220E0190220181202207C1502201B
:1015B000481302200000000048B90B9070C20B9045
:1015C0001464004038B5A7200090A248807B0C2806
:1015D0007ED2DFE800F0060708090A7D427D7D7DA6
:1015E0007DFD2CE12BE12AE129E100209A490860E8
:1015F0009A4908609748007C08609648407C0968D2
:1016000041EA0020954908609248807C096841EAD7
:101610000040924908608F48C07C096841EA006038
:101620008E49086001F0D8FC8C480568E81705EB86
:10163000D0304014401CC1B2082001F07BFC4FF4B4
:10164000B97087490880022088700120C87067211E
:101650008348017100F0C2F9F1E0804800687E49DA
:101660000968401A08281CD37B4800687D4A811805
:10167000042302227748103001F0D0FB764800683E
:101680000830754908604FF4B97075490880022028
:1016900088700120C87067217148017100F09EF9BF
:1016A0003AE06E4800686C490968401A04281DD069
:1016B0006A480068684B1B68C01A012303EB90025C
:1016C00065480068674BC11804236248103000E089
:1016D000B4E001F0A3FB614800685F490968401A63
:1016E0005D49096808445C49086015E05B4800688A
:1016F00059490968401A04280ED157480068594AC8
:101700008118042301225348103001F087FB52480E
:101710000068001D50490860504800684E4909683B
:10172000884259D14D480068011F4E4817F0A2F871
:1017300004464A4800684B49084450F8041CA1423A
:1017400035D14FF4B97046490880022088700120D5
:10175000C87063214248017100F040F900203E4901
:10176000086004E03C480068401C3B4908603A4877
:1017700000683D49405CFF28F4D1374800680A46BC
:10178000811801231A46684601F048FB00BFBFF3E9
:101790004F8F3648006800F4E06035490843001D6B
:1017A00032490860BFF34F8F00BF00BFFEE73148EA
:1017B000006840F000402F4908604FF4B970284994
:1017C0000880022088700120C8706521244800E04C
:1017D00003E0017100F002F931E04FF4C4702049D8
:1017E000088001208870C870084600F0F7F8224889
:1017F00004F0FCFA0522782120A003F07DF82149AD
:101800000968080E032102F09CFF0522BE211EA0DC
:1018100003F072F81B490968C1F30740032102F085
:1018200090FF05224FF4827119A003F065F8154965
:101830000968C8B2012102F084FF00E000BF00BFC8
:101840001048001F006840F010000E49091F086092
:1018500038BD0000D0200220B8150220BC1502209F
:10186000C420022000000808004000080CED00E041
:101870000000FA05103C02403CC6012052454320BE
:1018800000000000186400405445432000000000A0
:1018900045524620000000004D4901EB0011096847
:1018A00001F0020102295AD0494901EB001189686F
:1018B00000EB4002474B03EB82021171444901EBFC
:1018C000001189680A0A00EB400103EB81014A71AB
:1018D0003F4901EB001189680A0C00EB400103EB62
:1018E00081018A713A4901EB00118968090E00EB08
:1018F000400203EB8202D171354901EB0011C96846
:10190000CAB200EB400103EB81010A72304901EBDE
:101910000011C9680A0A00EB400103EB81014A7219
:101920002B4901EB0011C9680A0C00EB400103EBE5
:1019300081018A72264901EB0011C968090E00EB8A
:10194000400203EB8202D172214901EB0011496888
:1019500001F00F0100EB400203EB8202D1701C4941
:1019600001EB0011096840F2FF7202EA515100EBED
:101970004002184B23F82210154901EB0011496869
:10198000090A00EB400203EB8202917030B1124968
:10199000096821F01001104A116005E00E4909683C
:1019A00021F002010C4A116040B10B49091F09687E
:1019B00041F02001084A121F116007E0064908396A
:1019C000096841F02001044A083A1160704700009C
:1019D000B0650040D02002201464004010B50246DB
:1019E00000233048006800F08060B0F1806F01D1C2
:1019F000002113E02B48006800F00060B0F1006F98
:101A000001D101210AE02748006800F08050B0F1C0
:101A1000805F01D1022101E0022010BD1088440541
:101A2000214800EB011004601F4800EB01104068E2
:101A300020F00F041C4800EB011044601A4800EB32
:101A40000110406894782043174C04EB0114606047
:101A500090790406507944EA0044107944EA002061
:101A6000D47840EA0403104800EB01108360907AB8
:101A70000406507A44EA0044107A44EA0020D479FB
:101A800040EA0403084800EB0110C360064800EB7D
:101A90000110006840F00104034800EB01100460ED
:101AA0000020BAE7086400408065004070B52A2530
:101AB0004FF4803400E0641E24B1802009F008F85F
:101AC0000028F8D014B90325284670BD40F2FF5015
:101AD00008F0BAFF2846F8E72DE9F04106462A2724
:101AE0004748056801E04648056815F0450FFAD0FB
:101AF00015F0040F06D00327042008F0A5FF384690
:101B0000BDE8F08115F0010F05D00127012008F094
:101B10009BFF3846F4E708F0D5FFB04202D010270B
:101B20003846EDE740F2FF5008F08EFF002008F045
:101B3000EFFF04463348044201D13846E0E714F091
:101B4000004F01D01C20DBE714F0804F01D00920AA
:101B5000D6E714F0005F01D00A20D1E714F0805FCF
:101B600001D00B20CCE714F0006F01D00C20C7E7A8
:101B700014F0806F01D00D20C2E714F0807F01D0F7
:101B80000E20BDE714F4000F01D00F20B8E714F4C5
:101B9000800F01D01020B3E714F4001F01D01120F2
:101BA000AEE714F4801F01D01220A9E714F4002F2F
:101BB00001D01320A4E714F4802F01D014209FE754
:101BC00014F4003F01D015209AE714F4803F01D0AF
:101BD000162095E714F4004F01D0172090E714F475
:101BE000804F01D018208BE714F4005F01D019203A
:101BF00086E714F0080F01D01A2081E738467FE706
:101C0000342C014008E0FFFD70B52A250F48046818
:101C100001E00E48046814F0450FFAD014F0040FE8
:101C200005D00325042008F00FFF284670BD14F0EE
:101C3000010F05D00125012008F006FF2846F5E731
:101C400040F2FF5008F000FF2846EFE7342C014037
:101C500070B52A250B48046801E00A48046814F0AE
:101C6000450FFAD014F0040F05D00325042008F026
:101C7000EBFE284670BD40F2FF5008F0E5FE284616
:101C8000F8E70000342C01402DE9F04106460F46EC
:101C90004FF02A082248056801E02148056815F040
:101CA000450FFAD015F0040F07D04FF003080420B9
:101CB00008F0CAFE4046BDE8F08115F0010F06D0DD
:101CC0004FF00108012008F0BFFE4046F3E708F09E
:101CD000F9FEB04203D04FF010084046EBE740F267
:101CE000FF5008F0B1FE002008F012FF044614F483
:101CF000604F03D1200C38804046DCE714F4005FCD
:101D000001D01320D7E714F4804F01D01020D2E780
:101D100014F4004F01D00F20CDE74046CBE7000080
:101D2000342C014070B52A264FF480350F480468E2
:101D300002E06D1E0D48046814F0450F01D1002D1E
:101D4000F7D115B114F0040F05D00326042008F0D4
:101D50007BFE304670BD14F0400F05D02A2640208F
:101D600008F072FE3046F5E73046F3E7342C0140C8
:101D700010B586B072B6002003F0E2FF0CF07CF9DB
:101D800004466D490CF0BEFE6C4804F02FF86C4818
:101D9000006800287ED10CF06FF9044669484FF4C2
:101DA000006100220223CDE90043CDE90221049025
:101DB0004FF482734FF4CD720F213C200BF0E9FEFB
:101DC0005F49086060495E4800680BF01DFF4120D4
:101DD000302140F617020023CDE90232CDE904108C
:101DE00003205749096841233A22CDE90010002118
:101DF000F02005F05AFE5549086055A2564953484F
:101E0000006805F08FFD55495048006805F0BFFE99
:101E100008214E48006805F0CCFE4120302140F6F4
:101E200004020023CDE90232CDE904100320444925
:101E3000096841233A22CDE9001000214FF4AA702D
:101E400005F033FE4649086046A248494448006808
:101E500005F068FD41494248006805F098FE0821F8
:101E60003F48006805F0A5FE4120302140F61502EC
:101E70000023CDE90232CDE904100320304909687E
:101E800041233A22CDE900105A214FF4AA7005F0FF
:101E90000CFE00E02EE03649086036A2374934488F
:101EA000006805F03FFD2D493148006805F06FFEE0
:101EB00008212F48006805F07CFE302040F605021E
:101EC0000023CDE903200293059003201C490968F3
:101ED0003A231A46CDE90010C8214FF4AA7005F044
:101EE000E4FD2749086027A227492548006805F036
:101EF00019FD03E0124800680CF0AFFF23490020F1
:101F000008F02AF82149887802230022052102F0EE
:101F10001BFC1FA002F070FC1C494878022102F053
:101F200010FC1CA002F068FC1849C878022102F0DD
:101F300008FC62B606B010BD7D7701206CD201208E
:101F400034130220897D01208080FF005413022079
:101F5000494D41474500000014240B9090D20120C8
:101F60003813022043414C494200000028360B90B0
:101F70003C1302205041494E540000003C480B9055
:101F80004013022000000000505A0B90C0100220A5
:101F90002E0000002E3230000246094B9A4201D238
:101FA000084801E00648103811F0005F03D0064BE6
:101FB0000B40C36002E0044B0B408360704700009D
:101FC00010640240006002407D0F7D0F21B1026865
:101FD00042F00102026003E0026822F001020260A6
:101FE000704721B1026842F02002026003E00268FB
:101FF00022F020020260704730B503460A460020F6
:1020000000240A4DAB4201D2094901E007491039C9
:1020100012F0005F01D04C6800E00C68054D2C40C8
:10202000144201D0012000E0002030BD10640240C5
:10203000006002407D0F7D0F10B511F0800F09D0B8
:1020400022B1436943F08003436103E0436923F015
:102050008003436180290BD02AB1036801F01E047C
:102060002343036004E0036801F01E04A3430360FC
:1020700010BD000010B500220268134B1A40CC6856
:102080000B6823434C6923438C692343CC69234366
:102090000C6A23434C6A23438C6A23434C6B2343CF
:1020A0008C6B23431A430260426922F00702D1E994
:1020B0000B3423431A4342610B6943604B688360CE
:1020C0008B68C36010BD00003F801CF030B58FB03E
:1020D00004460D464FF0FA511A48FFF75DFF002104
:1020E0001848FFF773FF002004904FF00060009045
:1020F0000020039004200B9003200C9002944FF4D6
:1021000000000D90401208900011069000200990E8
:102110000D4801904FF400100E90401207900020DF
:1021200005904FF400300A9069460648FFF7A2FF79
:1021300020210448FFF755FF01210248FFF746FF21
:102140000FB030BD58640240802C014030B58FB0D4
:1021500004460D464FF0FA511A48FFF71DFF0021C3
:102160001848FFF733FF002004904FF00060009004
:102170004020039004200B9003200C9002944FF415
:1021800000000D9040120890001106900020099068
:102190000D4801904FF400100E904012079000205F
:1021A00005904FF400300A9069460648FFF762FF39
:1021B00020210448FFF715FF01210248FFF706FF21
:1021C0000FB030BD58640240802C014038B50C4639
:1021D000050019D001F07EFF009000F01AF800B160
:1021E000401E844200DD04460098B0F93410A1423C
:1021F0000BD08486684601F0B7FF28460CF0F7FA4A
:10220000042128460CF07CFB38BD684601F0ACFF89
:1022100038BDC06B02F034B8704700002DE9FC5F98
:1022200015460746DFF89C8028440190D8F8000046
:102230001C460E46C06E01EB0409494642680198EF
:102240009047781B0090D8F800004946C06E42685D
:1022500000989047D8F8000006EB050B07EB04093F
:10226000C06E5946426848469047D8F80000A6EB31
:10227000050A5146C06E426848469047002C1ED061
:10228000D8F80000361B4546C06E314642680198BA
:10229000904728683146C06E426800989047286889
:1022A0003C1B5946C06E42682046904728685146FC
:1022B000C06E426802B02046BDE8F05F1047BDE83E
:1022C000FC9F0000DC15022070B505460C46611F1E
:1022D000621D284602F0B2FD691F6A1D204602F009
:1022E000FBFC04222146284602F018FC70BD0022A7
:1022F00014F035BB10B5002400E0641C284884426B
:10230000FBD30221274801F0D2FAB8BB08F0F8FE4F
:1023100025490870084600782A2804D1234808F087
:10232000BFFD21490870204800782A2807D11F499D
:10233000B1F84210080409F06BFC1B4908701A48F8
:1023400000782A2805D14FF4006008F063FD164993
:102350000870154800782A2804D1002009F072FC82
:1023600011490870104800782A2811D1104900201E
:1023700016F074FF01200F49087009E0FFE708F02C
:1023800095FB0021084616F069FF012009490870F5
:10239000022000F021F8072007F02AF810BD000005
:1023A00080F0FA0200040240D8110220AC1A022088
:1023B000F01A02203113022010B5002400E0641C42
:1023C00004488442FBD3102000F006F80A2007F0EE
:1023D0000FF810BD80969800014908607047000012
:1023E000143C0140002123498279002A3AD00A4650
:1023F000126803689A430B461A600A1D1268036844
:102400009A430B1D1A60027911440A6803681A4343
:102410000A60184A0832126803689A43154B083359
:102420001A601A1D126803689A43124B0C331A6023
:102430004279102A0ED11A1F126803681A430D4BF5
:1024400008331A601A1D126803681A43094B0C33CB
:102450001A600DE00749427911440A6803681A437B
:102460000A6005E0027911440A6803689A430A6029
:1024700070470000003C014099B1102808D14FF08E
:102480002042126E42F004024FF020431A661CE014
:102490000E4A126842F004024FF02043C3F8802035
:1024A00013E0102808D14FF02042126E084B1A405A
:1024B0004FF020431A6608E0044A1268044B02EA0F
:1024C00003024FF02043C3F880207047800000A033
:1024D000FBFF0F0030B5002100220023446844F0C8
:1024E000080485682C43C5682C4305692C4345695D
:1024F00044EA4524856944EA4531C4692468C569CC
:102500006D6844EA0524C5692D8944EA0544C56916
:102510002D7B44EA0562046A2468056A6D6844EA12
:102520000524056A2D8944EA0544056A2D7B44EAA1
:1025300005630468102C05D14FF020442166A26683
:10254000E36607E0044C21604FF02044C4F8882083
:10255000024C236030BD0000800000A08C0000A071
:102560002DE9F047456804468EB00026284601F064
:10257000B1FD00905C30B0F820A0D0F80C90D0F8FD
:102580002480C76A006800B10668684601F0ECFD67
:1025900005E079682046884700283DD13F68002F34
:1025A000F7D12068142844D009DCA0F10B000728DB
:1025B00039D2DFE800F0BE3989B434B411002028E4
:1025C0007ED004DC17283ED01E282CD14BE02628D4
:1025D0003CD02A2827D110E02846E66801F07AFD91
:1025E0000190717A39B9317A012904D130F87C1F10
:1025F00041F48071018001A88FE0284601F06AFD56
:102600000090E16811B1C0F8841002E0D0F88400B5
:10261000E060684601F0A8FD0EB0BDE8F087002E2E
:102620007DD02846B0477AE02146284612F072FA5B
:10263000F2E705A9284600F0D1F9E06806990160A3
:1026400007994160E8E7C4F80C90E5E7E0680228E4
:10265000E2D10C95E0680D9027200A900AA9A068A5
:102660000DF00AF9D8E7E068012804D000212846D7
:1026700000F06FF9D0E740460CF00EF958B1404633
:102680000CF00CFB40460BF0E9FF88B101214046FD
:102690000BF086F80CE048460CF04EFB80462846CE
:1026A00001F018FD0090C0F88080684601F05CFDE4
:1026B0000121284600F04DF9B8F1000FACD100E03F
:1026C0000EE00020E060A7E75FEA0A7027D4E06828
:1026D000C06820B3007A10B328460CF0DFFA1EE081
:1026E000E668E6B1294670680CF095FE20B101213C
:1026F000284613F001FC12E00021284613F0FCFBF1
:10270000294630680CF076FE48B1284601F0E2FC1C
:1027100003903168C0F8801003A801F025FD214620
:1027200028460AF0B3FF00288CD020460BF09EFB11
:1027300072E7284601F0CEFC0090703001F02AFCD0
:102740006846EAE7F0B587B0B0F908400DF10C0C27
:102750000C9E87694568ACE8F000448A0025CDE905
:1027600000150294B0F90C10B0F91050B0F90E40F9
:10277000B0F90A00194410442B46224600F002F832
:1027800007B0F0BD2DE9F0478AB00DF14C0CDDE942
:102790001784BCE86006129F45F480556034DFF86A
:1027A000B8C0CDE902C4CDE900750BF0AFFA040062
:1027B0004DD001F08FFC3022494604900BF050F9C7
:1027C0000498282225493430FDF782FE0498234FCF
:1027D0005C30083FC0F80880068400264662066127
:1027E000C6627968016004A801F0BEFC05A9204614
:1027F00000F0F4F81A4841F2827103960094CDE992
:102800000110BDF91E00BDF91A10BDF91C20431AB4
:10281000BDF918005B1C121A521C0BF077FA064621
:102820007868416820468847204601F053FC0490B0
:10283000866604A801F098FC42F20400054202D129
:1028400020460BF0ABFB5146204600F0A8F80AB03A
:102850002046BDE8F08700006125002054170220C3
:102860009B2B0020F8B50E4605004FF000040CD05D
:1028700001F030FC0090C06D314680680268284647
:1028800090470446684601F06FFC2046F8BD000002
:1028900001480068704700005417022030B5044614
:1028A0008BB0006801F016FC009090F87C10246A50
:1028B000006FC1F3C00508B101F00CFC0690E068A0
:1028C000029020690390A088401EADF81000E089B6
:1028D000ADF812002089401CADF81400608AADF8F4
:1028E0001600BDF80800401CADF80800BDF80A004D
:1028F000401CADF80A00BDF80C00401EADF80C00FD
:102900000098406B03F072FA009808AA02A9B0F987
:102910005A30069803F0CAFD009800EB8500806BE2
:1029200005F01EFE009800EB8500006C05F050FEDF
:1029300008AB02AA04A906980AF0C6FF684601F08F
:1029400013FC069810B106A801F00EFC0BB0002095
:1029500030BD002801D013F0CFBA704738B50C460F
:1029600000280CD001F0B6FB0090816CA14203D08E
:102970008464806E0BF03BFF684601F0F5FB38BDC8
:1029800038B50D46040009D001F0A4FB009005669F
:10299000684601F0E9FB20460BF029FF38BD7CB505
:1029A0000D46040019D001F095FB0090006F0190D6
:1029B000684601F0D9FB294601A804F08DFD0028E6
:1029C0000BD0204601F086FB009001990167684614
:1029D00001F0CAFB20460BF00AFF7CBD2DE9F34F46
:1029E00085B000270C46B846059801F073FB0090AF
:1029F000C06D0121856805982A68904782462A683B
:102A000003210598904704902A6802210598904771
:102A100003902A68002105989047064600980CF01C
:102A200097FB834600980CF09AFB8146009890F83B
:102A30003210890601D5B0F9588000F036F8054605
:102A40000098C06E10B10BF036FC074625806780F9
:102A5000A4F804A0049AABEB020006EB0802401EA7
:102A60002A4420813A44E280039BA9EB0302521ED0
:102A70006281A4F80CA020827019E681401E608259
:102A8000684601F071FBB4F90C000190B4F9100034
:102A9000029002AA01A9059800F039F80198A081D6
:102AA0000298208207B0BDE8F08F10B501460020E3
:102AB00091F83220920607D5B1F95400002803D1CD
:102AC000486B02F005FC801C10BD70B58AB00C4646
:102AD000054601F0FFFA0990C06D866809A801F06B
:102AE00043FB009534B1012C06D0022C0BD0032CF3
:102AF00004D10AE0182000E01620019071686846B1
:102B000088470AB070BD1520F7E71720F5E72DE9D3
:102B1000FC4790468946044601F0DCFA0090C16DFE
:102B2000056868468E6801F01FFB32680021204668
:102B30009047064620460BF0BDFA2F1404462DB2EE
:102B400027E001F0C7FA0190B0F90010B0F90420B5
:102B5000B0F90230491B521BDB1BB34212D190F873
:102B60002800000607D5D8F8000088420ADB491E75
:102B7000C8F8001006E0D9F80000904202DC521CB0
:102B8000C9F8002001A801F0EFFA20460BF022FB63
:102B90000446002CD5D1BDE8FC872DE9F04304465E
:102BA000406885B006460BF01CFB814601F092FAA6
:102BB0000090D0F88080876C456E684601F0D4FAAA
:102BC0002068172859D008DC0E2837D00F280BD0E2
:102BD000142852D015283AD14FE01E2818D01F28AB
:102BE00027D0222833D146E06FF07040874204D0CE
:102BF000384605F0B5FC01F03BFC002D12D0D4E9BD
:102C000002122068CDE90106CDE9031201A822E0F5
:102C1000E068002806D05FEA080006D0B04504D07E
:102C20000CF03CF805B0BDE8F08330460CF084F8B9
:102C300016E0214648460AF029FDF3E7E0684168BE
:102C4000002904DD00680928EFD00A2805D0A5B1C5
:102C50002046C4F80490A847E4E730460CF074F826
:102C60000446484601F036FA0090C0F880406846B5
:102C700001F07AFAD6E7E760D4E720460BF0F6F8E1
:102C8000D0E700002DE9FC4107460D4600262A2426
:102C900000200090019008205B49086010204860E7
:102CA000402088600020C8604FF4806008610846BA
:102CB00007F06CFF1020FEF70FFF04462A2C02D00D
:102CC0002046BDE8FC815148008800044E49086058
:102CD00037204860402088600020C8604FF4806042
:102CE0000861084607F052FF3720FEF7F5FE04465C
:102CF0002A2C01D02046E4E74548464908600820D0
:102D00004860302088600220C860002008610120EF
:102D10004861084607F0B0FE00203B4908603320B8
:102D20004860402088600020C8604FF480600861DF
:102D3000084607F02BFF3320FEF7CEFE04462A2C70
:102D400001D02046BDE709E04FF4001007F0C0FEB7
:102D500020B107F015FF4DF82600761C2E480068BC
:102D600040F22A610842EFD0082007F0B1FE28B1F6
:102D7000082007F069FE04242046A2E7022007F09D
:102D8000A7FE28B1022007F05FFE0224204698E744
:102D9000202007F09DFE28B1202007F055FE0624D4
:102DA00020468EE74FF4007007F092FE30B14FF4EA
:102DB000007007F049FE0724204682E740F2FF50EA
:102DC00007F042FE00980006009901F47F4140EAB6
:102DD0000120009901F47F0140EA1120009940EAA6
:102DE0001160686001980006019901F47F4140EA92
:102DF0000120019901F47F0140EA1120019940EA84
:102E00001160286020465CE76420022094150220AF
:102E1000FFFF0F0078200220342C014070B50446DB
:102E200000BF434D2D6805F48035B5F5803FF8D0DF
:102E30003F4D2D6815F0010F02D001253C4E356045
:102E40003B4D2D1D2D6845F08075394E361D356082
:102E5000012B04D0022B20D0042B5ED13DE0344D59
:102E60002D1D2D6825F44075314E361D35603546D3
:102E70002D6845F00105356000200BE0255C0D5400
:102E800000BF2B4D2D6815F0010FFAD00125284EFB
:102E90003560401C9042F1D33FE0254D2D1D2D683B
:102EA00045F48075224E361D356035462D6845F057
:102EB0000105356000200DE034F8105021F8105065
:102EC00000BF1B4D2D6815F0010FFAD00125184EDB
:102ED0003560401C9042EFD31FE0154D2D1D2D682D
:102EE00045F40075124E361D356035462D6845F0A7
:102EF0000105356000200DE054F8205041F82050C5
:102F000000BF0B4D2D6815F0010FFAD00125084EBA
:102F10003560401C9042EFD300BF00BF044D2D1D13
:102F20002D6825F00105024E361D356070BD00008C
:102F30000C3C024010B5024600BF264B1B6803F450
:102F40008033B3F5803FF8D0224B1B6813F0010F9C
:102F500002D001231F4C23601E4B1B1D1B6843F036
:102F600080731C4C241D236023461B6843F40073AC
:102F7000236023461B6843F00203236010461CE0D5
:102F8000144B1B1D1B6823F0F803124C241D2360F7
:102F900023461B6843EAC003236023461B6843F4AF
:102FA0008033236000BF0B4B1B6813F0010FFAD076
:102FB0000123084C2360431CD8B253188342DFDC42
:102FC000044B1B1D1B6823F00203024C241D2360CD
:102FD00010BD00000C3C0240024803490860034851
:102FE0000860704723016745043C0240AB89EFCD80
:102FF0002DE9FF5F8346DDE90E45984691468A46F6
:1030000004F5B47405F5B4754FF0FF3601274FF49D
:10301000B47003E0A4F5B474A5F5B4758442F9DA8C
:10302000002D65DD5A2C11DA002C00DA00245A2D0F
:1030300001DA284600E05A20CDE90040CDE90276C9
:1030400043464A46514658460DF044FB5A3D5A3CC9
:10305000002D4DDD5A2C14DA002C00DA00245A2DF4
:1030600001DA284600E05A20C4F15A01C0F15A00A2
:103070008DE8430043464A465146584603960DF0B4
:1030800029FB5A3D5A3C002D32DD5A2C12DA002C15
:1030900000DA00245A2D01DA284600E05A200DF10A
:1030A000040C0094ACE8C10043464A4651465846D9
:1030B0000DF010FB5A3D5A3C002D19DD5A2C14DA44
:1030C000002C00DA00245A2D01DA284600E05A20AC
:1030D000C4F15A01C0F15A008DE8830043464A46C4
:1030E0005146584603970DF0F5FA5A3D5A3C97E77A
:1030F000BDE8FF9F2DE9F0430446C56887B09046C0
:103100008946002002F06FFE064625B1287910B1ED
:1031100046F0020001E026F0020002F064FE2069A1
:10312000012558B1D4E902128DE826000395638881
:103130002288046841464846A0471EE0124F134BC0
:10314000214638681B68427CE068984730B9E088BF
:10315000012801D0002001E03868806BA288E38854
:10316000A1680095CDE90410CDE90232019563888C
:1031700022884146484604F013FE07B03046BDE8B9
:10318000F04302F030BE0000DC150220D41502200E
:103190002DE9F0478146884640F2C32050434FF462
:1031A0007A7190FBF1F502FB02F002EBD27100EBB9
:1031B00061066D1C1746002341464846FFF72EF86E
:1031C000012413E004FB04F007FB0700B04206DD16
:1031D0003B46224641464846FFF720F87F1E3B46C5
:1031E000224641464846FFF719F8641CAC42E9DD27
:1031F000BDE8F0871CB50024019401AC009400F0F8
:10320000E7F81CBD2DE9FF4F83B0814606988A463A
:10321000A0EB0A08109E00200090A2EB090435687C
:10322000934654EA080018D02046FDF74AFA0746AC
:103230004046FDF746FA87420BDA20464446804670
:103240004846D14682465846DDF818B0069001201F
:103250000090002C07DD204606E007B04846BDE898
:10326000F04F00F03BB96042A0420AD04846D94630
:103270006442C8F1000883464FF0FF37DDF818A01C
:1032800000E001275148B8F1000F11D004EBD471D0
:103290004FEA610B01DACBF1000B4C480068807EED
:1032A00088B3002F02DA30682044306000257BE0CC
:1032B00000990029016821D0897E11B1002780463C
:1032C00015E007B05A4649465046BDE8F04F04F0B5
:1032D000CBBE28466D1C12F051FF38B9D8F800005B
:1032E00009EB0701C06E4268504690477F1CA74219
:1032F000EFDD6D1E356007B0BDE8F08F8A7E1AB134
:103300000027804617E019E0C86E5A465146036808
:1033100007B04846BDE8F04F184728466D1C12F02C
:103320002DFF38B9D8F8001009EB0700C96E4A68BC
:10333000514690477F1CA742EFDDDAE700250FE0FA
:1033400008FB05B090FBF4F101EB0A00009951B1C4
:103350001E4A09EB05011268D26E526890476D1C37
:10336000A542EDDDC7E7194909EB05030968C96EF8
:103370004A6801461846F1E708FB05B090FBF4F1F6
:1033800001EB0A00019030683844306012F0F6FE1C
:1033900048B9009890B10D4809EB05010068C06E6E
:1033A0004268019890476D1CA542E5DD3068002F0A
:1033B00001DA20443060C01B30609CE7034909EB10
:1033C00005000968C96E4A680199EBE7DC1502201F
:1033D0002DE9FF470F4640491646804609680C987C
:1033E0001D460A7E012A1CD0A8EB0600791B50EA74
:1033F00001031CD0A2F1010914F07AF900F58060F4
:10340000824604F091F900FB09F4504604F090F96B
:1034100000FB09F1002C0CDAC4F500708012404268
:103420000AE00090324639464046FFF7EBFEBDE821
:10343000FF8704F50074A012002904DAC1F50071B9
:1034400089124C4202E001F500718C12002804DD63
:10345000411C01EBD171491003E000EBD071491020
:10346000401E00EBD0704210002C04DD601C00EB0D
:10347000D070401003E004EBD4704010641E04EBE5
:10348000D47308EB0104ADF800403C18ADF80240DD
:10349000A8EB02045B10B21AADF80440ADF80820A6
:1034A0003144FC1AEA1AADF80C102844ADF80A2091
:1034B000ADF80E000023ADF806401A460421684618
:1034C00000F07AF8394640460FF0EEF829463046CB
:1034D0000FF0EAF8ABE70000DC150220064A13689B
:1034E0001A7E012A05D0521E02EBD272521000F051
:1034F00005B8DA6E52681047DC1502202DE9F05F3E
:103500000646884640F2C32050434FF47A7190FB40
:10351000F1F702FB02F002EBD27100EB610B2549DF
:1035200014467F1C09683244301BC96E0B68414643
:10353000984701253AE000BF05FB05F004FB0401B4
:1035400059451CDDBC4219DD1A4B06EB050AA6EBFA
:1035500005091B68AAF1010208EB0401DB6E09F101
:1035600001001B689847134BAAF10102A8EB040164
:103570001B6809F10100DB6E1B689847641E0D484B
:1035800006EB040AA6EB0409006808EB05015246A5
:10359000C06E0368484698470648A8EB05015246A6
:1035A0000068C06E0368484698476D1CBD42C3DD85
:1035B000BDE8F09FDC1502202DE9FF4F40F6FF74B7
:1035C0000F46664283B09B46814600210BE000BF58
:1035D00009EB8100B0F90200A04200DA0446B042D3
:1035E00000DD0646491CB942F2DB684800684069C4
:1035F00000280DD0B0F906101A46A1EB0B01B1421C
:1036000000DA0E46B0F90200801AA04200DD04463E
:10361000B5E0DFF87CA100200546CAF8000089E08B
:10362000781E854201DA6B1C00E0002309EB850C53
:1036300009EB8302BCF90200B2F90210A04245D1A5
:10364000A14215D139F92330059A39F9251003EB38
:10365000020C4E4A05981268084404EB0B01D26E26
:103660006045136801DA62462BE00246604628E0B6
:103670002846A4464FF000087A1E0BE008B1401E11
:1036800000E0781E09EB8003B3F90230634504D1F2
:1036900008F101089045F1DB2346A34249D0A3EB92
:1036A000040239F92500A1EB040C059B92EA0C02F7
:1036B00009D4364A184404EB0B011268D26E136821
:1036C0000246984735E00CF0C9F932E0A14230D00B
:1036D00001DBA04203DDA0422BDBA14229DCE04656
:1036E00088420ADC0346A04223DC0846A14220DBD4
:1036F000B8F900C0B2F9001008E00B46A14218DC8E
:10370000A04216DBB2F900C0B8F90010E21AA1EB32
:103710000C0151430029A0EB030202DD01EB620121
:1037200002E0A1EB6201491CC01A91FBF0F0604479
:10373000C9E76D1CBD42FFF673AF0598009004EB1E
:103740000B00019000208046054613E01149B8F1B6
:10375000000F31F915A009D0009901EB0A020844C5
:103760000A490968C96E0B680199984788F00108F1
:1037700050466D1C064909688D42E7DB641CB44263
:103780007FF747AF07B0BDE8F08F0000DC150220DF
:103790003C1602202822022010B5002002F00CFB6B
:1037A0006FF07F4002F00CFB012002F04FFB002085
:1037B00002F054FB002002F05BFB002002F013FB40
:1037C0000448006802F012FBBDE81040002002F03F
:1037D00019BB0000D8150220F0B50A4600210023CD
:1037E000002400BF3DE0012505FA01F3156805EA54
:1037F00003049C4234D105684F000326BE40B54304
:10380000056015794E00B5400668354305601579A9
:10381000012D02D01579022D16D185684F0003269F
:10382000BE40B543856055794E00B5408668354346
:103830008560456801268E40B543456045689679A8
:103840008E40B6B235434560C5684F000326BE4082
:10385000B543C560D5794E00B540C6683543C560EF
:10386000491C1029BFD3F0BDF0B5002300244D073B
:10387000ED0E02FA05F3CE1000F1200555F82650A2
:103880004E07F70E0F26BE40B543CF1000F12006BD
:1038900046F82750CE1000F1200555F8265045EA8D
:1038A0000304CE1000F1200545F82640F0BD024685
:1038B000002013690B4201D0012000E00020704776
:1038C000418370470183704770B50C46054600F090
:1038D00015F9A8682168C16261680163A168416344
:1038E000490707D5D0E90021C0E90012D0E902213B
:1038F000C0E90212A18981842169002903D001DC79
:103900004FF00001016270BD2DE9F0411E461746DF
:103910008846054600F0F2F8AC686822414604F596
:103920008470FCF7D5FD2846B8472846B04728697B
:1039300080688047A062BDE8F081000010B50446B1
:1039400000F0DCF8A0680E494C30114AC1650D4901
:1039500081650D4901660D4981660021C1661368C4
:1039600043660C4BC0E91E315168416730F8261C94
:1039700021F0030120F8261C0749416410BD000016
:1039800055620120C56601201D620120875A012071
:103990007C1602202B5C01204D61012010B50446ED
:1039A00000F0ACF8A4680C489034102120650B4856
:1039B00060650B48A0650B48E0650B48E0600B486C
:1039C0002061206BA06654F8902920469047102073
:1039D000A0630748606410BD1D1D0120C52C012097
:1039E0003D3A00206D3B0020215A0120ED6C012062
:1039F00050F0012070B50C46054600F07FF80A48EB
:103A0000AA6814B1012C08D103E0084901600849F3
:103A100002E00849016008494160016842F8B01FAE
:103A20004068106170BD00007C1602203F5A0120E2
:103A3000A15B0120675A0120ED5B0120F8B5846885
:103A400015460F4694F8260080074CD5D4F8FC3074
:103A5000204698470646D4F800312A463946204683
:103A60009847D4F8943005461BB100220121204626
:103A700098472069B04201DD012000E00020A169E3
:103A8000B14201DA012100E0002108436169A94245
:103A900001DD012100E000210843E169A94201DACA
:103AA000012100E0002108430AD06068401E009018
:103AB0002368D4F8A4705B1E002211462046B84744
:103AC000D4F8A8302A46314620469847D4F89C10AE
:103AD00020468847D4F8943005466BB10122002176
:103AE0002046984708E0D4F8A83020469847D4F8F4
:103AF0009C102046884705462846F8BD70B5044608
:103B00008068002812D14FF4B875284600F058FAA2
:103B10002A460021A06003F08BFDA0680221C18429
:103B20000121046401620249C0F8041170BD000063
:103B3000353B002010B590B0044620220A49684663
:103B4000FCF7C6FC08492022203108A8FCF7C0FC7D
:103B5000606B5DF82010C4F8FC1008A951F8200033
:103B6000C4F8000110B010BDC8B301202DE9F8431E
:103B700084689846154694F826000F46800740D57D
:103B8000D4F8FC30204698470646D4F800312A463F
:103B900039462046984705462069B04201DD01209C
:103BA00000E00020A169B14201DA012100E000211A
:103BB00008436169A94201DD012100E000210843B9
:103BC000E169A94201DA012100E0002108430AD09D
:103BD0006068401E00902368D4F8A4705B1E002229
:103BE00011462046B847D4F8A8302A463146204628
:103BF0009847D4F8A02001B041462046BDE8F043E4
:103C00001047D4F8A830F2E72DE9F04FDFF828B1DB
:103C100091B04FF0FF35DBF80030B3F92210069178
:103C2000DE69B3F92490F469A189814206D8E2895A
:103C3000824203D3471AD4F8008012E0D4E901810C
:103C400000296FD00A8882426CD84D88854269D39A
:103C5000801A82B2486800EB8200B0F90070B0F9B7
:103C60000250781C5ED0307EA17C10FB01FA217CD2
:103C7000CDE90801B3F92A60304604F0BBFCC0B2BC
:103C80000E90DBF8000007FB0A81A37C826B012702
:103C9000CDE90412CDE90273C069DDE90832C17EC5
:103CA000807ECDE900014946069804F079F8681C49
:103CB00018D046F0020004F09DFCDBF80000A37C65
:103CC00005FB0A81826BCDE90273CDE90412C0695C
:103CD000DDE90832C17E807ECDE9000149460698C3
:103CE00004F05EF8DBF800005D46C069417E007EAE
:103CF000814214D9022E12D086F0040004F07AFC1E
:103D00002868C069027EC37E12FB0391437E857ED4
:103D1000099A06984B4402FB050204F0CFF90E986D
:103D200004F068FCDBF80000627C418C11444184A3
:103D300011B0BDE8F08F0000DC15022004480068D7
:103D4000C069C06909B1027C0A60407C704700000C
:103D5000DC150220022008807047C06982898A42EF
:103D600002D8C2898A4210D2806880B102888A4211
:103D70000DD843888B420AD3406800EB8100A0EB4A
:103D80008200B0F90000002801DB0120704700200C
:103D9000704700002DE9F0432F4C034687B02068A0
:103DA0001946B0F92A80C069C06900F084F800287B
:103DB0004ED041680088181A01EBC0054046AE7825
:103DC00004F018FC814620686A680123816BCDE904
:103DD0000236CDE90421C169CB7E8A7ECDE900237C
:103DE0000B7EB0F924102A78B0F9220003F0D8FF36
:103DF0002068C069477E067EB7421DD9C07E474312
:103E00004643B8F1020F17D001F0B7F9804601F030
:103E100097F901F0D5FF21682A78CB69B1F9220022
:103E2000DB7E12FB0302B1F92410CB19314404F0FC
:103E300045F9404601F0C4FF484604F0DBFB20682A
:103E40006A78C369B0F922109B7E12FB031141848A
:103E500007B0BDE8F0830000DC15022030B50F4C40
:103E600005460B4620682946C069C06900F023F862
:103E7000002811D04168008824682A1A0120E469CA
:103E800000EBC200085CA47E10FB04F0002B03D002
:103E900011F832106143196030BD0000DC150220BA
:103EA00001200880704700B5C06900F004F80028C0
:103EB00000D0012000BD06E002888A4202D8428874
:103EC0008A4202D280680028F6D17047F8B50546CC
:103ED0000C000DD0084600F015F8060010D000F0D8
:103EE000F9F8224600902DB12946FCF76AFA04E061
:103EF0000020F8BD002103F09BFB684600F034F978
:103F00003046F8BD002801D00BF04ABE704738B5E6
:103F10000546FFF7F7FF040009D000F0DBF82A465A
:103F20000021009003F084FB684600F01DF9204654
:103F300038BD0000024A106021F003005060704755
:103F4000A421022010B5002814D004460A48006BB2
:103F500010F8341000290DD002290BD2042101EBF6
:103F6000C401415848680BF095FD2046BDE810405B
:103F700011F044BD10BD0000E8200220002805D04B
:103F8000034A916B016001B1486090637047000083
:103F9000E820022010B504460068FFF7D3FF002098
:103FA000206010BD70B50D460646002405E000BF38
:103FB00006EB8400FFF7EEFF641CAC42F8DB70BD3B
:103FC0002DE9F041044610F053F82648E41C24F093
:103FD0000305C16B2D1DA94200D90D46846B13E06A
:103FE00054F8042CAA420ED184B1216809B1626848
:103FF0004A60616809B122680A60826BA2422ED1D0
:10400000216881632BE02468002CE9D18046416B54
:1040100080680F1857F8040C3E1A306838B1002039
:1040200011F0B6FE57F8040C3E1A3068B8B9706843
:10403000A84214DB3044441B304611F061FED8F82E
:104040000810491BC8F80810D8F810102944C8F8FF
:10405000101070683146401B0BF01CFD20C4204638
:10406000BDE8F081E820022010B5002410F000F82F
:104070000C490F2001EBC002126C1AB101EBC00019
:10408000006C08E0401EF5D508E04168A14200D967
:104090000C46806810B180680028F6D1A4F10C00AD
:1040A00010BD0000E8200220024881680068081A5C
:1040B00070470000E8200220002138B104490422A2
:1040C00002EBC000096B085841680C39084670477C
:1040D000E820022005498A69521C8A61096B01EBBC
:1040E000C0010A78521C0A7000F056B8E82002207D
:1040F0007CB506460C460846FFF704FF05001CD0B9
:10410000DEB13046FFF7D8FFA04200DA0446284669
:10411000FFF7E0FF00903046FFF7DCFF014601901B
:1041200022460098FCF74DF9684600F01DF801A8FA
:1041300000F01AF83046FFF705FF28467CBD000066
:1041400010B5FFF791FF64220649B0F5800F04D93E
:1041500090FBF2F0C969484310BDC9694143B1FB06
:10416000F2F010BDE82002200A4902680B6B52F8F9
:10417000082C03EBC2021378022B03D38B690BB11B
:104180005B1E8B611178491E117000210160084689
:1041900070470000E8200220002806D003490422CE
:1041A00002EBC000096B085808307047E820022075
:1041B0002DE9FC414FF000060B465FEA000834464B
:1041C0002BD032B111461846FFF780FE060000D111
:1041D00001244046FFF77EFF009007884568684647
:1041E000FFF7C2FFCCB9B900091D2846FFF780FFD1
:1041F000050015D0FFF76EFF019040F8276001A879
:10420000FFF7B2FF4046FFF765FF00904560018869
:10421000491C01806846FFF7A7FF2046BDE8FC81E6
:104220003046FFF78FFE0124F7E70820FFF76FBE47
:104230007CB5050023D0FFF74DFF00904068C0B16A
:10424000FFF748FF0024019005E0019800EB84008F
:10425000FFF7A0FE641C00980088A042F5DC01A8CE
:10426000FFF782FF0098001DFFF794FE00990020E1
:1042700008806846FFF778FF2846FFF763FE7CBD9D
:1042800038B5002430B1FFF725FF00900488684658
:10429000FFF76AFF204638BD38B50D46002448B107
:1042A000FFF718FF2946009000F018F8044668460A
:1042B000FFF75AFF204638BD38B50D460188002467
:1042C000A94209D9406838B1FFF704FF009050F8BF
:1042D00025406846FFF748FF204638BD10B500244A
:1042E000FFF7EAFF10B1FFF7F5FE0446204610BDC8
:1042F00070B50C46054601F03DF8C1B2234628468C
:10430000BDE87040002200F001B80000F0B52D2794
:104310001C68B0F1004F08D0002500280DDA661C9B
:104320001E6027704042012408E0661C01251E60C3
:104330006FF000402770491E01E00024091BC9B23C
:104340002AB3491EC9B222E00C46491EC9B29442A2
:1043500005D1124C27781C68661C1E602770104C13
:1043600054F8216090FBF6F4E4B20A2C11D804FB57
:10437000160011B90DB1641CE4B20A2C02D101245B
:10438000491CC9B21E683034771C1F603470002984
:10439000DAD1196800200870F0BD0000D0150220A5
:1043A00094D6012010B5002807DD0A682B24531C81
:1043B0000B601470096800220A7010BD70B50646C3
:1043C0000D461446104600F0DFFE0300164804EBCD
:1043D00084010AD050F8210041688068711A2A1AB5
:1043E000BDE87040184601F00BBD00EB8104A268E7
:1043F000B24201D0012200E00022E368AB4201D0CA
:10440000012300E000231A430CD0236943B150F884
:104410002100816840686A1A311A184601F066FC6A
:10442000C4E9026570BD00004C23022010B5C2B281
:10443000CBB2D21A02D5C2F1000212B293B2C0F3CB
:104440000722C1F3072403FB03F3121B01D55242D9
:1044500012B2000C92B2A0EB114002FB023200B289
:10446000002801DA404200B280B200FB002010BDFB
:1044700010B50021084600F041FF40F6FF7250429F
:10448000BDE8104013460146AFF300802DE9FC4122
:1044900007461C4615460E46042004F0ABF880463D
:1044A0001148C068C16C006D0F4406440D440444BB
:1044B000ADF80070ADF80450ADF80260ADF80640FC
:1044C00068460AF053FE07E023462A46314638463E
:1044D00003F0F4FD0AF0FEFD0028F5D1404604F09B
:1044E00089F8BDE8FC810000D0150220B0F9063043
:1044F000B0F90420B0F90210B0F90000FFF7C6BF10
:104500002DE9F8431C00DDE9089816460F460546DC
:1045100002D109F0B1FD044600962E6843464A4692
:1045200021462846B047060035D009F099FD81465E
:10453000698A304609F034F930460AF08EFC484664
:104540000AF08BFC4FF000080CE000BFCDF80080B3
:1045500055F81CCF00231A4649462846E047E0B1EB
:104560000AF07BFC7F1E002FF0DC1D2148460AF07C
:10457000B8FA601C0ED009F0AFFD30B1FFF70CFEA9
:104580008469B44201D02000F8D1B44202D0304650
:104590000AF0D2FB3046BDE8F883304609F09AFCB9
:1045A0000020F8E72DE9F0411C4616460D46074667
:1045B000022B02DB0020BDE8F0811C20FFF700FD8C
:1045C0000028F8D00DB105610AE0094A52F824101C
:1045D00009B905E011460A68002AFBD109690161A1
:1045E00084618682002101604160C0E90217E2E730
:1045F000F415022070B51D46FFF7D4FF040001D06A
:1046000000F00EF8E068006820B90348006800EB8D
:1046100085008465204670BDDC150220FFF7AEBC26
:1046200070B590B38269022A30DA1C4C54F822101B
:1046300019B944F822002FE019464B68002BFBD132
:1046400006E0CB68C5681B682D68AB4203DD0968CE
:104650000029F6D11AE0C1B1CB68C6681B6836687C
:10466000B3420CD1838A012B05D008E01946DB68E0
:104670001B68AB4203DB0B68002BF7D129B14B68F9
:1046800033B118604A68426004E0FFE7012070BD62
:1046900044F8220048600160002070BDF41502203B
:1046A00012F0C6BA022801DB00207047054A52F812
:1046B000200004E0C26812688A42F6D00068002830
:1046C000F8D17047F4150220022801DB0020704762
:1046D000054951F8200004E0C16809680029F6D0B6
:1046E00000680028F8D17047F41502202DE9F8433E
:1046F0001D461646884604000CD0FFF7EBFC0090E0
:10470000006807686846FFF72FFD2B463246414692
:104710002046B847BDE8F88370B5044601F06EFE48
:10472000051908E000F0F8FB052C01DD052000E08C
:10473000204601F055FE01F061FE2C1A002CF1DC40
:1047400070BD002200F011B87FB51E4614460D461C
:10475000CDF80CD003AB00223146FFF7D7FD22463F
:104760002946684600F0C8F87FBD1FB503ABCDF8F9
:104770000CD0FFF7CBFD684600F03EF81FBD10B52A
:1047800004462DED028BB0EE408ABDEEC80A10EE55
:10479000100A00F0EFFD211AB5EEC08A491EF1EEB5
:1047A00010FA05D218EE100A10F1814F00D2491EFE
:1047B000002900DA0021B0EE480ABDEC028B204649
:1047C000BDE81040C9B200220BF02ABF7FB50C46ED
:1047D0001546CDF80CD003A9FFF7E4FD002801DD54
:1047E000641EE4B203AB2A462146FFF78FFD6846FC
:1047F00000F002F87FBD00002DE9FC4706005BD009
:1048000000F0DAFC3B4C81462068B0F9228000F0D1
:1048100047FD216807468A8CD01B888441E000BF91
:1048200047F6FF71304602F0C7FC8246014630462B
:1048300002F098FC2168054691F82C0000F0030076
:1048400001283FD0022839D000204A8C101A488411
:10485000ADF800006A1E1044ADF80400888CADF875
:104860000200A9F101010844ADF806006A4651466C
:10487000304601F0F7FF2168BDF8020088845146F8
:10488000304601F053FC064430780A281CD00D282D
:104890001AD0BDF80000216828444884307818B147
:1048A000761C30780028BBD12068818C3944818403
:1048B000818D21F003018185BDE8FC8705EBD57072
:1048C0004010C2E72846C0E7206890F82C1001F09D
:1048D000030101290BD0022909D0018C41843178D0
:1048E0000A29DBD1828C02EB09018184D6E7A0F88A
:1048F0002280F4E7DC150220024B1B6859849A845D
:10490000FFF77ABFDC1502202DE9F04107460A487F
:1049100015460E460068B0F92C0040F0020001F088
:104920009DFA04462A4631463846FFF7E5FF204601
:10493000BDE8F04101F092BADC15022047F6FF73A2
:10494000AFF300802DE9FC411F46904606000D465E
:104950004FF0000416D065B108460AF063FA04006F
:1049600007D002462946684602F093FC68460AF0E2
:1049700059FA3B4642462946304601F0CBFF2046D5
:104980000AF050FABDE8FC812DE9FF4F85B0904652
:104990008A46070078D00C68DAF8046021B230B299
:1049A000401A401C029000F007FC054618F00C0F5E
:1049B0001ED03846089A029901F0F0FC08F00C016C
:1049C000042904D0082902D00C2911D104E03114A3
:1049D00000FB1510401C09E02114C1EB264200FB2E
:1049E0001520401C00EBD07001EB600060F31F4409
:1049F000504601F0E3F9A5F1010B04903846089AFE
:104A0000029902F0E3FD03904FEA244909EB0B0001
:104A100060F31F46CDE900463846039902F0A2FB39
:104A200018F003010ED0012928D002290ED1BAF9BD
:104A30000420BAF90010521A101A00EBD07001EBE2
:104A4000600001E0BAF80000ADF800006A463846A0
:104A5000039901F007FF3846089A029902F0ACFD6D
:104A6000074409EB050060F31F4438780028C5D1DE
:104A7000049809B0BDE8F04F01F0A0B9BAF80410ED
:104A8000081A401CE0E7FFE709B0BDE8F08F00001E
:104A90002DE9FC4791460D4A9846DDE90A761268F1
:104AA000D36C1D18106D441800200AF05FFB09E05C
:104AB000CDE9007643464A4621462846FEF798FA55
:104AC0000AF008FB0028F3D1BDE8FC87DC150220C2
:104AD0007CB5064610480068C36C006D5D188418EC
:104AE0003188681E0844ADF80400ADF800507188A4
:104AF000601E0844ADF80600ADF8024068460AF0B2
:104B000035FB06E0224629463046FEF7F3FA0AF066
:104B1000E1FA0028F6D17CBDDC1502207CB51446F4
:104B20000F4A1268D36C1E18106D4518301BADF873
:104B300000003019ADF80400281BADF80200281958
:104B4000ADF8060068460AF011FB06E02246294649
:104B50003046FEF71DFB0AF0BDFA0028F6D17CBDF9
:104B6000DC1502201CB50A460146684602F09EFC90
:104B70002448BDF80010006830F84C2F1144ADF8FF
:104B80000010BDF8021082881144ADF80210BDF883
:104B9000041002881144ADF80410BDF80610808896
:104BA0000844ADF8060068460AF0E0FA27E000BFC6
:104BB000BDF900400BE000BFBDF90210204603F034
:104BC0001FFABDF90610204603F01AFAA41CBDF91D
:104BD0000400A042F0DABDF902400AE0BDF900008D
:104BE000214603F00DFABDF90400214603F008FA4E
:104BF000A41CBDF90600A042F0DA0AF06BFA002806
:104C0000D6D11CBDDC1502202DE9F04F0C4616490B
:104C100087B00D68DDE91098E96C0F18286D8D18C4
:104C20000619C418ADF81070ADF81450ADF8126044
:104C3000ADF8164004A80AF099FA002811D0DFF860
:104C40002CB04FF0000ACDE90098CDE902BA2B460E
:104C50002246394630460DF00EFC0AF03BFA002899
:104C6000F1D107B0BDE8F08FDC150220698000208B
:104C70002DE9F04F164C87B02568DDE91098EC6CF3
:104C80002718286DA5184618C418ADF81070ADF88F
:104C90001450ADF81260ADF8164004A80AF066FA98
:104CA000002811D0DFF82CB04FF0010ACDE90098B0
:104CB000CDE902BA23462A46314638460DF0DBFBE1
:104CC0000AF008FA0028F1D107B0BDE8F08F000023
:104CD000DC150220A97F00202DE9FC41104F04467D
:104CE0003B68D86C4518196DADF800500E19841842
:104CF000ADF80440ADF80260ADF8066068460AF011
:104D000035FA08E0386822463146C06E0368284606
:104D100098470AF0DFF90028F4D1BDE8FC810000D3
:104D2000DC1502202DE9F0410B4C2568EC6C2718AE
:104D3000286DA5184618C41800200AF017FA07E0D5
:104D400023462A4631463846FEF754FA0AF0C2F99D
:104D50000028F5D1BDE8F081DC15022070B5094AC4
:104D60001268D36C1C18106D451800200AF0FEF96B
:104D700005E029462046FEF7B1FB0AF0ABF9002812
:104D8000F7D170BDDC1502202DE9FC411C4C2468D4
:104D9000E66C94F818C03718206DACF1010C45187A
:104DA000C418A7EB0C001644ADF8000006EB0C008D
:104DB000ADF80400A5EB0C00ADF8020004EB0C000C
:104DC000ADF8060068460AF0D1F915E032462946EA
:104DD000384603F0E9F832462146384603F0E4F855
:104DE000621E691C384603F03FF9621E691C30469A
:104DF00003F03AF90AF06EF90028E7D1BDE8FC812A
:104E0000DC15022070B50E468EB0044601461546EC
:104E100006A802F028FBBDF81A30642B0CD1002044
:104E200000900AAB01AA214606A801F0FDFC2A4623
:104E3000314601A8FFF74CFE0EB070BD7CB50E4B9D
:104E40001B68DC6C2618186DADF8006045188418D6
:104E5000ADF80460ADF80250ADF8064068460AF0BF
:104E600085F906E022462946304603F0FDF80AF0AF
:104E700031F90028F6D17CBDDC15022070B51B4C41
:104E800005466069E0B904F1240119480860084644
:104E900002F01AFB012000F053FF002000F050FF49
:104EA000144900231A4601F11800FFF77BFB6061EB
:104EB00003F0A1F9C01DC008E061FFF781F820618F
:104EC0000D4955B1606808B1012070BD0A68626083
:104ED000084A00204C320A6070BD626822B101208D
:104EE0000A600021616070BD002070BD10160220B4
:104EF00049470120F0B201203019022070B50C465C
:104F0000054600F04BF910B10121C0E90014284614
:104F1000BDE870400AF060B810B5002400E001243C
:104F200000F004F80028FAD1204610BD064810B55C
:104F30000068002410B1804700B1012409F040F856
:104F400000B10124204610BDFC1502201CB5002133
:104F500000910191694600F03BFF04E0FFF7DCFFA0
:104F600008B901F0FFF900980028F7D001981CBD9E
:104F70002DE9FC410F4C2568EC6C2718286DA5180D
:104F80004618C418ADF80070ADF80450ADF80260D2
:104F9000ADF8064068460AF0E9F807E023462A46DD
:104FA0003146384603F08AF80AF094F80028F5D123
:104FB000BDE8FC81DC150220B0F90630B0F9042010
:104FC000B0F90210B0F90000FFF7D2BF2DE9F04FA1
:104FD0002D4C87B02568EC6C2D6D04EB000A04EBBA
:104FE00002096E1805EB0308ADF808A0ADF80C90A7
:104FF000ADF80A60ADF80E8002A80AF0B7F80028F4
:105000003FD0A8EB0600401C0590109C0598B0EB23
:10501000440F32DBA9EB0A00401CB0EB440F2CDB41
:1050200004FB04F02746354606EB040B04901AE017
:10503000049807FB170002F03EFB0AEB0401091A73
:105040000191A9EB04010844024600902946019809
:1050500002F0AAFFDDE90020A91BA8EB010102F084
:10506000A3FF6D1C7F1EAB45E2DAA8EB04035B1EB9
:105070004A462946504603F021F80AF02BF800284A
:10508000C3D107B0BDE8F08FDC15022008B50B4690
:10509000002805D0009281888268C08800F001F85D
:1050A00008BD10B50828029C30D008DC04FB01F4D0
:1050B00001280AD0022813D0042804D11CE01028AB
:1050C00028D020282CD0002010BD04EBD30003F002
:1050D0000701105CC1F10701C84000F0010010BDDC
:1050E00004EB93000621105C01EA4301C1F10601C3
:1050F000C84000F0030010BD04EB5300D907105C5A
:1051000002D000F00F0010BD000910BD04FB0130FB
:10511000105C10BD481004FB003032F8100010BDC8
:10512000881004FB003052F8200010BD034951F8EC
:105130002000C1688A6A082110470000F415022087
:1051400010B502F0EBFFBDE8104003F091B800008D
:1051500002490968C9694A6800211047DC15022024
:10516000024A1268D269526810470000DC1502201A
:10517000002801D008F064BF704710B502F0D6FFD8
:10518000BDE8104003F074B80021022802D20249A1
:1051900051F82010084670471C1902201FB5002145
:1051A0000191029103912A210091694609F094FC32
:1051B000039804B010BD000002480068C069407E3A
:1051C00070470000DC15022010B906480068C0696D
:1051D0000830027E8A70827E0A71427ECA7050F860
:1051E00008291047DC15022001F0B2BF70B5144643
:1051F0000D4602F0E7FF002802D000202860206062
:1052000070BD02F003B810B5044601F0F1FF01468D
:105210002046BDE8104001F0A5BF00002DE9F7438E
:1052200006461D480024A046016817464546498C9D
:1052300031800068808C7080019800281DD0007833
:1052400078B1012026E001A800F05AFF0A2816D004
:10525000A8B1FFF77DFF04447F1EF4D2AC4200DD0D
:10526000254630886D1E2844B08001F071FFB6F9E4
:10527000022000FB0820401EF080BDE8FE83AC4207
:1052800000DD254600240A2802D00028E4D1E5E705
:1052900008F101008046DFE7DC15022001F0AEB81E
:1052A0000A490020096891F82C2002F00C02042A17
:1052B00007D0082A01D00C2A02D1C869007E400814
:1052C0007047C869007E401E70470000DC15022050
:1052D000017EC07E11FB00F070470000024951F8CA
:1052E0002000006900687047F4150220024951F857
:1052F0002000006940687047F415022070B50D4623
:105300000EF024FD044628460EF028FD204370BD13
:10531000124810B5016821F0010101601048012117
:1053200081601049016000680F49884200D0FEE7A3
:1053300001F05AFA0D492E20087001F065F80C486A
:105340000EF05EFE13F03AFF04460021084600F01E
:1053500061FD09F0A7F9204610BD0000002000E023
:1053600000300240C2A507F4CDB5E8B5D015022043
:10537000B021022010B5011E01DD024600E04A42C4
:10538000064B012053F82040944202D8401C0A28C2
:10539000F8DB002900DA401C10BD000094D6012083
:1053A0001CB520B90C480068006E002812D0FEF72A
:1053B00091FE009044696846FEF7D6FE002C09D0A5
:1053C0002046FEF787FE019081688968884701A81A
:1053D000FEF7CAFE1CBD0000DC15022001490A468A
:1053E00000F002B801F0FFFF2DE9F04387B0154649
:1053F0000C465FEA000842D0002000F0F4FC814631
:1054000020480068066E4046FEF764FE0090006883
:10541000806900F083FC074640F6FF70001904D154
:105420000098B0F90440B0F906500098611E028956
:10543000ADF804401144ADF808104189681E0844D5
:10544000ADF80650ADF80A0008F0ECFB6846FEF730
:105450008BFE01A809F08AFE06E02A462146404656
:1054600000F03AFB09F036FE0028F6D1384600F08D
:1054700055FC304600F084F9484600F0B4FC07B013
:10548000BDE8F083DC1502202DE9FE4F8346194864
:105490008A46194900680C9E9846407C9146002730
:1054A00051F82040E1680968042903D02468002CE1
:1054B000F8D100E014B9FFF707F904460121E068CC
:1054C000C26A20469047050011D02469A068804731
:1054D000401C02D1094C46F001060096CDE901546A
:1054E00043464A465146584600F0D6F907463846E4
:1054F000BDE8FE8FDC150220F4150220CCD6012079
:1055000038B5040018D00D480068006EA04201D1E3
:1055100000F0FAFB2046FEF7DDFD0090406908B17F
:1055200000F00DFF00980068FFF778F86846FEF776
:105530001BFE2046FEF706FD38BD0000DC150220EC
:105540002DE9FF4F83B0454CDDF840B098468A46C0
:1055500007002BD002A901A8FFF753FEB7F900609E
:10556000002E00DA0026B7F90250002D00DA0025DF
:105570002068A146407C02F03BFE01990144491E8F
:10558000B7F904000EF016FF0446D9F80000407C7D
:1055900002F034FE02990144491EB7F906000EF0EC
:1055A00009FFA71B7F1C441B641C0BE0206800261E
:1055B0003546407C02F01CFE07462068407C02F025
:1055C0001DFE0446B8F1000F01D1C4F10008002F00
:1055D00001DD002C03DC002007B0BDE8F08F43465E
:1055E0003A4629463046CDF800B0FFF74DFF5FEA56
:1055F000000909D000F090F88046484600F0C0F855
:105600000027DFF85CB01FE051460598884701206D
:10561000E2E7E11B414502DA484600F09BF83FB162
:10562000EA193146484600F0D5F84846FFF7B8FE7B
:10563000514605988847DBF8001009B100208847DB
:105640004846FFF7CBFE4744A742E2DB4846FFF758
:1056500057FF002000F094F8BDE70000DC150220A1
:105660004819022038B5002460B1FEF733FD0090E0
:10567000006800698068804703F08EFA0446684637
:10568000FEF772FD204638BD38B5FEF723FD00F168
:10569000180400906846FEF767FD204638BD0000FC
:1056A00038B5002418B907480068006E38B1FEF715
:1056B00011FD0090B0F904406846FEF755FD204604
:1056C00038BD0000DC15022038B5002418B90748A1
:1056D0000068006E38B1FEF7FDFC0090B0F908409C
:1056E0006846FEF741FD204638BD0000DC1502206B
:1056F00038B5002418B907480068006E38B1FEF7C5
:10570000E9FC0090B0F906406846FEF72DFD204602
:1057100038BD0000DC15022038B5002418B9074850
:105720000068006E38B1FEF7D5FC0090B0F90A4071
:105730006846FEF719FD204638BD0000DC15022042
:1057400010B50AF093FE002803D0BDE8104000F029
:105750006DB810BD38B50C4620B908480068006E19
:1057600000280AD0FEF7B6FC0090B0F90A10A1425A
:1057700000DD44816846FEF7F7FC38BDDC150220E9
:10578000F8B5134E05003068046E0CD00CB100F073
:10579000BBFA08F061FB2846FEF79CFC00903168DC
:1057A0000A6E1AB106E000F0AFFA0EE0D1E902236A
:1057B000C1E919230D660068FEF732FF6846FEF75F
:1057C000D3FC02F075FF02F0F5FE2046F8BD0000A4
:1057D000DC1502207CB515460C4620B9124800683D
:1057E000006E00281FD0FEF775FC2DB20090C5801A
:1057F00024B2848002F0DEFE0098406980B1FEF79A
:1058000069FC009A0190B2F908108180B2F90A206F
:10581000C28011B10AB10480458001A8FEF7A4FC42
:105820006846FEF7A1FC7CBDDC15022001490A4652
:1058300000F002B801F0FFFF7FB515460C460600E8
:1058400028D0FEF747FC40F6FF710190091903D1FB
:10585000B0F90440B0F906500289611E1144ADF858
:105860000840ADF80C104189681E0844ADF80E00E0
:10587000ADF80A5001A8FEF777FC02A809F076FC03
:1058800006E02A462146304600F00EF909F022FCD7
:105890000028F6D17FBD00002DE9FF4FDFF8E0B012
:1058A00083B01C46DBF80010DDE91060924600274B
:1058B0004B7C3A461299FEF775FE05005DD02869CB
:1058C0008068804703F068F981460AFB09F0C01D33
:1058D0004FEAD008FEF734FCF10705D1C11700EB01
:1058E0009170801000EB4000002C06DC1838B0FBF3
:1058F000F8F06442A04200DC0446F00707D10090B3
:10590000DDE903012346524600F090FC0746002CD7
:1059100003DC2846FEF782FE2FE004FB08F0183077
:10592000F10702D0FEF7EEFA01E0FEF7F0FA06000A
:105930001CD0FEF7CFFB019005600399818004998C
:10594000C180A0F808A04481C0F80C80C0E9049789
:1059500001A8FEF709FC1298AE602861DBF8000090
:10596000407CA861304607B0BDE8F08F2846FEF7BE
:1059700055FE17B13846FEF7E5FA0020F3E70000C0
:10598000DC15022001490860704700004819022018
:105990002DE9F74F92B090461298FEF79BFB0B90C3
:1059A000B0F908100691B0F90A100D91006800696D
:1059B000D0F804B00BA8FEF7D7FB384C384D206860
:1059C000407C55F82000C1688A6A082190478146CA
:1059D000182801D34FF020092068407C55F820009A
:1059E0000069079003C80C902E48814201D0012025
:1059F00000E000201090002000F03AFD002849D17E
:105A00000026DDE91207B2460FAB069C4546761C20
:105A10000193FFF739FE014604FB0AF001EB800217
:105A2000234629463846CDF800B001F023F805009A
:105A300030D01098D0B1DDE906134A46284600F070
:105A400018FE98B9DDE906702C46D0F810C0BCF1FC
:105A5000000F05D0294604233A460846E04705E0F2
:105A60000C992068884701C47F1EF9D10020CDE938
:105A70000305059001200090CDE901094146034648
:105A800008F10108069A139802F08AF90D98401E51
:105A90000D90B6D115B0BDE8F08F0000DC150220E6
:105AA000F41502208F820020F8B515460E460746F1
:105AB000FEF710FB009000681621C068426A0020C3
:105AC000904704466846FEF74FFB002C03D02A4659
:105AD00031463846A047F8BDF8B515460E4607468C
