:020000040800F2
:10800000001600108D820008794F0108A520010894
:10801000754F010815900008E5A201080000000056
:108020000000000000000000000000008D8D01082D
:1080300097AB00080000000035550108918D01083C
:10804000A7820008A7820008A78200083163010800
:10805000A7820008A7820008A782000825B50008AB
:10806000A7820008A7820008E9B50008A7820008D7
:10807000A7820008A7820008A7820008A78200083C
:10808000A7820008A7820008A7820008A78200082C
:108090001990000827900008A7820008A78200080E
:1080A000A7820008A7820008A7820008A78200080C
:1080B000F18E0108A7820008A7820008A7820008A5
:1080C000A7820008A7820008A7820008A7820008EC
:1080D000A7820008A7820008A7820008A7820008DC
:1080E000A7820008015E0108A7820008A782000895
:1080F000A7820008A7820008A7820008A7820008BC
:10810000A7820008356C0108A7820008A782000832
:10811000A7820008A7820008618F0108B58F0108B7
:10812000A7820008A7820008A7820008A78200088B
:10813000A7820008A7820008A7820008A78200087B
:10814000A7820008A7820008A7820008A78200086B
:10815000A7820008A7820008A7820008A78200085B
:10816000A7820008A7820008A7820008A78200084B
:10817000A7820008A7820008A7820008A78200083B
:10818000A7820008A7820008A7820008A78200082B
:10819000A7820008A7820008A7820008A78200081B
:1081A000A7820008A7820008A782000800F002F852
:1081B00000F05CF80AA090E8000C82448344AAF125
:1081C0000107DA4501D100F051F8AFF2090EBAE823
:1081D0000F0013F0010F18BFFB1A43F001031847FB
:1081E000C04C0300F04C03000A444FF0000C10F8A0
:1081F000013B13F0070408BF10F8014B1D1108BF25
:1082000010F8015B641E05D010F8016B641E01F8C4
:10821000016BF9D113F0080F1EBF10F8014BAD1C14
:108220000C1B09D16D1E58BF01F801CBFAD505E032
:1082300014F8016B01F8016B6D1EF9D59142D6D38C
:10824000704700000023002400250026103A28BFB4
:1082500078C1FBD8520728BF30C148BF0B607047B8
:108260001FB52AF08CFA1FBD10B510BD00F0FDF946
:108270001146FFF7F5FF29F089FC00F01BFA03B463
:10828000FFF7F2FF03BC00F01FFA00000948804727
:1082900009480047FEE7FEE7FEE7FEE7FEE7FEE7E8
:1082A000FEE7FEE7FEE7FEE704480549054A064B00
:1082B00070470000DD6C0108AD810008000000106F
:1082C000001600100006001000060010401ECAB282
:1082D00010F8011F8A4202D00029F9D1002070470E
:1082E00040EA010310B59B070FD1042A0DD310C833
:1082F00008C9121F9C42F8D020BA19BA884201D985
:10830000012010BD4FF0FF3010BD1AB1D30703D0CC
:10831000521C07E0002010BD10F8013B11F8014B82
:108320001B1B07D110F8013B11F8014B1B1B01D19E
:10833000921EF1D1184610BD40EA0103024630B545
:108340009B0710D14FF0013400E008C208C91D1B83
:108350009D4315EAC41FF8D013F0FF0102F8011B7A
:108360000DD01B0AF8E711F8013B002B02F8013B86
:1083700005D011F8013B002B02F8013BF3D130BDD1
:1083800010B5431C02E010F8011B71B18107FAD14E
:108390004FF0013202C88C1A8C4314EAC211F9D092
:1083A000C01A0A0603D0C01E10BDC01A10BD0A04B0
:1083B00001D0801E10BD0902FCD0401E10BD421E1F
:1083C00012F8013F002BFBD111F8013B002B02F802
:1083D000013BF9D17047032A40F2308010F0030CC2
:1083E00000F0158011F8013BBCF1020F624498BF08
:1083F00011F801CB00F8013B38BF11F8013BA2F1A5
:10840000040298BF00F801CB38BF00F8013B11F01F
:10841000030300F06780083AC0F0088051F8043B7D
:10842000083A51F804CBA0E80810F5E7121D5CBF2C
:1084300051F8043B40F8043BAFF30080D20724BF5F
:1084400011F8013B11F801CB48BF11F8012B24BFF3
:1084500000F8013B00F801CB48BF00F8012B704742
:10846000431A28BF9A427FF6B6AF032A104411443C
:1084700040F2268010F0030F1EBF11F8013D521E7E
:1084800000F8013D10F0030F7FF4F6AF11F0030385
:1084900000F09F80083AC0F00B8051F8043D083A84
:1084A00051F804CD40F8043D40F804CDFFF7F3BF88
:1084B000121D5CBF51F8043D40F8043DAFF300804D
:1084C000D20724BF11F8013D11F801CD48BF11F8C2
:1084D000012C24BF00F8013D00F801CD48BF00F891
:1084E000012C704710B5203AC0F00B80B1E818504D
:1084F000203AA0E81850B1E81850A0E81850BFF48E
:10850000F5AF5FEA027C24BFB1E81850A0E818502C
:1085100044BF18C918C0BDE810405FEA827C24BF80
:1085200051F8043B40F8043B08BF7047D20728BF0E
:1085300031F8023B48BF11F8012B28BF20F8023B5D
:1085400048BF00F8012B704702F0FF0343EA032203
:1085500042EA024200F069B84FF0000200B513464B
:1085600094469646203922BFA0E80C50A0E80C5053
:10857000B1F12001BFF4F7AF090728BFA0E80C5004
:1085800048BF0CC05DF804EB890028BF40F8042BFD
:1085900008BF704748BF20F8022B11F0804F18BF6A
:1085A00000F8012B7047704770477047431A28BF87
:1085B0009A427FF697AF104410F0030F11441EBF8C
:1085C00011F8013D521E00F8013D10F0030F7FF439
:1085D000F6AF103AC0F00A8010B531E91850103AE1
:1085E00020E91850BFF4F9AFBDE81040530724BF8D
:1085F00031E9081020E9081044BF51F8043D40F863
:10860000043D12F0030F08BF7047D20728BF31F8AE
:10861000023D48BF11F8012C28BF20F8023D48BF99
:1086200000F8012C70474FF000020429C0F01280BE
:1086300010F0030C3FF492AFCCF1040CBCF1020F2C
:1086400018BF00F8012BA8BF20F8022BA1EB0C01EA
:10865000FFF784BF5FEAC17C24BF00F8012B00F85C
:10866000012B48BF00F8012B7047754600F028F831
:10867000AE4605006946534620F00700854618B00F
:1086800020B5FFF711FEBDE820404FF000064FF087
:1086900000074FF000084FF0000B21F00701AC4637
:1086A000ACE8C009ACE8C009ACE8C009ACE8C00956
:1086B0008D4670470446AFF300802046FFF7DFFD8C
:1086C00000487047802C002001491820ABBEFEE70F
:1086D000260002007047002800DC4042704700007E
:1086E00038B5456804460146284611F019FE0028B1
:1086F0002AD02068304A0F2819D006DC0B2824D055
:108700000C2810D00E2851D12FE0112802D0282893
:108710004CD145E09268002A16D02146284601B087
:10872000BDE830401047214628465268F7E7284602
:1087300005F094F80090406E0468684605F0D8F89B
:10874000002C01D02846A04738BD284605F086F801
:108750000090683004F0E2FF009803216C3004F0D0
:10876000E5FF684605F0C4F820E0E168486809685C
:108770000D2902D0202913D105E0002810DD28465C
:108780001FF03DF806E0002804DD2846BDE838402B
:108790001FF035B82846BDE8384002211FF045B823
:1087A000E06818B90021284600F0C2F92046BDE86B
:1087B000384012F0E1B90000980900202DE9FF418E
:1087C0000AAF70CF002703958DE8D00000F003F8C2
:1087D00004B0BDE8F081F0B585B00DF1280CBCE81F
:1087E000F0004FF0000C8DE8F01000F025F805B017
:1087F000F0BDF0B5044685B08069B4F90850668ACA
:108800000027CDE90265CDE900170490B4F90C000A
:10881000B4F91060C118B4F90A00B4F90E5010444C
:1088200033462A4600F008F80546616800F0B6F9BC
:1088300005B02846F0BD0000F0B585B00C46DDE976
:108840000D514C31DFF850C0DDE90A67CDE902C1B6
:108850002146CDE9006712F0DFF8040018D004F0DB
:10886000FDFF10222946049011F060FF0498302289
:108870000A493430FFF736FE084D04990C3D28684C
:10888000486604A805F034F82868416820468847FF
:1088900005B02046F0BD0000E1860008A4090020D4
:1088A000F0B5044680688B4989B051F82050606863
:1088B00000287DD0052804D006287AD0122879D146
:1088C000AEE0E86900284FD095E80E008DE80F0073
:1088D00004F110010FC908F0EFFE002655F826003C
:1088E00007F0AAFEA169E8690A1A216901446069D2
:1088F000304405F08FFFA169E8690A1A2169014433
:10890000E069801B05F086FFE169E8690A1A616980
:1089100001442069304406F02FF8E169E8690A1A39
:1089200061690144A069801B06F026F8761C022EBE
:10893000D4DBA86807F080FEE069E9696669431A3C
:1089400020694218521E3144801C06F0E3F8E169A8
:10895000E869A2690B1A61690144101A401C921E51
:1089600006F0D8F8EE6913E05FF0000655F826002F
:1089700007F062FEE069831BA069821B60698119B0
:108980002069304405F09EFF761C022EEEDB0226A5
:10899000D5E90301CDE900016169E06908444310AC
:1089A000A069891C821B2069304405F0FFFE02E0AB
:1089B00089E012E08AE0D5E90501CDE90001E3692B
:1089C00060690121184401EB6001A0699B1E821BB4
:1089D0002069304405F0EAFE78E0206804F03EFFAC
:1089E0000490206813F094FC40B1A06808B1002006
:1089F00008E00498006F28B1012003E00498406F5C
:108A000000B10220049901EB8000C56E04A804F0B7
:108A10006FFF00231A462846216805F0E1FB55E068
:108A2000206804F01BFF0490866EEEB3B0F95C7012
:108A3000A168D1B3032942D05FF0000100EB8101AE
:108A4000406D0C6C07F00EFE204607F0F5FD05A802
:108A500006F06AFCBDF81410A88B0144ADF81410A0
:108A6000BDF81810081AADF81800BDF81600801CE3
:108A7000ADF81600BDF81A00801EADF81A00049873
:108A80005E30B0F90220B0F9001005A807F0B1FC83
:108A900004A804F02DFF022007F026FE304604F063
:108AA000DDFE3A4605A901E00BE006E0079005F07F
:108AB000E3FC07A804F01CFF08E00121BEE7022147
:108AC000BCE704A8F6E7206813F044F809B00020DA
:108AD000F0BD0000E48B03081CB5044600200090A4
:108AE0002346054A2B210190044805F06BFA0449FE
:108AF0000860084600681CBD55C30208F82A030830
:108B000054080020044A0349116004494A6A486233
:108B100010467047D409002098090020A4090020BD
:108B200000294FF0100101D011F084BC11F0DCBB22
:108B30004FF480720029114601D011F07BBC11F076
:108B4000D3BB08B50023009300F001F808BD70B551
:108B500016460C46054619463046049A05F028FB91
:108B6000024621462846BDE8704000F03FB80000AC
:108B700038B50C46054604F071FE00900649846540
:108B80004166684604F0B4FE284612F0E3FF28462A
:108B900012F0E9FC38BD0000D40900202DE9FF41A6
:108BA0000E4605004FF001041CD004F057FE019062
:108BB000876E01A8009704F09BFE3146684609F0D5
:108BC0001BF978B100980024B84208D0284604F078
:108BD00045FE01900099816601A804F089FE2846AF
:108BE00012F0C1FC04B02046BDE8F081F8B515468E
:108BF0000C46060013D004F031FE0090032C0BD875
:108C000000EB84006C3004F089FD009800EB8400D8
:108C1000C566304612F0A7FC684604F069FEF8BD50
:108C2000F0B52DED028B85B00120AE490870AE493C
:108C30000870AE4807F016FD4FF6FF7007F0FCFC19
:108C4000AB4800782A283FD00EF000FBA8490870F6
:108C5000084600782A2804D1A6480EF0C7F9A4498E
:108C60000870A34800782A2807D1A249B1F8421019
:108C700008040FF073F89E4908709D4800782A2870
:108C800005D14FF400600EF053F9994908709848E7
:108C900000782A2804D100200FF07AF8944908704F
:108CA000934800782A2804D19349002028F062FADA
:108CB0000AE0002291A193A007F094FB8C48007871
:108CC00005B0BDEC028BF0BD3222AA2192A005F0C6
:108CD000B1FB9748FFF716FF12F06CF8074640F615
:108CE0000100002102221E23CDE90072CDE902100D
:108CF000282264219620FFF76EFD8E4908608EA120
:108D00008C480068FFF74AFF12F054F807464FF40A
:108D10000260002102221E23CDE90072CDE902107B
:108D2000282264214FF49670FFF755FD83490860AF
:108D300083A182480068FFF731FF12F03BF8074635
:108D4000804912F0C5FD01E005F084FE6548007819
:108D500018B1654800780028F6D17648006811F00F
:108D60003FFF7648006811F03BFF00207149086022
:108D70007249086005F0DEF85A48007800287DD175
:108D80005D4928F0F7F970A1704828F0BBFA7049E6
:108D9000087008460078002871D10A2205216DA0CC
:108DA00005F048FB534991F840106E4A52F82100F3
:108DB00005F0C0FA1E2205216BA005F03BFB4D48D3
:108DC000007D801C012101FA00F64A48C089401C40
:108DD000704348490A7A0121914000FB01F400EEFA
:108DE000104AB8EE400ADFED650A80EE208A0620C0
:108DF000B0EE480A05F053FA61A005F09BFA322262
:108E0000052161A005F016FB03216348008805F0E9
:108E10001EFA62A005F08EFA4622052161A005F037
:108E200009FB3449486B0A2105F011FA5A22052141
:108E300060A005F0FFFA2F49B1F84200052105F0C6
:108E400006FA6E2205215DA005F0F4FA294991F891
:108E50002800022105F0FBF9002228A15CA007F000
:108E6000C1FA01225EA1614828F09AF938490870D8
:108E700008460078002832D100BF01E02EE021E052
:108E80005A4804AB5A49C26828F078FA3049087049
:108E90000846007810B904980028EED100BF00BF42
:108EA000524828F0A2F8524809F0FEF84FF010405E
:108EB0004568504908600146086880F3088800BF8B
:108EC000A8470CE000220DA14BA007F08BFA00216F
:108ED000084628F04FF91E49087000E000BF04481A
:108EE0000078EDE61400002015000020BC670308A0
:108EF000D80100206C0F0020B00F00204D65737367
:108F00006167650053442063617264206973206562
:108F100072726F720000000020424F4F5420465280
:108F20004F4D2053442043415244203F2000000035
:108F3000A1880008AC00002059455300B000002073
:108F40004E4F000039D00208303A00000C140020C7
:108F5000DC01002020434152442054595045203A1E
:108F600020000000900000202053445F4341524401
:108F70002053495A45203A20200000000000804933
:108F8000204D42595445000020534543544F522030
:108F900053495A45203A2000D6010020202042594A
:108FA000544500002052524F4455435420534E2004
:108FB0003A20000020524341203A2000204D414EEB
:108FC000554641435455524552204944203A2000C9
:108FD00053442063617264206973204F4B21000069
:108FE000303A73746D33322E68657800E8110020D2
:108FF0000000039008ED00E0534420636172642098
:109000006973206E6F7420696E697469616C697A26
:109010006500000000BFFEE710B5002000F074FC02
:1090200000F008F810BD10B5012000F06DFC00F054
:109030002FFB10BD70B586B0FC4880780C287DD21F
:10904000DFE800F00607263E6A6BCAFEFDFCFBFA6D
:10905000F1E24FF4C070F6490880062088700120C4
:10906000C870F4480178F2480171F2484178F0483C
:109070004171F1488178EE488171EF484178EC48C0
:10908000C171ED48C178EA48017200F0DFFCD2E21C
:10909000E6480079E7490870E448407948700020C4
:1090A0000DF0DEF8E1488079E3498870DF48C07947
:1090B0004870DE48007AC87000200DF06DF8BAE202
:1090C0004FF4C170DA4908800120C870DB4801788C
:1090D000D7480171DA480178D5484171D9480178FB
:1090E000D3488171D8480178D148C171D748006808
:1090F000010ECF488172D5480068010CCC484172FE
:10910000D2480068C1B2CA4801720820C8498870B4
:10911000084600F09BFC8EE28DE24FF08040008C10
:1091200040F010004FF0804108840846008C40F069
:10913000010008840120C449086000E07AE2C448C4
:109140000068002847D0C348007818B1C1480078AB
:10915000012824D111200BF029FB002400E0641C1D
:10916000BD488442FBDBBE200BF020FB04200BF04B
:10917000FFFABA4800880BF0FBFA01200BF0F8FA6E
:10918000F0200BF0F5FA00200BF0F2FA00200BF0C3
:10919000EFFA0220AF4908700020B14908700020A2
:1091A000B04908604FF40161A948006811F018FE49
:1091B0000646AD493046FFF7DBFC304612F054FC62
:1091C00040F61101A248006811F00AFE0646A749C0
:1091D0003046FFF7CDFC2EE29E48007818B19D483E
:1091E0000078012824D111200BF0E0FA002400E0DF
:1091F000641C99488442FBDBBE200BF0D7FA0420A4
:109200000BF0B6FA954800880BF0B2FA01200BF08B
:10921000AFFAF0200BF0ACFA00200BF0A9FA002016
:109220000BF0A6FA02208B49087000208C490870C8
:1092300000208C49086004E0D6E1B2E18CE15EE1F7
:10924000CCE07A4840797D490860084600680028EB
:109250005AD04FF08040008B40F004004FF0804126
:1092600008830846808940F0020088812320C86274
:10927000052088636D48C07972490860086800EB72
:10928000D0714C1000EE104AB8EEC00ADFED780A3B
:1092900080EE201A774880ED001A6D48006800289B
:1092A00031D040F613016A48006811F099FD064676
:1092B000304612F09FF840F614016548006811F03E
:1092C0008FFD0646304611F0FAFC40F61701604863
:1092D000006811F085FD06465A48016830460CF0DA
:1092E00016F8304612F0E9FC40F6160158480068BE
:1092F00011F076FD06465348016830460FF080FBBA
:10930000304611F0E9FC59E0484880794C49086042
:109310004FF08040008B20F004004FF08041088324
:109320000846808920F0020088814548006800EBEB
:1093300080004FF47A71A1EB4000C906C862404832
:10934000006800EB800040F2CA31A1EB4000490701
:1093500088633F48006888B340F617013C480068BE
:1093600011F03EFD0646304612F044F840F6160174
:109370003748006811F034FD0646304611F09FFC76
:1093800040F613013248006811F02AFD06462C48C9
:10939000016830460BF0BBFF304612F08EFC40F601
:1093A00014012B48006811F01BFD06462448016893
:1093B00030460FF025FB304611F08EFC2448006843
:1093C00058B140F618012248006811F009FD064620
:1093D0001A480168304601F082FB2CE14FF08040D2
:1093E000008C20F010004FF0804108840846008C6B
:1093F00020F00100088400201F4908709FED1F0A1B
:109400001F4880ED000A00200F49086010480068DE
:10941000002873D00F48007818B10E480078012852
:1094200050D111200BF0C2F900242CE0402800207C
:1094300034280020BC000020C0000020E0010020F3
:10944000E4010020E8010020F00100201864004041
:1094500080030020DA01002020BF02004602002025
:10946000DB0100202414004059D20208A188000822
:1094700000004842EC010020F40100200000000040
:10948000F8010020641C70488442FBDBBE200BF016
:109490008DF904200BF06CF96C4800880BF068F92A
:1094A00001200BF065F9F0200BF062F900200BF0C1
:1094B0005FF900200BF05CF902206549087000207C
:1094C0006449087000206449086040F6110163484F
:1094D000006811F085FC064661493046FFF748FBFD
:1094E000304612F0C1FA4FF401615C48006811F097
:1094F00077FC06465B493046FFF73AFB9BE05A484B
:1095000040795949097940EA01205849088058486A
:109510000078C87056484178544801715548017820
:10952000524841715448006858B9534801784F482F
:1095300081714F48017B4D48C17105204B498870AE
:1095400006E04D48017849488171042047498870F8
:10955000464800F07BFA6EE04848006811F040FB96
:1095600011F028FC0546182040F618020023CDE92A
:10957000032002930590032022231A460F21CDE9F0
:1095800000500A2008F021FF3C4908600121080230
:109590000CF0FCFB3AA23B493848006808F052FE48
:1095A00049E031480079324908702F4840794870C5
:1095B0000020886088702C4880792E4908602A48ED
:1095C000C07930B900202A4948602748007A0873DA
:1095D00003E04FF0004026494860254A4FF480716F
:1095E00000200CF063FD26E02448006811F0F8FA32
:1095F00011F0E0FB0546182040F618020023CDE9E3
:10960000032002930590032022231A460F21CDE95F
:1096100000500A2008F0D9FE1849086000214FF4D4
:1096200080700CF0B3FB16A217491448006808F0CC
:1096300009FE00E000BF00BF1448006840F00200CF
:109640001249086006B070BD20BF0200460200202B
:10965000DA010020DB0100202414004080030020F8
:1096600059D20208A1880008402800203428002090
:10967000A00E0020180200207C05002048030020D6
:109680000000000048B90B9070C20B9014640040B9
:1096900070B58E48807B0C287ED2DFE800F006078C
:1096A00008090A7D427D7D7D7DDB05E104E103E162
:1096B00002E1002086490860864908608348007CF2
:1096C00008608248407C096841EA002081490860BE
:1096D0007E48807C096841EA00407E4908607B48FA
:1096E000C07C096841EA00607A49086002F028FFFE
:1096F00078480568E81705EBD0304014401CC1B22B
:10970000082002F0CBFE4FF4B970734908800220A4
:1097100088700120C87067216F48017100F096F9C8
:10972000CAE06C4800686A490968401A08281CD3D6
:1097300067480068694A8118042302226348103090
:1097400002F020FE624800680830614908604FF46A
:10975000B97061490880022088700120C8706721B3
:109760005D48017100F072F93AE05A4800685849C2
:109770000968401A04281DD056480068544B1B68DD
:10978000C01A012303EB900251480068534BC118E3
:1097900004234E48103000E08DE002F0F3FD4D4808
:1097A00000684B490968401A494909680844484912
:1097B000086015E04748006845490968401A0428D0
:1097C0000ED143480068454A8118042301223F48CE
:1097D000103002F0D7FD3E480068001D3C4908608B
:1097E0003C4800683A490968884232D139480068E3
:1097F000011F3A4826F080FE044636480068374983
:10980000084450F8041CA14210D14FF4B9703249F9
:109810000880022088700120C87063212E480171E1
:1098200000F014F901202E49087012E02D4800685C
:1098300040F000402B4908604FF4B9702649088079
:10984000022088700120C87065212348017100F052
:10985000FDF831E04FF4C4701F4908800120887082
:10986000C870084600F0F2F81F4806F0FBFE05221B
:1098700078211EA004F0DEFD1E490968080E0321B0
:1098800004F0E5FC0522BE211BA004F0D3FD19491C
:109890000968C1F30740032104F0D9FC05224FF405
:1098A000827117A004F0C6FD12490968C8B20121EF
:1098B00004F0CDFC00E000BF00BF0E48001F0068B0
:1098C00040F010000B49091F086070BD40280020BF
:1098D000B4080020B8080020342800200000080840
:1098E000B0080020103C02406C7F03085245432022
:1098F00000000000186400405445432000000000B0
:1099000045524620000000004D4901EB0011096856
:1099100001F0020102295AD0494901EB001189687E
:1099200000EB4002474B03EB82021171444901EB0B
:10993000001189680A0A00EB400103EB81014A71BA
:109940003F4901EB001189680A0C00EB400103EB71
:1099500081018A713A4901EB00118968090E00EB17
:10996000400203EB8202D171354901EB0011C96855
:10997000CAB200EB400103EB81010A72304901EBEE
:109980000011C9680A0A00EB400103EB81014A7229
:109990002B4901EB0011C9680A0C00EB400103EBF5
:1099A00081018A72264901EB0011C968090E00EB9A
:1099B000400203EB8202D172214901EB0011496898
:1099C00001F00F0100EB400203EB8202D1701C4951
:1099D00001EB0011096840F2FF7202EA515100EBFD
:1099E0004002184B23F82210154901EB0011496879
:1099F000090A00EB400203EB8202917030B1124978
:109A0000096821F01001104A116005E00E4909684B
:109A100021F002010C4A116040B10B49091F09688D
:109A200041F02001084A121F116007E00649083979
:109A3000096841F02001044A083A116070470000AB
:109A4000B0650040402800201464004010B5024674
:109A500000233048006800F08060B0F1806F01D1D1
:109A6000002113E02B48006800F00060B0F1006FA7
:109A700001D101210AE02748006800F08050B0F1D0
:109A8000805F01D1022101E0022010BD1088440551
:109A9000214800EB011004601F4800EB01104068F2
:109AA00020F00F041C4800EB011044601A4800EB42
:109AB0000110406894782043174C04EB0114606057
:109AC00090790406507944EA0044107944EA002071
:109AD000D47840EA0403104800EB01108360907AC8
:109AE0000406507A44EA0044107A44EA0020D4790B
:109AF00040EA0403084800EB0110C360064800EB8D
:109B00000110006840F00104034800EB01100460FC
:109B10000020BAE708640040806500407CB5214C15
:109B20000546216831F8220F4A8D10440880488884
:109B3000CA8D10444880284605F0E6FB2168498C10
:109B4000ADF800104618284607F0F0FF3044401EDC
:109B5000ADF8040005F024FC2168898CADF80210F2
:109B60000844401EADF80600684612F065FA04E0AD
:109B7000284602F0F1FC12F0DDF90028F8D10A2D98
:109B800004D0BDF804002168401C4884206830F8E7
:109B9000221F428D891A01804188C28D891A418015
:109BA0007CBD0000EC0800200B480068018990F89B
:109BB000702011FB02F309490B80438913FB02F368
:109BC0004B8083895B1C53435B1E8B80C089401C88
:109BD0005043401EC8807047EC080020380D00201C
:109BE00070B52A254FF4803400E0641E24B1802033
:109BF0000CF0F4FF0028F8D014B90325284670BDF6
:109C000040F2FF500CF0A6FF2846F8E72DE9F0419E
:109C100006462A274748056801E04648056815F0CA
:109C2000450FFAD015F0040F06D0032704200CF0DE
:109C300091FF3846BDE8F08115F0010F05D00127EE
:109C400001200CF087FF3846F4E70CF0C1FFB0426A
:109C500002D010273846EDE740F2FF500CF07AFFB3
:109C600000200CF0DBFF04463348044201D13846A3
:109C7000E0E714F0004F01D01C20DBE714F0804F28
:109C800001D00920D6E714F0005F01D00A20D1E707
:109C900014F0805F01D00B20CCE714F0006F01D0EE
:109CA0000C20C7E714F0806F01D00D20C2E714F03C
:109CB000807F01D00E20BDE714F4000F01D00F20EB
:109CC000B8E714F4800F01D01020B3E714F4001F9C
:109CD00001D01120AEE714F4801F01D01220A9E7B3
:109CE00014F4002F01D01320A4E714F4802F01D026
:109CF00014209FE714F4003F01D015209AE714F4D4
:109D0000803F01D0162095E714F4004F01D01720B2
:109D100090E714F4804F01D018208BE714F4005F13
:109D200001D0192086E714F0080F01D01A2081E72E
:109D300038467FE7342C014008E0FFFD70B52A2546
:109D40000F48046801E00E48046814F0450FFAD08B
:109D500014F0040F05D0032504200CF0FBFE284668
:109D600070BD14F0010F05D0012501200CF0F2FEAA
:109D70002846F5E740F2FF500CF0ECFE2846EFE7EE
:109D8000342C014070B52A250B48046801E00A48CC
:109D9000046814F0450FFAD014F0040F05D0032521
:109DA00004200CF0D7FE284670BD40F2FF500CF0A6
:109DB000D1FE2846F8E70000342C01402DE9F0419F
:109DC00006460F464FF02A082248056801E0214860
:109DD000056815F0450FFAD015F0040F07D04FF0C5
:109DE000030804200CF0B6FE4046BDE8F08115F0F3
:109DF000010F06D04FF0010801200CF0ABFE4046E9
:109E0000F3E70CF0E5FEB04203D04FF010084046F7
:109E1000EBE740F2FF500CF09DFE00200CF0FEFE40
:109E2000044614F4604F03D1200C38804046DCE730
:109E300014F4005F01D01320D7E714F4804F01D051
:109E40001020D2E714F4004F01D00F20CDE7404698
:109E5000CBE70000342C014070B52A264FF4803542
:109E60000F48046802E06D1E0D48046814F0450FA9
:109E700001D1002DF7D115B114F0040F05D0032640
:109E800004200CF067FE304670BD14F0400F05D082
:109E90002A2640200CF05EFE3046F5E73046F3E718
:109EA000342C01401CB50020009001900548064A62
:109EB00008210368054804F085F80549086008464C
:109EC00000681CBD5C030020D9D30208C828030821
:109ED0007405002010B586B010F06CFF0446684889
:109EE00040F6070100220223CDE90043CDE902211B
:109EF00004904FF482734FF4CD720F213C2010F088
:109F0000C1FC6049086060495E48006810F0F4FCDC
:109F10004120302140F618020023CDE90232CDE97C
:109F2000041003205749096841233A22CDE9001063
:109F30004621642008F049FA5449086054A2564961
:109F40005248006808F07EF954495048006808F00B
:109F5000CEFA08214D48006808F0F7FA4120302178
:109F600040F60E020023CDE90232CDE904100320B1
:109F70004449096841233A22CDE9001000216420B8
:109F800008F023FA4649086046A247494448006859
:109F900008F058F941494248006808F0A8FA082139
:109FA0003F48006808F0D1FA4120302140F6150200
:109FB0000023CDE90232CDE90410032031490968BC
:109FC00041233A22CDE900100021142008F0FDF9C8
:109FD0003649086036A238493448006808F032F93A
:109FE0002E493248006808F082FA08212F4800689C
:109FF00008F0ABFA4120302140F617020023CDE9EA
:10A000000232CDE9041003201E49096841233A2297
:10A01000CDE900104621142008F0D7F9274908603F
:10A0200027A228492548006808F00CF91B49234855
:10A03000006808F05CFA08212048006808F085FAFA
:10A04000302040F616020023CDE90320029305904C
:10A0500003200C4909683A231A46CDE90010C821AB
:10A06000142008F0B2F91849086012A217491648DE
:10A07000006808F0E7F80348006806B010BD00006B
:10A0800005E002085C0300208766DF007003002003
:10A09000414C41524D000000B4B40B90C08B0308FA
:10A0A0006003002050574D008C900B9064030020FB
:10A0B00054494D4500000000787E0B906803002055
:10A0C00053440000A0A20B906C030020646C0B9022
:10A0D00010B586B072B6002006F06EFA10F06AFE77
:10A0E00004466D4911F0F4FB6C4806F0BBFA6C486D
:10A0F000006800287ED110F05DFE044669484FF4E8
:10A10000006100220223CDE90043CDE90221049041
:10A110004FF482734FF4CD720F213C2010F0B2FB4C
:10A120005F49086060495E48006810F0E5FB412027
:10A13000302140F617020023CDE90232CDE90410A8
:10A1400003205749096841233A22CDE90010002134
:10A15000F02008F03AF95549086055A2564953488D
:10A16000006808F06FF855495048006808F0BFF9DA
:10A1700008214E48006808F0E8F94120302140F6F7
:10A1800004020023CDE90232CDE904100320444942
:10A19000096841233A22CDE9001000214FF4AA704A
:10A1A00008F013F94649086046A248494448006847
:10A1B00008F048F841494248006808F098F9082139
:10A1C0003F48006808F0C1F94120302140F61502EF
:10A1D0000023CDE90232CDE904100320304909689B
:10A1E00041233A22CDE900105A214FF4AA7008F019
:10A1F000ECF800E02EE03649086036A237493448D2
:10A20000006808F01FF82D493148006808F06FF920
:10A2100008212F48006808F098F9302040F6050220
:10A220000023CDE903200293059003201C4909680F
:10A230003A231A46CDE90010C8214FF4AA7008F05D
:10A24000C4F82749086027A227492548006807F075
:10A25000F9FF03E01248006811F02FFD23490020A8
:10A260000BF0C6FE2149887802230022052103F065
:10A27000F1FF1FA004F05EF81C494878022103F0AA
:10A28000E6FF1CA004F056F81849C878022103F034
:10A29000DEFF62B606B010BD5DCC02089C8B0308E1
:10A2A0003403002021EC02088080FF0054030020CA
:10A2B000494D41474500000014240B90C08B030812
:10A2C0003803002043414C494200000028360B90DF
:10A2D0003C0300205041494E540000003C480B9084
:10A2E0004003002000000000505A0B90C0000020E6
:10A2F0002E0000002E3230001CB50020009001908E
:10A300000548064A08210368054803F05BFE054935
:10A310000860084600681CBD5C03002015EF0208B9
:10A32000E8270308800300201CB50020009001905E
:10A330000548064A07210368054803F043FE05491E
:10A340000860084600681CBD5C03002099DB020819
:10A35000A8290308140800200246094B9A4201D29A
:10A36000084801E00648103811F0005F03D0064BA2
:10A370000B40C36002E0044B0B4083607047000059
:10A3800010640240006002407D0F7D0F21B1026821
:10A3900042F00102026003E0026822F00102026062
:10A3A000704721B1026842F02002026003E00268B7
:10A3B00022F020020260704730B503460A460020B2
:10A3C00000240A4DAB4201D2094901E00749103986
:10A3D00012F0005F01D04C6800E00C68054D2C4085
:10A3E000144201D0012000E0002030BD1064024082
:10A3F000006002407D0F7D0F10B511F0800F09D075
:10A4000022B1436943F08003436103E0436923F0D1
:10A410008003436180290BD02AB1036801F01E0438
:10A420002343036004E0036801F01E04A3430360B8
:10A4300010BD000010B500220268134B1A40CC6812
:10A440000B6823434C6923438C692343CC69234322
:10A450000C6A23434C6A23438C6A23434C6B23438B
:10A460008C6B23431A430260426922F00702D1E950
:10A470000B3423431A4342610B6943604B6883608A
:10A480008B68C36010BD00003F801CF030B58FB0FA
:10A4900004460D464FF0FA511A48FFF75DFF0021C0
:10A4A0001848FFF773FF002004904FF00060009001
:10A4B0000020039004200B9003200C9002944FF492
:10A4C00000000D90401208900011069000200990A5
:10A4D0000D4801904FF400100E904012079000209C
:10A4E00005904FF400300A9069460648FFF7A2FF36
:10A4F00020210448FFF755FF01210248FFF746FFDE
:10A500000FB030BD58640240802C014030B58FB090
:10A5100004460D464FF0FA511A48FFF71DFF00217F
:10A520001848FFF733FF002004904FF000600090C0
:10A530004020039004200B9003200C9002944FF4D1
:10A5400000000D9040120890001106900020099024
:10A550000D4801904FF400100E904012079000201B
:10A5600005904FF400300A9069460648FFF762FFF5
:10A5700020210448FFF715FF01210248FFF706FFDD
:10A580000FB030BD58640240802C01402DE9FC41E1
:10A5900000282ED0112916D0132910D080460C4641
:10A5A00003F05CF9009000F0DEFA0546684603F01F
:10A5B0009FF9204620F0E2FE064600241CE0BDE89C
:10A5C000FC4100F082BABDE8FC4100F067B92146C9
:10A5D000404600F0CBFA0190007820F0CFFEC7B2E1
:10A5E00001A803F085F9B74205D12146404600F0A5
:10A5F00076FABDE8FC81641CAC42E8DBF9E7F8B50B
:10A600000C46050013D0002C11D003F027F9009060
:10A61000C66B684603F06CF92046FDF7B1FE421C9C
:10A620002146304603F088F9284610F09CFFF8BD1B
:10A630002DE9FF4145680446284603F00FF90190D3
:10A64000D0F8886001A803F053F90EB1012700E0AB
:10A650000027214628460FF063FE002855D02068C9
:10A660000F2856D006DC0B2862D00C2843D00E28C9
:10A670002AD173E0112839D0212802D0262823D1ED
:10A6800016E0E068416800291EDD00680D281BD136
:10A69000304609F036FA002806DB304609F031FA78
:10A6A0000146284600F01BFA284600F077F86EE0D5
:10A6B000E068012809D00A2802D00B286AD111E0ED
:10A6C0000A21284611F001F864E0304609F019FA31
:10A6D00000285FDB304609F014FA0146284600F0F6
:10A6E000FEF954E0284600F059F853E0FFB9E0685D
:10A6F000007A90BB4EE0E06848B1007A08B10121D1
:10A7000000E00221284610F0E0FFBDE8FF810321B0
:10A71000F8E72E46284603F0A1F80290D0F884000E
:10A72000056802A803F0E4F80DB13046A84731E00F
:10A73000284603F093F80090C06B03F03DF90098B1
:10A74000D0F8880010F04CFA0098D0F8940002F08D
:10A75000BDFF684603F0CCF81CE010E0E0684168FB
:10A76000002917DD016809290DD00A2912D01B29FB
:10A7700010D0202903D02846FFF708FFC5E7284658
:10A7800000F098F806E010F045FBB04202D12846F0
:10A7900011F06AF9204610F0EFF9B6E738B5040079
:10A7A00011D003F05BF80090D0F8880040B110F0B1
:10A7B00017FA00990020C1F88800204610F0D3FE57
:10A7C000684603F095F838BDF0B585B0B0F908508B
:10A7D000468A84690296CDE903540027CDE9001723
:10A7E000B0F90C10B0F91050B0F90E40B0F90A00F1
:10A7F000194410442B46224600F002F805B0F0BD83
:10A800002DE9FF410C461D46DDE90D71DDE90B36F2
:10A810006C31DFF880E0DDF828C0CDE900C3CDE978
:10A8200002E14FF0FF33214610F0F6F804002DD07E
:10A8300003F014F81022394600900FF077FF0098CB
:10A840003822154980F88C604C30FDF74BFE124ED3
:10A850000098361F3168C0F88410002180F89010ED
:10A86000C586204600F05EF9684603F041F803F023
:10A87000A0F80546204602F0F1FF0090C563684647
:10A8800003F036F8306841682046884704B0204617
:10A89000BDE8F08131A60008640A002010B5044626
:10A8A00000F006F9010000D0411E2046BDE810402E
:10A8B00000F015B92DE9F14F9EB01E9800287CD00C
:10A8C00002F0CCFF08901E9810F09FFB1A90089899
:10A8D000B0F9367090F890101991C16B179190F8FB
:10A8E0008C90B0F93410079100F03DF98246089839
:10A8F0000BACB0F88E101591B0F982100A91C16CB2
:10A900000991D0E90012CDE90512D0F894B00021E8
:10A9100000EB8102126D44F82120491C0329F7D372
:10A9200000210EAD00EB8102D26D45F82120491CBB
:10A930000329F7D3002111AE00EB8102126F46F814
:10A940002120491C0329F7D308A802F0D1FF1E9843
:10A9500010F0EDFA02F082FF1490D0F8008014A8F5
:10A9600002F0C6FF4FEA284042420FFA88F0414207
:10A9700005A805F03EFD5FEA897003D5BDF8160015
:10A98000C01B01E0BDF81A00ADF816001E9810F0CB
:10A99000CEFA01461A98CDE9000702220292BDF9CB
:10A9A0001630BDF91420002009F03FF880465FEA18
:10A9B000C97009D04046199900E076E009F0B8FA6C
:10A9C0000121404609F0FCF9002708E039461798B4
:10A9D00003F04FF80146404608F0EBFE7F1C574558
:10A9E000F4D30027394654F82720404609F00DFAE1
:10A9F0007F1C032FF6D30024214655F8242040461F
:10AA000009F01AFB641C032CF6D30024214656F8E7
:10AA10002420404609F071FA641C032CF6D35FEA47
:10AA20000B001ED002F01AFF30F8025B0024012652
:10AA3000169011E0169804F0070100EBD40006FA16
:10AA400001F10078084201D0012200E000222146F5
:10AA5000404609F002FA641CAC42EBDB16A802F097
:10AA600047FF4046159909F026FA4046099909F032
:10AA7000E0F940460A9909F0CFFA404610F0F4FF99
:10AA800040461E9909F029FA4046079909F068FAEC
:10AA900001211E9810F019FE1E9802F0DFFE0890AA
:10AAA000C0F8888008A802F023FF1FB0BDE8F08F2F
:10AAB00038B5002438B102F0D1FE0090B0F934402E
:10AAC000684602F015FF204638BD10B50446FFF772
:10AAD000EFFF411C2046BDE81040AFF3008038B5C1
:10AAE0000C46050019D002F0B9FE009000F03BF8CA
:10AAF00000B1401E844200DD04460098B0F93410D5
:10AB0000A1420BD08486684602F0F2FE284610F07F
:10AB10002AFD0421284610F0D8FD38BD684602F011
:10AB2000E7FE38BDF8B5044602F098FE01460090F5
:10AB3000B0F9380010B9C86C04F0A6FC0099CA6AD4
:10AB4000B1F98030126800EB43001618084611F086
:10AB500064FA0546684602F0CBFE32462946204696
:10AB600011F031F8F8BDC06B02F077BF38B50D4673
:10AB7000002402F073FE0090C06B294602F079FFBA
:10AB80000546684602F0B4FE1DB1284602F066FE96
:10AB90000446204638BD70472DE9FC5F1546074640
:10ABA000DFF89C8028440190D8F800001C460E462F
:10ABB000C06E01EB04094946426801989047781B32
:10ABC0000090D8F800004946C06E4268009890474F
:10ABD000D8F8000006EB050B07EB0409C06E5946D8
:10ABE000426848469047D8F80000A6EB050A51464F
:10ABF000C06E426848469047002C1ED0D8F800002E
:10AC0000361B4546C06E3146426801989047286819
:10AC10003146C06E42680098904728683C1B5946F0
:10AC2000C06E42682046904728685146C06E426810
:10AC300002B02046BDE8F05F1047BDE8FC9F000071
:10AC4000EC08002070B505460C46611F621D2846C1
:10AC500003F092FE691F6A1D204603F0DBFD04220B
:10AC60002146284603F0F8FC70BD30B58DB004468F
:10AC70000D46032005F026FD0020ADF80400052058
:10AC8000ADF80600ADF808000021ADF80A100A2062
:10AC9000ADF80C000521ADF80E100F20ADF8100036
:10ACA0000021ADF812101420ADF814000521ADF804
:10ACB00016100F20ADF818000A21ADF81A10142054
:10ACC000ADF81C000F21ADF81E100F20ADF82000CC
:10ACD0001421ADF822100A20ADF824000F21ADF8A0
:10ACE00026100520ADF828001421ADF82A10002008
:10ACF000ADF82C000F21ADF82E100520ADF8300076
:10AD00000A21ADF832106FF07F4005F095FC2B461C
:10AD100022460C2101A803F0C9FE0DB030BD70B56C
:10AD200086B005460E461446032005F0CBFC0020F5
:10AD3000ADF80000ADF802000520ADF804000021D8
:10AD4000ADF80610601D00B2ADF8080004EB440039
:10AD500001B2ADF80A100520ADF80C0004EB440078
:10AD6000400001B2ADF80E100020ADF8100004EB69
:10AD70004400400001B2ADF8121020B2ADF814004A
:10AD800004EB440001B2ADF816106FF07F4005F0FF
:10AD900053FC33462A460621684603F087FE06B078
:10ADA00070BD70B586B005460E461446032005F00A
:10ADB00089FC601D00B2ADF800000020ADF8020073
:10ADC00020B2ADF804000021ADF806100020ADF867
:10ADD000080004EB440001B2ADF80A1020B2ADF84F
:10ADE0000C0004EB4400400001B2ADF80E10601DF1
:10ADF00000B2ADF8100004EB4400400001B2ADF821
:10AE000012100520ADF8140004EB440001B2ADF8B7
:10AE100016106FF07F4005F00FFC33462A460621DE
:10AE2000684603F043FE06B070BD2DE9FC470E46B0
:10AE30005FEA000978D002F011FD009090F854709C
:10AE4000D0F85880456BC46C684602F051FDB8F1EB
:10AE5000000F04D0314648464246904761E0122E2A
:10AE600018D006DC082E43D0102E3CD0112E06D16F
:10AE700012E0132E21D01D2E43D01E2E3DD0202EA9
:10AE80004FDB17B1484614F006FBB1B248461BF041
:10AE9000B4FC60B3611C27E04DB3284602F0DEFC31
:10AEA00005462146019005F0ABFD4419204605F00A
:10AEB00069FD01462346012210E0C5B1284602F093
:10AEC000CDFC05462146019005F09AFD4419204627
:10AED00005F058FD014623464FF0FF32484612F078
:10AEE0007CFC01A81BE0611E484600F0F0FA18E067
:10AEF000BCB1611E484600F0EAFA484614F0CBFAAD
:10AF00000FE0484602F0AAFC0090012F0ED001216C
:10AF100080F854102146484600F0D9FA684602F0FD
:10AF2000E7FC484610F01FFBBDE8FC87002180F8D5
:10AF30005410F3E7FEB544680546204611F0E8F9E1
:10AF40000646294620460FF0EBF9002834D0286841
:10AF50000E283DD004DC0B282FD00C284AD116E057
:10AF60000F2825D0A0F58070133843D1204610F06B
:10AF70007BFC204600211DF081FF204602F06EFC84
:10AF80000190C06F002110F055FC01A81DE0E86899
:10AF900060B1017A29B10168204600F009F9012168
:10AFA00000E00221204610F090FB23E00321F9E7A6
:10AFB000012120461DF062FFFEBD204602F04EFC3E
:10AFC0000090343002F0AAFB684602F091FC11E0D8
:10AFD00086B1E868416800290CDD0168092909D0BB
:10AFE0000A2907D00D2905D01B2903D02046FFF7D9
:10AFF0001CFFFEBD28460FF0BFFDFEBDF0B587B0BB
:10B000000DF1300EBEE8F0104FF0000E8DE8F0505C
:10B0100000F028F807B0F0BDF0B587B004460DF198
:10B02000080CD4E90567B0F90850408AACE8E100A3
:10B030000020CDE90010B4F90C00B4F91060C1187B
:10B04000B4F90A00B4F90E50104433462A4600F011
:10B0500009F8050002D0618A00F0FCF907B0284623
:10B06000F0BD00002DE9FF410D46DDE90D640F9FA5
:10B07000DDE90AC141F480515837DFF874E0CDE9C9
:10B0800000C1CDE902E729460FF0C6FC05002AD031
:10B0900002F0E4FB1022314600900FF047FB0098CD
:10B0A0001C2214496030FDF71DFA0099012081F837
:10B0B0005500601C00D0012081F88000002C00DCCD
:10B0C000082424B20C87002048874863641C684623
:10B0D00002F00EFC214628461AF0B1FF18B92846A6
:10B0E0000FF07EFD002504B02846BDE8F081000089
:10B0F00035AF00089C0A00200148806870470000B6
:10B100009C0A00202DE9FC4115460E0022D00028A3
:10B1100020D002F0A3FB002701903770406BB0B144
:10B1200002F09CFB009006F0E5FC0146009805F05B
:10B1300067FC0446681E844200DD04462246304611
:10B140000099FDF748F9684602F0D2FB375501A88F
:10B1500002F0CEFBBDE8FC8138B5002430B102F02E
:10B160007DFB0090846C684602F0C2FB204638BD2F
:10B17000F8B515460C4606000ED002F06FFB0090A5
:10B1800038B1022C05D200EB84004567304610F040
:10B19000EAF9684602F0ACFBF8BD10B5040006D031
:10B1A00000F095F92046BDE8104010F0DCB910BD64
:10B1B0002DE9F04186B00C46060050D002F04EFB5F
:10B1C0000090406B98B302F049FB03900098806EAA
:10B1D00005F048FA804630460FF017FF07460398FF
:10B1E00004F0EDF80546009890F8601001F00301B6
:10B1F000012916D002290DD0416EC06A00680844AA
:10B20000241A641E039806F075FC0146002C0FDA20
:10B21000002115E0781B401C00EBD070A4EB60040B
:10B22000F0E7406E791B081A241A641CEAE713E061
:10B23000AC4205DC02462146039806F0FBFB0146C2
:10B24000304600F044F903A802F052FB404605F0F6
:10B2500009FA304610F087F9684602F049FB06B05B
:10B26000BDE8F0812DE9F8431D46DDE908491646A1
:10B270000F465FEA000841D002F0F0FA00903C303F
:10B280001F49C1611F4901620021C0E90371C0E982
:10B290000065047280F81A900121017690F84470DC
:10B2A000684602F025FB87B1284619F0CEFA05461C
:10B2B000304619F0CAFA0CB1401C6D1C854200DD05
:10B2C00028460146404600F031F8404620F01AF981
:10B2D000404602F0C3FA009000F0E4F80A49097809
:10B2E000884205D10098C16C4046491C00F0EFF837
:10B2F000684602F0FDFA404610F035F9BDE8F883E3
:10B30000FDCA010805B50208E008002038B50C4662
:10B3100005000AD002F0A2FA009018B1846628460F
:10B3200010F021F9684602F0E3FA38BD7CB50C460E
:10B3300006002ED002F092FA0090B0F93810458F36
:10B34000A14223D012DD406B80B102F087FA019058
:10B3500006F0D0FBA04206DD2146019805F050FB27
:10B36000019A0021115401A802F0C2FA684602F0C5
:10B37000BFFA611B491C30461AF061FE304602F0EC
:10B380006DFA00900487304610F0EDF8684602F040
:10B39000AFFA7CBD2DE9FC4788465FEA00094FF013
:10B3A000000555D002F05AFA0090B0F93860446BAD
:10B3B000684602F09DFA0027B8F1000F3ED04CB16C
:10B3C000204602F04BFA0190FCF7DAFF451C01A879
:10B3D00002F08EFA404606F08DFB0446B04200DDD6
:10B3E00034462146404605F00BFB461C711B48467F
:10B3F0001BF0BDFA08B3484602F030FA0090406BEB
:10B4000002F02CFA324641460190FCF7E4FF019825
:10B41000304400F8017C0098C464B0F938108C42C4
:10B4200005D190F85410012901D1641EC464684606
:10B4300002F05EFA01A802F05BFA06E000983430F0
:10B4400002F06CF900984787C764484610F08BF803
:10B45000BDE8FC8738B50C4605000AD002F0FEF9BD
:10B46000009018B10466284610F07DF8684602F096
:10B470003FFA38BDF8B515460C4606000ED002F06E
:10B48000EDF9009038B1022C05D200EB8400C566BE
:10B49000304610F068F8684602F02AFAF8BD00223B
:10B4A0001FF080BD38B50446406B002568B102F03E
:10B4B000D5F900900546E16C05F0A2FA284405F0A4
:10B4C00061FA0546684602F013FA284638BD1CB5F5
:10B4D0000C4602F0C3F90090406BF0B102F0BEF9E7
:10B4E000019006F007FB009991F8542002B1012267
:10B4F000002C00DA0024844200DD0446B1F9380053
:10B50000801AA04200DA0446C86CA04200D0CC6485
:10B510000020086501A802F0EBF9684602F0E8F99E
:10B520001CBD000010B5002400E0641C28488442C3
:10B53000FBD30221274801F08CFCB8BB0BF086FE40
:10B5400025490870084600782A2804D123480BF0C2
:10B550004DFD21490870204800782A2807D11F494D
:10B56000B1F8421008040CF0F9FB1B4908701A48A6
:10B5700000782A2805D14FF400600BF0D9FC164959
:10B580000870154800782A2804D100200CF000FC2F
:10B5900011490870104800782A2811D1104900205C
:10B5A00025F0E8FD01200F49087009E0FFE70BF0E6
:10B5B00003FB0021084625F0DDFD01200949087044
:10B5C000022000F021F8072009F0E4FC10BD000083
:10B5D00080F0FA0200040240D80100206C0F002025
:10B5E000B00F00203103002010B5002400E0641CDF
:10B5F00004488442FBD3102000F006F80A2009F02A
:10B60000C9FC10BD80969800014908607047000091
:10B61000143C0140002123498279002A3AD00A468D
:10B62000126803689A430B461A600A1D1268036881
:10B630009A430B1D1A60027911440A6803681A4381
:10B640000A60184A0832126803689A43154B083397
:10B650001A601A1D126803689A43124B0C331A6061
:10B660004279102A0ED11A1F126803681A430D4B33
:10B6700008331A601A1D126803681A43094B0C3309
:10B680001A600DE00749427911440A6803681A43B9
:10B690000A6005E0027911440A6803689A430A6067
:10B6A00070470000003C014099B1102808D14FF0CC
:10B6B0002042126E42F004024FF020431A661CE052
:10B6C0000E4A126842F004024FF02043C3F8802073
:10B6D00013E0102808D14FF02042126E084B1A4098
:10B6E0004FF020431A6608E0044A1268044B02EA4D
:10B6F00003024FF02043C3F880207047800000A071
:10B70000FBFF0F0030B5002100220023446844F005
:10B71000080485682C43C5682C4305692C4345699A
:10B7200044EA4524856944EA4531C4692468C56909
:10B730006D6844EA0524C5692D8944EA0544C56954
:10B740002D7B44EA0562046A2468056A6D6844EA50
:10B750000524056A2D8944EA0544056A2D7B44EADF
:10B7600005630468102C05D14FF020442166A266C1
:10B77000E36607E0044C21604FF02044C4F88820C1
:10B78000024C236030BD0000800000A08C0000A0AF
:10B790002DE9F04389B0984615460F4606004FF054
:10B7A000000429D000F0F2F90446304600F0BEF95A
:10B7B000814603A9304600F01EFBF80706D0BDF90C
:10B7C0001C00001B401B401C822109E0B807002818
:10B7D000BDF91800284402DA40F2022100E00221FB
:10B7E0000096CDE9018123461A464946FCF7E6FF5B
:10B7F00004460021FDF794F909B02046BDE8F08326
:10B8000010B50523FFF7C4FF0446054A0021FDF7E4
:10B8100098F90449204610F05BF8204610BD00005E
:10B82000B1FB0108C5D302082DE9F047456804467D
:10B830008EB00026284602F011F800905C30B0F877
:10B8400020A0D0F80C90D0F82480C76A006800B11E
:10B850000668684602F04CF805E07968204688479B
:10B8600000283DD13F68002FF7D12068142844D02C
:10B8700009DCA0F10B00072839D2DFE800F0BE395F
:10B8800089B434B4110020287ED004DC17283ED0BF
:10B890001E282CD14BE026283CD02A2827D110E0A6
:10B8A0002846E66801F0DAFF0190717A39B9317AF9
:10B8B000012904D130F87C1F41F48071018001A876
:10B8C0008FE0284601F0CAFF0090E16811B1C0F88E
:10B8D000841002E0D0F88400E060684602F008F8C6
:10B8E0000EB0BDE8F087002E7DD02846B0477AE044
:10B8F000214628461CF0A2FFF2E705A9284600F0E1
:10B900007AFAE0680699016007994160E8E7C4F8AF
:10B910000C90E5E7E0680228E2D10C95E0680D9014
:10B9200027200A900AA9A06810F00CFFD8E7E06869
:10B93000012804D00021284600F09BF9D0E74046BA
:10B940000FF066FE58B1404610F08EF840460FF0FA
:10B9500041FD88B1012140460EF06CFD0CE04846E7
:10B9600010F0D0F88046284601F078FF0090C0F82B
:10B970008080684601F0BCFF0121284600F079F97B
:10B98000B8F1000FACD100E00EE00020E060A7E7C6
:10B990005FEA0A7027D4E068C06820B3007A10B369
:10B9A000284610F061F81EE0E668E6B129467068A6
:10B9B00010F097FC20B1012128461EF065FD12E031
:10B9C000002128461EF060FD2946306810F078FC02
:10B9D00048B1284601F042FF03903168C0F880105A
:10B9E00003A801F085FF214628460EF099FC0028A7
:10B9F0008CD020460FF0C0F872E7284601F02EFFE9
:10BA00000090703001F08AFE6846EAE7F0B587B032
:10BA1000B0F908400DF10C0C0C9E87694568ACE844
:10BA2000F000448A0025CDE900150294B0F90C100D
:10BA3000B0F91050B0F90E40B0F90A0019441044A2
:10BA40002B46224600F002F807B0F0BD2DE9F04782
:10BA50008AB00DF14C0CDDE91784BCE86006129F3A
:10BA600045F480556034DFF8B8C0CDE902C4CDE9B3
:10BA700000750EF0D1FF04004DD001F0EFFE302232
:10BA8000494604900EF052FE04982822254934308D
:10BA9000FCF728FD0498234F5C30083FC0F808806D
:10BAA0000684002646620661C6627968016004A8C1
:10BAB00001F01EFF05A9204600F09DF91A4841F249
:10BAC000827103960094CDE90110BDF91E00BDF905
:10BAD0001A10BDF91C20431ABDF918005B1C121A7C
:10BAE000521C0EF099FF0646786841682046884748
:10BAF000204601F0B3FE0490866604A801F0F8FE2B
:10BB000042F20400054202D120460FF0CDF8514622
:10BB1000204600F018F90AB02046BDE8F087000082
:10BB200029B80008C00A002005C1000838B5050082
:10BB30004FF000040CD001F091FE0090C06D002188
:10BB400080680268284690470446684601F0D0FEA7
:10BB5000204638BDF8B50E4605004FF000040CD065
:10BB600001F07CFE0090C06D314680680268284676
:10BB700090470446684601F0BBFE2046F8BD000031
:10BB80000148006870470000C00A002030B587B047
:10BB900005004FF000040ED001A900F02CF9284652
:10BBA00001F05CFE0090B0F95440684601F0A0FE40
:10BBB0000CB9BDF9044007B0204630BD30B504468D
:10BBC0008BB0006801F04AFE009090F87C10246A67
:10BBD000006FC1F3C00508B101F040FE0690E068B7
:10BBE000029020690390A088401EADF81000E08903
:10BBF000ADF812002089401CADF81400608AADF841
:10BC00001600BDF80800401CADF80800BDF80A0099
:10BC1000401CADF80A00BDF80C00401EADF80C0049
:10BC20000098406B04F01EFD009808AA02A9B0F924
:10BC30005A30069805F0A4F8009800EB8500806B58
:10BC400007F0C6F9009800EB8500006C07F0F8F9E2
:10BC500008AB02AA04A906980EF09CFC684601F005
:10BC600047FE069810B106A801F042FE0BB0002076
:10BC700030BD002801D01EF007BC704738B50C4617
:10BC800000280CD001F0EAFD0090816CA14203D0A5
:10BC90008464806E0FF067FC684601F029FE38BDB1
:10BCA0002DE9FC410D46070028D001F0D7FD019099
:10BCB000C16D8C6800F006F980460198456301A8C3
:10BCC00001F016FE22680121384690470646226898
:10BCD00003213846904705462268002138469047A0
:10BCE0000446384600F0D7F92B46324641463846DE
:10BCF000009400F05FF938460FF035FCBDE8FC8198
:10BD000038B50C4600280ED001F0A8FD009030F8A0
:10BD10007C1F14B141F0100101E021F010010180FD
:10BD2000684601F0E5FD38BD38B50D46040009D080
:10BD300001F094FD00900566684601F0D9FD2046AB
:10BD40000FF011FC38BD7CB50D46040019D001F090
:10BD500085FD0090006F0190684601F0C9FD2946FD
:10BD600001A806F049F800280BD0204601F076FD26
:10BD7000009001990167684601F0BAFD20460FF076
:10BD8000F2FB7CBD2DE9FC470D465FEA00094FF050
:10BD900000042DD001F062FD0190B0F95440A5429D
:10BDA00023D000F08FF8804601980121A0F854506C
:10BDB000C06D856848462A68904707462A6803216F
:10BDC0004846904706462A6800214846904705465F
:10BDD000484600F060F933463A46414648460095E9
:10BDE00000F0E8F848460FF0BEFB01A801F080FD26
:10BDF0002046BDE8FC872DE9F34F85B000270C46AF
:10BE0000B846059801F02AFD0090C06D01218568B3
:10BE100005982A68904782462A680321059890472A
:10BE200004902A6802210598904703902A6800210F
:10BE3000059890470646009810F0EFF88346009862
:10BE400010F0F2F88146009890F83210890601D57A
:10BE5000B0F9588000F036F805460098C06E10B171
:10BE60000FF0E4F8074625806780A4F804A0049A40
:10BE7000ABEB020006EB0802401E2A4420813A4444
:10BE8000E280039BA9EB0302521E6281A4F80CA07E
:10BE900020827019E681401E6082684601F028FD0C
:10BEA000B4F90C000190B4F91000029002AA01A9A3
:10BEB000059800F039F80198A0810298208207B017
:10BEC000BDE8F08F10B50146002091F832209206AF
:10BED00007D5B1F95400002803D1486B03F0D9FA13
:10BEE000801C10BD70B58AB00C46054601F0B6FC4A
:10BEF0000990C06D866809A801F0FAFC009534B17C
:10BF0000012C06D0022C0BD0032C04D10AE01820FF
:10BF100000E0162001907168684688470AB070BD3D
:10BF20001520F7E71720F5E72DE9FC4790468946ED
:10BF3000044601F093FC0090C16D056868468E6868
:10BF400001F0D6FC32680021204690470646204684
:10BF50000EF04EFF2F1404462DB227E001F07EFCB8
:10BF60000190B0F90010B0F90420B0F90230491B7B
:10BF7000521BDB1BB34212D190F82800000607D5F4
:10BF8000D8F8000088420ADB491EC8F8001006E015
:10BF9000D9F80000904202DC521CC9F8002001A828
:10BFA00001F0A6FC20460EF0BBFF0446002CD5D1C4
:10BFB000BDE8FC872DE9FF4F83B00E460746DDF84C
:10BFC000409001F04BFC0190C16D8D68FFF77AFF46
:10BFD000044601A801F08CFC2A68012138469047EC
:10BFE00083462A6803213846904782462A68002102
:10BFF000384690470546B44207D105998B4504D190
:10C0000006998A4501D14D4542D0A41B0026B04671
:10C0100038460EF0EDFE39E001F020FC0090806A19
:10C02000010602D54FEA805002E0810528D50006BE
:10C03000002825DB24B12246114638460FF083FB49
:10C04000009890F8280000060AD50698A5EB09028A
:10C05000A0EB0A0004FB1601761C38460FF033FBF8
:10C060000098008D80050BD50599A5EB0902ABEB77
:10C07000010004FB080108F1010838460FF023FB1A
:10C08000684601F035FC38460EF04AFF0700C3D180
:10C0900007B0BDE8F08F70B586B0064601F0DEFB54
:10C0A0000590D0E91A4505A801F022FC54EA0500E4
:10C0B00026D069463046FFF79EFEACB1BDF906209A
:10C0C000BDF9041020460FF0D3FABDF90A00BDF9FE
:10C0D0000610421ABDF90800BDF90410521C411A9D
:10C0E000491C20460FF06FFD002D09D0BDF9060058
:10C0F000BDF90210421ABDF9041028460FF0B8FA33
:10C1000006B070BD2DE9F0430446406885B0064690
:10C110000EF00DFF814601F0A1FB0090D0F8808069
:10C12000876C456E684601F0E3FB2068172859D0FC
:10C1300008DC0E2837D00F280BD0142852D0152831
:10C140003AD14FE01E2818D01F2827D0222833D1FB
:10C1500046E06FF07040874204D0384606F038FF62
:10C1600001F0E8FE002D12D0D4E902122068CDE9DA
:10C170000106CDE9031201A822E0E068002806D0FC
:10C180005FEA080006D0B04504D00FF06DFC05B0A2
:10C19000BDE8F08330460FF0B5FC16E02146484676
:10C1A0000EF0BEF8F3E7E0684168002904DD00689E
:10C1B0000928EFD00A2805D0A5B12046C4F804907C
:10C1C000A847E4E730460FF0A5FC0446484601F0D6
:10C1D00045FB0090C0F88040684601F089FBD6E737
:10C1E000E760D4E720460EF0C7FCD0E72DE9FC411C
:10C1F00007460D4600262A240020009001900820C2
:10C200005B49086010204860402088600020C860BA
:10C210004FF48060086108460AF03EFD1020FDF7EB
:10C22000F5FC04462A2C02D02046BDE8FC8151488A
:10C23000008800044E49086037204860402088602C
:10C240000020C8604FF48060086108460AF024FDB1
:10C250003720FDF7DBFC04462A2C01D02046E4E71A
:10C260004548464908600820486030208860022020
:10C27000C860002008610120486108460AF082FC7D
:10C2800000203B490860332048604020886000203F
:10C29000C8604FF48060086108460AF0FDFC332056
:10C2A000FDF7B4FC04462A2C01D02046BDE709E086
:10C2B0004FF400100AF092FC20B10AF0E7FC4DF8B0
:10C2C0002600761C2E48006840F22A610842EFD012
:10C2D00008200AF083FC28B108200AF03BFC042463
:10C2E0002046A2E702200AF079FC28B102200AF0D9
:10C2F00031FC0224204698E720200AF06FFC28B188
:10C3000020200AF027FC062420468EE74FF4007018
:10C310000AF064FC30B14FF400700AF01BFC0724F3
:10C32000204682E740F2FF500AF014FC0098000615
:10C33000009901F47F4140EA0120009901F47F0156
:10C3400040EA1120009940EA1160686001980006F7
:10C35000019901F47F4140EA0120019901F47F0134
:10C3600040EA1120019940EA1160286020465CE70C
:10C37000D42700208C080020FFFF0F00E8270020B2
:10C38000342C014070B5044600BF434D2D6805F4C0
:10C390008035B5F5803FF8D03F4D2D6815F0010F81
:10C3A00002D001253C4E35603B4D2D1D2D6845F0DA
:10C3B0008075394E361D3560012B04D0022B20D0FC
:10C3C000042B5ED13DE0344D2D1D2D6825F44075C4
:10C3D000314E361D356035462D6845F00105356016
:10C3E00000200BE0255C0D5400BF2B4D2D6815F08F
:10C3F000010FFAD00125284E3560401C9042F1D340
:10C400003FE0254D2D1D2D6845F48075224E361DCB
:10C41000356035462D6845F00105356000200DE09A
:10C4200034F8105021F8105000BF1B4D2D6815F046
:10C43000010FFAD00125184E3560401C9042EFD311
:10C440001FE0154D2D1D2D6845F40075124E361D4B
:10C45000356035462D6845F00105356000200DE05A
:10C4600054F8205041F8205000BF0B4D2D6815F0B6
:10C47000010FFAD00125084E3560401C9042EFD3E1
:10C4800000BF00BF044D2D1D2D6825F00105024E93
:10C49000361D356070BD00000C3C024010B50246F0
:10C4A00000BF264B1B6803F48033B3F5803FF8D000
:10C4B000224B1B6813F0010F02D001231F4C236095
:10C4C0001E4B1B1D1B6843F080731C4C241D2360F6
:10C4D00023461B6843F40073236023461B6843F024
:10C4E0000203236010461CE0144B1B1D1B6823F045
:10C4F000F803124C241D236023461B6843EAC00343
:10C50000236023461B6843F48033236000BF0B4B3A
:10C510001B6813F0010FFAD00123084C2360431C61
:10C52000D8B253188342DFDC044B1B1D1B6823F079
:10C530000203024C241D236010BD00000C3C02408D
:10C5400002480349086003480860704723016745B3
:10C55000043C0240AB89EFCD10B504460A280FD049
:10C560000D2C11D009480068C06901682046884731
:10C5700007480168002907D02046BDE81040084759
:10C58000BDE8104001F0B2BE10BD0000EC08002074
:10C59000140900202DE9FF5F8346DDE90E4598462A
:10C5A00091468A4604F5B47405F5B4754FF0FF362C
:10C5B00001274FF4B47003E0A4F5B474A5F5B47585
:10C5C0008442F9DA002D65DD5A2C11DA002C00DAEC
:10C5D00000245A2D01DA284600E05A20CDE9004017
:10C5E000CDE9027643464A465146584613F038FB99
:10C5F0005A3D5A3C002D4DDD5A2C14DA002C00DA3D
:10C6000000245A2D01DA284600E05A20C4F15A01CC
:10C61000C0F15A008DE8430043464A465146584609
:10C62000039613F01DFB5A3D5A3C002D32DD5A2C67
:10C6300012DA002C00DA00245A2D01DA284600E034
:10C640005A200DF1040C0094ACE8C10043464A4660
:10C650005146584613F004FB5A3D5A3C002D19DD53
:10C660005A2C14DA002C00DA00245A2D01DA28465C
:10C6700000E05A20C4F15A01C0F15A008DE883004D
:10C6800043464A4651465846039713F0E9FA5A3D45
:10C690005A3C97E7BDE8FF9F2DE9F0430446C56883
:10C6A00087B090468946002003F0D9FF064625B1A1
:10C6B000287910B146F0020001E026F0020003F0F4
:10C6C000CEFF2069012558B1D4E902128DE8260079
:10C6D000039563882288046841464846A0471EE0C7
:10C6E000124F134B214638681B68427CE06898471C
:10C6F00030B9E088012801D0002001E03868806B63
:10C70000A288E388A1680095CDE90410CDE9023242
:10C710000195638822884146484606F01DF807B017
:10C720003046BDE8F04303F09ABF0000EC0800205B
:10C73000E40800202DE9F0478146884640F2C320F6
:10C7400050434FF47A7190FBF1F502FB02F002EBDB
:10C75000D27100EB61066D1C174600234146484626
:10C76000FEF71AFA012413E004FB04F007FB0700AC
:10C77000B04206DD3B46224641464846FEF70CFAEB
:10C780007F1E3B46224641464846FEF705FA641C9A
:10C79000AC42E9DDBDE8F0871CB50024019401AC92
:10C7A000009400F0E7F81CBD2DE9FF4F83B08146EF
:10C7B00006988A46A0EB0A08109E00200090A2EB83
:10C7C00009043568934654EA080018D02046FBF760
:10C7D00082FF07464046FBF77EFF87420BDA204682
:10C7E000444680464846D14682465846DDF818B051
:10C7F000069001200090002C07DD204606E007B0DF
:10C800004846BDE8F04F00F03BB96042A0420AD074
:10C810004846D9466442C8F1000883464FF0FF37C6
:10C82000DDF818A000E001275148B8F1000F11D041
:10C8300004EBD4714FEA610B01DACBF1000B4C48E9
:10C840000068807E88B3002F02DA306820443060B0
:10C8500000257BE000990029016821D0897E11B173
:10C860000027804615E007B05A4649465046BDE8C5
:10C87000F04F06F0D5B828466D1C1DF071FF38B991
:10C88000D8F8000009EB0701C06E42685046904797
:10C890007F1CA742EFDD6D1E356007B0BDE8F08F4D
:10C8A0008A7E1AB10027804617E019E0C86E5A4602
:10C8B0005146036807B04846BDE8F04F1847284680
:10C8C0006D1C1DF04DFF38B9D8F8001009EB0700BA
:10C8D000C96E4A68514690477F1CA742EFDDDAE7F0
:10C8E00000250FE008FB05B090FBF4F101EB0A0016
:10C8F000009951B11E4A09EB05011268D26E5268C7
:10C9000090476D1CA542EDDDC7E7194909EB05030A
:10C910000968C96E4A6801461846F1E708FB05B088
:10C9200090FBF4F101EB0A0001903068384430606C
:10C930001DF016FF48B9009890B10D4809EB0501AC
:10C940000068C06E4268019890476D1CA542E5DD05
:10C950003068002F01DA20443060C01B30609CE753
:10C96000034909EB05000968C96E4A680199EBE7BC
:10C97000EC0800202DE9FF470F4640491646804647
:10C9800009680C981D460A7E012A1CD0A8EB0600F7
:10C99000791B50EA01031CD0A2F101091FF094FC9D
:10C9A00000F58060824605F04FFB00FB09F450461D
:10C9B00005F04EFB00FB09F1002C0CDAC4F5007009
:10C9C000801240420AE00090324639464046FFF766
:10C9D000EBFEBDE8FF8704F50074A012002904DA1D
:10C9E000C1F5007189124C4202E001F500718C1210
:10C9F000002804DD411C01EBD171491003E000EB7C
:10CA0000D0714910401E00EBD0704210002C04DDA4
:10CA1000601C00EBD070401003E004EBD4704010B9
:10CA2000641E04EBD47308EB0104ADF800403C181D
:10CA3000ADF80240A8EB02045B10B21AADF8044056
:10CA4000ADF808203144FC1AEA1AADF80C1028445D
:10CA5000ADF80A20ADF80E000023ADF806401A46E6
:10CA60000421684600F07AF83946404615F0AAFEDF
:10CA70002946304615F0A6FEABE70000EC08002082
:10CA8000064A13681A7E012A05D0521E02EBD272A2
:10CA9000521000F005B8DA6E52681047EC0800201A
:10CAA0002DE9F05F0646884640F2C32050434FF41C
:10CAB0007A7190FBF1F702FB02F002EBD27100EB0E
:10CAC000610B254914467F1C09683244301BC96E2E
:10CAD0000B684146984701253AE000BF05FB05F089
:10CAE00004FB040159451CDDBC4219DD1A4B06EB61
:10CAF000050AA6EB05091B68AAF1010208EB04016F
:10CB0000DB6E09F101001B689847134BAAF1010283
:10CB1000A8EB04011B6809F10100DB6E1B68984754
:10CB2000641E0D4806EB040AA6EB0409006808EB36
:10CB300005015246C06E0368484698470648A8EB70
:10CB4000050152460068C06E0368484698476D1C50
:10CB5000BD42C3DDBDE8F09FEC0800202DE9FF4F8A
:10CB600040F6FF740F46664283B09B468146002123
:10CB70000BE000BF09EB8100B0F90200A04200DA2F
:10CB80000446B04200DD0646491CB942F2DB684863
:10CB90000068406900280DD0B0F906101A46A1EBD4
:10CBA0000B01B14200DA0E46B0F90200801AA04231
:10CBB00000DD0446B5E0DFF87CA100200546CAF898
:10CBC000000089E0781E854201DA6B1C00E000233A
:10CBD00009EB850C09EB8302BCF90200B2F90210E3
:10CBE000A04245D1A14215D139F92330059A39F92E
:10CBF000251003EB020C4E4A05981268084404EB1A
:10CC00000B01D26E6045136801DA62462BE00246E2
:10CC1000604628E02846A4464FF000087A1E0BE044
:10CC200008B1401E00E0781E09EB8003B3F9023022
:10CC3000634504D108F101089045F1DB2346A34286
:10CC400049D0A3EB040239F92500A1EB040C059BA4
:10CC500092EA0C0209D4364A184404EB0B0112681C
:10CC6000D26E13680246984735E00FF07BFE32E043
:10CC7000A14230D001DBA04203DDA0422BDBA14268
:10CC800029DCE04688420ADC0346A04223DC084651
:10CC9000A14220DBB8F900C0B2F9001008E00B4651
:10CCA000A14218DCA04216DBB2F900C0B8F90010AE
:10CCB000E21AA1EB0C0151430029A0EB030202DDB3
:10CCC00001EB620102E0A1EB6201491CC01A91FB79
:10CCD000F0F06044C9E76D1CBD42FFF673AF0598E4
:10CCE000009004EB0B00019000208046054613E005
:10CCF0001149B8F1000F31F915A009D0009901EBE5
:10CD00000A0208440A490968C96E0B6801999847E4
:10CD100088F0010850466D1C064909688D42E7DB22
:10CD2000641CB4427FF747AF07B0BDE8F08F000046
:10CD3000EC0800204C090020EC29002010B5002050
:10CD400003F076FC6FF07F4003F076FC012003F0E7
:10CD5000B9FC002003F0BEFC002003F0C5FC00205D
:10CD600003F07DFC0448006803F07CFCBDE8104043
:10CD7000002003F083BC0000E8080020F0B50A465C
:10CD800000210023002400BF3DE0012505FA01F346
:10CD9000156805EA03049C4234D105684F00032658
:10CDA000BE40B543056015794E00B5400668354371
:10CDB00005601579012D02D01579022D16D18568EF
:10CDC0004F000326BE40B543856055794E00B540FF
:10CDD000866835438560456801268E40B5434560C9
:10CDE000456896798E40B6B235434560C5684F00B8
:10CDF0000326BE40B543C560D5794E00B540C66830
:10CE00003543C560491C1029BFD3F0BDF0B50023E0
:10CE100000244D07ED0E02FA05F3CE1000F12005B7
:10CE200055F826504E07F70E0F26BE40B543CF10DB
:10CE300000F1200646F82750CE1000F1200555F8E5
:10CE4000265045EA0304CE1000F1200545F826409F
:10CE5000F0BD0246002013690B4201D0012000E022
:10CE600000207047418370470183704770B50C46BE
:10CE7000054600F015F9A8682168C1626168016380
:10CE8000A1684163490707D5D0E90021C0E9001234
:10CE9000D0E90221C0E90212A18981842169002917
:10CEA00003D001DC4FF00001016270BD2DE9F041BB
:10CEB0001E4617468846054600F0F2F8AC68682220
:10CEC000414604F58470FBF70DFB2846B847284619
:10CED000B047286980688047A062BDE8F081000003
:10CEE00010B5044600F0DCF8A0680E494C30114A39
:10CEF000C1650D4981650D4901660D4981660021B5
:10CF0000C166136843660C4BC0E91E315168416726
:10CF100030F8261C21F0030120F8261C0749416443
:10CF200010BD000039A80208A9AC020801A8020837
:10CF30009F9F02089009002043A1020831A7020820
:10CF400010B5044600F0ACF8A4680C4890341021E9
:10CF500020650B4860650B48A0650B48E0650B48F1
:10CF6000E0600B482061206BA06654F890292046B1
:10CF700090471020A0630748606410BD4D1302085D
:10CF800091360208E1CF000811D10008CD9D0208BA
:10CF9000F5B7020820B9030870B50C46054600F045
:10CFA0007FF80A48AA6814B1012C08D103E00849A7
:10CFB0000160084902E008490160084941600168D0
:10CFC00042F8B01F4068106170BD00009009002059
:10CFD000579F0208B9A002087F9F020805A1020816
:10CFE000F8B5846815460F4694F8260080074CD59E
:10CFF000D4F8FC30204698470646D4F800312A463B
:10D00000394620469847D4F8943005461BB1002293
:10D010000121204698472069B04201DD012000E04F
:10D020000020A169B14201DA012100E0002108439A
:10D030006169A94201DD012100E000210843E169A5
:10D04000A94201DA012100E0002108430AD060680A
:10D05000401E00902368D4F8A4705B1E0022114685
:10D060002046B847D4F8A8302A463146204698478B
:10D07000D4F89C1020468847D4F8943005466BB10C
:10D08000012200212046984708E0D4F8A830204625
:10D090009847D4F89C102046884705462846F8BD96
:10D0A00070B504468068002812D14FF4B875284640
:10D0B00000F04AFB2A460021A06004F049FFA06866
:10D0C0000221C1840121046401620249C0F80411F3
:10D0D00070BD0000D9D0000810B590B004462022E1
:10D0E0000A496846FBF7FEF908492022203108A8C2
:10D0F000FBF7F8F9606B5DF82010C4F8FC1008A984
:10D1000051F82000C4F8000110B010BD605C0308A5
:10D110002DE9F84384689846154694F826000F4692
:10D12000800740D5D4F8FC30204698470646D4F80E
:10D1300000312A4639462046984705462069B042C4
:10D1400001DD012000E00020A169B14201DA0121E6
:10D1500000E0002108436169A94201DD012100E0EE
:10D1600000210843E169A94201DA012100E0002120
:10D1700008430AD06068401E00902368D4F8A47069
:10D180005B1E002211462046B847D4F8A8302A4634
:10D19000314620469847D4F8A02001B041462046A9
:10D1A000BDE8F0431047D4F8A830F2E72DE9F04F7E
:10D1B000DFF828B191B04FF0FF35DBF80030B3F95C
:10D1C00022100691DE69B3F92490F469A1898142A5
:10D1D00006D8E289824203D3471AD4F8008012E0CD
:10D1E000D4E9018100296FD00A8882426CD84D8829
:10D1F000854269D3801A82B2486800EB8200B0F998
:10D200000070B0F90250781C5ED0307EA17C10FB1B
:10D2100001FA217CCDE90801B3F92A60304605F016
:10D2200021FFC0B20E90DBF8000007FB0A81A37C4F
:10D23000826B0127CDE90412CDE90273C069DDE9F3
:10D240000832C17E807ECDE900014946069805F08E
:10D2500083FA681C18D046F0020005F003FFDBF8E3
:10D260000000A37C05FB0A81826BCDE90273CDE946
:10D270000412C069DDE90832C17E807ECDE900017B
:10D280004946069805F068FADBF800005D46C0697B
:10D29000417E007E814214D9022E12D086F0040015
:10D2A00005F0E0FE2868C069027EC37E12FB039190
:10D2B000437E857E099A06984B4402FB050205F0E1
:10D2C000D9FB0E9805F0CEFEDBF80000627C418CA5
:10D2D0001144418411B0BDE8F08F0000EC0800203B
:10D2E00004480068C069C06909B1027C0A60407CDA
:10D2F00070470000EC080020022008807047C069D9
:10D3000082898A4202D8C2898A4210D2806880B15A
:10D3100002888A420DD843888B420AD3406800EBCA
:10D320008100A0EB8200B0F90000002801DB0120A1
:10D3300070470020704700002DE9F0432F4C034652
:10D3400087B020681946B0F92A80C069C06900F02A
:10D3500084F800284ED041680088181A01EBC005F7
:10D360004046AE7805F07EFE814620686A6801235B
:10D37000816BCDE90236CDE90421C169CB7E8A7E7D
:10D38000CDE900230B7EB0F924102A78B0F92200F1
:10D3900005F0E2F92068C069477E067EB7421DD9D4
:10D3A000C07E47434643B8F1020F17D001F0C1FFDA
:10D3B000804601F0A1FF03F03FF921682A78CB698C
:10D3C000B1F92200DB7E12FB0302B1F92410CB1964
:10D3D000314405F04FFB404603F02EF9484605F076
:10D3E00041FE20686A78C369B0F922109B7E12FB67
:10D3F0000311418407B0BDE8F0830000EC08002071
:10D4000030B50F4C05460B4620682946C069C069F7
:10D4100000F023F8002811D04168008824682A1AF7
:10D420000120E46900EBC200085CA47E10FB04F05C
:10D43000002B03D011F832106143196030BD000099
:10D44000EC08002001200880704700B5C06900F09A
:10D4500004F8002800D0012000BD06E002888A42BE
:10D4600002D842888A4202D280680028F6D17047EA
:10D4700010B516F06BFD0448016A04480068C166E7
:10D4800000F10801416110BD0C0D0020EC080020E6
:10D490002DE9FE4F05460C9C0E464FEA4400A2EBD8
:10D4A000050198461746091A61D4A8EB0601081A27
:10D4B0005DD4DFF8C0A04FF00009DAF8000090F862
:10D4C000711019B910F8709F042101700EF052FD0F
:10D4D00005440EF05DFD06440EF04CFD07440EF0D1
:10D4E00057FDDAF8002000EB080192F8710030B91E
:10D4F00092F870004543464347434143444392F802
:10D5000070007F1E00EB07084718761E284600F0C3
:10D5100041F8ADF80400404600F03CF8ADF80800D2
:10D52000304600F037F8ADF80600384600F032F823
:10D53000ADF80A0001A80EF07FFD0EE04146284636
:10D5400000F07CF83B46424631462846009416F0EF
:10D55000C3F9FFF78DFF0EF0EDFC0028EED1DAF8ED
:10D56000000090F87110002901D180F87090BDE89A
:10D57000FE8F0000EC08002008B50091B0F90630DD
:10D58000B0F90420B0F90210B0F90000FFF780FFF5
:10D5900008BD00000449096891F8701009B190FBBA
:10D5A000F1F000B270470000EC0800202DE9F041D6
:10D5B0001E4C05460E462068002768B905F037FB6B
:10D5C000E06100F0C1F8206068B304F1240118485C
:10D5D0000860084604F008FC002D00DA0025E16927
:10D5E000731B4A1E2046934201DD6E18761EAE4222
:10D5F00001DA2E4601270F4C2268D16E4B688363F7
:10D6000001620A490C4B34310B60D16602C862C01A
:10D6100010F0BAFAFCF7C8FA044821682C304861C7
:10D620003846BDE8F0810127D6E700000C0D002048
:10D63000A1790208EC08002055260208044A126865
:10D6400092F8702090FBF2F091FBF2F1FFF7AEBF81
:10D65000EC080020F8B505460C000DD0084600F097
:10D6600015F8060010D000F0F9F8224600902DB110
:10D670002946FAF7B0FE04E00020F8BD002104F0CE
:10D6800067FC684600F034F93046F8BD002801D048
:10D690000FF036BB704738B50546FFF7F7FF0400BB
:10D6A00009D000F0DBF82A460021009004F050FC7D
:10D6B000684600F01DF9204638BD0000024A10609F
:10D6C00021F00300506070471429002010B5002895
:10D6D00014D004460A48006B10F8341000290DD00D
:10D6E00002290BD2042101EBC401415848680FF014
:10D6F00055F92046BDE810401CF036BB10BD0000B7
:10D7000058280020002805D0034A916B016001B120
:10D7100048609063704700005828002010B5044608
:10D720000068FFF7D3FF0020206010BD70B50D46E4
:10D730000646002405E000BF06EB8400FFF7EEFF7D
:10D74000641CAC42F8DB70BD2DE9F041044618F0D2
:10D75000ADFF2648E41C24F00305C16B2D1DA94232
:10D7600000D90D46846B13E054F8042CAA420ED164
:10D7700084B1216809B162684A60616809B12268B0
:10D780000A60826BA2422ED1216881632BE024685B
:10D79000002CE9D18046416B80680F1857F8040CC3
:10D7A0003E1A306838B100201CF0BAFD57F8040C5E
:10D7B0003E1A3068B8B97068A84214DB3044441B84
:10D7C00030461CF065FDD8F80810491BC8F8081051
:10D7D000D8F810102944C8F8101070683146401B62
:10D7E0000FF0DCF820C42046BDE8F0815828002066
:10D7F00010B5002418F05AFF0C490F2001EBC002AD
:10D80000126C1AB101EBC000006C08E0401EF5D5A7
:10D8100008E04168A14200D90C46806810B18068D8
:10D820000028F6D1A4F10C0010BD000058280020FB
:10D83000024881680068081A7047000058280020D4
:10D84000002138B10449042202EBC000096B0858DA
:10D8500041680C39084670475828002005498A69F4
:10D86000521C8A61096B01EBC0010A78521C0A70D4
:10D8700000F056B8582800207CB506460C460846ED
:10D88000FFF704FF05001CD0DEB13046FFF7D8FFDC
:10D89000A04200DA04462846FFF7E0FF0090304639
:10D8A000FFF7DCFF0146019022460098FAF793FD4E
:10D8B000684600F01DF801A800F01AF83046FFF79E
:10D8C00005FF28467CBD000010B5FFF791FF6422DC
:10D8D0000649B0F5800F04D990FBF2F0C9694843BE
:10D8E00010BDC9694143B1FBF2F010BD58280020BA
:10D8F0000A4902680B6B52F8082C03EBC20213783A
:10D90000022B03D38B690BB15B1E8B611178491E0F
:10D91000117000210160084670470000582800205F
:10D92000002806D00349042202EBC000096B085806
:10D9300008307047582800202DE9FC414FF00006C0
:10D940000B465FEA000834462BD032B11146184628
:10D95000FFF780FE060000D101244046FFF77EFF5E
:10D960000090078845686846FFF7C2FFCCB9B90048
:10D97000091D2846FFF780FF050015D0FFF76EFF51
:10D98000019040F8276001A8FFF7B2FF4046FFF77B
:10D9900065FF009045600188491C01806846FFF7DB
:10D9A000A7FF2046BDE8FC813046FFF78FFE01242B
:10D9B000F7E70820FFF76FBE7CB5050023D0FFF71F
:10D9C0004DFF00904068C0B1FFF748FF0024019070
:10D9D00005E0019800EB8400FFF7A0FE641C0098AE
:10D9E0000088A042F5DC01A8FFF782FF0098001D27
:10D9F000FFF794FE0099002008806846FFF778FF43
:10DA00002846FFF763FE7CBD1CB50C46FFF726FFDA
:10DA100000900188A1421CD94068D0B1FFF71EFFD9
:10DA2000019000EB8400FFF779FE00990888401E02
:10DA300080B20880401E019906E000BF01EB84021D
:10DA4000526841F82420641C8442F7DD01A8FFF7E6
:10DA50004FFF6846FFF74CFF1CBD38B5002430B1BE
:10DA6000FFF7FCFE009004886846FFF741FF204660
:10DA700038BD38B50D46002448B1FFF7EFFE294602
:10DA8000009000F05BF804466846FFF731FF20463F
:10DA900038BD38B50D46002448B1FFF7DFFE2946F2
:10DAA000009000F05DF804466846FFF721FF20462D
:10DAB00038BD2DE9FE43984691460D460024D0B36B
:10DAC000FFF7CCFE01900788466801A8FFF710FF1A
:10DAD000BD4230D27EB33046FFF7C0FE009050F812
